:100000000C94AB0C0C94D30C0C94D30C0C94D30C1C
:100010000C94D30C0C94D30C0C94D30C0C94D30CE4
:100020000C94D30C0C94D30C0C9401310C948831A7
:100030000C94D30C0C94D30C0C94D30C0C94D30CC4
:100040000C94D30C0C94D30C0C94D30C0C94D30CB4
:100050000C943F280C94D30C0C94D30C0C94B12921
:100060000C94D30C0C94D30C0C94D30C0C94D30C94
:100070000C94D30C0C94D30C0C94D30C0C94D30C84
:100080000C94D30C0C94D30C0C94D30C0C94D30C74
:100090000C94421D0C94D30C0C94D30C0C94D30CE4
:1000A0000C94D30C0C94D30C0C94D30C2C202272F3
:1000B000616D223A002C2022646D223A002C20220D
:1000C0006470223A002C20227368756E74223A0004
:1000D0002C20226D7768223A007D2C20226D6168E9
:1000E000223A002C2022617667223A002C20226DD1
:1000F000696E223A007D2C202276223A7B20226DE6
:100100006178223A002C2022617667223A002C2066
:10011000226D696E223A007B202261223A7B2022E6
:100120006D6178223A003000442D3A2000442B3A89
:1001300020004100410030005065616B3A00300002
:100140005065616B3A006D412900562028004D69C9
:100150006E3A00562920006D412028005065616BE1
:100160003A005065616B202D204D696E73006D4122
:100170000056202620004020005065616B3A200088
:100180006D4168006D57682000456E657267792083
:100190005573616765006D4120005620007D007B2E
:1001A0002256223A007D007B2257223A007B225AB7
:1001B000223A224F4B227D007D007B2253223A00BF
:1001C0007D007B202252223A00FFD0FFE0FFC1FFDA
:1001D000D1AED580A83FD300408D142002A1C8DA4B
:1001E0001281CFD9F1DB402EA4A6AFFFD0FFFEFFD6
:1001F000E0FFD11000FFFEFFE0FFD1AEFFD1FFFE18
:10020000FFE0FFD1AFFF32FFD1FFFE000A1400FC78
:100210000D024A049920FFFC10FC0DFC0000000AAE
:100220000010020D0D0A0400C0C0C0C0C0C0C0C094
:10023000C0C000C0C00604040A0209CCCCCC4809E6
:100240000B160A01011B001B001B007F80360036C5
:10025000003600FF006C006C006C00080D0D0A01F8
:1002600000187EDBD8D8D87E1B1B1BDB7E18090C40
:10027000180A01007300DB00DE0076000C000C00A1
:100280001800180037003D806D806700090D1A0ABC
:10029000010038006C006C006C00780030007000C9
:1002A000D800CD80C700C600EF0079800205050A9E
:1002B0000408C0C0C0C080050D0D0A0300183060DE
:1002C00060C0C0C0C0C060603018050D0D0A0200DB
:1002D000C06030301818181818303060C008070790
:1002E0000A010366663CFF3C66660807070A0103CD
:1002F000181818FF1818180403030A03FF7070E099
:100300000801010A0106FF0303030A0400E0E0E01C
:10031000070C0C0A020006060C0C1818303060603E
:10032000C0C0080D0D0A0100183C6666C3C3C3C3F4
:10033000C366663C18080D0D0A0100183878D818F5
:1003400018181818181818FF080D0D0A01003C6637
:10035000C3C30303061C3060C0C0FF080D0D0A01B3
:10036000003C66C3C303061C0603C3C3663C080DFA
:100370000D0A010002060E1E3666C6C6FF060606F8
:1003800006080D0D0A0100FFC0C0C0C0DCE6030373
:1003900003C3663C080D0D0A01003C66C2C0C0DC08
:1003A000E6C3C3C3C3663C080D0D0A0100FF030387
:1003B00006060C0C181830306060080D0D0A01009C
:1003C0003C66C3C3C3663C66C3C3C3663C080D0D2D
:1003D0000A01003C66C3C3C3C3673B030343663CD7
:1003E0000308080A0400E0E000000000E0E004095F
:1003F000090A03FF7070000000007070E0070D0D27
:100400000A010002060C183060C06030180C0602A9
:100410000806060A0103FF00000000FF070D0D0A91
:10042000020080C06030180C060C183060C08008D4
:100430000D0D0A01003C66C3C3C3060C1818180052
:100440001818080D0D0A01003C66C3CFDFDBDBDBAB
:10045000DECCC0633E080D0D0A0100183C6666C381
:10046000C3C3FFC3C3C3C3C3080D0D0A0100F8CC47
:10047000C6C6C6CCFCC6C3C3C3C6FC080D0D0A0164
:10048000003C66C3C0C0C0C0C0C0C0C3663C080D4D
:100490000D0A0100FCC6C3C3C3C3C3C3C3C3C3C6E1
:1004A000FC080D0D0A0100FFC0C0C0C0C0FCC0C0E8
:1004B000C0C0C0FF080D0D0A0100FFC0C0C0C0C011
:1004C000FCC0C0C0C0C0C0080D0D0A01003C66C31E
:1004D000C0C0C0CFC3C3C3C3673D080D0D0A010030
:1004E000C3C3C3C3C3C3FFC3C3C3C3C3C3080D0DC7
:1004F0000A0100FF1818181818181818181818FFEB
:10050000090D1A0A01001F800600060006000600F9
:100510000600060006000600C600C6006C00380093
:10052000080D0D0A0100C3C3C6C6CCCCF8CCCCC69E
:10053000C6C3C3080D0D0A0100C0C0C0C0C0C0C002
:10054000C0C0C0C0C0FF080D0D0A0100C3C3E7E76B
:10055000FFDBDBDBDBC3C3C3C3080D0D0A0100C334
:10056000E3E3F3F3DBDBCFCFC7C7C3C3080D0D0A4B
:1005700001003C66C3C3C3C3C3C3C3C3C3663C0853
:100580000D0D0A0100FCC6C3C3C3C3C6FCC0C0C076
:10059000C0C0080E0E0A01FF3C66C3C3C3C3C3C379
:1005A000C3DBCF663E03080D0D0A0100FCC6C3C3C2
:1005B000C3C3C6FCCCC6C6C3C3080D0D0A01003CAC
:1005C00066C3C0C0603C060303C3663C080D0D0A49
:1005D0000100FF18181818181818181818181808F3
:1005E0000D0D0A0100C3C3C3C3C3C3C3C3C3C3C385
:1005F000663C080D0D0A0100C3C3C3C36666663CB2
:100600003C3C181818080D0D0A0100C3C3C3C3C32E
:10061000DBDBDBDBE7E7C3C3080D0D0A0100C3C367
:1006200066663C3C183C3C6666C3C3080D0D0A0177
:1006300000C3C366663C3C18181818181818080D33
:100640000D0A0100FF0303060C0C18303060C0C017
:10065000FF060D0D0A0200FCC0C0C0C0C0C0C0C073
:10066000C0C0C0FC070C0C0A0200C0C06060303083
:1006700018180C0C0606060D0D0A0200FC0C0C0CDA
:100680000C0C0C0C0C0C0C0CFC0804040A010918D2
:100690003C66C30901020A01FFFF800403030A0349
:1006A0000AC060300808080A01003E63037FC3C324
:1006B000C37D080D0D0A0100C0C0C0C0C0DCE6C388
:1006C000C3C3C3E6DC0808080A01003E63C0C0C01B
:1006D000C0633E080D0D0A010003030303033B67DB
:1006E000C3C3C3C3673B0808080A01003C66C3FFD5
:1006F000C0C0633E080D0D0A01001E33333030FCCC
:1007000030303030303030080C0C0A01FC7DC7C668
:10071000C6C67CC07EC3C3C37E080D0D0A0100C0DF
:10072000C0C0C0C0DCE6C3C3C3C3C3C3080B0B0A4D
:10073000010018180078181818181818FF070F0F5C
:100740000A02FC0606001E06060606060606C6C6C1
:10075000C67C080D0D0A0100C0C0C0C0C0C6CCD800
:10076000F0F8CCC6C3080D0D0A0100781818181847
:1007700018181818181818FF0808080A0100B6FFFA
:10078000DBDBDBDBDBDB0808080A0100DCE6C3C3DC
:10079000C3C3C3C30808080A01003C66C3C3C3C37C
:1007A000663C080C0C0A01FCDCE6C3C3C3C3E6DCF0
:1007B000C0C0C0C0080C0C0A01FC3B67C3C3C3C364
:1007C000673B030303030808080A0100DE73606047
:1007D000606060600808080A01007EC3C07E0303F1
:1007E000C37E080B0B0A0100303030FC3030303053
:1007F00030331E0808080A0100C3C3C3C3C3C3675C
:100800003B0808080A0100C3C366663C3C18180888
:1008100008080A0100C3C3C3DBDBDBFF6608080866
:100820000A0100C3663C18183C66C3080C0C0A0198
:10083000FCC3C3C3C3C3C3673B03C3663C07080809
:100840000A0200FE060C183060C0FE080D0D0A01F9
:10085000000F1818181818F018181818180F020D8B
:100860000D0A0400C0C0C0C0C0C0C0C0C0C0C0C06D
:10087000C0080D0D0A0100F018181818180F1818E4
:10088000181818F00803030A010A73DBCEFFFFFFF4
:10089000FFFFFFFFFFFFFFFFFFFFFFFFFFFFFFFF68
:1008A000FFFFFFFFFFFFFFFFFFFFFFFFFFFF000056
:1008B000000A0010020D0D0A0400C0C000C0C0C034
:1008C000C0C0C0C0C0C0C0070C0C0A010018183C52
:1008D00066C2C0C0C2663C1818090C180A01001E86
:1008E000003300330030003000FC003000300030B6
:1008F00000F800AD80E7000909120A00018080DDE0
:10090000807F006300630063007F00DD80808008DB
:100910000B0B0A010081C3663C7E187E181818185C
:10092000020D0D0A0400C0C0C0C0C0000000C0C05D
:10093000C0C0C0080D0D0A01003C66C66078CC66D8
:10094000331E0663663C0602020A020BCCCC080B7F
:100950000B0A01003C66C3BDA5A1A5BDC3663C084A
:1009600009090A01043E43037FC3C37D00FF090B4D
:10097000160A000004800D801B0036006C00D800B1
:100980006C0036001B000D8004800804040A01047A
:10099000FFFF03030601010A0206FC080B0B0A0114
:1009A000003C66C3BDA5BDA9ADC3663C0801010AF4
:1009B000010DFF0606060A02073078CCCC78300815
:1009C00007070A01021818FF181800FF0507070A91
:1009D000020670D8183060C0F80507070A020670D2
:1009E000D8183018D8700403030A030A3060C0070F
:1009F0000A0A0A01FDC6C6C6C6C6EEFAC0C0C008CD
:100A00000D0D0A01007FFFFBFBFB7B1B1B1B1B1B50
:100A10001B1B0303030A0405E0E0E00504040A02CB
:100A2000FC3018D8700407070A020660E0606060B6
:100A300060F00709090A0104386CC6C6C66C3800A4
:100A4000FE090B160A01009000D8006C0036001B4E
:100A5000000D801B0036006C00D8009000080C0CC4
:100A60000A010140C04142E40812264A9E020208DF
:100A70000C0C0A010140C04142E4081629418204DD
:100A80000F080C0C0A0101E0106112E40812264A5A
:100A90009F0202080D0D0A010018180018181830DE
:100AA00060C3C3C3663C080F0F0A01006030180022
:100AB000183C66C3C3C3FFC3C3C3C3080F0F0A01F7
:100AC00000060C1800183C66C3C3C3FFC3C3C3C3EE
:100AD000080F0F0A0100183C6600183C66C3C3C328
:100AE000FFC3C3C3C3080F0F0A0100327E4C0018B6
:100AF0003C66C3C3C3FFC3C3C3C3080F0F0A0100CF
:100B0000666600183C6666C3C3C3FFC3C3C3C3089D
:100B100010100A01003C66663C00183C66C3C3C363
:100B2000FFC3C3C3C3080D0D0A01001F3C6C6CCC8E
:100B3000CCFFCCCCCCCCCCCF0811110A01FC3C664C
:100B4000C3C0C0C0C0C0C0C0C3663C180C6C38086D
:100B50000F0F0A010060301800FFC0C0C0C0FCC009
:100B6000C0C0C0FF080F0F0A01000C183000FFC002
:100B7000C0C0C0FCC0C0C0C0FF080F0F0A010018F1
:100B80003C6600FFC0C0C0C0FCC0C0C0C0FF080FB2
:100B90000F0A010066660000FFC0C0C0C0FCC0C0F4
:100BA000C0C0FF060F0F0A020060301800FC303092
:100BB00030303030303030FC060F0F0A0200183071
:100BC0006000FC303030303030303030FC060F0FF9
:100BD0000A02003078CC00FC303030303030303019
:100BE00030FC060F0F0A0200CCCC00FC3030303055
:100BF000303030303030FC090D1A0A00007E0063BE
:100C0000006180618061806180F9806180618061C4
:100C100080618063007E00080F0F0A0100327E4C65
:100C200000C3E3F3F3DBDBCFCFC7C3C3080F0F0A67
:100C3000010030180C003C66C3C3C3C3C3C3C36602
:100C40003C080F0F0A01000C1830003C66C3C3C3F8
:100C5000C3C3C3C3663C080F0F0A0100183C6600FB
:100C60003C66C3C3C3C3C3C3C3663C080F0F0A01BA
:100C700000327E4C003C66C3C3C3C3C3C3C3663CDF
:100C8000080F0F0A01006666003C66C3C3C3C3C3F6
:100C9000C3C3C3663C0708080A010082C66C383823
:100CA0006CC682080F0F0A01FF013E66C7C7CBCB97
:100CB000CBD3D3D3E3667C80080F0F0A0100301832
:100CC0000C00C3C3C3C3C3C3C3C3C3663C080F0F75
:100CD0000A01000C183000C3C3C3C3C3C3C3C3C3DA
:100CE000663C080F0F0A0100183C6600C3C3C3C36B
:100CF000C3C3C3C3C3663C080F0F0A010066660086
:100D0000C3C3C3C3C3C3C3C3C3C3663C080F0F0A73
:100D100001000C183000C3C366663C3C1818181854
:100D200018070D0D0A0200C0C0C0FCC6C6C6C6C664
:100D3000FCC0C0C0080D0D0A01001C36636366ECE0
:100D40006C66636363666C080C0C0A010030180C57
:100D5000007EC3037FC3C3C37D080C0C0A01000CD3
:100D60001830007EC3037FC3C3C37D080C0C0A0187
:100D700000183C66007EC3037FC3C3C37D080C0C10
:100D80000A0100327E4C007EC3037FC3C3C37D08CB
:100D90000B0B0A01006666007EC3037FC3C3C37DDD
:100DA000080D0D0A01003C66663C007EC3037FC34C
:100DB000C3C37D0808080A0100769B1B1E78D8D99A
:100DC0006E080C0C0A01FC3E63C0C0C0C0633E1834
:100DD0000C6C38080C0C0A0100603018003C66C32B
:100DE000FFC0C0633E080C0C0A0100060C18003C52
:100DF00066C3FFC0C0633E080C0C0A0100183C66C5
:100E0000003C66C3FFC0C0633E080B0B0A010066CE
:100E100066003C66C3FFC0C0633E080C0C0A0100BC
:100E20006030180078181818181818FF080C0C0AE9
:100E300001000C18300078181818181818FF080C42
:100E40000C0A0100183C660078181818181818FFCA
:100E5000080B0B0A01006666007818181818181895
:100E6000FF080D0D0A010088D87070D88C3E67C34A
:100E7000C3C3663C080C0C0A0100327E4C00DCE661
:100E8000C3C3C3C3C3C3080C0C0A010060301800FD
:100E90003C66C3C3C3C3663C080C0C0A0100060CC5
:100EA00018003C66C3C3C3C3663C080C0C0A0100AF
:100EB000183C66003C66C3C3C3C3663C080C0C0AFE
:100EC0000100327E4C003C66C3C3C3C3663C080BC2
:100ED0000B0A01006666003C66C3C3C3C3663C08D8
:100EE0000A0A0A010118180000FFFF00001818087C
:100EF0000A0A0A01FF013E66CBCBD3D3667C800889
:100F00000C0C0A010030180C00C3C3C3C3C3C36771
:100F10003B080C0C0A0100060C1800C3C3C3C3C372
:100F2000C3673B080C0C0A0100183C6600C3C3C32E
:100F3000C3C3C3673B080B0B0A0100666600C3C34B
:100F4000C3C3C3C3673B0810100A01FC0C18300070
:100F5000C3C3C3C3C3C3673B03C3663C0711110AC2
:100F600002FCC0C0C0C0C0C0F8CCC6C6C6CCF8C069
:100F7000C0C0C0080F0F0A01FC666600C3C3C3C32C
:100F8000C3C3673B03C3663C01060C00FE07013583
:100F9000026B20FFFE0AFE08FE0C0060221767802D
:100FA000808080800080173363A0A0A00256665026
:100FB000F85050F8500159692070A8A07028A87006
:100FC00020025767C8C8102040989802576740A071
:100FD000A040A89068271363808080113969204061
:100FE000408080804040201139698040402020208E
:100FF00040408002576720A8702070A820035565E4
:101000002020F820200133636060C0055161F81290
:101010002262C0C00257670810102040408012476B
:10102000676090909090906012376740C040404059
:1010300040E0025767708808102040F8025767F8B0
:1010400008103008887002576710305090F8101060
:10105000025767F880F008088870025767304080B0
:10106000F0888870025767F8081010202020025777
:1010700067708888708888700257677088887808D9
:101080001060122565C0C000C0C0013666606000F7
:101090006060C01335652040804020045363F80031
:1010A000F813356580402040800257677088102013
:1010B0002000200257677088B8A8B8807002576770
:1010C000708888F8888888025767F04848704848D0
:1010D000F002576770888080808870025767F048F8
:1010E00048484848F0025767F88080F08080F8024E
:1010F0005767F88080F08080800257677088808012
:10110000988870025767888888F8888888123767B7
:10111000E04040404040E002576738101010109007
:10112000600257678890A0C0A090880257678080AF
:1011300080808080F802576788D8A88888888802CD
:1011400057678888C8A898888802576770888888F1
:10115000888870025767F08888F08080800257671F
:1011600070888888A89068025767F08888F0A090F7
:101170008802576770888070088870025767F82067
:10118000202020202002576788888888888870025D
:1011900057678888888850502002576788888888D1
:1011A000A8A850025767888850205088880257673F
:1011B00088885020202020025767F808102040809F
:1011C000F8113969E080808080808080E002576774
:1011D00080404020101008113969E0202020202094
:1011E0002020E0075363205088005161F8173363D3
:1011F00080402002556570087888780257678080A3
:10120000F0888888F002556570888088700257677A
:10121000080878888888780255657088F0807002A0
:101220005767304840E040404000576770888888E2
:101230007808700257678080F0888888881237673E
:101240004000C0404040E0104969100030101010CC
:1012500010906002576780808890E090881237670E
:10126000C04040404040E0025565D0A8A8A8A80270
:101270005565B0C888888802556570888888700070
:101280005767F0888888F08080005767788888885A
:10129000780808025565B0C880808002556578805E
:1012A0007008F00257672020F820202018025565AA
:1012B0008888889868025565888888502002556516
:1012C0008888A8A850025565885020508800576724
:1012D00088888850204080025565F8102040F81119
:1012E0003969204040408040404020211969808079
:1012F000808080808080801139698040404020401B
:1013000040408004536348A890FFFFFFFFFFFFFFAA
:10131000FFFFFFFFFFFFFFFFFFFFFFFFFFFFFFFFDD
:10132000FFFFFFFFFFFFFFFFFFFF0C0060221767BB
:10133000800080808080800157672070A8A0A870FE
:1013400020025767304840E04048B0025565A85039
:101350008850A80257678850F820F8202022176785
:1013600080808000808080124868708060909060EB
:1013700010E0193161A0026767788494A49484789E
:1013800016356560A06000E00255652850A0502821
:10139000035363F80808153161E00267677884B485
:1013A000A4A48478095161F81744646090906002A5
:1013B00057672020F8202000F817356540A020400E
:1013C000E0173565C0204020C017336320408000FF
:1013D000576788888898E8808002586878E8E8E845
:1013E00068282828252262C0C010326220C0173524
:1013F0006540C04040E017356540A04000E0025520
:1014000065A0502850A0025A6A40C0404050305059
:10141000781010025A6A40C0404050280810203806
:10142000025A6AC0204020D030507810100257670E
:1014300020002020408870025A6A4020007088886E
:10144000F8888888025A6A102000708888F888888E
:1014500088025A6A205000708888F8888888025A62
:101460006A68B000708888F88888880259695000D6
:10147000708888F8888888025A6A20502070888886
:10148000F888888802576778A0A0F0A0A0B8005913
:1014900069708880808088701060025A6A402000DD
:1014A000F88080F08080F8025A6A102000F880806E
:1014B000F08080F8025A6A205000F88080F0808026
:1014C000F80259695000F88080F08080F8123A6A7A
:1014D000804000E04040404040E0123A6A20400036
:1014E000E04040404040E0123A6A40A000E0404006
:1014F000404040E0123969A000E04040404040E0F8
:10150000025767704848E8484870025A6A68B00055
:101510008888C8A8988888025A6A402000708888FD
:1015200088888870025A6A102000708888888888A5
:1015300070025A6A20500070888888888870025A21
:101540006A68B0007088888888887002596950007D
:101550007088888888887003556588502050880175
:101560005969087098A8A8A8C87080025A6A4020D3
:101570000088888888888870025A6A1020008888C5
:101580008888888870025A6A2050008888888888ED
:101590008870025969500088888888888870025A43
:1015A0006A1020008888502020202012476780E0A1
:1015B000909090E080025767708890A09088B00269
:1015C0005868402000700878887802586810200019
:1015D00070087888780258682050007008788878F9
:1015E00002586868B0007008788878025767500021
:1015F00070087888780258682050207008788878B9
:10160000025565702870A0780057677088808870D0
:1016100010600258684020007088F080700258689E
:101620001020007088F08070025868205000708888
:10163000F0807002576750007088F0807012386830
:10164000804000C0404040E0123868204000C04068
:101650004040E012386840A000C0404040E01237EF
:1016600067A000C0404040E002596950205008780F
:101670008888887002586868B000B0C88888880276
:1016800058684020007088888870025868102000D0
:101690007088888870025868205000708888887028
:1016A00002586868B00070888888700257675000D8
:1016B00070888888700355652000F8002002556501
:1016C0007898A8C8F00258684020008888888870F8
:1016D0000258681020008888888870025868205056
:1016E00000888888887002576750008888888870CA
:1016F000005A6A102000888888502040800059696C
:101700008080F0888888F08080005969500088883F
:10171000885020408000000000240027002A002D6F
:1017200000300000000000250028002B002E0031B2
:1017300000000000002300260029002C002F0004D8
:101740000404040403040502020202040302020268
:101750000206060606060604040202020404080243
:101760000110408040102040804080080204018029
:1017700040201002011080102040400000000200B4
:10178000080E0000030401000B0000000000000030
:10179000000000000000000000070605040100082A
:1017A0000A0B0C0D09080B000202020100090400DB
:1017B00000010202000005240010010524010101BE
:1017C00004240206052406000107058103100040D9
:1017D00009040100020A000000070502024000009F
:1017E000070583024000000403090422034100723C
:1017F000006400750069006E006F0020004C0065F9
:10180000006F006E006100720064006F00180341F9
:101810000072006400750069006E006F0020004CCB
:10182000004C00430012010002000000404123363A
:10183000800001010200011201000202000040418B
:1018400023368000010102000100C18081C1050131
:101850000902A1010901A100850105091901290356
:101860001500250195037501810295017505810318
:1018700005010930093109381581257F750895035F
:101880008106C0C005010906A1018502050719E00E
:1018900029E7150025017501950881029501750854
:1018A000810395067508150025650507190029654A
:1018B0008100C009040200010300000009210101A8
:1018C00000012265000705840340000100000000BC
:1018D000000000002A2B280000000000000000008B
:1018E0000000000000000000000000002C9EB4A0DA
:1018F000A1A2A434A6A7A5AE362D3738271E1F20D7
:10190000212223242526B333B62EB7B89F8485869B
:101910008788898A8B8C8D8E8F90919293949596DF
:101920009798999A9B9C9D2F3130A3AD350405065D
:101930000708090A0B0C0D0E0F10111213141516BF
:101940001718191A1B1C1DAFB1B0B500EC0DDE1B2A
:10195000292C3D30543311241FBECFEFDAE0DEBF17
:10196000CDBF11E0A0E0B1E0E8EBFEE602C00590DB
:101970000D92A83CB107D9F715E0A8ECB1E001C081
:101980001D92AE35B107E1F719E1C6E5D9E104C012
:101990002297FE010E945637CC34D107C9F70E9426
:1019A000F42C0C945A370C940000FC0188279927DA
:1019B000E89421912032E9F3293010F02E30C8F359
:1019C0002B3241F02D3239F4689404C00E94FA0C95
:1019D000820F911D219120532A30C0F31EF490955F
:1019E00081959F4F0895FB01DC0101900D9200202D
:1019F000E1F708957AE0979F902D879F802D910DB4
:101A0000112408956F927F928F929F92AF92BF920E
:101A1000CF92DF92EF92FF920F931F93CF93DF93BA
:101A20005B016C01E090C902CE2DD0E0FE01EE0F0B
:101A3000FF1FEE5AFE4F6081718180E090E00E94AE
:101A40005F359B01AC01C601B5010E9466361816D0
:101A500014F580916001C82FD0E0219707C0E3946E
:101A60008E2D90E08C179D0709F46AC0EE2DF0E0F2
:101A7000EE0FFF1FEE5AFE4F6081718180E090E013
:101A80000E945F359B01AC01C601B5010E9466361C
:101A900018162CF355C0EE2009F463C0CC0FDD1FDF
:101AA000C05BDE4F6881798180E090E00E945F3505
:101AB0009B01AC01C601B5010E94C23488230CF021
:101AC00041C000916101015000936101C601B5015F
:101AD0002091CA023091CB024091CC025091CD02AC
:101AE0000E946636181644F4A092CA02B092CB0245
:101AF000C092CC02D092CD02002399F56090CA0228
:101B00007090CB028090CC029090CD0205C0EA94F8
:101B100019F41092C90216C0EE2DF0E0EE0FFF1F6F
:101B2000E05BFE4F6081718180E090E00E945F3554
:101B30009B01AC01C401B3010E94C23487FDE7CF11
:101B4000E092C90280E88093610180E090E0A0E02B
:101B5000B0E08093CA029093CB02A093CC02B093E2
:101B6000CD020091C80210E07801EE0CFF1C88EC59
:101B700091E0E80EF91EC601B5010E943335F70168
:101B8000718360830F5F1F4F0F7710700093C8023F
:101B9000DF91CF911F910F91FF90EF90DF90CF9049
:101BA000BF90AF909F908F907F906F900895FF921D
:101BB0000F931F938C01262FFC01F3AC04966F2D1D
:101BC00044AD0E944E24F80EF801F3AE81E090E09F
:101BD0001F910F91FF900895EF92FF920F938EEC5B
:101BE00092E06AE041E00E94822980E093E060E4B4
:101BF0000E94F11E10920C0310920B035BE0E52E85
:101C000053E0F52E83E991E0F701929382937F01EF
:101C1000CF0166E771E041E125E009E00E940F2075
:101C20008BE891E0F701918380830F91FF90EF9013
:101C300008958EE580937C0062E070E080E090E0A3
:101C40000E94072A80917A00806480937A008091B4
:101C50007A0086FDFCCF8091780060917900362F64
:101C600020E090E0282B392B442737FD4095542F56
:101C700064EB7BE281E190E00E943937CA01B9014F
:101C80000895DF92EF92FF920F931F937B018C01D7
:101C9000D42E20E030E04AE754E40E94C234882386
:101CA00034F489E093E060E071E00E948D2EC80179
:101CB000B70120E030E048EC52E40E94C2348823AF
:101CC00034F489E093E060E071E00E948D2EC80159
:101CD000B70120E030E040E251E40E94C2348823A2
:101CE00034F489E093E060E071E00E948D2E89E099
:101CF00093E0B801A7012D2D30E00E94742F1F91B1
:101D00000F91FF90EF90DF900895DF92EF92FF9296
:101D10000F931F93D42E20E030E040E05FE30E9459
:101D20005E340E949C357B018C0120E030E04AE764
:101D300054E40E94C234882334F489E093E060E0E4
:101D400071E00E948D2EC801B70120E030E048EC20
:101D500052E40E94C234882334F489E093E060E0C6
:101D600071E00E948D2EC801B70120E030E040E212
:101D700051E40E94C234882334F489E093E060E0A7
:101D800071E00E948D2E89E093E0B801A7012D2D0E
:101D900030E00E94742F1F910F91FF90EF90DF9021
:101DA000089540E00E94850E08950F931F931092AE
:101DB000440380E4809345034091530350915403BE
:101DC000609155037091560309E013E0C80122E0C9
:101DD00030E00E94742FC8016AE971E00E94312D41
:101DE00060914F0370915003809151039091520381
:101DF0000E94D10EC80166E971E00E94312D609108
:101E00004F037091500380915103909152032091A0
:101E100053033091540340915503509156030E944F
:101E20006A3620E030E04AE754E40E94C63442E0DB
:101E30000E94410EC80162E071E00E948D2E1F9148
:101E40000F910895DF93CF9300D0CDB7DEB786E32F
:101E500095E067E171E00E94312D40917B03509144
:101E60007C0360917D0370917E0386E395E022E020
:101E700030E00E94742F86E395E06EE071E00E94EE
:101E8000312D40917F0350918003609181037091C7
:101E9000820386E395E022E030E00E94742F86E31F
:101EA00095E065E071E00E94312D40918B035091E7
:101EB0008C0360918D0370918E0386E395E022E0A0
:101EC00030E00E94742F86E395E065EF70E00E9499
:101ED000312D40918303509184036091850370916B
:101EE000860386E395E022E030E00E94742F86E3CB
:101EF00095E06CEE70E00E94312D40918703509187
:101F000088036091890370918A0386E395E022E05B
:101F100030E00E94742F86E395E063EE70E00E944B
:101F2000312D40918F0350919003609191037091F6
:101F3000920386E395E022E030E00E94742F86E36E
:101F400095E069ED70E00E94312D40915B03509166
:101F50005C0360915D0370915E0386E395E022E08F
:101F600030E00E94742F86E395E060ED70E00E94FF
:101F7000312D40915703509158036091590370914E
:101F80005A0386E395E022E030E00E94742F86E356
:101F900095E065EC70E00E94312D4091470350912F
:101FA00048036091490370914A0386E395E022E07B
:101FB00030E00E94742F86E395E06DEB70E00E94A4
:101FC000312D40915F0350916003609161037091E6
:101FD000620386E395E022E030E00E94742F86E3FE
:101FE00095E065EB70E00E94312D409163035091C4
:101FF0006403609165037091660386E395E022E0D7
:1020000030E00E94742F86E395E06CEA70E00E9455
:10201000312D80915A0590915B05009711F48EE562
:1020200095E0BE016F5F7F4F681B790B86E395E0FB
:102030004AE050E00E947A2E86E395E064E071E089
:102040000E94772F0F900F90CF91DF91089580918C
:10205000A20390E02091940330919503281739074B
:10206000B8F01092440380E1809345038DE093E043
:102070006BE072E00E94A82389E093E066E973E0D8
:102080000E948D2E8DE093E068E87FE00E94A823F7
:1020900008959C018091A103882399F4709395037E
:1020A0006093940386E993E0B9010E94F30C81E008
:1020B0008093A103809193038093A00386E0809393
:1020C000930308958F3F21F0813009F066C05BC013
:1020D00086E091E06AE070E00E94491080E090E0C4
:1020E000A0E0B0E08093670390936803A093690336
:1020F000B0936A0380936B0390936C03A0936D037A
:10210000B0936E03209153033091540340915503D3
:102110005091560320936601309367014093680104
:102120005093690120914F03309150034091510326
:102130005091520320936F033093700340937103C7
:10214000509372038093730390937403A093750369
:10215000B09376038093770390937803A0937903E9
:10216000B0937A038093570390935803A093590335
:10217000B0935A0380935B0390935C03A0935D0339
:10218000B0935E0308958091930390E0019666E01A
:1021900070E00E9404378093930308954F925F92FA
:1021A0006F927F928F929F92AF92BF92CF92DF9267
:1021B000EF92FF920F931F93CF93DF934B015C013C
:1021C000EA01122F82E38093440380E18093450368
:1021D0008DE093E06BE072E00E94A823123010F5CE
:1021E000C501B40120E030E04AE754E40E94C23463
:1021F000882334F489E093E060E071E00E948D2E42
:10220000112381F4C501B40120E030E44CE156E42F
:102210000E94C234882334F489E093E060E071E0E6
:102220000E948D2EC501B40120E030E048EC52E45C
:102230000E94C234882334F489E093E060E071E0C6
:102240000E948D2EC501B40120E030E040E251E44F
:102250000E94C234882334F489E093E060E071E0A6
:102260000E948D2E89E093E0B501A401212F30E07A
:102270000E94742F89E093E0BE010E948D2E8DE0B4
:1022800093E068E87FE00E94A8238DE093E060E09F
:1022900048E120E804E1EE24E3940E94AD2781E0C8
:1022A000C230D80709F0D9C01092440387E0809368
:1022B000450389E093E060E471E00E94312D1092C3
:1022C000440380E18093450360917303709174032C
:1022D0008091750390917603209177033091780374
:1022E0004091790350917A030E946A3620E030E0F1
:1022F0004AE754E40E94C634AB01BC0189E093E094
:1023000022E030E00E94742F89E093E0BE010E9439
:102310008D2EC501B4012AE939E941E251E40E9458
:10232000663618167CF422EF32ED4DE45EE30F2E94
:10233000FDECCF2EFCECDF2EF8ECEF2EF1E4FF2EBF
:10234000F02D27C0C501B4012DEC3CEC4CE85FE357
:102350000E94663618167CF02CEB34E743E15CE310
:102360000F2EFDECCF2EFCECDF2EFCE8EF2EFFE372
:10237000FF2EF02D0EC02EE93FEE47E25DE30F2E5B
:10238000F3E3CF2EF3E3DF2EF3EAEF2EF0E4FF2E9C
:10239000F02DC501B4010E94C6342B013C0102E0BE
:1023A00010E0B801882777FD8095982F0E9461354D
:1023B000A30192010E94C23418163CF08DE093E014
:1023C000602F4AE120E10E9455270F5F1F4F0F3712
:1023D000110539F78DE093E060E04CE228E00E94BF
:1023E000552781E08093440314E31093450389E06B
:1023F00093E06EE371E00E94312D8DE093E060E4A4
:102400004CE228E00E94552780E280934403109319
:102410004503C701B60120E030E040E05FE30E94E1
:102420006A36AB01BC0189E093E022E030E00E9413
:10243000742F81E6809344031093450389E093E071
:10244000B701A60122E030E00E94742F8DE093E0F6
:102450006FE74CE228E00E94552781E0CC30D80796
:1024600009F0F1C01092440387E08093450389E0AE
:1024700093E068E371E00E94312D1092440380E103
:10248000809345034091670350916803609169030D
:1024900070916A0389E093E022E030E00E94742F9B
:1024A00089E093E0BE010E948D2EE091C902F0E028
:1024B000EE0FFF1FEE5AFE4F6081718180E090E0C9
:1024C0000E945F3520E030E04EEF52E40E94C634B7
:1024D0006B017C01C501B401A70196010E94C634BD
:1024E0002B013C0102E010E0B801882777FD8095C0
:1024F000982F0E946135A30192010E94C2341816E0
:102500003CF08DE093E0602F4AE120E10E945527E6
:102510000F5F1F4F0E37110539F7609167037091F8
:1025200068038091690390916A03A70196010E9454
:10253000C6340E9433359B01AC018DE093E0622FDD
:102540004AE120E10E9455278DE093E060E04CE2F3
:1025500028E00E94552781E08093440314E3109300
:10256000450389E093E066E371E00E94312D8DE040
:1025700093E060E44CE228E00E94552780E28093DB
:10258000440310934503E091C902F0E0EE0FFF1FF2
:10259000EE5AFE4F6081718180E090E00E945F35CD
:1025A00020E030E040E050E00E945E3420E030E087
:1025B0004AE754E40E94C63420E030E040E05FE3A4
:1025C0000E946A36AB01BC0189E093E022E030E072
:1025D0000E94742F89E093E064E371E00E94312D42
:1025E00081E68093440310934503E091C902F0E033
:1025F000EE0FFF1FEE5AFE4F6081718180E090E088
:102600000E945F3520E030E040E050E00E945E3400
:1026100020E030E04AE754E40E94C634AB01BC013C
:1026200089E093E022E030E00E94742F89E093E09B
:1026300062E371E00E94312D8DE093E06FE74CE2A0
:1026400028E00E945527CF50D14009F0D6C0109203
:10265000440387E08093450389E093E06DE271E0F5
:102660000E94312D40915F0350916003609161039E
:102670007091620389E093E022E030E00E94742FC1
:102680001092440380E18093450389E093E068E27F
:1026900071E00E94312D4091630350916403609179
:1026A00065037091660389E093E022E030E00E94C8
:1026B000742FC501B4012AE939E941E451E40E94CB
:1026C000663618167CF42DE33AE047E55EE30F2EFC
:1026D000F0E0CF2EF0E0DF2EF0EDEF2EF1E4FF2E54
:1026E000F02D27C0C501B40123E333E343EA50E4EE
:1026F0000E94663618167CF02EE93FEE47E25DE355
:102700000F2EF3E3CF2EF3E3DF2EF3EAEF2EF0E408
:10271000FF2EF02D0EC029E334EB48EC5DE30F2EC5
:10272000FAE9CF2EF9E9DF2EF1E4EF2EF1E4FF2EE6
:10273000F02DC501B4010E94C6344B015C0102E0DA
:1027400010E0B801882777FD8095982F0E946135A9
:10275000A50194010E94C23418163CF08DE093E06C
:10276000602F4AE120E10E9455270F5F1F4F0F376E
:10277000110539F78DE093E060E04CE228E00E941B
:10278000552781E08093440314E31093450389E0C7
:1027900093E066E271E00E94312D8DE093E060E409
:1027A0004CE228E00E94552780E280934403109376
:1027B0004503C701B60120E030E040E05FE30E943E
:1027C0006A36AB01BC0189E093E022E030E00E9470
:1027D000742F81E6809344031093450389E093E0CE
:1027E000B701A60122E030E00E94742F8DE093E053
:1027F0006FE74CE228E00E945527DF91CF911F91AF
:102800000F91FF90EF90DF90CF90BF90AF909F908F
:102810008F907F906F905F904F900895EF92FF920E
:102820000F931F93B4E4EB2EB3E0FB2E8CE1809367
:10283000440387E08093450387010B531040C80190
:1028400062E671E00E94312D89EC9FEFE80EF91EDF
:10285000C70160E047E020E80E942228109244036C
:1028600081E180934503C8016CE571E00E94312D40
:1028700060916703709168038091690390916A0386
:102880000E94D10EC80167E571E00E94312D409190
:102890006B0350916C0360916D0370916E03C801DE
:1028A00022E030E00E94742FC80163E571E00E94CD
:1028B000312D1092440380E280934503C8016EE4F9
:1028C00071E00E94312D4091660150916701609145
:1028D000680170916901C80122E030E00E94742F04
:1028E000C8016AE471E00E94312D40916F0350915C
:1028F00070036091710370917203C80122E030E0AF
:102900000E94742FC80166E471E00E94312DC70156
:1029100060E045E320E80E9422281F910F91FF907C
:10292000EF900895DF92EF92FF920F931F9394E43C
:10293000E92E93E0F92E8CE18093440387E08093A5
:10294000450387010B531040C80169E871E00E94FC
:10295000312D89EC9FEFE80EF91EC70160E047E0DA
:1029600020E80E9422281092440381E1D82ED092C0
:1029700045036091570370915803809159039091DA
:102980005A0342E00E94850EC80164E871E00E948B
:10299000312D80E480934403D092450360915B0322
:1029A00070915C0380915D0390915E0342E00E9410
:1029B000850EC80160E871E00E94312D1092440339
:1029C00080E280934503C80169E771E00E94312DE0
:1029D00060917303709174038091750390917603F5
:1029E00020917703309178034091790350917A03D5
:1029F0000E946A3620E030E04AE754E40E94C63480
:102A0000AB01BC01C80122E030E00E94742FC80174
:102A100062E071E00E948D2E1092440388E2809360
:102A20004503C80166E771E00E94312D40917303B0
:102A3000509174036091750370917603C80122E090
:102A400030E00E94742FC80161E771E00E94312DCF
:102A500040917703509178036091790370917A03E4
:102A6000C80122E030E00E94742FC8016EE671E0D8
:102A70000E94312DC70160E045E320E80E94222832
:102A80001F910F91FF90EF90DF9008954F925F920A
:102A90006F927F928F929F92AF92BF92CF92DF926E
:102AA000EF92FF920F931F93992466E3462E512CC9
:102AB000612C712C56E3852E00D000D0E091C80225
:102AC000F0E0E90DF11DEF77F070EE0FFF1FE85316
:102AD000FE4F6081718180E090E0E091C902F0E0FA
:102AE000EE0FFF1FEE5AFE4FE080F18000E010E095
:102AF000EDB7FEB7418252826382748220E030E0FB
:102B000040E050E0AA24BB2465010E94D1320F901E
:102B10000F900F900F90482D461B8DE093E0692D8C
:102B20000E94A1259394F0E89F1631F688E68093E1
:102B3000440387E080934503E091C902F0E0EE0F83
:102B4000FF1FEE5AFE4F6081718180E090E00E948D
:102B50005F3520E030E040E050E00E945E3420E04D
:102B600030E04AE754E40E94C634AB01BC0189E07E
:102B700093E022E030E00E94742F1F910F91FF90AC
:102B8000EF90DF90CF90BF90AF909F908F907F900D
:102B90006F905F904F9008958091E8028A3309F01A
:102BA000A0C08091E702863509F485C0873534F4EA
:102BB000823559F0833509F094C02DC0873509F46A
:102BC00051C08A3509F08DC045C089EE92E00E945F
:102BD000D50C90936301809362018639910530F49E
:102BE00086E990E0909363018093620186E395E02B
:102BF00062EC71E00E94312D60916201709163017D
:102C000086E395E04AE050E00E94172E86E395E0C7
:102C100060EC71E04DC08091E902992787FD9095A5
:102C2000C19766E070E00E9404378093930386E3C7
:102C300095E06AEB71E00E94312D86E395E06091AA
:102C400093034AE050E00E94282E86E395E068EB6B
:102C500071E02EC08FEF0E94621086E395E06DEA6E
:102C600071E026C089EE92E00E94D50C9C01909301
:102C7000510180935001215D374030F080ED97E0A5
:102C8000909351018093500186E395E067EA71E0EB
:102C90000E94312D609150017091510186E395E0C1
:102CA0004AE050E00E94172E86E395E065EA71E065
:102CB0000E94742D089586E395E06FE971E00E940B
:102CC000312D86E395E046E656E666E070E422E0C4
:102CD00030E00E94742F86E395E06DE971E00E9478
:102CE000742D0895CF93DF93EC018DAD882331F4DB
:102CF00081E08DAFCE0104960E947B25CE01049623
:102D00000E948B25DF91CF910895AF92BF92CF9211
:102D1000DF92EF92FF920F931F93CF93DF938EEC8E
:102D200092E00E9401290E94F9295B016C018091C7
:102D3000FC029091FD02A091FE02B091FF02A6015B
:102D40009501281B390B4A0B5B0B80916401909114
:102D50006501A0E0B0E082179307A407B50708F06B
:102D6000D3C00E94190E0E94613520E030E04AE78E
:102D700054E40E94C6347B018C0183E10E94B62A90
:102D8000AA2797FDA095BA2FBC01CD010E946135FD
:102D9000A80197010E946A3620E030EC4FE754E426
:102DA0000E94C63460935F03709360038093610355
:102DB0009093620382E10E94B62AAA2797FDA0950C
:102DC000BA2FBC01CD010E946135A80197010E9474
:102DD0006A3620E030EC4FE754E40E94C63460933A
:102DE000630370936403809365039093660360911B
:102DF0004F037091500380915103909152030E94B0
:102E0000020D809193038630B9F44091A203242FE0
:102E100030E080919403909195038217930720F0FE
:102E20004F5F4093A20308C08091A0038093930357
:102E30001092A2031092A10389E093E00E947216FF
:102E4000809193038330A9F0843028F4813059F0C5
:102E5000823060F446C08530A9F1853028F1863093
:102E600009F03FC03BC00E9492143DC00E940E1466
:102E70003AC060914F03709150038091510390913B
:102E800052032091530330915403409155035091C4
:102E900056030E946A3620E030E04AE754E40E947C
:102EA000C63442E051E018C060914F037091500366
:102EB00080915103909152034CE051E020E00E9438
:102EC000CE1011C06091530370915403809155034B
:102ED000909156034FE051E022E0F1CF0E9427107D
:102EE00002C00E9446150E94D50E8DE093E00E941C
:102EF0009125882309F0A4CFA092FC02B092FD0294
:102F0000C092FE02D092FF028091F8029091F902E5
:102F1000A091FA02B091FB02A6019501281B390B82
:102F20004A0B5B0B8091620190916301A0E0B0E0DD
:102F300082179307A407B50708F08CC00E94220FE0
:102F400020E030E040E050E020937B0330937C03AE
:102F500040937D0350937E0380914F0390915003E3
:102F6000A0915103B091520380937F03909380030B
:102F7000A0938103B093820320938303309384034F
:102F8000409385035093860380915303909154039B
:102F9000A0915503B09156038093870390938803C3
:102FA000A0938903B0938A0380914F0390915003BB
:102FB000A0915103B091520380938B0390938C03A3
:102FC000A0938D03B0938E0380915303909154038B
:102FD000A0915503B091560380938F039093900373
:102FE000A0939103B093920381E090E0A0E0B0E061
:102FF00080936A0190936B01A0936C01B0936D0173
:10300000A092F802B092F902C092FA02D092FB02AA
:1030100021C08091F702C82FD0E086E395E00E949E
:10302000062CC951DD4F88838091F702282F30E0AC
:10303000F901E951FD4F80818A3031F410820E94FC
:10304000CC151092F70206C02F5F3F4F2F703070E3
:103050002093F70286E395E00E94DF2B892BC9F6C7
:103060008AE00E94AE2BD82EE0904F03F0905003E0
:1030700000915103109152036091500170915101E0
:1030800080E090E00E945F359B01AC01C801B70170
:103090000E94663687FF02C0DD2069F08DE061E0A6
:1030A0000E947B2B8091CE029091CF02009731F04D
:1030B0000E94621003C08DE060E0F2CFDF91CF91FB
:1030C0001F910F91FF90EF90DF90CF90BF90AF9046
:1030D00008952F923F924F925F926F927F928F92BC
:1030E0009F92AF92BF92CF92DF92EF92FF920F9397
:1030F0001F93DF93CF9300D000D0CDB7DEB75D9A9A
:10310000789480E093E00E94D11F6093470370930E
:1031100048038093490390934A0380E093E00E9420
:10312000FE1F60934B0370934C0380934D03909369
:103130004E0380E093E00E94981F60934F037093CA
:1031400050038093510390935203E0904B03F0900F
:103150004C0300914D0310914E0360914703709111
:1031600048038091490390914A0320E030E04AE708
:1031700054E40E94C6349B01AC01C801B7010E940F
:103180005E3460935303709354038093550390937C
:103190005603E0905703F0905803009159031091A3
:1031A0005A0360914B0370914C0380914D039091B1
:1031B0004E0320914F0330915003409151035091A1
:1031C00052030E946A3620E030E543EC57E40E9447
:1031D0006A3620E034E244E759E40E94C63420E035
:1031E00030E041E655E40E94C6349B01AC01C801C1
:1031F000B7010E945E346093570370935803809325
:10320000590390935A03E0905B03F0905C030091A4
:103210005D0310915E0360914F03709150038091A4
:1032200051039091520320E030E543EC57E40E94B3
:103230006A3620E034E244E759E40E94C63420E0D4
:1032400030E041E655E40E94C6349B01AC01C80160
:10325000B7010E945E3460935B0370935C038093BC
:103260005D0390935E0360914F03709150038091D2
:1032700051039091520320917B0330917C03409144
:103280007D0350917E030E946636181684F4809167
:103290004F0390915003A0915103B091520380933A
:1032A0007B0390937C03A0937D03B0937E03609196
:1032B0004F037091500380915103909152032091DC
:1032C0007F033091800340918103509182030E94DB
:1032D000C234882384F480914F0390915003A091CD
:1032E0005103B091520380937F0390938003A09386
:1032F0008103B093820360915303709154038091D2
:10330000550390915603209183033091840340919B
:103310008503509186030E946636181684F48091C6
:10332000530390915403A0915503B0915603809399
:10333000830390938403A0938503B09386036091E5
:10334000530370915403809155039091560320913B
:103350008703309188034091890350918A030E942A
:10336000C234882384F48091530390915403A09134
:103370005503B09156038093870390938803A093DD
:103380008903B0938A03E0908B03F0908C03009143
:103390008D0310918E03A0906A01B0906B01C090D4
:1033A0006C01D0906D01C601B5010E945F351B0113
:1033B0002C0160904F0370905003809051039090C7
:1033C00052030894A11CB11CC11CD11CC601B5013B
:1033D0000E945F3569837A838B839C83C801B70120
:1033E000A20191010E946A36A40193010E945E34F9
:1033F00029813A814B815C810E94C63460938B03A2
:1034000070938C0380938D0390938E0360918F0350
:10341000709190038091910390919203E0905303F7
:10342000F09054030091550310915603A2019101AD
:103430000E946A36A80197010E945E3429813A8170
:103440004B815C810E94C63460938F03709390031C
:103450008093910390939203A0926A01B0926B01C2
:10346000C0926C01D0926D0160914F037091500336
:10347000809151039091520320916703309168032A
:103480004091690350916A030E946636181604F54C
:1034900080914F0390915003A0915103B09152033A
:1034A0008093670390936803A0936903B0936A03C2
:1034B0008091530390915403A0915503B09156030A
:1034C00080936B0390936C03A0936D03B0936E0392
:1034D000609153037091540380915503909156036A
:1034E0002091660130916701409168015091690116
:1034F0000E94C234882304F58091530390915403B1
:10350000A0915503B0915603809366019093670193
:10351000A0936801B093690180914F03909150038B
:10352000A0915103B091520380936F039093700365
:10353000A0937103B093720360917303709174034D
:1035400080917503909176032091770330917803F1
:103550004091790350917A03A0905303B0905403A3
:10356000C0905503D090560360904F037090500365
:1035700080905103909052030E946A367B018C0127
:10358000C601B501A40193010E946A369B01AC01FA
:10359000C801B7010E94C234882304F58091530307
:1035A00090915403A0915503B091560380937303F7
:1035B00090937403A0937503B093760380914F03A7
:1035C00090915003A0915103B091520380937703DF
:1035D00090937803A0937903B0937A035D980F904A
:1035E0000F900F900F90CF91DF911F910F91FF904F
:1035F000EF90DF90CF90BF90AF909F908F907F9093
:103600006F905F904F903F902F9008951F938DE0A3
:1036100061E00E94EE2A8DE061E00E947B2B84E154
:1036200090E0A0E0B0E08093D1029093D202A0930A
:10363000D302B093D4028AEF90E0A0E0B0E0809390
:10364000D5029093D602A093D702B093D80280ED12
:1036500097E0A0E0B0E08093D9029093DA02A093C3
:10366000DB02B093DC0286E395E060E072EC0E943E
:10367000DE2B80E093E00E94451F8DE093E068E838
:103680007FE00E94A8238DE093E061E00E94BB25CB
:1036900080E0E82FF0E0EE0FFF1FE853FE4F1182AD
:1036A00010828F5F8038A9F789E093E00E9472163C
:1036B00018E28DE093E062E04AE021E131E00E940F
:1036C00026248DE093E065E044E120E231E00E94B1
:1036D00026248DE093E065E04EE121E331E00E9495
:1036E000262485E0809344031093450389E093E00A
:1036F00046E656E666E070E422E030E00E94742F71
:103700008DE093E00E949125882399F660ED77E0A3
:1037100080E090E00E94072A8DE060E00E947B2B11
:1037200083EE94E040EA56E861E070E00E94DA2817
:1037300083EE94E069E678E12FEF3FEF4FEF5FEF24
:103740000E94E2281F91089581E08093E80360932E
:10375000C5031092E6031092E70308952091C40375
:1037600030E08091C303281B3109C90108954091BD
:10377000C3038091C403481718F02FEF3FEF0AC02E
:10378000E42FF0E0ED55FC4F8081282F30E04F5FB3
:103790004093C303C9010895E091C3038091C4031A
:1037A000E81718F0EFEFFFEF06C0F0E0ED55FC4F23
:1037B0008081E82FF0E0CF01089508951092EC0386
:1037C0001092EB0388EE93E0A0E0B0E08093ED036D
:1037D0009093EE03A093EF03B093F0038BE991E095
:1037E0009093EA038093E9030895CF92DF92EF92DA
:1037F000FF920F931F93CF93DF937C016B018A019C
:103800008091E8038823A1F0C0E0D0E00DC0D7018B
:10381000ED91FC91D601AC0FBD1F0190F081E02D20
:10382000C7016C9109952196C017D10780F304C098
:10383000CB01642F0E94271DC801DF91CF911F91FA
:103840000F91FF90EF90DF90CF900895DF93CF938B
:103850000F92CDB7DEB7FC0169838091E80388231E
:10386000C9F08091E703803238F081E090E09383E3
:10387000828320E030E015C08091E603E82FF0E07D
:10388000EA53FC4F998190838F5F8093E603809386
:10389000E70305C0CE01019661E00E94271D21E0EB
:1038A00030E0C9010F90CF91DF9108950F93062F5B
:1038B0008091C50366EC73E04091E70321E00E942C
:1038C000D21C1092E6031092E7031092E8030F91C6
:1038D000089561E00E94561C0895413208F040E2CC
:1038E000862F63EA73E00E94891C1092C3038093C1
:1038F000C403089521E00E946D1C08951092C30333
:103900001092C4031092E6031092E7030E94D31EA4
:103910000895382F413210F040E042C08091F50305
:103920008823E1F791E09093F5032093F7038FEF5D
:103930008093620410921D04415040931E044F5F17
:103940009093F6038091F603330F832B8093F60355
:103950008091F803813041F41092F8038091F603CE
:103960008093BB0085EC01C085EE8093BC00809104
:10397000F5038130E1F380911D04841710F4409128
:103980001D0420E030E00AC0FB01E20FF31FD90163
:10399000A350BC4F8C9180832F5F3F4F2417A0F31F
:1039A000842F08950F931F93582F122F413210F038
:1039B00081E04AC08091F5038823E1F782E080939B
:1039C000F5030093F7038FEF8093620410921D04B8
:1039D00040931E04ADEFB3E0FB0102C081918D93D3
:1039E0008E2F861B8417D0F31092F6038091F60376
:1039F000550F852B8093F6038091F803813041F4B5
:103A00001092F8038091F6038093BB0085EC01C00F
:103A100085EE8093BC00112321F08091F503823064
:103A2000E1F3809162048F3F11F480E00DC080913A
:103A30006204803211F482E007C080916204803316
:103A400011F084E001C083E01F910F910895482F89
:103A5000613210F081E008958091F503843011F017
:103A600082E0089560934004AFE1B4E0842F9C01AC
:103A7000F90102C081918D938E2F841B8617D0F39C
:103A800080E008951F920F920FB60F9211242F938A
:103A90003F934F935F936F937F938F939F93AF93D6
:103AA000BF93EF93FF938091B90090E0887F90706F
:103AB0008036910509F4F2C081369105CCF5883243
:103AC000910509F47BC089329105B4F480319105E8
:103AD00009F46FC0813191053CF4009709F447C1A6
:103AE000089709F04FC165C08831910509F466C097
:103AF000809709F047C182C08034910509F4A4C0C1
:103B00008134910544F48033910509F482C0C8974B
:103B100009F038C189C08035910509F489C088351C
:103B2000910509F496C08834910509F02BC1AEC007
:103B30008839910509F413C189399105ECF4883766
:103B4000910509F4ABC0893791054CF4883691058D
:103B500009F4A4C08037910509F014C19FC08838CA
:103B6000910509F4FCC08039910509F49DC08038A5
:103B7000910509F007C198C0803B910509F4C6C0C2
:103B8000813B91054CF4803A910509F49FC0883A35
:103B9000910509F0F7C0BAC0803C910509F4E3C073
:103BA000883C910509F4DFC0883B910509F0EAC023
:103BB000C2C08091F6038093BB00CFC090911D04DA
:103BC00080911E04981768F490911D04E92FF0E08D
:103BD000E350FC4F80818093BB009F5F90931D0456
:103BE000BCC08091F703882309F44BC085ED809316
:103BF000BC008091BC0084FDFCCFC2C080E28093F9
:103C0000620485ED8093BC008091BC0084FDFCCFF4
:103C1000B7C080E38093620485ED8093BC008091FF
:103C2000BC0084FDFCCFACC088E3809362049BC0E1
:103C300080911D049091BB00E82FF0E0E350FC4F11
:103C400090838F5F80931D0490911D0480911E04CA
:103C500082C080911D049091BB00E82FF0E0E350FA
:103C6000FC4F90838F5F80931D048091F70388231E
:103C700041F085ED8093BC008091BC0084FDFCCFB9
:103C80007FC081E08093F80384EA6EC085ED809365
:103C9000BC008091BC0084FDFCCF72C083E08093A7
:103CA000F5031092610459C080916104803208F0DC
:103CB00056C0809161049091BB00E82FF0E0EF5B6B
:103CC000FB4F90838F5F8093610447C080916104B4
:103CD000803230F4E0916104F0E0EF5BFB4F108242
:103CE00085ED8093BC008091BC0084FDFCCF1092D8
:103CF000F50360916104E091FB03F091FC0381E422
:103D000094E070E00995109261042DC084E08093E6
:103D1000F50310923F0410924004E091F903F091F2
:103D2000FA03099580914004882329F481E0809367
:103D3000400410921F0490913F04E92FF0E0E15EEF
:103D4000FB4F80818093BB009F5F90933F049091D5
:103D50003F0480914004981710F485EC01C085E879
:103D60008093BC000FC085EC8093BC0009C010920A
:103D7000620485ED8093BC008091BC0084FDFCCF83
:103D80001092F503FF91EF91BF91AF919F918F91A9
:103D90007F916F915F914F913F912F910F900FBE47
:103DA0000F901F9018951092F50381E08093F70310
:103DB0001092F80382E061E00E947B2B83E061E0D7
:103DC0000E947B2BE9EBF0E080818E7F80838081F5
:103DD0008D7F808388E48093B80085E48093BC0065
:103DE0000895FC016083118212821382148215826D
:103DF0001682178210860895DF92EF92FF920F933A
:103E00001F93FC01D62E7A0109EE13E0C8016081F0
:103E10000E94A41BC8016D2D0E94261CC8016F2D95
:103E20000E94261C8FEFE822FF24C8016E2D0E94FD
:103E3000261CC8010E94691C1F910F91FF90EF90F2
:103E4000DF9008950F931F938C018AE090E0A0E02B
:103E5000B0E0F80181839283A383B48382E090E091
:103E6000A0E0B0E085839683A783B087C80165E0B2
:103E700040E050E10E94FC1EC80160E04FE15CE3BD
:103E80000E94FC1E1F910F9108950F931F938C01A8
:103E900089EE93E00E947E1CC8010E94221F1F91A0
:103EA0000F910895AF92BF92DF92EF92FF920F931E
:103EB0001F937C01D62E5A0109EE13E0C801F701C9
:103EC00060810E94A41BC8016D2D0E94261CC801A0
:103ED0000E94691CC801F701608142E00E947A1CBF
:103EE000C8010E94B71BF82EC8010E94B71B3F2DC6
:103EF00020E0280F391FF501318320831F910F9196
:103F0000FF90EF90DF90BF90AF900895DF93CF9335
:103F100000D0CDB7DEB764E0AE014F5F5F4F0E94C7
:103F2000521F89819A810F900F90CF91DF91089550
:103F3000CF92DF92EF92FF920F931F936C010E943A
:103F4000861FAA2797FDA095BA2FBC01CD010E941C
:103F500061357B018C01F6016181728183819481DD
:103F60000E945F359B01AC01C801B7010E94C634B5
:103F70001F910F91FF90EF90DF90CF900895DF9306
:103F8000CF9300D0CDB7DEB761E0AE014F5F5F4F9A
:103F90000E94521F89819A810F900F90CF91DF91DB
:103FA00008950E94BF1FAA2797FDA095BA2FBC01B4
:103FB000CD010E9461352AE037ED43E25CE30E94C7
:103FC0006A360895DF93CF9300D0CDB7DEB762E0B5
:103FD000AE014F5F5F4F0E94521F29813A8193E0EB
:103FE000369527959A95E1F7220F331F220F331F3D
:103FF000C9010F900F90CF91DF9108950E94E21FA9
:10400000AA2797FDA095BA2FBC01CD010E9461356A
:104010002FE632E143E85AE30E946A3608950F938F
:10402000FC0113AE14AE15AE04960E94E8250F9164
:104030000895DF92EF92FF920F931F93CF93DF9338
:10404000EC01D62EF42E122FE0FE0EC0622F6D0D65
:10405000402F4F19CE010E94A125612F6F0D402FD7
:104060004D19CE010E94A125E1FE0EC0612F6D19F0
:10407000402F4F19CE010E94A125612F6F19402FAB
:104080004D19CE010E94A125E3FE0EC0612F6D0DDA
:10409000402F4F0DCE010E94A125612F6F0D402FA3
:1040A0004D0DCE010E94A125E2FE0EC0612F6D19BB
:1040B000402F4F0DCE010E94A1251F190D0DCE01DD
:1040C000612F402F0E94A125DF91CF911F910F9169
:1040D000FF90EF90DF9008956F927F928F929F9262
:1040E000AF92BF92CF92DF92EF92FF920F931F9306
:1040F000DF93CF930F92CDB7DEB73C01862E942E7F
:104100002983A02E11E0121BB22EB194BB0C60E0EB
:10411000422F282D092DEA2C0E941920D980FF2436
:1041200023E0C22E12C017FD04C0DA9482E0B80E5C
:104130001B0DF3941C0DC3016F2D4D2D282D092D42
:10414000EA2C0E941920E2E0CE0EFD1460F30F90DD
:10415000CF91DF911F910F91FF90EF90DF90CF9063
:10416000BF90AF909F908F907F906F9008950F9326
:10417000FC014150040F4F5F94A986A9841718F0E1
:10418000091728F402C0091798F0041788F4615041
:10419000260F6F5F93A985A9861718F0291718F0C5
:1041A00005C0291728F080E0261718F481E001C027
:1041B00080E00F910895FB010480F581E02D61E01E
:1041C00020E030E009950895FB010480F581E02DA1
:1041D00063E020E030E009950895FB010480F5815B
:1041E000E02D64E040E020E030E009950895FB0117
:1041F0000480F581E02D64E041E020E030E00995A5
:104200000895FB010480F581E02D62E020E030E0BC
:1042100009950895FB010480F581E02D65E020E01B
:1042200030E009950895FB010480F581E02D66E0FA
:1042300009950895CF92DF92EF92FF920F931F930B
:10424000CF93DF937C01EB016A0100E0F60114914A
:10425000002361F41F3F11F401E045C0C701BE0116
:10426000412F0E940A218823F1F541C01F3F41F4EC
:10427000C701BE014FEF0E940A21882399F537C07C
:104280001E3F11F481E034C0103F60F5103E38F05D
:104290001F70C701BE01412F0E94012123C0103DA4
:1042A00038F01F70C701BE01412F0E94E4201AC0E0
:1042B000103C80F0C701BE010E94ED201295107FD6
:1042C0001E5F812F90E00E941E22C701BE010E9446
:1042D000F72004C01E3B30F417FD04C0812F90E08E
:1042E0000E941E2200E00894C11CD11CAFCF80E0C8
:1042F000DF91CF911F910F91FF90EF90DF90CF90C2
:1043000008951F93CF93DF93EC01A39610E088816B
:104310008F3F39F061E00E94EE2A888161E00E94BF
:104320007B2B1F5F21961D3091F7DF91CF911F915D
:104330000895FC01E60FF11D83A18F3F19F0642F52
:104340000E947B2B08950F931F93CF93DF93EC0173
:10435000162F042F643009F445C0653040F46230F4
:1043600081F1633080F5613009F062C009C06630C8
:1043700009F445C06630E8F1673009F059C04CC017
:104380000E9481218FE061E00E94EE2A8FE060E0D0
:104390000E947B2B80E161E00E94EE2A80E160E0D8
:1043A0000E947B2B81E161E00E94EE2A81E161E0C5
:1043B0000E947B2B1CBC80E58CBD0230C8F51DBD66
:1043C00037C061E014C0442319F462E041E007C043
:1043D00064E040E00E949921CE0162E040E00E944A
:1043E000992126C08BA18F3F19F1CE0160E0402FAB
:1043F000F6CF4EBD0DB407FEFDCF8EB519C0F90145
:1044000008C080818EBD0DB407FEFDCF31968EB5FC
:1044100001500023B1F70CC0F90108C084918EBD92
:104420000DB407FEFDCF8EB5319601500023B1F7D4
:1044300081E0DF91CF911F910F9108952EE93FE028
:1044400004C0F9013197F1F701970097D1F708956A
:10445000AF92BF92CF92DF92EF92FF920F93DF93D2
:10446000CF9300D0CDB7DEB77C015B01042F69018B
:104470004031C9F1413118F44A30F1F505C04131FC
:10448000A9F14531C9F50AC042E00E94DB20C7010D
:10449000B50149EC51E00E941A212EC0FB010280B7
:1044A000F381E02DFA83E9834FEE51E00E941A2157
:1044B000E981FA814481406BC701B5010E940A215C
:1044C000C701B50141E00E94012189819A81B701AC
:1044D000A5010E9466268823A9F0C701B50140E026
:1044E0000E94E42009C047EF51E002C040E052E0E2
:1044F0000E941A2181E006C0C701B501402F960134
:104500000E94D1260F900F90CF91DF910F91FF90D5
:10451000EF90DF90CF90BF90AF900895FC01E60F31
:10452000F11D8491382F20E03196E4912E0F311D3A
:10453000C9010895FC01849108950E949A2288235C
:1045400021F0823011F083E0089586E0089566E05E
:104550000E948E22089568E00E948E220895FC0138
:104560003A96E4918E2F0895FC013B96E4918E2FAC
:1045700008959F92AF92BF92CF92DF92EF92FF92F7
:104580000F931F93CF93DF93EC01C62EFC80ED8039
:104590000F2D1E2D8F2D9E2D0E949A22B82E8F2D0D
:1045A0009E2D0E949D22982E81E0B81619F48FE06E
:1045B000A82E02C0AA24AA948F2D9E2D0E94B42258
:1045C000D82E80E68C1558F48F2D9E2D0E94AB229C
:1045D000009729F0F801E80FF91F81E614C080E484
:1045E0008C1558F48F2D9E2D0E94A722009729F03C
:1045F000F801E80FF91F81E406C08F2D9E2D0E945F
:10460000AF22F8017196DC1408F445C0D81608F4FE
:1046100042C0282F492D50E094919F3F11F43196CC
:1046200036C02C1509F02BC0BB2019F082E0B8165B
:1046300081F484918B8B319684918C8B329684910A
:10464000888B31968491898B3196849135978A8BAA
:1046500029C0892F8F7082508A8B92959F70998B79
:1046600031968491982F9F709C8B82958F708B8B45
:1046700031968491329782958F70888B13C03296D1
:10468000849132978A21E80FF11DE40FF51F2D1553
:1046900011F02F5FC1CF188A1B8A1C8A198A1A8AC7
:1046A000E0E0F0E0CF01DF91CF911F910F91FF90FB
:1046B000EF90DF90CF90BF90AF909F900895DC0176
:1046C0001496ED91FC911597309709F438C05796E0
:1046D0008C915797882339F43596849158968C930A
:1046E000589737960AC0813011F43F9601C03D9625
:1046F000849158968C9358973196849159968C93BF
:10470000599758968C915897282F332727FD309525
:1047100059968C915997992787FD9095281B390BAD
:104720005A968C915A97803441F0289F9001112419
:1047300096E0369527959A95E1F75B962C93089528
:1047400080E0089520EA33E2FC01368B258B089542
:10475000CF93DF93EC018C819D818617970749F0F9
:104760007D836C83CE010E945F2380EA93E29E8B5F
:104770008D8BDF91CF9108954F925F926F927F92D0
:104780008F929F92AF92BF92CF92DF92EF92FF9261
:104790000F931F93CF93DF937C01062FB42E622FCC
:1047A0000E94B922EC01009711F480E03EC0F701AD
:1047B000C480D580138974888188800E82899B2C5F
:1047C0009718981AC701682D492D212F072D0E948F
:1047D000B720882341F1C6010E949D2267E0A62EE2
:1047E000A10EA694A694A6946E01C80ED11CBB245B
:1047F0004A2C552411C0FE010491C701612F462D9A
:1048000020E00E94AA252196185F9E012C192A15E6
:1048100090F3C40CD51CB3946B2C690CB71418F42A
:10482000E601182DF2CFF7018089DF91CF911F911A
:104830000F91FF90EF90DF90CF90BF90AF909F903F
:104840008F907F906F905F904F900895DF92EF92DE
:10485000FF920F931F93CF93DF938C01D62EE42EFC
:10486000E901DC015596ED91FC9156970995E80E0A
:10487000FF2408C0C8016D2D4E2D0E94BC23D80E08
:10488000F80E219628812223A9F78F2DDF91CF9151
:104890001F910F91FF90EF90DF900895DF92EF92BC
:1048A000FF920F931F938C01E62EF42ED22EDC0183
:1048B0005596ED91FC9156970995F80EC8016E2D0D
:1048C0004F2D2D2D0E94BC231F910F91FF90EF9033
:1048D000DF900895EF92FF920F931F938C017B015D
:1048E000DC01D196ED91FC91D29782E00995D70138
:1048F000ED91FC91C801B7014AE020E030E0099554
:10490000F82ED801D196ED91FC91D29783E00995CC
:10491000D801D196ED91FC91D29780E009958F2D29
:104920001F910F91FF90EF900895EF92FF920F93D8
:104930001F938C017B01DC01D196ED91FC91D29704
:1049400082E00995D801D196ED91FC91D29781E052
:104950000995D701ED91FC91C801B70144E120E030
:1049600030E0099598012D5C3F4FD701ED91FC9106
:10497000C801B70147E10995D801D196ED91FC91A5
:10498000D29780E009951F910F91FF90EF900895C5
:10499000FF920F931F93CF93DF93EC018B01E9A953
:1049A000FAA982E00995E9A9FAA981E00995D80157
:1049B000ED91FC91CE01B80145E120E030E0099590
:1049C000F82E882351F09E012D5C3F4FD801ED91C8
:1049D000FC91CE01B80147E10995E9A9FAA980E067
:1049E00009958F2DDF91CF911F910F91FF90089521
:1049F0000F931F93FC01DB01448F258F0D911C91B8
:104A000042E37C969F01F80109951F910F9108954B
:104A1000EF920F93CF93DF93FC01448F258F078F85
:104A2000E68EEB01A881B9814BE37C969F01FD01E5
:104A30000995DF91CF910F91EF900895DF93CF9378
:104A40000F92CDB7DEB7FB01A081B18146E49E0194
:104A50002F5F3F4FFD01099589810F90CF91DF9125
:104A60000895DF93CF930F92CDB7DEB7FB01A081FE
:104A7000B18147E49E012F5F3F4FFD010995898178
:104A80000F90CF91DF910895FB01A081B18148E49F
:104A900020E030E0FD01099508950F931F938C01EC
:104AA000DC0112966D917C9113970E941E25F801EE
:104AB000808362817381C8010E943125D8011196DB
:104AC0008C93119712966D917C911397C8010E9457
:104AD0004425F80183870280F381E02DA081B18114
:104AE000C801BF0147E10D5C1F4F9801FD01099509
:104AF0001F910F910895CF93DF93EC016A817B8121
:104B00000E946A24882321F0CE010E944D2581E075
:104B1000DF91CF910895FC01628173810E949524F9
:104B20000895CF93DF93EC01EE85FF85309709F070
:104B300009956A817B81CE010E94C824DF91CF91C3
:104B40000895FC01362F242F62817381432F0E9428
:104B5000F8240895EF920F93FC01362F542FA22FC3
:104B6000E02E62817381432F252F0A2F0E94082592
:104B70000F91EF900895FC0160A308951F93CF93C8
:104B8000DF93EC011D821C821F821E82198681E048
:104B9000888782E28A871F861E86FE01B39680E0A0
:104BA0009FEF91938F5F8E30E1F711E018A3CE0154
:104BB0000E94A2231F8B188E198E80E48A8F1B8E71
:104BC0008EE398E29AAB89ABDF91CF911F91089564
:104BD000BF92CF92DF92EF92FF920F931F937C01CF
:104BE0006B01142FB22E0E94BE25F701D382C28220
:104BF00015A3B4A203A3C7010E947B251F910F91A7
:104C0000FF90EF90DF90CF90BF900895FC0112824B
:104C100080818150838314820895FC0120818281E8
:104C2000820F82839181891710F080E0089584813A
:104C30008F5F84838381820F891710F0892F8150C1
:104C4000838381E00895FC01A681B78185819D0160
:104C5000280F311DC9011D92A817B907E1F7089562
:104C6000DC01FB01108212968C91129781831596BC
:104C70008C9115978150828313968C91838308952C
:104C8000DC01FB0121818381813021F0833029F017
:104C9000322F05C0322F385F02C0322F285040E03B
:104CA00013968C911397821708F041E050E012960A
:104CB0008C91381708F051E090E0321708F491E039
:104CC000892F8423942B9523892B0895FC01CB01F4
:104CD00026813781BA0145810E9413210895FC0184
:104CE000A681B7818281481B477081E090E001C0B6
:104CF000880F4A95EAF7A60FB11D9C91222311F067
:104D0000982B02C0809598239C930895FC01DB01A9
:104D100011964C9111978281481760F08381841716
:104D200048F06C918581681728F4CF0114962C9176
:104D30000E946F260895CF92DF92FF920F931F93E8
:104D4000CF93DF936C01EB01FA808B81813061F0AE
:104D5000813028F0823059F0833019F40AC001E024
:104D600001C000E010E007C000E011E004C00FEF58
:104D7000F9CF00E01FEFF7FE04C0C601BE010E949C
:104D800086268881800F88838981810F8983FF0C23
:104D900091F7DF91CF911F910F91FF90DF90CF900E
:104DA00008950F931F93CF93DF93FB018901C28175
:104DB000D3814233D1F0433338F4453111F14731D7
:104DC00049F1443189F516C0463449F1473449F177
:104DD0004B3351F5CE01B9010E944026882321F1C1
:104DE000CE01B8010E949B261FC0CE01B9010E94CE
:104DF00086261AC0CE010E942326CE010E940626D6
:104E000013C0CE010E940D26882379F0CE010E94A6
:104E100023260AC0CE01B9010E94302605C08D812B
:104E200001C08981F801808381E0DF91CF911F91DA
:104E30000F910895CF92DF92EF92FF920F931F93FD
:104E4000CF93DF93EC01C62ED42EE22EF42E122F38
:104E50000AC0CE016C2D4F2D21E00FEF0E94AA2534
:104E6000185088E0F80E1830A0F79E2D97704E2D40
:104E7000487F4D0D992381F087E098279F5F9770B9
:104E80000FEF10E002C0000F111F9A95E2F7CE015C
:104E90006C2D21E00E94AA25DF91CF911F910F91E7
:104EA000FF90EF90DF90CF900895EF92FF920F93D5
:104EB0001F93CF93DF93EC01162FF42EE22E21E007
:104EC0000E2D0E94B720882331F0CE01612F4F2D87
:104ED0002E2D0E941A27DF91CF911F910F91FF90E5
:104EE000EF900895CF92DF92EF92FF920F931F936E
:104EF000CF93DF93EC01D62EC42EE22EF62E122F86
:104F00000AC0CE016F2D4C2D20E00FEF0E94AA2584
:104F1000185088E0F80E1830A0F79E2D97706E2D6F
:104F2000687F6D0D992381F087E098279F5F9770C8
:104F30000FEF10E002C0000F111F9A95E2F7CE01AB
:104F40004C2D20E00E94AA25DF91CF911F910F9157
:104F5000FF90EF90DF90CF9008956F927F928F92A5
:104F60009F92AF92BF92CF92DF92EF92FF920F93F8
:104F70001F93CF93DF93EC01862E942E722E602E1A
:104F8000AE2C0E94B720882309F44DC0FE2CF80CEB
:104F9000E90C8A94B82CB70C8394DB2CDA189A9419
:104FA000C92CC60C93941C2D1A19CE016F2D4E2DB1
:104FB0002A2D02E00E946C20CE016D2D4E2D2A2D4F
:104FC00001E00E946C20CE016F2D412F2A2D04E0BC
:104FD0000E946C20CE016D2D412F2A2D08E00E94E9
:104FE0006C20172D1A191A191250062D0A190A19B0
:104FF0000250F394E394CE016F2D492D212F0E948E
:105000007227CE016F2D4C2D212F0E947227CE01C9
:10501000682D4E2D202F0E941A27CE016B2D4E2D6C
:10502000202F0E941A27DF91CF911F910F91FF909F
:10503000EF90DF90CF90BF90AF909F908F907F9038
:105040006F900895EF92FF920F931F93CF93DF938A
:10505000EC01162FF42EE22E01E00E94B7208823E7
:1050600031F0CE01612F4F2D2E2D0E947227DF913E
:10507000CF911F910F91FF90EF90089508951F9287
:105080000F920FB60F9211242F933F934F935F937C
:105090006F937F938F939F93AF93BF93EF93FF9300
:1050A000E091E704F091E8040995FF91EF91BF9139
:1050B000AF919F918F917F916F915F914F913F91B0
:1050C0002F910F900FBE0F901F901895FC01A3E039
:1050D000440F551F661F771FAA95D1F7403080E017
:1050E000580781E0680780E0780714F481E010C079
:1050F00033E075956795579547953A95D1F74030C8
:1051000080E0580781E0680780E078071CF482E0BF
:10511000828339C023E075956795579547952A9501
:10512000D1F7403080E0580781E0680780E07807D9
:1051300014F483E0EDCF92E0759567955795479508
:105140009A95D1F7403080E0580781E0680780E009
:10515000780714F484E0DCCF82E075956795579565
:1051600047958A95D1F7403080E0580781E068077D
:1051700080E0780714F485E0CBCF85E082834FEFA1
:105180005FEF60E070E08FB78383F89451834083D2
:10519000509387004093860083818FBF8091810068
:1051A000887F80938100809181009281892B8093F8
:1051B000810008951092800020E1209381000E94D8
:1051C000662808950F931F93CF93DF93EC018B0113
:1051D000121613061406150624F4BA01A9010E943A
:1051E00066281D830C8381E080936F00809181008D
:1051F0009A81892B80938100DF91CF911F910F912C
:105200000895EF92FF920F931F93CF93DF93EC01DA
:105210000E94F9297B018C018F850E94AE2B982F6B
:10522000898B8889882329F4198A992311F481E0CC
:10523000898B99898A89981721F0ED8AFE8A0F8BCC
:10524000188F8D899E89AF89B88DA8019701281B79
:10525000390B4A0B5B0B8B819C81AD81BE81821720
:105260009307A407B50764F499898A81981741F0D8
:105270009A83992329F08B899C8901969C8B8B8B2F
:105280008A818823C9F48D899E89AF89B88DA80148
:105290009701281B390B4A0B5B0B8F819885A985D9
:1052A000BA8582179307A407B50734F48B899C89C4
:1052B000998388831C8A1B8A8A818823D1F08D89EF
:1052C0009E89AF89B88DE81AF90A0A0B1B0B8B85EA
:1052D0009C85AD85BE858E159F05A007B1074CF452
:1052E0008B899C89909581959F4F998388831C8A8F
:1052F0001B8A89898A8BDF91CF911F910F91FF9033
:10530000EF900895FC016787408B80E0442309F407
:1053100081E0818B828B148A138A1182108212821F
:10532000158A168A178A108E84E190E0A0E0B0E01A
:1053300083839483A583B6838AEF90E0A0E0B0E0F6
:1053400087839087A187B28788EE93E0A0E0B0E0E2
:1053500083879487A587B687878560E00E94EE2AB9
:1053600008951F920F920FB60F9211242F933F931F
:105370008F939F93AF93BF938091ED049091EE0430
:10538000A091EF04B091F0043091F1040196A11DB9
:10539000B11D232F2D5F2D3720F02D570196A11D14
:1053A000B11D2093F1048093ED049093EE04A0933B
:1053B000EF04B093F0048091E9049091EA04A09185
:1053C000EB04B091EC040196A11DB11D8093E9049A
:1053D0009093EA04A093EB04B093EC04BF91AF91D7
:1053E0009F918F913F912F910F900FBE0F901F9023
:1053F00018958FB7F8942091ED043091EE04409108
:10540000EF045091F0048FBFB901CA0108959B01C8
:10541000AC017FB7F8948091E9049091EA04A091DF
:10542000EB04B091EC0466B5A89B05C06F3F19F082
:105430000196A11DB11D7FBFBA2FA92F982F8827D4
:10544000860F911DA11DB11D62E0880F991FAA1F33
:10545000BB1F6A95D1F7BC012DC0FFB7F8948091AE
:10546000E9049091EA04A091EB04B091EC04E6B554
:10547000A89B05C0EF3F19F00196A11DB11DFFBF0C
:10548000BA2FA92F982F88278E0F911DA11DB11D0E
:10549000E2E0880F991FAA1FBB1FEA95D1F7861B70
:1054A000970B885E9340C8F22150304040405040F6
:1054B00068517C4F211531054105510571F608955C
:1054C000789484B5826084BD84B5816084BD85B5DF
:1054D000826085BD85B5816085BDEEE6F0E08081A6
:1054E00081608083E1E8F0E01082808182608083C7
:1054F000808181608083E0E8F0E08081816080834A
:10550000E1E9F0E080818260808380818160808336
:10551000E0E9F0E0808181608083E1ECF0E080816F
:1055200084608083808182608083808181608083C9
:10553000E3ECF0E0808181608083E0ECF0E080814A
:1055400082608083E2ECF0E0808181608083EAE722
:10555000F0E08081846080838081826080838081AC
:10556000816080838081806880830895823108F023
:105570008251E82FF0E0E756F84EE49120917B004D
:105580008E2F86958695869590E08170907035E097
:10559000880F991F3A95E1F72F7D282B20937B00E8
:1055A000E77080917C018295880F880F807C8E2B1C
:1055B00080937C0080917A00806480937A0080914F
:1055C0007A0086FDFCCF2091780040917900942FDD
:1055D00080E030E0282B392BC9010895CF93DF9369
:1055E000482F50E0CA01835A984EFC013491415C27
:1055F000584EFA018491882369F190E0880F991F31
:10560000FC01EB5EF84EA591B491FC01ED5DF84E06
:10561000C591D491662351F42FB7F8948C91932FB0
:10562000909589238C93888189230BC0623061F423
:105630002FB7F8948C91932F909589238C93888120
:10564000832B88832FBF06C09FB7F8948C91832B40
:105650008C939FBFDF91CF910895883071F189308D
:1056600068F4823031F1833020F4813009F042C097
:105670001DC0833089F08430E9F512C08B3059F1B8
:105680008C3028F48930E9F08A30A1F51EC08C30C6
:1056900031F18E3079F529C0809180008F7703C079
:1056A000809180008F7D80938000089584B58F77EE
:1056B00002C084B58F7D84BD0895809190008F775E
:1056C00007C0809190008F7D03C080919000877FFC
:1056D0008093900008958091C0008F7703C08091DF
:1056E000C0008F7D8093C00008958091C200877FA5
:1056F0008093C2000895FF920F931F93F62E482FB8
:1057000050E0CA018558984EFC012491CA01835A81
:10571000984EFC011491415C584EFA01049100230B
:10572000C9F0222319F0822F0E942D2BE02FF0E0E8
:10573000EE0FFF1FED5DF84EA591B4919FB7F89461
:10574000FF2021F48C911095812302C08C91812B34
:105750008C939FBF1F910F91FF9008950F931F93FC
:10576000482F50E0CA018558984EFC012491CA0187
:10577000835A984EFC010491415C584EFA011491F1
:10578000112319F420E030E015C0222319F0822FF4
:105790000E942D2B812F90E0880F991F8F5C984ECF
:1057A000FC01A591B4918C9120E030E0802311F0B0
:1057B00021E030E0C9011F910F91089508952091D3
:1057C0003205309133058091340590913505281BC1
:1057D000390B2F733070C901089520913205309133
:1057E000330580913405909135052817390719F450
:1057F0002FEF3FEF09C0E0913405F0913505EE50F1
:10580000FB4F8081282F30E0C90108952091320597
:10581000309133058091340590913505281739076B
:1058200019F42FEF3FEF13C0E0913405F0913505E7
:10583000EE50FB4F20818091340590913505019603
:105840008F739070909335058093340530E0C901D3
:105850000895109239051092380588EE93E0A0E083
:10586000B0E080933A0590933B05A0933C05B0933C
:105870003D058BEA91E090933705809336050895B6
:105880000F931F93DF93CF930F92CDB7DEB78C01A9
:10589000698380918401882369F083E0BE016F5F92
:1058A0007F4F41E050E00E945C301816190614F456
:1058B0009C0107C081E090E0F8019383828320E09F
:1058C00030E0C9010F90CF91DF911F910F910895A2
:1058D00083E00E9433300895CF93DF9312C082E0BB
:1058E0000E94BE2F2FEF8F3F9207C9F0E091320543
:1058F000F0913305EE50FB4F8083D0933305C09376
:105900003205C0913205D09133052196CF73D07006
:105910008091340590913505C817D90701F7DF91BB
:10592000CF910895FC0180818E5F808380E865EAD5
:1059300077E142E450E00E94D72F0895FC01818175
:105940009081913A59F4813209F04CC080E06DE7C2
:1059500071E047E050E00E94D72F42C0913209F039
:1059600041C0803239F48DE791E067E070E00E9439
:105970001B3036C0823209F035C0828180938401A9
:1059800080917D0190917E01A0917F01B091800175
:10599000805B9440A040B04019F58091840180FD67
:1059A00012C087E797E790930108809300082BE0E7
:1059B00088E190E00FB6F894A895809360000FBE40
:1059C000209360000DC088E10FB6F89480936000CA
:1059D000109260000FBEA895109201081092000866
:1059E00081E0089580E00895CF93DF930E94602ABC
:1059F0008CE495E00E943E300E94061BC0E0D0E09F
:105A00000E9485162097E1F30E940000F9CFCF9203
:105A1000DF92EF92FF920F931F93CF93DF937C015E
:105A20006B018A01C0E0D0E00FC0D6016D916D011D
:105A3000D701ED91FC910190F081E02DC70109950E
:105A4000C80FD91F015010400115110571F7CE0183
:105A5000DF91CF911F910F91FF90EF90DF90CF904A
:105A60000895EF92FF920F931F93CF93DF937C01E2
:105A70008B01C0E0D0E0F8010F5F1F4F64916623F7
:105A800059F0D701ED91FC910190F081E02DC70113
:105A90000995C80FD91FEFCFCE01DF91CF911F918C
:105AA0000F91FF90EF900895EF92FF920F931F9345
:105AB0008C01DC01ED91FC910190F081E02D6DE015
:105AC00009957C01D801ED91FC910190F081E02DC8
:105AD000C8016AE009959C012E0D3F1DC9011F9167
