:100000000C94360C0C945E0C0C945E0C0C945E0CF0
:100010000C945E0C0C945E0C0C945E0C0C945E0CB8
:100020000C945E0C0C945E0C0C946F210C94E121EA
:100030000C945E0C0C945E0C0C945E0C0C945E0C98
:100040000C945E0C0C945E0C0C945E0C0C945E0C88
:100050000C94E01A0C945E0C0C945E0C0C94961AA2
:100060000C945E0C0C945E0C0C945E0C0C945E0C68
:100070000C945E0C0C945E0C0C945E0C0C945E0C58
:100080000C945E0C0C945E0C0C945E0C0C945E0C48
:100090000C94EF120C945E0C0C945E0C0C945E0CA1
:1000A0000C945E0C0C945E0C0C945E0C250F5D0F92
:1000B0005F0F6E0F740F780F810FC32A6D29002A0E
:1000C000712A8D2A992AA72A20182318121816187F
:1000D0001C1844184418441827182B182F183518C2
:1000E000391844183F183000442D3A2000442B3A68
:1000F00020004100410030005065616B3A00300043
:100100005065616B3A00FFE0FFD1AFFF32FFD0FFD7
:10011000FEFFE0FFD1AEFFD0FFFEFFE0FFD11000F9
:10012000FFFEFFD0FFE0FFC1FFD1AED580A83FD3D7
:1001300000408D142000A1C8DA1281CFD9F1DB4034
:100140002EA4A6AFFFD0FFFE6D4100562026200052
:100150004020005065616B3A20006D4168006D578A
:10016000682000456E657267792055736167650088
:100170006D412900562028004D696E3A005629200D
:10018000006D412028005065616B3A005065616B3D
:10019000202D204D696E73006D4120005620002CEB
:1001A000202272616D223A002C2022646D223A00D6
:1001B0002C20226470223A002C20227368756E7401
:1001C000223A002C20226D7768223A007D2C2022D2
:1001D0006D6168223A002C2022617667223A002C59
:1001E00020226D696E223A007D2C202276223A7BF5
:1001F00020226D6178223A002C2022617667223A13
:10020000002C20226D696E223A007B202261223A66
:100210007B20226D6178223A007D007B2256223AB3
:10022000007D007B2257223A007B225A223A224F3D
:100230004B227D007D007B2253223A007D007B20F3
:100240002252223A0001060C00FE070135026B2003
:10025000FFFE0AFE08FE0C00602217678080808087
:10026000800080173363A0A0A002566650F850505B
:10027000F8500159692070A8A07028A87020025772
:1002800067C8C8102040989802576740A0A040A8AF
:1002900090682713638080801139692040408080F6
:1002A000804040201139698040402020204040801B
:1002B00002576720A8702070A8200355652020F8F9
:1002C00020200133636060C0055161F8122262C0D2
:1002D000C0025767081010204040801247676090A6
:1002E000909090906012376740C040404040E002DC
:1002F0005767708808102040F8025767F8081030D8
:1003000008887002576710305090F8101002576735
:10031000F880F008088870025767304080F08888BD
:1003200070025767F8081010202020025767708865
:100330008870888870025767708888780810601203
:100340002565C0C000C0C00136666060006060C046
:100350001335652040804020045363F800F81335BE
:100360006580402040800257677088102020002060
:100370000257677088B8A8B880700257677088887D
:10038000F8888888025767F04848704848F0025754
:100390006770888080808870025767F048484848B6
:1003A00048F0025767F88080F08080F8025767F8BD
:1003B0008080F08080800257677088808098887085
:1003C000025767888888F8888888123767E0404035
:1003D000404040E0025767381010101090600257FC
:1003E000678890A0C0A09088025767808080808036
:1003F00080F802576788D8A8888888880257678855
:1004000088C8A89888880257677088888888887004
:10041000025767F08888F08080800257677088886C
:1004200088A89068025767F08888F0A090880257E3
:100430006770888070088870025767F82020202035
:1004400020200257678888888888887002576788C4
:1004500088888850502002576788888888A8A850C4
:1004600002576788885020508888025767888850CC
:1004700020202020025767F80810204080F811390A
:1004800069E080808080808080E002576780404003
:1004900020101008113969E020202020202020E0C1
:1004A000075363205088005161F817336380402060
:1004B00002556570087888780257678080F08888D0
:1004C00088F0025565708880887002576708087840
:1004D000888888780255657088F080700257673088
:1004E0004840E0404040005767708888887808702E
:1004F0000257678080F0888888881237674000C07C
:10050000404040E010496910003010101010906019
:1005100002576780808890E09088123767C040401B
:10052000404040E0025565D0A8A8A8A8025565B093
:10053000C88888880255657088888870005767F079
:10054000888888F0808000576778888888780808CD
:10055000025565B0C880808002556578807008F0CB
:100560000257672020F820202018025565888888C7
:10057000986802556588888850200255658888A843
:10058000A850025565885020508800576788888891
:1005900050204080025565F8102040F8113969203C
:1005A0004040408040404020211969808080808008
:1005B00080808080113969804040402040404080E8
:1005C00004536348A890FFFFFFFFFFFFFFFFFFFFFB
:1005D000FFFFFFFFFFFFFFFFFFFFFFFFFFFFFFFF2B
:1005E000FFFFFFFFFFFFFF0C006022176780008006
:1005F000808080800157672070A8A0A870200257D3
:1006000067304840E04048B0025565A8508850A87F
:100610000257678850F820F82020221767808080D2
:100620000080808012486870806090906010E019AF
:100630003161A0026767788494A494847816356544
:1006400060A06000E00255652850A0502803536365
:10065000F80808153161E00267677884B4A4A484BF
:1006600078095161F81744646090906002576720E0
:1006700020F8202000F817356540A02040E017350D
:1006800065C0204020C01733632040800057678832
:10069000888898E8808002586878E8E8E868282820
:1006A00028252262C0C010326220C017356540C0C4
:1006B0004040E017356540A04000E0025565A0507D
:1006C0002850A0025A6A40C0404050305078101064
:1006D000025A6A40C04040502808102038025A6A26
:1006E000C0204020D03050781010025767200020E2
:1006F00020408870025A6A402000708888F88888F4
:1007000088025A6A102000708888F8888888025AFF
:100710006A205000708888F8888888025A6A68B011
:1007200000708888F8888888025969500070888825
:10073000F8888888025A6A205020708888F888884B
:100740008802576778A0A0F0A0A0B8005969708807
:1007500080808088701060025A6A402000F8808093
:10076000F08080F8025A6A102000F88080F08080C3
:10077000F8025A6A205000F88080F08080F8025910
:10078000695000F88080F08080F8123A6A8040005A
:10079000E04040404040E0123A6A204000E04040E3
:1007A000404040E0123A6A40A000E04040404040F3
:1007B000E0123969A000E04040404040E002576745
:1007C000704848E8484870025A6A68B0008888C88B
:1007D000A8988888025A6A4020007088888888888B
:1007E00070025A6A10200070888888888870025ABF
:1007F0006A20500070888888888870025A6A68B0B9
:1008000000708888888888700259695000708888CC
:100810008888887003556588502050880159690878
:100820007098A8A8A8C87080025A6A4020008888DA
:100830008888888870025A6A10200088888888888A
:100840008870025A6A2050008888888888887002D8
:100850005969500088888888888870025A6A1020F0
:10086000008888502020202012476780E0909090D8
:10087000E080025767708890A09088B00258684066
:100880002000700878887802586810200070087876
:100890008878025868205000700878887802586874
:1008A00068B0007008788878025767500070087840
:1008B000887802586820502070087888780255653A
:1008C000702870A078005767708880887010600268
:1008D00058684020007088F080700258681020002E
:1008E0007088F080700258682050007088F0807026
:1008F00002576750007088F080701238688040009E
:10090000C0404040E0123868204000C0404040E015
:1009100012386840A000C0404040E0123767A00095
:10092000C0404040E00259695020500878888888CB
:100930007002586868B000B0C8888888025868405B
:10094000200070888888700258681020007088889D
:100950008870025868205000708888887002586833
:1009600068B0007088888870025767500070888867
:1009700088700355652000F800200255657898A816
:10098000C8F002586840200088888888700258683B
:100990001020008888888870025868205000888855
:1009A00088887002576750008888888870005A6A63
:1009B000102000888888502040800059698080F08D
:1009C000888888F080800059695000888888502085
:1009D0004080000A1400FC0D024A049920FFFC101C
:1009E000FC0DFC0000000A0010020D0D0A0400C0FE
:1009F000C0C0C0C0C0C0C0C0C000C0C00604040A9F
:100A00000209CCCCCC48090B160A01011B001B00C3
:100A10001B007F80360036003600FF006C006C0043
:100A20006C00080D0D0A0100187EDBD8D8D87E1B9B
:100A30001B1BDB7E18090C180A01007300DB00DEAB
:100A40000076000C000C001800180037003D806D87
:100A5000806700090D1A0A010038006C006C006CF8
:100A600000780030007000D800CD80C700C600EFCD
:100A70000079800205050A0408C0C0C0C080050DC9
:100A80000D0A030018306060C0C0C0C0C060603094
:100A900018050D0D0A0200C060303018181818181B
:100AA000303060C00807070A010366663CFF3C66F9
:100AB000660807070A0103181818FF181818040316
:100AC000030A03FF7070E00801010A0106FF030337
:100AD000030A0400E0E0E0070C0C0A020006060C22
:100AE0000C181830306060C0C0080D0D0A010018E5
:100AF0003C6666C3C3C3C3C366663C18080D0D0AD3
:100B00000100183878D81818181818181818FF087D
:100B10000D0D0A01003C66C3C30303061C3060C010
:100B2000C0FF080D0D0A01003C66C3C303061C0686
:100B300003C3C3663C080D0D0A010002060E1E36F3
:100B400066C6C6FF06060606080D0D0A0100FFC0B0
:100B5000C0C0C0DCE6030303C3663C080D0D0A01F8
:100B6000003C66C2C0C0DCE6C3C3C3C3663C080D1C
:100B70000D0A0100FF030306060C0C181830306044
:100B800060080D0D0A01003C66C3C3C3663C66C322
:100B9000C3C3663C080D0D0A01003C66C3C3C3C352
:100BA000673B030343663C0308080A0400E0E000D7
:100BB000000000E0E00409090A03FF707000000073
:100BC000007070E0070D0D0A010002060C1830607D
:100BD000C06030180C06020806060A0103FF000078
:100BE0000000FF070D0D0A020080C06030180C06DF
:100BF0000C183060C080080D0D0A01003C66C3C3AC
:100C0000C3060C181818001818080D0D0A01003C2E
:100C100066C3CFDFDBDBDBDECCC0633E080D0D0A35
:100C20000100183C6666C3C3C3FFC3C3C3C3C30884
:100C30000D0D0A0100F8CCC6C6C6CCFCC6C3C3C3A2
:100C4000C6FC080D0D0A01003C66C3C0C0C0C0C090
:100C5000C0C0C3663C080D0D0A0100FCC6C3C3C377
:100C6000C3C3C3C3C3C3C6FC080D0D0A0100FFC044
:100C7000C0C0C0C0FCC0C0C0C0C0FF080D0D0A018C
:100C800000FFC0C0C0C0C0FCC0C0C0C0C0C0080D14
:100C90000D0A01003C66C3C0C0C0CFC3C3C3C36755
:100CA0003D080D0D0A0100C3C3C3C3C3C3FFC3C3C3
:100CB000C3C3C3C3080D0D0A0100FF181818181884
:100CC000181818181818FF090D1A0A01001F8006B5
:100CD000000600060006000600060006000600C624
:100CE00000C6006C003800080D0D0A0100C3C3C621
:100CF000C6CCCCF8CCCCC6C6C3C3080D0D0A0100C7
:100D0000C0C0C0C0C0C0C0C0C0C0C0C0FF080D0DC2
:100D10000A0100C3C3E7E7FFDBDBDBDBC3C3C3C3FD
:100D2000080D0D0A0100C3E3E3F3F3DBDBCFCFC70C
:100D3000C7C3C3080D0D0A01003C66C3C3C3C3C3C8
:100D4000C3C3C3C3663C080D0D0A0100FCC6C3C380
:100D5000C3C3C6FCC0C0C0C0C0080E0E0A01FF3C21
:100D600066C3C3C3C3C3C3C3DBCF663E03080D0D55
:100D70000A0100FCC6C3C3C3C3C6FCCCC6C6C3C3FA
:100D8000080D0D0A01003C66C3C0C0603C060303A9
:100D9000C3663C080D0D0A0100FF18181818181832
:100DA000181818181818080D0D0A0100C3C3C3C37A
:100DB000C3C3C3C3C3C3C3663C080D0D0A0100C34C
:100DC000C3C3C36666663C3C3C181818080D0D0A80
:100DD0000100C3C3C3C3C3DBDBDBDBE7E7C3C3087B
:100DE0000D0D0A0100C3C366663C3C183C3C6666B8
:100DF000C3C3080D0D0A0100C3C366663C3C181846
:100E00001818181818080D0D0A0100FF0303060C26
:100E10000C18303060C0C0FF060D0D0A0200FCC087
:100E2000C0C0C0C0C0C0C0C0C0C0FC070C0C0A021B
:100E300000C0C06060303018180C0C0606060D0D9E
:100E40000A0200FC0C0C0C0C0C0C0C0C0C0C0CFC1A
:100E50000804040A0109183C66C30901020A01FFDB
:100E6000FF800403030A030AC060300808080A016F
:100E7000003E63037FC3C3C37D080D0D0A0100C09C
:100E8000C0C0C0C0DCE6C3C3C3C3E6DC0808080AB0
:100E900001003E63C0C0C0C0633E080D0D0A0100E2
:100EA00003030303033B67C3C3C3C3673B080808CB
:100EB0000A01003C66C3FFC0C0633E080D0D0A0175
:100EC000001E33333030FC30303030303030080CDE
:100ED0000C0A01FC7DC7C6C6C67CC07EC3C3C37EE8
:100EE000080D0D0A0100C0C0C0C0C0DCE6C3C3C30A
:100EF000C3C3C3080B0B0A01001818007818181890
:100F0000181818FF070F0F0A02FC0606001E060637
:100F10000606060606C6C6C67C080D0D0A0100C0F8
:100F2000C0C0C0C0C6CCD8F0F8CCC6C3080D0D0AEE
:100F30000100781818181818181818181818FF0829
:100F400008080A0100B6FFDBDBDBDBDBDB08080897
:100F50000A0100DCE6C3C3C3C3C3C30808080A010F
:100F6000003C66C3C3C3C3663C080C0C0A01FCDC2E
:100F7000E6C3C3C3C3E6DCC0C0C0C0080C0C0A0192
:100F8000FC3B67C3C3C3C3673B03030303080808F1
:100F90000A0100DE736060606060600808080A0192
:100FA000007EC3C07E0303C37E080B0B0A01003022
:100FB0003030FC3030303030331E0808080A010071
:100FC000C3C3C3C3C3C3673B0808080A0100C3C344
:100FD00066663C3C18180808080A0100C3C3C3DB56
:100FE000DBDBFF660808080A0100C3663C18183CF2
:100FF00066C3080C0C0A01FCC3C3C3C3C3C3673B6D
:1010000003C3663C0708080A0200FE060C1830609D
:10101000C0FE080D0D0A01000F1818181818F01856
:10102000181818180F020D0D0A0400C0C0C0C0C067
:10103000C0C0C0C0C0C0C0C0080D0D0A0100F0187B
:10104000181818180F1818181818F00803030A01B0
:101050000A73DBCEFFFFFFFFFFFFFFFFFFFFFFFF76
:10106000FFFFFFFFFFFFFFFFFFFFFFFFFFFFFFFF90
:10107000FFFFFFFFFF0000000A0010020D0D0A0431
:1010800000C0C000C0C0C0C0C0C0C0C0C0C0070C4D
:101090000C0A010018183C66C2C0C0C2663C181891
:1010A000090C180A01001E00330033003000300024
:1010B000FC00300030003000F800AD80E700090986
:1010C000120A00018080DD807F00630063006300FE
:1010D0007F00DD808080080B0B0A010081C3663C25
:1010E0007E187E18181818020D0D0A0400C0C0C022
:1010F000C0C0000000C0C0C0C0C0080D0D0A010083
:101100003C66C66078CC66331E0663663C06020207
:101110000A020BCCCC080B0B0A01003C66C3BDA530
:10112000A1A5BDC3663C0809090A01043E43037F2B
:10113000C3C37D00FF090B160A000004800D801B4D
:101140000036006C00D8006C0036001B000D8004D7
:10115000800804040A0104FFFF03030601010A02D8
:1011600006FC080B0B0A01003C66C3BDA5BDA9AD7A
:10117000C3663C0801010A010DFF0606060A0207C4
:101180003078CCCC78300807070A01021818FF180D
:101190001800FF0507070A020670D8183060C0F86B
:1011A0000507070A020670D8183018D87004030320
:1011B0000A030A3060C0070A0A0A01FDC6C6C6C68D
:1011C000C6EEFAC0C0C0080D0D0A01007FFFFBFB90
:1011D000FB7B1B1B1B1B1B1B1B0303030A0405E0E0
:1011E000E0E00504040A02FC3018D8700407070A7E
:1011F000020660E060606060F00709090A010438D7
:101200006CC6C6C66C3800FE090B160A01009000B9
:10121000D8006C0036001B000D801B0036006C00EF
:10122000D8009000080C0C0A010140C04142E408BB
:1012300012264A9E0202080C0C0A010140C04142DB
:10124000E40816294182040F080C0C0A0101E01081
:101250006112E40812264A9F0202080D0D0A0100DD
:101260001818001818183060C3C3C3663C080F0F65
:101270000A010060301800183C66C3C3C3FFC3C333
:10128000C3C3080F0F0A0100060C1800183C66C300
:10129000C3C3FFC3C3C3C3080F0F0A0100183C66D2
:1012A00000183C66C3C3C3FFC3C3C3C3080F0F0A00
:1012B0000100327E4C00183C66C3C3C3FFC3C3C3E6
:1012C000C3080F0F0A0100666600183C6666C3C3B8
:1012D000C3FFC3C3C3C30810100A01003C66663CC9
:1012E00000183C66C3C3C3FFC3C3C3C3080D0D0AC4
:1012F00001001F3C6C6CCCCCFFCCCCCCCCCCCF0850
:1013000011110A01FC3C66C3C0C0C0C0C0C0C0C34C
:10131000663C180C6C38080F0F0A0100603018008A
:10132000FFC0C0C0C0FCC0C0C0C0FF080F0F0A0192
:10133000000C183000FFC0C0C0C0FCC0C0C0C0FF5F
:10134000080F0F0A0100183C6600FFC0C0C0C0FCB7
:10135000C0C0C0C0FF080F0F0A010066660000FF92
:10136000C0C0C0C0FCC0C0C0C0FF060F0F0A020052
:1013700060301800FC303030303030303030FC0617
:101380000F0F0A020018306000FC3030303030306F
:10139000303030FC060F0F0A02003078CC00FC30F1
:1013A0003030303030303030FC060F0F0A0200CCC5
:1013B000CC00FC30303030303030303030FC090D73
:1013C0001A0A00007E006300618061806180618094
:1013D000F980618061806180618063007E00080F18
:1013E0000F0A0100327E4C00C3E3F3F3DBDBCFCF07
:1013F000C7C3C3080F0F0A010030180C003C66C3B6
:10140000C3C3C3C3C3C3663C080F0F0A01000C1853
:1014100030003C66C3C3C3C3C3C3C3663C080F0FDD
:101420000A0100183C66003C66C3C3C3C3C3C3C300
:10143000663C080F0F0A0100327E4C003C66C3C3B5
:10144000C3C3C3C3C3663C080F0F0A01006666002E
:101450003C66C3C3C3C3C3C3C3C3663C0708080A0F
:10146000010082C66C38386CC682080F0F0A01FF73
:10147000013E66C7C7CBCBCBD3D3D3E3667C800812
:101480000F0F0A010030180C00C3C3C3C3C3C3C38A
:10149000C3C3663C080F0F0A01000C183000C3C319
:1014A000C3C3C3C3C3C3C3663C080F0F0A010018FC
:1014B0003C6600C3C3C3C3C3C3C3C3C3663C080FF6
:1014C0000F0A0100666600C3C3C3C3C3C3C3C3C35B
:1014D000C3663C080F0F0A01000C183000C3C36636
:1014E000663C3C1818181818070D0D0A0200C0C0F9
:1014F000C0FCC6C6C6C6C6FCC0C0C0080D0D0A01E9
:10150000001C36636366EC6C66636363666C080C90
:101510000C0A010030180C007EC3037FC3C3C37DD7
:10152000080C0C0A01000C1830007EC3037FC3C3F3
:10153000C37D080C0C0A0100183C66007EC3037FC3
:10154000C3C3C37D080C0C0A0100327E4C007EC36D
:10155000037FC3C3C37D080B0B0A01006666007ED0
:10156000C3037FC3C3C37D080D0D0A01003C66663B
:101570003C007EC3037FC3C3C37D0808080A010083
:10158000769B1B1E78D8D96E080C0C0A01FC3E63B2
:10159000C0C0C0C0633E180C6C38080C0C0A0100B7
:1015A000603018003C66C3FFC0C0633E080C0C0AE4
:1015B0000100060C18003C66C3FFC0C0633E080C67
:1015C0000C0A0100183C66003C66C3FFC0C0633EC5
:1015D000080B0B0A01006666003C66C3FFC0C063CF
:1015E0003E080C0C0A010060301800781818181812
:1015F0001818FF080C0C0A01000C18300078181895
:1016000018181818FF080C0C0A0100183C6600781E
:10161000181818181818FF080B0B0A010066660046
:1016200078181818181818FF080D0D0A010088D826
:101630007070D88C3E67C3C3C3663C080C0C0A01AB
:1016400000327E4C00DCE6C3C3C3C3C3C3080C0C2A
:101650000A0100603018003C66C3C3C3C3663C087F
:101660000C0C0A0100060C18003C66C3C3C3C36619
:101670003C080C0C0A0100183C66003C66C3C3C35E
:10168000C3663C080C0C0A0100327E4C003C66C369
:10169000C3C3C3663C080B0B0A01006666003C66C8
:1016A000C3C3C3C3663C080A0A0A01011818000034
:1016B000FFFF00001818080A0A0A01FF013E66CB66
:1016C000CBD3D3667C80080C0C0A010030180C00C8
:1016D000C3C3C3C3C3C3673B080C0C0A0100060C99
:1016E0001800C3C3C3C3C3C3673B080C0C0A010083
:1016F000183C6600C3C3C3C3C3C3673B080B0B0AD4
:101700000100666600C3C3C3C3C3C3673B081010B0
:101710000A01FC0C183000C3C3C3C3C3C3673B0337
:10172000C3663C0711110A02FCC0C0C0C0C0C0F8AB
:10173000CCC6C6C6CCF8C0C0C0C0080F0F0A01FC9A
:10174000666600C3C3C3C3C3C3673B03C3663C072A
:101750000605040100080A0B0C0D09000000002416
:101760000027002A002D003000000000002500287E
:10177000002B002E0031000000000023002600296D
:10178000002C002F000404040404030405020202D8
:10179000020403020202020606060606060404020A
:1017A000020204040408020110408040102040801E
:1017B00040800802040180402010020110801020A7
:1017C0004040200000000200090F00000304010057
:1017D0000C000000000000000000000000000000FD
:1017E0000000080B000202020100090400000102CF
:1017F0000200000524001001052401010104240257
:1018000006052406000107058103100040090401B4
:1018100000020A00000007050202400000070583DD
:10182000024000000403090441726475696E6F2070
:101830004C4C430041726475696E6F204C656F6E4D
:101840006172646F00120100020000004041233603
:101850008000010102030112010002EF0201404178
:10186000233680000101020301009F2D11241FBEB9
:10187000CFEFDAE0DEBFCDBF11E0A0E0B1E0E4E8F9
:10188000F3E602C005900D92A83CB107D9F725E018
:10189000A8ECB1E001C01D92AC35B207E1F71CE045
:1018A000C6E3DCE004C02197FE010E94952EC533FB
:1018B000D107C9F70E94F2250C94C0310C940000A6
:1018C0002EE93FE0009729F0F9013197F1F70197F0
:1018D000F9CF08958EBD0DB407FEFDCF8EB50895E6
:1018E000DB011496ED91FC91159720E030E065E066
:1018F0000994DB011496ED91FC91159720E030E0FE
:1019000062E00994DB011496ED91FC91159720E0BB
:1019100030E063E00994CF92DF92EF92FF920F9351
:101920001F93CF93DF938C017B016A0180E0F60166
:10193000C49181110BC0CF3F09F44CC04C2FB701AB
:10194000C8010E94700C811143C049C0CF3F11F4FF
:101950004FEFF5CFCE3F09F444C0C03FC8F5C03EBD
:1019600038F04C2F4F70B701C8010E94790C30C07D
:10197000C03D38F04C2F4F70B701C8010E94820C57
:1019800027C0C03CF8F0D7011496ED91FC91159753
:1019900020E030E040E064E0C8010995C295C07FD6
:1019A000CE5FD0E0CE010E94600CD7011496ED917D
:1019B000FC91159720E030E041E064E0C801099512
:1019C000CE0104C0C7FD04C08C2F90E00E94600CC3
:1019D00080E001C081E0BFEFCB1ADB0AA8CF80E036
:1019E00001C081E0DF91CF911F910F91FF90EF90A7
:1019F000DF90CF90089585ED8093BC008091BC006E
:101A000084FDFCCF1092E30308954091EE01262F50
:101A100030E0240F311D21323105DCF42091E30345
:101A20002430C9F4FC0180E090E0861758F430912E
:101A3000EE012191DC01A453BE4FA30FB11D2C93E5
:101A40000196F3CF8091EE01680F6093EE0180E084
:101A5000089581E0089582E008950895E0919C033F
:101A600080919B03E81730F4F0E0E356FC4F80814F
:101A700090E008958FEF9FEF089590919C038091DF
:101A80009B03981750F4E92FF0E0E356FC4F2081B8
:101A900030E09F5F90939C0302C02FEF3FEFC9019E
:101AA000089580919B0390E020919C03821B9109F3
:101AB0000895CF92DF92EF92FF920F931F93CF93EF
:101AC000DF937C01262F972F8A018091E4038823DE
:101AD00091F0C62FD72F6E01C40ED51ECC15DD0593
:101AE00071F06991D701ED91FC910190F081E02DA9
:101AF000C7010995F3CF642F822F0E94050DC801FD
:101B0000DF91CF911F910F91FF90EF90DF90CF90D9
:101B10000895CF93DF931F92CDB7DEB769832091ED
:101B2000E4032223D1F020910604203240F021E08A
:101B300030E0FC013383228380E090E015C0809187
:101B4000E503E82FF0E0EA51FC4F998190838F5F25
:101B50008093E5038093060405C061E0CE01019601
:101B60000E94050D81E090E00F90DF91CF910895E4
:101B70008F929F92AF92BF92CF92DF92FF920F937C
:101B80001F93CF93DF9300D0CDB7DEB76C018B01ED
:101B9000F42E490120E1421709F467C0241700F12F
:101BA0003AE0431729F18FE0481369C041E0C601CC
:101BB0000E94820C40E0B801C6010E94790C41E805
:101BC000B801C6010E94700CF4014081B801C60141
:101BD0000E94700C40E0B801C6010E94820C08C14E
:101BE000A1E14A1709F444C0B5E14B1791F047C091
:101BF000DB011496ED91FC91159720E030E042E076
:101C000061E0099542E251E0B801C6010E948B0CE7
:101C100036C0FB01A280B3804AE151E00E948B0CE8
:101C2000D50114964C91406BB801C6010E94700C0E
:101C300041E0B801C6010E94790CF5012681378187
:101C4000D8011496ED91FC911597D50115964C91FC
:101C500066E0C6010995811102C080E0CAC040E07B
:101C6000B801C6010E94820C0AC041E151E002C0E5
:101C700046E051E0B801C6010E948B0CB9C0D80102
:101C800012960D911C911397B2E3FB1609F474C0E0
:101C9000BF15B8F0E5E1FE1609F47BC0F7E1FF16C9
:101CA00009F48DC024E1F212A3C0D8011696ED917B
:101CB000FC91179715968C919F01280F311DC90132
:101CC00060C036E4F31609F48AC087E4F81609F414
:101CD0008AC0ABE3FA128CC0F40181819381913008
:101CE00029F0933031F4482F885004C048E0480F61
:101CF00001C0482F21E0D80113963C91381708F411
:101D000020E031E0F8015281451708F430E051E05D
:101D1000481708F050E0822F852B382319F425232B
:101D200009F466C0D4011296FC90913051F030F065
:101D3000923049F0933051F42FEF09C020E031E0A8
:101D400007C021E004C020E03FEF02C020E030E007
:101D5000F7FE08C0B401C8012A8339830E94071B1B
:101D600039812A81F4018081830F80838181820FF0
:101D70008183FF0C69F73CC0B401C8010E94071BB6
:101D800037C01192E817F907E1F7C8010E94331B29
:101D90002FC0C8010E941D1B882309F45ECFD80103
:101DA0001696ED91FC91179715968C919F01280F2F
:101DB000311DC9011192E817F907E1F719C0D401E3
:101DC0001C92F801828111968C9311978581815024
:101DD00012968C931297838113968C9309C0D80125
:101DE00015968C9103C0D80111968C91F4018083D3
:101DF00081E00F900F90DF91CF911F910F91FF9095
:101E0000DF90CF90BF90AF909F908F900895860FF6
:101E1000911DFC0183A18F3F19F0642F0C94391997
:101E20000895EF92FF920F931F93CF938C01C42FCD
:101E30007901862F90E0FC013197E730F10508F039
:101E40006BC0EA5AFF4F0C94952E780183E2E80E9E
:101E5000F11C005D1F4FF70180818F3F41F061E071
:101E60000E94691961E0F70180810E943919FFEF32
:101E7000EF1AFF0AE016F10671F761E08FE00E94A9
:101E8000691960E08FE00E94391961E080E10E94E9
:101E9000691960E080E10E94391961E081E10E94E6
:101EA000691961E081E10E9439191CBC80E58CBD93
:101EB000C23090F581E08DBD2FC061E004C04111BA
:101EC00006C041E062E0C8010E94070F25C040E063
:101ED00064E0C8010E94070F40E0F4CFF80183A13D
:101EE0008F3FD1F060E0EFCF842F0E946A0C14C0C6
:101EF000CC2391F0F70181917F010E946A0CC150BF
:101F0000F7CFCC2349F0F70184910E946A0CFFEFD0
:101F1000EF1AFF0AC150F5CF81E0CF911F910F91C9
:101F2000FF90EF9008954F925F926F927F928F9201
:101F30009F92AF92BF92CF92DF92EF92FF92CF9398
:101F4000DF93CDB7DEB72A970FB6F894DEBF0FBE8A
:101F5000CDBF5D9A7894BE016F5F7F4F81E00E9494
:101F6000AC1D69817A81072E000C880B990B0E94A9
:101F7000C42F2AE037ED43E25CE30E94D130609346
:101F80003C0370933D0380933E0390933F03BE0157
:101F90006F5F7F4F82E00E94AC1D69817A8183E090
:101FA000769567958A95E1F7660F771F660F771F1D
:101FB000072E000C880B990B0E94C42F2FE632E1EC
:101FC00043E85AE30E94D1306093C8017093C9017D
:101FD0008093CA019093CB01BE016F5F7F4F84E075
:101FE0000E94AC1D69817A81072E000C880B990B29
:101FF0000E94C42F6B017C016091A2047091A30424
:102000008091A4049091A5040E94C22F9B01AC0171
:10201000C701B6010E94212F6093690370936A0380
:1020200080936B0390936C03C090C801D090C9015A
:10203000E090CA01F090CB0160913C0370913D03A8
:1020400080913E0390913F0320E030E04AE754E462
:102050000E94212F9B01AC01C701B6010E94B02E46
:1020600060936003709361038093620390936303B2
:102070006091C8017091C9018091CA019091CB0112
:102080002091690330916A0340916B0350916C0376
:10209000C0904003D0904103E0904203F09043038E
:1020A0000E94D13020E030E543EC57E40E94D1306B
:1020B00020E034E244E759E40E94212F20E030E0A0
:1020C00041E655E40E94212F9B01AC01C701B601F6
:1020D0000E94B02E609340037093410380934203AB
:1020E000909343036091690370916A0380916B033D
:1020F00090916C03C0904403D0904503E090460358
:10210000F090470320E030E543EC57E40E94D130E3
:1021100020E034E244E759E40E94212F20E030E03F
:1021200041E655E40E94212F9B01AC01C701B60195
:102130000E94B02E6093440370934503809346033E
:10214000909347036091690370916A0380916B03D8
:1021500090916C0320915C0330915D0340915E038C
:1021600050915F030E94CC30181684F4809169036B
:1021700090916A03A0916B03B0916C0380935C0310
:1021800090935D03A0935E03B0935F036091690336
:1021900070916A0380916B0390916C0320915803B6
:1021A0003091590340915A0350915B030E941C2FB8
:1021B00087FF10C08091690390916A03A0916B031F
:1021C000B0916C038093580390935903A0935A03E2
:1021D000B0935B036091600370916103809162032F
:1021E000909163032091540330915503409156031D
:1021F000509157030E94CC30181684F480916003EC
:1022000090916103A0916203B091630380935403A2
:1022100090935503A0935603B093570360916003C6
:102220007091610380916203909163032091500348
:102230003091510340915203509153030E941C2F3F
:1022400087FF10C08091600390916103A0916203A9
:10225000B09163038093500390935103A093520372
:10226000B093530340904C0350904D0360904E0345
:1022700070904F03C0900701D0900801E0900901D1
:10228000F0900A01C701B6010E94C22F4B015C0108
:102290008091690390916A03A0916B03B0916C03E4
:1022A0008F839887A987BA87D701C6010196A11D98
:1022B000B11D8B839C83AD83BE83BC01CD010E9485
:1022C000C22F6B017C01A5019401C301B2010E94E0
:1022D000D1302F81388549855A850E94B02EA701BB
:1022E00096010E94212F60934C0370934D038093BD
:1022F0004E0390934F03609148037091490380917E
:102300004A0390914B0340906003509061036090AA
:10231000620370906303A50194010E94D130A30170
:1023200092010E94B02EA70196010E94212F609376
:1023300048037093490380934A0390934B038B8126
:102340009C81AD81BE818093070190930801A09389
:102350000901B0930A016091690370916A03809149
:102360006B0390916C0320912E0330912F034091C9
:102370003003509131030E94CC30181604F580913F
:10238000690390916A03A0916B03B0916C038093F1
:102390002E0390932F03A0933003B09331038091C9
:1023A000600390916103A0916203B09163038093F5
:1023B0002A0390932B03A0932C03B0932D036091D9
:1023C0006003709161038091620390916303209197
:1023D00001013091020140910301509104010E94DA
:1023E0001C2F87FF20C08091600390916103A09112
:1023F0006203B09163038093010190930201A09363
:102400000301B09304018091690390916A03A09144
:102410006B03B0916C038093260390932703A093E2
:102420002803B093290360912203709123038091C4
:1024300024039091250320911E0330911F034091A6
:102440002003509121038090600390906103A0903D
:102450006203B09063034090690350906A036090F8
:102460006B0370906C030E94D1306B017C01A3015F
:102470009201C501B4010E94D1309B01AC01C7019A
:10248000B6010E941C2F87FF20C0809160039091AD
:102490006103A0916203B091630380932203909340
:1024A0002303A0932403B0932503809169039091A3
:1024B0006A03A0916B03B0916C0380931E03909309
:1024C0001F03A0932003B09321035D982A960FB6B3
:1024D000F894DEBF0FBECDBFDF91CF91FF90EF909C
:1024E000DF90CF90BF90AF909F908F907F906F9034
:1024F0005F904F900895CF92DF92EF92FF920F93EB
:102500001F93CF93DF931F92CDB7DEB76C01DC0131
:10251000DC961C91DC97DB960C917C01B4E0EB0E11
:10252000F11CDC015996ED91FC915A97C701698322
:102530000995482F410F2981602FC7010E94A81BD0
:10254000F60123AD082E000C990B820F911D83AF6D
:1025500081E090E00F90DF91CF911F910F91FF905C
:10256000EF90DF90CF900895FC01849108950E9430
:10257000B412882321F0823011F083E0089586E0C0
:102580000895FC01E60FF11D849190E0982F8827B3
:102590003196E4918E0F911D08950F93FC01015027
:1025A000040F84A996A9941718F0081728F402C0FC
:1025B000081750F0041740F42150260F83A995A95D
:1025C000961720F4281720F480E007C0281720F47D
:1025D00081E0261710F0F8CF81E00F9108951F9247
:1025E0000F920FB60F9211242F933F934F935F9347
:1025F0006F937F938F939F93AF93BF93EF93FF93CB
:102600008091B900887F803609F49CC068F58832D3
:1026100009F45BC090F4803109F454C038F4882385
:1026200009F4F6C0883009F44DC0F6C0883109F4C9
:102630004CC0803209F45DC0EFC0803409F468C03A
:1026400048F4803309F455C0883309F0E5C080931D
:10265000E103D8C0803509F44FC0883509F45DC066
:10266000883409F0D9C0D6C0883909F4C7C0A8F4A5
:10267000883709F467C038F4883609F463C08037B6
:1026800009F460C0C9C0883809F4B8C0803909F4B9
:102690005FC0803809F0C0C05BC0803B09F486C0D1
:1026A00038F4803A09F466C0883A09F47FC0B4C0AF
:1026B000803C09F4A7C0883C09F4A4C0883B09F415
:1026C0008AC0AAC08091BE0310C09091E00380919F
:1026D000DF03981770F5E091E00381E08E0F80939F
:1026E000E003F0E0E154FC4F80818093BB0085EC77
:1026F00086C08093E1038EC0E091E00381E08E0FFD
:102700008093E0038091BB00F0E0E154FC4F8083B4
:102710009091E0038091DF036EC0E091E00381E0DF
:102720008E0F8093E0038091BB00F0E0E154FC4FFA
:1027300080838091E20381116DC081E08093BD03AD
:1027400084EA61C083E08093E30310921202CFCF4A
:1027500080911202803208F051C0E091120281E0B3
:102760008E0F809312028091BB00F0E0EE50FE4F7E
:102770008083BDCF85EC8093BC001092E3038091F1
:102780001202803230F4E0911202F0E0EE50FE4F7F
:1027900010826091120270E0E091F001F091F1017D
:1027A00082EF91E009951092120236C084E0809386
:1027B000E3031092EF011092EE01E091EC01F09131
:1027C000ED0109958091EE01811105C081E08093B2
:1027D000EE011092CC01E091EF0181E08E0F809329
:1027E000EF01F0E0E453FE4F80818093BB009091B5
:1027F000EF018091EE01981708F479CF85E8809376
:10280000BC000AC085EC8093BC001092E30304C0B6
:102810001092E1030E94FB0CFF91EF91BF91AF91E9
:102820009F918F917F916F915F914F913F912F91E8
:102830000F900FBE0F901F90189580916403811127
:1028400016C08AE090E0909367038093660366E782
:1028500071E082E393E00E94433181E0809364035E
:10286000809168038093650386E0809368031092EB
:102870002E0310922F031092300310923103109206
:102880002A0310922B0310922C0310922D03809197
:10289000600390916103A0916203B0916303809300
:1028A000010190930201A0930301B0930401809170
:1028B000690390916A03A0916B03B0916C038093BC
:1028C000260390932703A0932803B0932903109223
:1028D00022031092230310922403109225031092D6
:1028E0001E0310921F0310922003109221031092D6
:1028F000400310924103109242031092430310923E
:102900004403109245031092460310924703089522
:102910008F929F92AF92BF92CF92DF92EF92FF92EF
:10292000CF93DF936B017C015A01C22F82E3809326
:102930009E0480E180939F0482ED99E00E94201E16
:10294000C230F0F420E030E04AE754E4C701B601B9
:102950000E941C2F87FF04C08CE791E00E946D1E2F
:10296000C1110EC020E030E44CE156E4C701B601CD
:102970000E941C2F87FF04C08CE791E00E946D1E0F
:1029800020E030E048EC52E4C701B6010E941C2F61
:1029900087FF04C08CE791E00E946D1E20E030E0CC
:1029A00040E251E4C701B6010E941C2F87FF04C01A
:1029B0008CE791E00E946D1E2C2F30E0B701A6013C
:1029C00083E694E00E946E24C5010E946D1E85E49A
:1029D00092E00E94201E0E9426208EE7A81681E029
:1029E000B80609F099C010929E0487E080939F0476
:1029F00060E071E083E694E00E94D71810929E0494
:102A000080E180939F046091220370912303809161
:102A100024039091250320911E0330911F034091C0
:102A20002003509121030E94D13020E030E04AE79A
:102A300054E40E94212FAB01BC0122E030E083E688
:102A400094E00E946E248EE791E00E946D1E2AE9B8
:102A500039E941E251E4C701B6010E94CC301816B1
:102A6000BCF02DEC3CEC4CE85FE3C701B6010E94E2
:102A7000CC301816D4F0EDEC8E2EECEC9E2EECE85B
:102A8000AE2EEFE3BE2E2CEB34E743E15CE318C03F
:102A90007DEC872E7CEC972E78ECA72E71E4B72E78
:102AA00022EF32ED4DE45EE30BC063E3862E982CFB
:102AB00063EAA62E60E4B62E2EE93FEE47E25DE320
:102AC000C701B6010E94212F6B017C01C2E0D0E05A
:102AD000BE010D2E000C880B990B0E94C42FA7017C
:102AE00096010E941C2F18162CF040E16AE18C2FF1
:102AF0000E94B01F2196CF37D10551F748E06CE214
:102B000080E00E94B01F81E080939E04C4E3C093E4
:102B10009F046EEF70E07CC180E8A81681E0B806E3
:102B200009F0DDC010929E0487E080939F0468EF57
:102B300070E083E694E00E94D71810929E0480E132
:102B400080939F0440912E0350912F036091300396
:102B50007091310322E030E083E694E00E946E241D
:102B600080E891E00E946D1EE0911D03F0E0EE0F01
:102B7000FF1FEF5CFE4F6081718180E090E00E945A
:102B8000C22F20E030E04EEF52E40E94212F4B0193
:102B90005C019B01AC01C701B6010E94212F6B01B2
:102BA0007C01C2E0D0E0BE010D2E000C880B990B19
:102BB0000E94C42FA70196010E941C2F18162CF00A
:102BC00040E16AE18C2F0E94B01F2196CE37D105DB
:102BD00051F760912E0370912F03809130039091F3
:102BE0003103A50194010E94212F0E94932F862F6B
:102BF00040E16AE10E94B01F48E06CE280E00E9480
:102C0000B01F81E080939E04C4E3C0939F0466EFED
:102C100070E083E694E00E94D71848E06CE280E41C
:102C20000E94B01F80E280939E04C0939F04E091B5
:102C30001D03F0E0EE0FFF1FEF5CFE4F608171811E
:102C400080E090E00E94C22F20E030E0A9010E94C5
:102C5000B02E20E030E04AE754E40E94212F20E02B
:102C600030E040E05FE30E94D130AB01BC0122E0E4
:102C700030E083E694E00E946E2464EF70E083E627
:102C800094E00E94D71881E680939E04C0939F042D
:102C9000E0911D03F0E0EE0FFF1FEF5CFE4F60813F
:102CA000718180E090E00E94C22F20E030E0A90115
:102CB0000E94B02E20E030E04AE754E40E94212F29
:102CC000AB01BC0122E030E083E694E00E946E2478
:102CD00062EF70E083E694E00E94D718C4C083E8F6
:102CE000A81681E0B80609F0CDC010929E0487E0D6
:102CF00080939F046DEE70E083E694E00E94D71805
:102D00004091710350917203609173037091740349
:102D100022E030E083E694E00E946E2410929E044C
:102D200080E180939F0468EE70E083E694E00E9467
:102D3000D71840916D0350916E0360916F037091AD
:102D4000700322E030E083E694E00E946E242AE9DA
:102D500039E941E451E4C701B6010E94CC301816AC
:102D6000B4F023E333E343EA50E4C701B6010E9421
:102D7000CC301816BCF023E3822E982C23EAA22E26
:102D800020E4B22E2EE93FEE47E25DE316C0812C2F
:102D9000912C90EDA92E91E4B92E2DE33AE047E570
:102DA0005EE30BC08AE9882E89E9982E81E4A82E7B
:102DB000BA2C29E334EB48EC5DE3C701B6010E946D
:102DC000212F6B017C01C2E0D0E0BE010D2E000C72
:102DD000880B990B0E94C42FA70196010E941C2FFB
:102DE00018162CF040E16AE18C2F0E94B01F21964A
:102DF000CF37D10551F748E06CE280E00E94B01F68
:102E000081E080939E04C4E3C0939F0466EE70E06B
:102E100083E694E00E94D71848E06CE280E40E94C8
:102E2000B01F80E280939E04C0939F0420E030E0B6
:102E300040E05FE3C501B4010E94D130AB01BC01A9
:102E400022E030E083E694E00E946E2481E68093E5
:102E50009E04C0939F0422E030E0B501A40183E604
:102E600094E00E946E2448E06CE28FE7DF91CF91FE
:102E7000FF90EF90DF90CF90BF90AF909F908F909A
:102E80000C94B01FDF91CF91FF90EF90DF90CF9027
:102E9000BF90AF909F908F9008951F93CF93DF9333
:102EA000C0E0D0E016E3E0911D03C038D10519F170
:102EB00080911C03DE01A80FB11DAF77BB27AA0FBD
:102EC000BB1FA45EBD4F2D913C91A6E3B0E00E94D4
:102ED000B131F0E0EE0FFF1FEF5CFE4F208131813A
:102EE00040E050E00E947031612F621B8C2F0E94E5
:102EF0003E1F2196D8CF88E680939E0487E080937A
:102F00009F04F0E0EE0FFF1FEF5CFE4F60817181C8
:102F100080E090E00E94C22F20E030E0A9010E94F2
:102F2000B02E20E030E04AE754E40E94212FAB01AC
:102F3000BC0122E030E083E694E0DF91CF911F9165
:102F40000C946E24CF92DF92EF92FF920F931F9317
:102F5000CF93DF936C017A018B01C0E0D0E0CE15F6
:102F6000DF0589F0D8016D918D01D601ED91FC91BD
:102F70000190F081E02DC6010995892B11F47E01A5
:102F800002C02196ECCFC701DF91CF911F910F9125
:102F9000FF90EF90DF90CF900895CF93DF931F9233
:102FA000CDB7DEB76983DC01ED91FC910280F3813E
:102FB000E02D41E050E0BE016F5F7F4F09950F901B
:102FC000DF91CF91089583E08093E9008091F20032
:102FD000882319F08AE38093E8000895FC01848532
:102FE000958597FD0BC09FB7F89482E08093E90028
:102FF0008091F2009FBF90E0019608959FB7F894EA
:1030000082E08093E9008091F2009FBF90E00895F4
:1030100090E0FC013197EF30F105B0F5EC59FF4F2E
:103020000C94952E809180008F7703C08091800052
:103030008F7D80938000089580918000877FF9CFF5
:1030400084B58F7702C084B58F7D84BD089580914B
:1030500090008F7707C0809190008F7D03C0809192
:103060009000877F8093900008958091C0008F77B3
:1030700003C08091C0008F7D8093C000089580912F
:10308000C200877F8093C20008953FB7F894809173
:10309000970390919803A0919903B0919A0326B554
:1030A000A89B05C02F3F19F00196A11DB11D3FBF80
:1030B000BA2FA92F982F8827820F911DA11DB11D0E
:1030C000BC01CD0142E0660F771F881F991F4A950A
:1030D000D1F708950895DC011696ED91FC911797AC
:1030E00012968C91481B477081E090E001C0880FD8
:1030F0004A95EAF7E60FF11D3081222311F0832B68
:1031000002C0809583238083089580E008950B9604
:10311000FC01849108950A96FC0184910895CF934F
:10312000DF931F92CDB7DEB7FC018485958597FDAF
:1031300005C02FEF3FEF358724870BC0CE010196E6
:103140000E94B425019719F4898190E002C08FEFA5
:103150009FEF0F90DF91CF9108950F931F93CF931F
:10316000DF931F92CDB7DEB78C01FC018485958576
:1031700097FF0EC0CE0101960E94B425019719F465
:10318000298130E002C02FEF3FEFF8013587248717
:10319000F801848595850F90DF91CF911F910F9154
:1031A000089568E00C94C11266E00C94C112EF928D
:1031B000FF920F931F93CF93DF938C017B01C0E0AD
:1031C000D0E0F701EC0FFD1F6491662361F0D80198
:1031D000ED91FC910190F081E02DC8010995892BBA
:1031E00011F02196EECFCE01DF91CF911F910F917B
:1031F000FF90EF9008956115710579F0FB01019042
:103200000020E9F73197AF01461B570BDC01ED9128
:10321000FC910280F381E02D099480E090E0089514
:10322000CF93DF93282F30E0F901ED53F84E8491CE
:10323000F901EC55F84ED491F901EB57F84EC491D1
:10324000CC2391F081110E940818EC2FF0E0EE0FD2
:10325000FF1FE958F84EA591B491EC91ED2381E060
:1032600090E021F480E002C080E090E0DF91CF9117
:1032700008951F93CF93DF93282F30E0F901ED538A
:10328000F84E8491F901EC55F84ED491F901EB57C1
:10329000F84EC491CC23C9F0162F81110E94081852
:1032A000EC2FF0E0EE0FFF1FE759F84EA591B49117
:1032B0008FB7F894111105C09C91ED2FE095E9238B
:1032C00002C0EC91ED2BEC938FBFDF91CF911F915A
:1032D0000895CF93DF9390E0FC01EC55F84E2491D4
:1032E000FC01EB57F84E8491882361F190E0880F40
:1032F000991FFC01E55AF84EC591D491FC01E7599C
:10330000F84EA591B491611109C09FB7F8948881D6
:10331000209582238883EC912E230BC0623061F4C8
:103320009FB7F8943881822F809583238883EC910E
:103330002E2B2C939FBF06C08FB7F894E8812E2BBD
:1033400028838FBFDF91CF910895823108F0825199
:10335000E82FF0E0E15BF84EE49180917B00E3FB25
:10336000222720F930E095E0220F331F9A95E1F7EC
:103370008F7D282B20937B00E770E064E0937C0036
:1033800080917A00806480937A0080917A0086FD33
:10339000FCCF809178002091790090E0922B0895E5
:1033A0008F929F92AF92BF92CF92DF92EF92FF9255
:1033B0006B017C010E9445184B015C01C114D104D2
:1033C000E104F104F1F00E944518DC01CB018819F9
:1033D0009909AA09BB09883E9340A105B10570F37C
:1033E00021E0C21AD108E108F10888EE880E83E0D6
:1033F000981EA11CB11CC114D104E104F10419F7F9
:10340000DDCFFF90EF90DF90CF90BF90AF909F9077
:103410008F9008958F929F92AF92BF92CF92DF923A
:10342000EF92FF920F931F93CF93DF935C016B0199
:103430008A0180912601882309F45EC080914B05A2
:10344000882309F459C08091140280FF05C080913F
:10345000E00082608093E000E8018AEFF82E93E0BC
:10346000E92E2FE3822E3AE3932E209709F43DC0F4
:103470008FB7F894E092E9009091E80095FF06C0BC
:103480009091F200282D291B922F01C090E08FBF50
:1034900091110AC0FA94FF2079F161E070E080E0B8
:1034A00090E00E94D019E1CF292F30E0C217D30756
:1034B0000CF49C2F8FB7F894E092E9002091E8007B
:1034C00025FF11C0292F30E0C21BD30BF60191500C
:1034D00020F041914093F100FACFC20ED31E90919B
:1034E000E80095FF13C08FBFC0CF5D9884E680933E
:1034F00044051016110644F081E090E0F501938335
:10350000828380E090E005C0C80103C09092E8008B
:10351000EACFDF91CF911F910F91FF90EF90DF9055
:10352000CF90BF90AF909F908F9008951F920F9271
:103530000FB60F9211242F933F938F939F93AF93C6
:10354000BF938091180290911902A0911A02B09134
:103550001B023091960323E0230F2D3720F40196B0
:10356000A11DB11D05C026E8230F0296A11DB11DA6
:10357000209396038093180290931902A0931A0245
:10358000B0931B028091970390919803A0919903A7
:10359000B0919A030196A11DB11D8093970390935A
:1035A0009803A0939903B0939A03BF91AF919F9111
:1035B0008F913F912F910F900FBE0F901F901895F4
:1035C0001F920F920FB60F9211242F933F934F9398
:1035D0005F936F937F938F939F93AF93BF93EF937B
:1035E000FF93E0911602F09117020995FF91EF9178
:1035F000BF91AF919F918F917F916F915F914F910B
:103600003F912F910F900FBE0F901F901895FB01C7
:103610004181DC0112962C911297421768F01396A3
:103620002C911397241740F0608115962C91621706
:1036300018F424810C946B180895FC018081928108
:10364000980F92832181921760F494819F5F9483F5
:103650009381890F821710F08FEF820F838381E0AF
:10366000089580E00895FC01128280818150838357
:1036700014820895DB01ED91FC910994EF92FF9281
:103680000F931F93CF93DF931F92CDB7DEB78C01BB
:10369000DC011296ED90FC901397D196ED91FC9180
:1036A000D29782E0099520E030E04AE0B701C801F6
:1036B0000E943A1BF82ED801D196ED91FC91D29739
:1036C00083E00995D801D196ED91FC91D29780E0E5
:1036D0000995FF20A1F1F801628173819E012F5F9E
:1036E0003F4F46E4C8010E943A1B8981D8018C9360
:1036F00012966D917C9113979E012F5F3F4F47E487
:10370000C8010E943A1B8981F8018183628173811B
:1037100020E030E048E4C8010E943A1BD8011B9623
:103720008C931B9798012D5C3F4F12966D917C9165
:10373000139747E1C8010E943A1B81E001C080E075
:103740000F90DF91CF911F910F91FF90EF9008950F
:103750002F923F925F926F927F928F929F92AF9241
:10376000BF92CF92DF92EF92FF920F931F93CF936E
:10377000DF931F92CDB7DEB71C01C62E142FD22EB9
:10378000DC011496ED90FC901597C7010E94B412CD
:10379000082FF101848195810E94B712982E013083
:1037A00019F48FE0A82E02C0AA24AA94D10114967D
:1037B0008D919C9115970E948B18082FF10184819F
:1037C00095810E948718B82ED10114968D919C91F5
:1037D00015970E94D118B0E6BD1530F4009721F07E
:1037E000E80EF91E01E611C0F101848195810E9465
:1037F000D418F0E4FD1530F4009721F0E80EF91E1E
:1038000001E403C021E1E20EF11CBD1480F4D101FA
:1038100050961C92509753961C92539754961C9214
:10382000549751961C92519752961C92C7C0B0164D
:1038300070F3892D90E0F70124912F3F21F4FFEFE1
:10384000EF1AFF0A5AC00D114FC0D10114968D9185
:103850009C9115970E94B41297012F5F3F4FF7017B
:10386000882311F08230E1F48491D10153968C9336
:103870005397F901249154962C935497F70133965A
:10388000E4915096EC935097F7013496E491519659
:10389000EC935197F7013596E4915296EC9320C042
:1038A0008491982F9F709250D10152969C93529779
:1038B00082958F7051968C935197F9012491822FA4
:1038C0008F7054968C93549722952F7053962C9307
:1038D0005397F7013296E491E295EF705096EC938E
:1038E000E114F10479F46AC0F7013296E491EA2117
:1038F0009C012E0F311DE20EF31E0B1509F487CF2C
:103900000F5F99CFF101848195810E94B712B82E83
:10391000D10153969C9053975496DC9054975196AE
:103920008C915197C80E52969C919D0D512E591A0B
:103930000D2D292D452D6C2DC1010E94CD128823FE
:10394000D1F1C7018B0D911D5C0187E0890DF82E27
:10395000F694F694F694D50C41019CE1890E911CE5
:103960006F2C712C5D1439F15C2D8501802F8A1923
:103970008F15E8F4F8018491D10112966D917C9134
:1039800013975C965C935C975D965C925D975F96EF
:103990001C925F975E968C9394014BE3C10159830F
:1039A0000E943A1B0F5F1F4F5981585FDFCFA60C53
:1039B000B71C5394D7CFF101808901C080E00F90EC
:1039C000DF91CF911F910F91FF90EF90DF90CF90FB
:1039D000BF90AF909F908F907F906F905F903F903F
:1039E0002F9008952091060490914305213208F00C
:1039F0004AC08091E3038111FCCF32E03093E303AE
:103A000031E03093E2033FEF3093E1031092E003A3
:103A10002093DF03A6EEB3E04FEB53E0FA013E2F15
:103A2000341B321718F43D913193F9CF1092BE0335
:103A30002091BE03990F922B9093BE039091BD03EA
:103A4000913061F41092BD039091BE039093BB003E
:103A50009091BC0093FDF8CF95EC01C095EE90934A
:103A6000BC009091E3039230E1F39091E1039F3F1A
:103A700079F08091E103803241F08091E10380335D
:103A800031F084E005C081E003C082E001C083E042
:103A90001092E503109206041092E4030895DF9259
:103AA000EF92FF920F931F93CF93DF93082FD62FA0
:103AB000C42F142FF62EF40EEE24E394DD24DA94B2
:103AC0008F2D811B1830A8F06091690470916A04F1
:103AD0000093830480938404E0928604D09285044A
:103AE00023E834E04BE387E694E00E943A1B185049
:103AF000E7CF8C2F887FD80F4C2F477029F197E0A4
:103B000049276091690470916A0400938304D093FB
:103B1000840481E0809386044F5F47708FEF90E0CC
:103B200001C0880F4A95EAF78093850423E834E0C2
:103B30004BE387E694E0DF91CF911F910F91FF90C7
:103B4000EF90DF900C943A1BDF91CF911F910F9172
:103B5000FF90EF90DF9008951F93CF93DF93EB01D9
:103B60009091A10421E02093E403909343051092E7
:103B7000E50310920604682F87E594E00E94890D02
:103B80000E94F21C2091A1048091E3038111FCCFDB
:103B900081E08093E3038093E2039FEF9093E1033E
:103BA0001092E0038093DF038093BE039091BE03E5
:103BB000822F880F892B8093BE038091BD038130B3
:103BC00061F41092BD038091BE038093BB0080918D
:103BD000BC0083FDF8CF85EC01C085EE8093BC006E
:103BE0008091E3038130E1F38091E003823018F4A7
:103BF0008091E00301C082E0AFEBB3E02DE933E058
:103C0000F9019E2F921B981718F49D919193F9CF6B
:103C100010929C0380939B0387E594E00E943D0DE6
:103C2000182F87E594E00E943D0D20E030E0312F11
:103C3000820F931F99838883DF91CF911F910895FD
:103C400020916B0430916C042817390709F444C0A3
:103C500090936C0480936B04009709F437C0209113
:103C60007E04FC01211107C03596E491E0937F04A6
:103C7000FC013C960FC0213039F43F96E491E0936B
:103C80007F04FC01709606C03D96E491E0937F04AA
:103C9000FC013E9684918093800480917F04082EDD
:103CA000000C990B20918004821B910927FD9395AC
:103CB00020918104203441F0829FC001112426E02C
:103CC000969587952A95E1F78093820485E898E197
:103CD00090937D0480937C040895BC0183E694E076
:103CE0000C94FB18CF93DF938091A004811107C03F
:103CF00081E08093A00487E694E00E943E1BC0917F
:103D00006904D0916A04E0919804F091990482E0EA
:103D10000995E0919804F091990481E0099520E0DB
:103D200030E044E1BE0187E694E00E943A1B2AE9B4
:103D300034E047E1BE0187E694E00E943A1BE0913F
:103D40009804F091990480E0DF91CF910994CF928B
:103D5000DF92FF920F931F93CF93DF9300D0CDB7E5
:103D6000DEB7F82E062FE0917C04F0917D0487E603
:103D700094E049835A830995080F4981C42E5A81DA
:103D8000D52E10E0F60121916F01222349F0402F3A
:103D90006F2D87E694E00E94A81BF80E180FF2CF53
:103DA000812F0F900F90DF91CF911F910F91FF9076
:103DB000DF90CF9008950F931F93CF93E0917504F8
:103DC000F0917604309719F087E694E00995009118
:103DD000690410916A04E0919804F091990482E0DA
:103DE0000995E0919804F091990481E0099520E00B
:103DF00030E045E1B80187E694E00E943A1BC82F05
:103E0000882341F02AE934E047E1B80187E694E0ED
:103E10000E943A1BE0919804F091990480E0099582
:103E20008C2FCF911F910F9108951F93CF93DF9304
:103E30001F92CDB7DEB7162F9091A10421E02093F9
:103E4000E403909343051092E50310920604682F53
:103E500087E594E079830E94890D7981672F87E552
:103E600094E00E94890D612F87E594E00E94890DFE
:103E70000F90DF91CF911F910C94F21C962FE3E6E7
:103E8000F4E06681778180A391A323E834E042E3E4
:103E900087E694E00C943A1BFF920F931F93CF9305
:103EA000DF93C82FD62F142FF22E00FF0CC0622FE5
:103EB0006D1B842F8C0F0E943E1F6F2D6C1B8D2F4E
:103EC000810F0E943E1F01FF0CC06F2D6D1B812FC3
:103ED0008C1B0E943E1F6F2D6C1B812F8D1B0E941F
:103EE0003E1F03FF0CC06F2D6D0F812F8C0F0E94A2
:103EF0003E1F6F2D6C0F8D2F810F0E943E1F02FF02
:103F000011C06F2D6D0F812F8C1B0E943E1F6F2DD6
:103F10006C0F812F8D1BDF91CF911F910F91FF901F
:103F20000C943E1FDF91CF911F910F91FF90089548
:103F30000F931F93CF93DF93C82FD62F042F262FD5
:103F4000482F61E080E00E944C1F2D2F4C2F60E035
:103F500081E00E944C1FDF91CF911F910F91089536
:103F60000F931F93CF93DF93C82FD62F142F042FB7
:103F700021E0462F682F87E694E00E94CD12882327
:103F800049F0412F6D2F8C2FDF91CF911F910F9111
:103F90000C944F1DDF91CF911F910F910895EF92D7
:103FA000FF920F931F93CF93DF93D82F062FC42F29
:103FB000142FF82EF40EEE24EA948F2D811B183066
:103FC000A8F06091690470916A048093830400935F
:103FD000840410928604E092850423E834E04BE3E5
:103FE00087E694E00E943A1B1850E7CF8C2F887F19
:103FF000D80F4C2F477019F197E049276091690459
:1040000070916A04D0938304009384041092860410
:104010004F5F47708FEF90E001C0880F4A95EAF735
:104020008093850423E834E04BE387E694E0DF9156
:10403000CF911F910F91FF90EF900C943A1BDF915D
:10404000CF911F910F91FF90EF9008950F9304E18E
:1040500020E848E160E087E694E00E94CD128823E2
:1040600049F142E069E181E00E94981F41E069E185
:104070008EE70E94981F44E06AE281E00E94981F48
:1040800048E06AE28EE70E94981F4CE768E182E010
:104090000E94CF1F4CE76BE282E00E94CF1F40E1FD
:1040A0006AE180E00E944F1D40E16AE18FE70F91D5
:1040B0000C944F1D0F910895CF92DF92EF92FF92D3
:1040C00020E030E040E05FE30E94B02E0E94FF2F2E
:1040D0006B017C0120E030E04AE754E40E941C2F91
:1040E00087FF04C08CE791E00E946D1E20E030E065
:1040F00048EC52E4C701B6010E941C2F87FF04C0A0
:104100008CE791E00E946D1E20E030E040E251E437
:10411000C701B6010E941C2F87FF04C08CE791E005
:104120000E946D1E20E030E0B701A60183E694E016
:10413000FF90EF90DF90CF900C946E244091480553
:104140005091490520914605309147054217530784
:10415000B4F49091E8009570E1F39091E80092FD3D
:1041600019C08093F100809148059091490501960E
:104170008F739927892B19F48EEF8093E800809133
:10418000480590914905019690934905809348050B
:1041900081E0089580E00895CF92DF92EF92FF9240
:1041A0000F931F93CF93DF931F92CDB7DEB7182FD6
:1041B000062FE42E862F880F8E5F99830E949E2003
:1041C00083E00E949E20F12EC12E9981D92E8C2D44
:1041D0008F19801798F4F601E7FE02C0849101C0A0
:1041E00080810E949E20182F80E00E949E208123C3
:1041F000FFEFCF1ADF0A8111EACF01C081E00F90F3
:10420000DF91CF911F910F91FF90EF90DF90CF90B2
:104210000895DF92EF92FF920F931F93CF93DF9356
:10422000D82E8A017B01E40EF51EEB01CE15DF05C9
:1042300071F0D7FE03C0FE01849101C088810E9405
:104240009E2021968111F2CF8FEF9FEF01C0C80110
:10425000DF91CF911F910F91FF90EF90DF90089524
:10426000615030F02091F100FC0120830196F8CFDD
:10427000289884E680934A0508950F931F93CF935F
:10428000DF931F92CDB7DEB782E0898342E450E02E
:1042900062EE77E180E80E9409210E94DE25DC01C0
:1042A00012960D911C9113970115110569F0D80113
:1042B000ED91FC910280F381E02DBE016F5F7F4F95
:1042C000C801099597FF07C089810F90DF91CF91B1
:1042D0001F910F910895F80100851185E5CF1F9278
:1042E0000F920FB60F9211248F939F938091E1004C
:1042F0009091E100937F9093E10083FF0FC01092B3
:10430000E90091E09093EB001092EC0092E390931F
:10431000ED0010924B0598E09093F00082FF20C0D2
:1043200093E09093E9009091F200992319F09AE3B9
:104330009093E80090914405992339F090914405B9
:10434000915090934405992389F190914A059923BE
:1043500039F090914A05915090934A05992341F183
:1043600084FF10C08091E2008E7E81608093E20025
:104370008091E1008F7E8093E100809114028E7E17
:10438000806111C080FF16C08091E2008E7E806146
:104390008093E2008091E1008E7E8093E100809125
:1043A00014028E7E81608093140204C05D9ACDCF8A
:1043B000289AD6CF9F918F910F900FBE0F901F908C
:1043C00018951F920F920FB60F921124CF92DF9281
:1043D000EF92FF920F931F932F933F934F935F930F
:1043E0006F937F938F939F93AF93BF93EF93FF93BD
:1043F000CF93DF93CDB7DEB76C97DEBFCDBF109202
:10440000E9008091E80083FFFAC168E0CE0145969B
:104410000E94302182EF8093E8008D8987FF05C0DC
:104420009091E80090FFFCCF03C09EEF9093E800CE
:10443000982F907609F0C6C09E892F89188D91110A
:104440000CC0803829F4809115028093F10002C0DD
:104450001092F1001092F10047C1422F50E0512B11
:10446000913051F4811140C14130510509F03CC1F6
:10447000809115028D7F0BC0933061F4811134C19E
:104480004130510509F030C180911502826080935E
:1044900015022AC1953041F48091E80080FFFCCFDD
:1044A00020682093E30020C1963009F05FC0EB8CB8
:1044B000FC8C1092E90010924905109248051230C8
:1044C00091F510924705109246050E943D2199E012
:1044D000BE016F5F7F4FDB01E92F1D92EA95E9F77F
:1044E00099831A8391E09E8390EA98879AEF99873F
:1044F0002091480530914905275F3F4F3C832B832E
:104500008D831092E9001092490510924805F092AF
:104510004705E092460549E050E080E00E9409210D
:104520000E943D21E1C0F0924705E09246050E94BD
:10453000DE25DC011296ED90FC901397E114F10456
:1045400009F4C0C0D701ED91FC910480F581E02D04
:10455000BE016B5E7F4FC7010995009719F00CF003
:10456000C3C0C6C0F701E084F184E8CF973009F4F6
:10457000BFC0983021F481E08093F100B5C099303C
:1045800009F0B2C0837009F0B3C0E0E7F1E081E068
:1045900021E036E39081992361F08093E900209334
:1045A000EB0091919093EC003093ED008F5F87309A
:1045B00089F78EE78093EA001092EA008F89809352
:1045C0004B0592C08B8D9C8D1092E900109249058D
:1045D000109248059093470580934605898D811177
:1045E00056C08E899D89913A59F4813209F080C074
:1045F00047E050E06FE171E080E00E94092174C063
:10460000913209F075C0833289F4888D90E0982F3B
:1046100088272F89822BA0E0B0E080931B01909324
:104620001C01A0931D01B0931E015EC0803269F48D
:104630008091E80082FFFCCF67E08FE191E00E946B
:1046400030218BEF8093E80006C0823209F04CC025
:104650008F898093260180911302882319F0EEEF51
:10466000FAE002C0E0E0F8E080911F0190912001A3
:10467000A0912101B0912201803B9440A105B10598
:1046800009F088C08091260180FFA0C083C00E94ED
:10469000DE25DC0112960D911C9113970115110571
:1046A00039F1D801ED91FC910190F081E02DBE012E
:1046B0006B5E7F4FC8010995811116C0F801008516
:1046C0001185ECCF1130C1F0133091F48F8988231C
:1046D00009F455C08230E9F440E860E184E398E1F0
:1046E0000E94CC20882321F08EEF8093E80087C0C1
:1046F00081E28093EB0083C08B8D9C8D089711F431
:104700001093450580914505811136C065E478E137
:1047100038C0813029F440E86BE088E298E1E0CFCE
:10472000833031F70E94DE25DC011296ED90FC907B
:1047300013978E010F5F1F4F6801E114F10479F0A8
:10474000D701ED91FC910680F781E02DB801C701FA
:104750000995080F111DF701E084F184EECFD8010F
:104760001C92F60101900020E9F73197BF016C1906
:104770007D0940E0C601B4CF67E578E102C064E29C
:1047800078E16115710509F4B3CFFB01449150E064
:1047900080E833CF0FB6F894A895809160008861C7
:1047A00080936000109260000FBEA895EE3F2AE053
:1047B000F20739F08091FE0A9091FF0A918380837D
:1047C00093CF1092FF0A1092FE0A8ECFEE3F8AE03E
:1047D000F80731F0808191819093FF0A8093FE0A5F
:1047E00087E797E7918380839BE088E10FB6F89491
:1047F000A895809360000FBE9093600075CF6C9673
:104800000FB6F894DEBF0FBECDBFDF91CF91FF9101
:10481000EF91BF91AF919F918F917F916F915F9138
:104820004F913F912F911F910F91FF90EF90DF904B
:10483000CF900F900FBE0F901F9018954F925F92E0
:104840006F927F92EF92FF920F931F93CF93DF931C
:10485000CDB7DEB7A1970FB6F894DEBF0FBECDBFC0
:104860007C01FA01CB0119A2223008F42AE08E0162
:104870000F5D1F4F422E512C612C712CBF01A301E3
:1048800092010E948F31F901CA01015011096A3069
:1048900014F4605D01C0695CD8016C93232B242B58
:1048A000252B61F7B801C7010E94FB18A1960FB62E
:1048B000F894DEBF0FBECDBFDF91CF911F910F9156
:1048C000FF90EF907F906F905F904F900895DC0184
:1048D000ED91FC910190F081E02D09944F925F924F
:1048E0006F927F928F929F92AF92BF92CF92DF9200
:1048F000EF92FF92CF93DF93EC016A017B01B22E1E
:104900009A01AB01C701B6010E943E31882319F01C
:104910006BEB71E027C026013701E89477F82FEFA1
:104920003FEF4FE75FE7C301B2010E943E318111C3
:104930000DC02FEF3FEF4FE75FE7C301B2010E94C9
:104940001C2F18161CF46FEB71E00CC02FEF3FEF1B
:104950004FE75FE4C701B6010E94CC3018169CF403
:1049600063EC71E0CE01DF91CF91FF90EF90DF908B
:10497000CF90BF90AF909F908F907F906F905F90FF
:104980004F900C94FB182FEF3FEF4FE75FECC70100
:10499000B6010E941C2F87FDE3CF20E030E0A90183
:1049A000C701B6010E941C2F87FF0AC06DE2CE012D
:1049B0000E9467244C01F7FAF094F7F8F09402C0D3
:1049C000812C912CA12C60E070E080E09FE3AB147F
:1049D00040F420E030E040E251E40E94212FA39413
:1049E000F6CF9B01AC01C701B6010E94B02E2B018E
:1049F0003C010E94932F6B017C010E94C22F9B01FE
:104A0000AC01C301B2010E94AF2E2B013C012AE090
:104A1000B701A601CE010E941E247C01E80CF91CFE
:104A2000BB2031F06EE2CE010E946724E80EF91E31
:104A3000DB2CDD2029F120E030E040E251E4C3012D
:104A4000B2010E94D1302B013C010E94932F4B01F7
:104A5000A12CB12C2AE0B501A401CE010E941E2494
:104A6000E80EF91EC501B4010E94C22F9B01AC01E2
:104A7000C301B2010E94AF2E2B013C01DA94D9CFC1
:104A8000C701DF91CF91FF90EF90DF90CF90BF9063
:104A9000AF909F908F907F906F905F904F90089510
:104AA0000F93CF93C82F01E020E8482F60E087E6FE
:104AB00094E00E94CD12882339F040E86C2F80E00A
:104AC000CF910F910C94CF1FCF910F910895CF925A
:104AD000DF92EF92FF926B017C0120E030E04AE729
:104AE00054E40E941C2F87FF04C08CE791E00E94D1
:104AF0006D1E20E030E048EC52E4C701B6010E9490
:104B00001C2F87FF04C08CE791E00E946D1E20E0FF
:104B100030E040E251E4C701B6010E941C2F87FF3C
:104B200004C08CE791E00E946D1E22E030E0B701E6
:104B3000A60183E694E0FF90EF90DF90CF900C9475
:104B40006E24CF93DF93BC0187E094E00E94D718D6
:104B5000EC0168EB71E087E094E00E94FB188C0F99
:104B60009D1FDF91CF910895FC0180914B0581112C
:104B700003C08FEF9FEF08959FB7F89482E0809372
:104B8000E9002091F20030E01216130614F421E03F
:104B900030E02115310559F0289884E680934A05C4
:104BA0008091F10080838091F200882319F09FBFEB
:104BB000C90108958BE68093E800F9CF80915005F4
:104BC00081110DC082E080934C0584E080934D05F7
:104BD00010924F0510924E0581E0809350058CE4B1
:104BE00095E00895CF93DF9300D000D0CDB7DEB726
:104BF000789484B5826084BD84B5816084BD85B5B8
:104C0000826085BD85B5816085BD80916E008160C3
:104C100080936E0010928100809181008260809369
:104C2000810080918100816080938100809180006B
:104C300081608093800080919100826080939100D8
:104C400080919100816080939100809190008160BB
:104C5000809390008091C10084608093C100809116
:104C6000C10082608093C1008091C1008160809307
:104C7000C1008091C30081608093C3008091C00017
:104C800082608093C0008091C20081608093C200E6
:104C900080917A00846080937A0080917A008260AB
:104CA00080937A0080917A00816080937A0080916D
:104CB0007A00806880937A0010924B05109215025A
:104CC000109214028091D70081608093D70080EA0F
:104CD0008093D80089B5806189BD89B5826089BD1E
:104CE00009B400FEFDCF61E070E080E090E00E943A
:104CF000D0198091D8008F7C80618093D8008091FA
:104D0000E000807F8093E0008091E1008E7E8093C0
:104D1000E1008DE08093E200559A209AEEEFFFE7E4
:104D2000859194918B3F9C4D19F481E080931302FF
:104D300061E08DE00E94691961E08DE00E943919FF
:104D400084E190E0A0E0B0E08093AD049093AE04E5
:104D5000A093AF04B093B0048AEF90E0A0E0B0E07D
:104D60008093B1049093B204A093B304B093B404BD
:104D700080ED97E0A0E0B0E08093B5049093B60496
:104D8000A093B704B093B8048FEF9FEF90931404EF
:104D90008093130410929C0310929B031092E503DE
:104DA000109206041092E30311E01093E2031092B4
:104DB000BD0361E082E00E94391961E083E00E9456
:104DC00039198091B9008E7F8093B9008091B90024
:104DD0008D7F8093B90088E48093B80085E4809348
:104DE000BC008AE090E0A0E0B0E08093A204909341
:104DF000A304A093A404B093A50482E090E0A0E0F3
:104E0000B0E08093A6049093A704A093A804B09365
:104E1000A90460E070E185E00E94151F6FE17CE36A
:104E200080E00E94151F85E492E00E94201E1093EE
:104E30008704ECE1F2E080E0119211928F5F8038FC
:104E4000D9F70E94721E18E245E851E06AE082E05C
:104E50000E94A71E44E951E064E185E00E94A71E7C
:104E600045EA51E06EE185E00E94A71E85E080934F
:104E70009E0410939F0422E030E04DE35AE067E087
:104E800070E483E694E00E946E240E94DB1E811190
:104E9000DBCF60ED77E080E090E00E94D01960E029
:104EA0008DE00E94391980E180938100109280008A
:104EB00083E08093770384ED90E39093760380936F
:104EC0007503909387008093860083E1809381002F
:104ED00083E99FE0909317028093160281E080930C
:104EE0006F00AE014F5F5F4F5C834B83E6E02E2E79
:104EF000312C8FB7F894C0901802D0901902E0902E
:104F00001A02F0901B028FBF8091B9040E94101901
:104F100021E0892B09F420E02093BB048091BA049E
:104F2000811104C081E082278093BB042091BB04DF
:104F30008091BC04281741F0C092BF04D092C004F5
:104F4000E092C104F092C2048091BF049091C00429
:104F5000A091C104B091C204B701A601481B590B2E
:104F60006A0B7B0BDB01CA014091AD045091AE048A
:104F70006091AF047091B004481759076A077B0726
:104F800094F43091AC04231771F02093AC042223E5
:104F900051F04091BD045091BE044F5F5F4F50935C
:104FA000BE044093BD043091AC04311112C0409155
:104FB000B1045091B2046091B3047091B4044817E5
:104FC00059076A077B070CF58091BD049091BE04D8
:104FD00014C04091B5045091B6046091B70470912B
:104FE000B804481759076A077B077CF48091BD0411
:104FF0009091BE049195819591099093AB04809313
:10500000AA041092BE041092BD042093BC048FB772
:10501000F894409018025090190260901A02709013
:105020001B028FBF8091920390919303A0919403F0
:10503000B0919503A3019201281B390B4A0B5B0B1E
:10504000253631054105510508F4F2C28EE58093FD
:105050007C0062E070E080E090E00E94D0198091D6
:105060007A00806480937A0080917A0086FDFCCF7C
:10507000209178008091790030E0382B032E000CCD
:10508000440B550B64EB7BE281E190E00E947031B0
:10509000CA01B9010E94C42F20E030E04AE754E47D
:1050A0000E94212F6B017C0183E10E94A519BC01A4
:1050B000990F880B990B0E94C42FA70196010E949B
:1050C000D13020E030EC4FE754E40E94212F609370
:1050D000710370937203809373039093740382E15E
:1050E0000E94A519BC01990F880B990B0E94C42F2F
:1050F000A70196010E94D13020E030EC4FE754E444
:105100000E94212F60936D0370936E0380936F0351
:1051100090937003C0906903D0906A03E0906B0392
:10512000F0906C0310911D03A12EB12CF501EE0F30
:10513000FF1FEF5CFE4F6081718180E090E00E9474
:10514000C22F9B01AC01C701B6010E94CC301816DA
:10515000CCF4E12FF0E0EE0FFF1FEF5CFE4F60811B
:10516000718180E090E00E94C22F9B01AC01C701D9
:10517000B6010E94CC3018160CF053C01F5F1630D9
:1051800041F74FC0112309F45FC0F501EE0FFF1F77
:10519000E15DFE4F6081718180E090E00E94C22F4E
:1051A0009B01AC01C701B6010E941C2F87FF3BC0C9
:1051B000009100010150009300012091780330918B
:1051C000790340917A0350917B03C701B6010E9495
:1051D000CC30181644F4C0927803D0927903E09250
:1051E0007A03F0927B0301112FC080907803909096
:1051F0007903A0907A03B0907B03E12FF0E0EE0FEB
:10520000FF1FE15DFE4F6081718180E090E00E94B0
:10521000C22F9B01AC01C501B4010E941C2F87FD68
:105220000EC010931D0380E8809300011092780354
:105230001092790310927A0310927B0305C01150EB
:10524000E1F610921D03EFCFA0901C03B12C850155
:10525000000F111F045E1D4FC701B6010E94932F5E
:10526000D8016D937C93BFEFAB1ABB0AE894A7F803
:10527000BB24A0921C03809168038630B9F480910E
:105280009103482F50E02091660330916703241763
:10529000350720F08F5F8093910308C080916503EC
:1052A0008093680310929103109264030E94721E0F
:1052B0000CE187E0F82E11E190E2E92E28E2D22EEF
:1052C000E09168038E2F90E08730910508F05BC174
:1052D000FC01E35AFF4F0C94952E00939E04F0922C
:1052E0009F0463E671E083E694E00E94D71887E0AC
:1052F0000E94502510929E0410939F0460914003D9
:105300007091410380914203909143030E9467256D
:105310006EE571E083E694E00E94D718E0E4E09344
:105320009E0410939F046091440370914503809103
:105330004603909147030E9467256AE571E083E682
:1053400094E00E94D71810929E04E0929F0463E5B7
:1053500071E083E694E00E94D71860912203709177
:105360002303809124039091250320911E03309103
:105370001F0340912003509121030E94D13020E06F
:1053800030E04AE754E40E94212FAB01BC0122E047
:1053900030E083E694E00E946E248EE791E00E9464
:1053A0006D1E10929E04D0929F0460E571E083E62A
:1053B00094E00E94D71840912203509123036091FA
:1053C00024037091250322E030E083E694E00E94FC
:1053D0006E246BE471E083E694E00E94D71840915C
:1053E0001E0350911F03609120037091210322E05E
:1053F00030E083E694E00E946E2468E471E069C0C6
:1054000000939E04F0929F046CE871E083E694E0C0
:105410000E94D71887E00E94502510929E04109396
:105420009F0466E871E083E694E00E94D7186091DB
:105430002E0370912F0380913003909131030E94CD
:105440005C2061E871E083E694E00E94D718409107
:105450002A0350912B0360912C0370912D0322E0BD
:1054600030E083E694E00E946E246DE771E083E60D
:1054700094E00E94D71810929E04E0929F0468E77F
:1054800071E083E694E00E94D718409101015091A9
:105490000201609103017091040122E030E083E693
:1054A00094E00E946E2464E771E083E694E00E9439
:1054B000D7184091260350912703609128037091DB
:1054C000290322E030E083E694E00E946E2460E746
:1054D00071E083E694E00E94D71885E30E9450258E
:1054E00054C06091690370916A0380916B0390913D
:1054F0006C032091600330916103409162035091ED
:1055000063030E94D13020E030E04AE754E40E9477
:10551000212F22E04EE751E017C06091690370919E
:105520006A0380916B0390916C0320E040E851E0A6
:105530000BC0609160037091610380916203909150
:10554000630322E043E851E00E9488141EC080916A
:10555000910390E020916603309167032817390783
:10556000A0F010929E04F0E1F0939F0482ED99E088
:105570000E94201E82E393E00E946D1E85E492E06B
:105580000E94201E02C00E944D1710929E0420E42B
:1055900020939F04409160035091610360916203E6
:1055A0007091630322E030E083E694E00E946E2471
:1055B0006CE971E083E694E00E94D718609169037A
:1055C00070916A0380916B0390916C030E945C2040
:1055D00068E971E083E694E00E94D718609169035E
:1055E00070916A0380916B0390916C03209160032A
:1055F0003091610340916203509163030E94D13066
:1056000020E030E04AE754E40E94212F0E94672501
:105610008EE791E00E946D1E0E94DB1E811150CE2C
:105620004092920350929303609294037092950378
:1056300080918D0390918E03A0918F03B091900380
:10564000B301A201481B590B6A0B7B0B80910B0124
:1056500090910C01A0E0B0E084179507A607B7076A
:1056600008F08FC16AE072E087E094E00E94D718EA
:1056700040915C0350915D0360915E0370915F0304
:1056800022E030E087E094E00E946E2461E072E066
:1056900087E094E00E94D718409158035091590335
:1056A00060915A0370915B0322E030E087E094E060
:1056B0000E946E2468EF71E087E094E00E94D718A2
:1056C00040914C0350914D0360914E0370914F03F4
:1056D00022E030E087E094E00E946E2468EE71E002
:1056E00087E094E00E94D7184091540350915503ED
:1056F000609156037091570322E030E087E094E018
:105700000E946E246FED71E087E094E00E94D7184C
:105710004091500350915103609152037091530393
:1057200022E030E087E094E00E946E2466ED71E0B4
:1057300087E094E00E94D7184091480350914903B4
:1057400060914A0370914B0322E030E087E094E0DF
:105750000E946E246CEC71E087E094E00E94D71800
:105760004091440350914503609146037091470373
:1057700022E030E087E094E00E946E2463EC71E068
:1057800087E094E00E94D718409140035091410374
:10579000609142037091430322E030E087E094E09F
:1057A0000E946E2468EB71E087E094E00E94D718B5
:1057B00040913C0350913D0360913E0370913F0343
:1057C00022E030E087E094E00E946E2460EB71E01C
:1057D00087E094E00E94D7184091710350917203C2
:1057E000609173037091740322E030E087E094E0ED
:1057F0000E946E2468EA71E087E094E00E94D71866
:1058000040916D0350916E0360916F03709170032E
:1058100022E030E087E094E00E946E246FE971E0BE
:1058200087E094E00E94D71880915805909159051F
:10583000009711F48CE595E0CB80DC80C81AD90A7A
:105840000D2C000CEE08FF08F7FE0EC06DE287E09D
:1058500094E00E94672444275527BA014C195D093A
:105860006E097F092AE003C02AE0B701A60187E09C
:1058700094E00E941E2466EB71E087E094E00E94B1
:10588000FB1868EB71E087E094E00E94FB1810922F
:105890005C0310925D0310925E0310925F0380918F
:1058A000690390916A03A0916B03B0916C0380939C
:1058B000580390935903A0935A03B0935B0310923B
:1058C000540310925503109256031092570380917F
:1058D000600390916103A0916203B0916303809390
:1058E000500390935103A0935203B09353038091BC
:1058F000690390916A03A0916B03B0916C0380934C
:105900004C0390934D03A0934E03B0934F038091AB
:10591000600390916103A0916203B091630380934F
:10592000480390934903A0934A03B0934B0341E08B
:1059300050E060E070E040930701509308016093ED
:10594000090170930A0140928D0350928E03609278
:105950008F037092900315C000918C0310E087E0D4
:1059600094E00E948F18F801E458FC4F80838A303D
:1059700009F09CC0108280917D038A3349F0109217
:105980008C0387E094E00E94EE17892B29F795C0DD
:1059900080917C03863509F474C014F5823549F191
:1059A000833569F780917E03082E000C990BC1970F
:1059B000B1010E94812E8093680366E372E087E064
:1059C00094E00E94D7184091680350E060E070E0D6
:1059D0002AE087E094E00E941E2484E392E063C002
:1059E000873569F18A3559F60E941D1489E292E0E3
:1059F0005AC08EE793E00E944A318639910528F01B
:105A000090930C0180930B0106C066E970E07093DF
:105A10000C0160930B016EE372E087E094E00E945A
:105A2000D71840910B0150910C0160E070E02AE022
:105A300087E094E00E941E248CE392E034C08EE75D
:105A400093E00E944A31813D77E0970710F080EDA6
:105A500097E0909306018093050163E272E087E08E
:105A600094E00E94D718409105015091060160E032
:105A700070E02AE087E094E00E941E2481E292E038
:105A800012C06BE172E087E094E00E94D71822E038
:105A900030E04DE35AE067E070E487E094E00E9474
:105AA0006E2489E192E00E94A12569CF0F5F1F4F0C
:105AB0000F70112700938C0364CF8AE00E941019A5
:105AC000182FC0906903D0906A03E0906B03F090A8
:105AD0006C03609105017091060180E090E00E94E6
