:100000000C94AD0C0C94D50C0C94D50C0C94D50C14
:100010000C94D50C0C94D50C0C94D50C0C94D50CDC
:100020000C94D50C0C94D50C0C942C190C949E1992
:100030000C94D50C0C94D50C0C94D50C0C94D50CBC
:100040000C94D50C0C94D50C0C94D50C0C94D50CAC
:100050000C94BB210C94D50C0C94D50C0C947121F0
:100060000C94D50C0C94D50C0C94D50C0C94D50C8C
:100070000C94D50C0C94D50C0C94D50C0C94D50C7C
:100080000C94D50C0C94D50C0C94D50C0C94D50C6C
:100090000C94E0100C94D50C0C94D50C0C94D50C4D
:1000A0000C94D50C0C94D50C0C94D50C452DDE2B52
:1000B0007A2CF12C0D2D192D272D50301E311B308F
:1000C0004331433143314331433143314331433190
:1000D00043314331393043319C2FC22F43314331B7
:1000E0000830E62F43314331E12F29202C201B20FB
:1000F0001F2025204D204D204D2030203420382039
:100100003E2042204D2048209E20D620D820E720A7
:10011000ED20F120FA202A006D4100562026200013
:100120004020005065616B3A20006D4168006D57BA
:10013000682000456E6572677920557361676500B8
:100140006D412900562028004D696E3A005629203D
:10015000006D412028005065616B3A005065616B6D
:10016000202D204D696E73006D4120005620002C1B
:10017000202274696D65223A002C202272616D2262
:100180003A002C2022646D223A002C202264702236
:100190003A002C20227368756E74223A002C2022BB
:1001A0006D7768223A007D2C20226D6168223A002A
:1001B0002C2022617667223A002C20226D696E2263
:1001C0003A007D2C202276223A7B20226D61782213
:1001D0003A002C2022617667223A002C20226D6999
:1001E0006E223A007B202261223A7B20226D6178C8
:1001F000223A007D007B2244223A007D007B22448B
:10020000223A007D7D002C202276223A002C2022EA
:1002100070223A002C202277223A007B2273223A65
:10022000007B225243223A00433A4F4B00433A4666
:1002300061696C656400433A4F4B004661696C65C7
:1002400064007D7D002C202276223A002C20227032
:10025000223A002C202277223A007B2273223A0095
:100260007B2243223A007D007B2250223A007D000F
:100270007B2245223A007D007B2256223A007D00F7
:100280007B2257223A007B225A223A224F4B227D70
:10029000007D007B2253223A007D007B2252223ACD
:1002A0000001060C00FE070135026B20FFFE0AFE6E
:1002B00008FE0C0060221767808080808000801715
:1002C0003363A0A0A002566650F85050F850015970
:1002D000692070A8A07028A87020025767C8C810AD
:1002E0002040989802576740A0A040A89068271324
:1002F00063808080113969204040808080404020A8
:1003000011396980404020202040408002576720FA
:10031000A8702070A8200355652020F82020013304
:10032000636060C0055161F8122262C0C002576765
:100330000810102040408012476760909090909085
:100340006012376740C040404040E0025767708805
:1003500008102040F8025767F8081030088870022B
:10036000576710305090F81010025767F880F00867
:10037000088870025767304080F08888700257679D
:10038000F80810102020200257677088887088882D
:100390007002576770888878081060122565C0C0A1
:1003A00000C0C00136666060006060C01335652023
:1003B00040804020045363F800F8133565804020E6
:1003C0004080025767708810202000200257677015
:1003D00088B8A8B88070025767708888F8888888BD
:1003E000025767F04848704848F0025767708880A5
:1003F00080808870025767F04848484848F00257A4
:1004000067F88080F08080F8025767F88080F0807D
:10041000808002576770888080988870025767884C
:100420008888F8888888123767E04040404040E07C
:10043000025767381010101090600257678890A01C
:10044000C0A09088025767808080808080F8025723
:100450006788D8A8888888880257678888C8A89835
:10046000888802576770888888888870025767F084
:100470008888F080808002576770888888A8906894
:10048000025767F08888F0A09088025767708880CC
:1004900070088870025767F820202020202002571B
:1004A0006788888888888870025767888888885015
:1004B000502002576788888888A8A8500257678804
:1004C0008850205088880257678888502020202034
:1004D000025767F80810204080F8113969E08080E1
:1004E0008080808080E002576780404020101008A4
:1004F000113969E020202020202020E007536320CC
:100500005088005161F817336380402002556570B0
:10051000087888780257678080F0888888F00255CC
:10052000657088808870025767080878888888789E
:100530000255657088F08070025767304840E0408F
:100540004040005767708888887808700257678035
:1005500080F0888888881237674000C0404040E0BB
:100560001049691000301010101090600257678019
:10057000808890E09088123767C04040404040E05B
:10058000025565D0A8A8A8A8025565B0C888888873
:100590000255657088888870005767F0888888F0F1
:1005A000808000576778888888780808025565B089
:1005B000C880808002556578807008F002576720F7
:1005C00020F82020201802556588888898680255F0
:1005D0006588888850200255658888A8A8500255EB
:1005E0006588502050880057678888885020408050
:1005F000025565F8102040F81139692040404080CC
:1006000040404020211969808080808080808080E7
:100610001139698040404020404040800453634885
:10062000A890FFFFFFFFFFFFFFFFFFFFFFFFFFFFA0
:10063000FFFFFFFFFFFFFFFFFFFFFFFFFFFFFFFFCA
:10064000FFFFFF0C006022176780008080808080A1
:100650000157672070A8A0A8702002576730484053
:10066000E04048B0025565A8508850A802576788F6
:1006700050F820F82020221767808080008080803A
:1006800012486870806090906010E0193161A0029B
:100690006767788494A494847816356560A06000B8
:1006A000E00255652850A05028035363F808081548
:1006B0003161E00267677884B4A4A4847809516149
:1006C000F8174464609090600257672020F820205B
:1006D00000F817356540A02040E0173565C0204080
:1006E00020C017336320408000576788888898E8C7
:1006F000808002586878E8E8E8682828282522627F
:10070000C0C010326220C017356540C04040E017BD
:10071000356540A04000E0025565A0502850A00279
:100720005A6A40C04040503050781010025A6A4017
:10073000C04040502808102038025A6AC02040208B
:10074000D030507810100257672000202040887069
:10075000025A6A402000708888F8888888025A6A9D
:10076000102000708888F8888888025A6A20500013
:10077000708888F8888888025A6A68B0007088880B
:10078000F88888880259695000708888F8888888B5
:10079000025A6A205020708888F888888802576733
:1007A00078A0A0F0A0A0B8005969708880808088E7
:1007B000701060025A6A402000F88080F08080F853
:1007C000025A6A102000F88080F08080F8025A6A8D
:1007D000205000F88080F08080F80259695000F8BD
:1007E0008080F08080F8123A6A804000E04040400B
:1007F0004040E0123A6A204000E04040404040E083
:10080000123A6A40A000E04040404040E01239699E
:10081000A000E04040404040E0025767704848E890
:10082000484870025A6A68B0008888C8A8988888C2
:10083000025A6A40200070888888888870025A6A44
:1008400010200070888888888870025A6A205000BA
:1008500070888888888870025A6A68B000708888B2
:1008600088888870025969500070888888888870E4
:100870000355658850205088015969087098A8A8C8
:10088000A8C87080025A6A402000888888888888B2
:1008900070025A6A10200088888888888870025AF6
:1008A0006A205000888888888888700259695000BA
:1008B00088888888888870025A6A10200088885042
:1008C0002020202012476780E0909090E08002571F
:1008D00067708890A09088B0025868402000700827
:1008E0007888780258681020007008788878025854
:1008F00068205000700878887802586868B00070E6
:10090000087888780257675000700878887802580D
:10091000682050207008788878025565702870A08B
:10092000780057677088808870106002586840208F
:10093000007088F080700258681020007088F08085
:10094000700258682050007088F08070025767501D
:10095000007088F08070123868804000C0404040CD
:10096000E0123868204000C0404040E01238684043
:10097000A000C0404040E0123767A000C0404040A7
:10098000E0025969502050087888888870025868B9
:1009900068B000B0C8888888025868402000708815
:1009A0008888700258681020007088888870025803
:1009B00068205000708888887002586868B000709D
:1009C000888888700257675000708888887003553F
:1009D000652000F800200255657898A8C8F00258F4
:1009E0006840200088888888700258681020008835
:1009F000888888700258682050008888888870022B
:100A0000576750008888888870005A6A10200088CC
:100A10008888502040800059698080F0888888F05C
:100A20008080005969500088888850204080000AE2
:100A30001400FC0D024A049920FFFC10FC0DFC0080
:100A400000000A0010020D0D0A0400C0C0C0C0C0A2
:100A5000C0C0C0C0C000C0C00604040A0209CCCC9B
:100A6000CC48090B160A01011B001B001B007F80EC
:100A7000360036003600FF006C006C006C00080D7C
:100A80000D0A0100187EDBD8D8D87E1B1B1BDB7E2D
:100A900018090C180A01007300DB00DE0076000C58
:100AA000000C001800180037003D806D80670009B9
:100AB0000D1A0A010038006C006C006C00780030E0
:100AC000007000D800CD80C700C600EF007980021A
:100AD00005050A0408C0C0C0C080050D0D0A03004A
:100AE00018306060C0C0C0C0C060603018050D0D17
:100AF0000A0200C06030301818181818303060C072
:100B00000807070A010366663CFF3C66660807079C
:100B10000A0103181818FF1818180403030A03FF22
:100B20007070E00801010A0106FF0303030A0400D4
:100B3000E0E0E0070C0C0A020006060C0C18183066
:100B4000306060C0C0080D0D0A0100183C6666C325
:100B5000C3C3C3C366663C18080D0D0A01001838EC
:100B600078D81818181818181818FF080D0D0A0149
:100B7000003C66C3C30303061C3060C0C0FF080D01
:100B80000D0A01003C66C3C303061C0603C3C3660B
:100B90003C080D0D0A010002060E1E3666C6C6FF91
:100BA00006060606080D0D0A0100FFC0C0C0C0DC25
:100BB000E6030303C3663C080D0D0A01003C66C250
:100BC000C0C0DCE6C3C3C3C3663C080D0D0A010008
:100BD000FF030306060C0C181830306060080D0D7A
:100BE0000A01003C66C3C3C3663C66C3C3C3663C1C
:100BF000080D0D0A01003C66C3C3C3C3673B030372
:100C000043663C0308080A0400E0E000000000E03E
:100C1000E00409090A03FF7070000000007070E032
:100C2000070D0D0A010002060C183060C060301874
:100C30000C06020806060A0103FF00000000FF0779
:100C40000D0D0A020080C06030180C060C183060D0
:100C5000C080080D0D0A01003C66C3C3C3060C1812
:100C60001818001818080D0D0A01003C66C3CFDFE4
:100C7000DBDBDBDECCC0633E080D0D0A0100183C57
:100C80006666C3C3C3FFC3C3C3C3C3080D0D0A0154
:100C900000F8CCC6C6C6CCFCC6C3C3C3C6FC080D90
:100CA0000D0A01003C66C3C0C0C0C0C0C0C0C3665E
:100CB0003C080D0D0A0100FCC6C3C3C3C3C3C3C3B4
:100CC000C3C3C6FC080D0D0A0100FFC0C0C0C0C0F0
:100CD000FCC0C0C0C0C0FF080D0D0A0100FFC0C0AD
:100CE000C0C0C0FCC0C0C0C0C0C0080D0D0A01001B
:100CF0003C66C3C0C0C0CFC3C3C3C3673D080D0DAE
:100D00000A0100C3C3C3C3C3C3FFC3C3C3C3C3C3B5
:100D1000080D0D0A0100FF181818181818181818CF
:100D20001818FF090D1A0A01001F800600060006A8
:100D30000006000600060006000600C600C6006C9D
:100D4000003800080D0D0A0100C3C3C6C6CCCCF89C
:100D5000CCCCC6C6C3C3080D0D0A0100C0C0C0C0BC
:100D6000C0C0C0C0C0C0C0C0FF080D0D0A0100C394
:100D7000C3E7E7FFDBDBDBDBC3C3C3C3080D0D0A3F
:100D80000100C3E3E3F3F3DBDBCFCFC7C7C3C30883
:100D90000D0D0A01003C66C3C3C3C3C3C3C3C3C3B1
:100DA000663C080D0D0A0100FCC6C3C3C3C3C6FCE4
:100DB000C0C0C0C0C0080E0E0A01FF3C66C3C3C35A
:100DC000C3C3C3C3DBCF663E03080D0D0A0100FC9D
:100DD000C6C3C3C3C3C6FCCCC6C6C3C3080D0D0A75
:100DE00001003C66C3C0C0603C060303C3663C0808
:100DF0000D0D0A0100FF18181818181818181818DF
:100E00001818080D0D0A0100C3C3C3C3C3C3C3C36D
:100E1000C3C3C3663C080D0D0A0100C3C3C3C36648
:100E200066663C3C3C181818080D0D0A0100C3C347
:100E3000C3C3C3DBDBDBDBE7E7C3C3080D0D0A017C
:100E400000C3C366663C3C183C3C6666C3C3080DE1
:100E50000D0A0100C3C366663C3C18181818181820
:100E600018080D0D0A0100FF0303060C0C183030A2
:100E700060C0C0FF060D0D0A0200FCC0C0C0C0C0AB
:100E8000C0C0C0C0C0C0FC070C0C0A0200C0C060DB
:100E900060303018180C0C0606060D0D0A0200FC16
:100EA0000C0C0C0C0C0C0C0C0C0C0CFC0804040AA8
:100EB0000109183C66C30901020A01FFFF8004030F
:100EC000030A030AC060300808080A01003E6303F1
:100ED0007FC3C3C37D080D0D0A0100C0C0C0C0C0E0
:100EE000DCE6C3C3C3C3E6DC0808080A01003E63AE
:100EF000C0C0C0C0633E080D0D0A01000303030318
:100F0000033B67C3C3C3C3673B0808080A01003C2F
:100F100066C3FFC0C0633E080D0D0A01001E3333D7
:100F20003030FC30303030303030080C0C0A01FCEE
:100F30007DC7C6C6C67CC07EC3C3C37E080D0D0A6E
:100F40000100C0C0C0C0C0DCE6C3C3C3C3C3C30884
:100F50000B0B0A010018180078181818181818FF39
:100F6000070F0F0A02FC0606001E06060606060606
:100F700006C6C6C67C080D0D0A0100C0C0C0C0C0B0
:100F8000C6CCD8F0F8CCC6C3080D0D0A01007818FD
:100F900018181818181818181818FF0808080A013F
:100FA00000B6FFDBDBDBDBDBDB0808080A0100DC6B
:100FB000E6C3C3C3C3C3C30808080A01003C66C331
:100FC000C3C3C3663C080C0C0A01FCDCE6C3C3C304
:100FD000C3E6DCC0C0C0C0080C0C0A01FC3B67C300
:100FE000C3C3C3673B030303030808080A0100DE09
:100FF000736060606060600808080A01007EC3C01A
:101000007E0303C37E080B0B0A0100303030FC3036
:1010100030303030331E0808080A0100C3C3C3C390
:10102000C3C3673B0808080A0100C3C366663C3CAB
:1010300018180808080A0100C3C3C3DBDBDBFF661E
:101040000808080A0100C3663C18183C66C3080C6F
:101050000C0A01FCC3C3C3C3C3C3673B03C3663CE1
:101060000708080A0200FE060C183060C0FE080DD2
:101070000D0A01000F1818181818F0181818181869
:101080000F020D0D0A0400C0C0C0C0C0C0C0C0C067
:10109000C0C0C0C0080D0D0A0100F01818181818BB
:1010A0000F1818181818F00803030A010A73DBCE8A
:1010B000FFFFFFFFFFFFFFFFFFFFFFFFFFFFFFFF40
:1010C000FFFFFFFFFFFFFFFFFFFFFFFFFFFFFFFF30
:1010D000FF0000000A0010020D0D0A0400C0C0004D
:1010E000C0C0C0C0C0C0C0C0C0C0070C0C0A010056
:1010F00018183C66C2C0C0C2663C1818090C180A11
:1011000001001E003300330030003000FC003000CE
:1011100030003000F800AD80E7000909120A000134
:101120008080DD807F006300630063007F00DD80DE
:101130008080080B0B0A010081C3663C7E187E1874
:10114000181818020D0D0A0400C0C0C0C0C000006D
:1011500000C0C0C0C0C0080D0D0A01003C66C660DA
:1011600078CC66331E0663663C0602020A020BCC8C
:10117000CC080B0B0A01003C66C3BDA5A1A5BDC3ED
:10118000663C0809090A01043E43037FC3C37D008E
:10119000FF090B160A000004800D801B0036006C4E
:1011A00000D8006C0036001B000D80048008040489
:1011B0000A0104FFFF03030601010A0206FC080BF3
:1011C0000B0A01003C66C3BDA5BDA9ADC3663C08C2
:1011D00001010A010DFF0606060A02073078CCCC91
:1011E00078300807070A01021818FF181800FF05D1
:1011F00007070A020670D8183060C0F80507070A0A
:10120000020670D8183018D8700403030A030A3095
:1012100060C0070A0A0A01FDC6C6C6C6C6EEFAC005
:10122000C0C0080D0D0A01007FFFFBFBFB7B1B1BF1
:101230001B1B1B1B1B0303030A0405E0E0E0050462
:10124000040A02FC3018D8700407070A020660E09E
:1012500060606060F00709090A0104386CC6C6C600
:101260006C3800FE090B160A01009000D8006C00D3
:1012700036001B000D801B0036006C00D80090006B
:10128000080C0C0A010140C04142E40812264A9EA3
:101290000202080C0C0A010140C04142E408162970
:1012A0004182040F080C0C0A0101E0106112E408ED
:1012B00012264A9F0202080D0D0A01001818001894
:1012C00018183060C3C3C3663C080F0F0A010060E2
:1012D000301800183C66C3C3C3FFC3C3C3C3080FA1
:1012E0000F0A0100060C1800183C66C3C3C3FFC3F5
:1012F000C3C3C3080F0F0A0100183C6600183C6600
:10130000C3C3C3FFC3C3C3C3080F0F0A0100327EA8
:101310004C00183C66C3C3C3FFC3C3C3C3080F0F4D
:101320000A0100666600183C6666C3C3C3FFC3C3F8
:10133000C3C30810100A01003C66663C00183C66F6
:10134000C3C3C3FFC3C3C3C3080D0D0A01001F3CC1
:101350006C6CCCCCFFCCCCCCCCCCCF0811110A011E
:10136000FC3C66C3C0C0C0C0C0C0C0C3663C180C53
:101370006C38080F0F0A010060301800FFC0C0C0B1
:10138000C0FCC0C0C0C0FF080F0F0A01000C18301D
:1013900000FFC0C0C0C0FCC0C0C0C0FF080F0F0A23
:1013A0000100183C6600FFC0C0C0C0FCC0C0C0C087
:1013B000FF080F0F0A010066660000FFC0C0C0C032
:1013C000FCC0C0C0C0FF060F0F0A0200603018004A
:1013D000FC303030303030303030FC060F0F0A0235
:1013E0000018306000FC303030303030303030FCAD
:1013F000060F0F0A02003078CC00FC30303030305D
:1014000030303030FC060F0F0A0200CCCC00FC302C
:10141000303030303030303030FC090D1A0A0000E6
:101420007E0063006180618061806180F9806180FD
:1014300061806180618063007E00080F0F0A0100F7
:10144000327E4C00C3E3F3F3DBDBCFCFC7C3C3086B
:101450000F0F0A010030180C003C66C3C3C3C3C39E
:10146000C3C3663C080F0F0A01000C1830003C662D
:10147000C3C3C3C3C3C3C3663C080F0F0A0100182C
:101480003C66003C66C3C3C3C3C3C3C3663C080F0A
:101490000F0A0100327E4C003C66C3C3C3C3C3C302
:1014A000C3663C080F0F0A01006666003C66C3C3B2
:1014B000C3C3C3C3C3C3663C0708080A010082C68E
:1014C0006C38386CC682080F0F0A01FF013E66C7F0
:1014D000C7CBCBCBD3D3D3E3667C80080F0F0A01F5
:1014E0000030180C00C3C3C3C3C3C3C3C3C3663C2B
:1014F000080F0F0A01000C183000C3C3C3C3C3C3D5
:10150000C3C3C3663C080F0F0A0100183C6600C342
:10151000C3C3C3C3C3C3C3C3663C080F0F0A0100E0
:10152000666600C3C3C3C3C3C3C3C3C3C3663C08A7
:101530000F0F0A01000C183000C3C366663C3C184C
:1015400018181818070D0D0A0200C0C0C0FCC6C646
:10155000C6C6C6FCC0C0C0080D0D0A01001C36631B
:101560006366EC6C66636363666C080C0C0A0100CE
:1015700030180C007EC3037FC3C3C37D080C0C0A64
:1015800001000C1830007EC3037FC3C3C37D080C69
:101590000C0A0100183C66007EC3037FC3C3C37DF1
:1015A000080C0C0A0100327E4C007EC3037FC3C3CB
:1015B000C37D080B0B0A01006666007EC3037FC370
:1015C000C3C37D080D0D0A01003C66663C007EC366
:1015D000037FC3C3C37D0808080A0100769B1B1E56
:1015E00078D8D96E080C0C0A01FC3E63C0C0C0C09C
:1015F000633E180C6C38080C0C0A010060301800AF
:101600003C66C3FFC0C0633E080C0C0A0100060C18
:1016100018003C66C3FFC0C0633E080C0C0A010002
:10162000183C66003C66C3FFC0C0633E080B0B0A53
:1016300001006666003C66C3FFC0C0633E080C0C38
:101640000A01006030180078181818181818FF08D8
:101650000C0C0A01000C183000781818181818180B
:10166000FF080C0C0A0100183C66007818181818BE
:101670001818FF080B0B0A01006666007818181886
:10168000181818FF080D0D0A010088D87070D88C42
:101690003E67C3C3C3663C080C0C0A0100327E4C93
:1016A00000DCE6C3C3C3C3C3C3080C0C0A0100605B
:1016B0003018003C66C3C3C3C3663C080C0C0A0167
:1016C00000060C18003C66C3C3C3C3663C080C0C80
:1016D0000A0100183C66003C66C3C3C3C3663C08ED
:1016E0000C0C0A0100327E4C003C66C3C3C3C366C7
:1016F0003C080B0B0A01006666003C66C3C3C3C30B
:10170000663C080A0A0A010118180000FFFF0000E1
:101710001818080A0A0A01FF013E66CBCBD3D3662C
:101720007C80080C0C0A010030180C00C3C3C3C332
:10173000C3C3673B080C0C0A0100060C1800C3C3A6
:10174000C3C3C3C3673B080C0C0A0100183C660006
:10175000C3C3C3C3C3C3673B080B0B0A0100666660
:1017600000C3C3C3C3C3C3673B0810100A01FC0C0A
:10177000183000C3C3C3C3C3C3673B03C3663C077E
:1017800011110A02FCC0C0C0C0C0C0F8CCC6C6C699
:10179000CCF8C0C0C0C0080F0F0A01FC666600C3C9
:1017A000C3C3C3C3C3673B03C3663C3000442D3A85
:1017B0002000442B3A200041004100300050656178
:1017C0006B3A0030005065616B3A007D7D002C2043
:1017D0002277223A002C202261223A002C20226318
:1017E000223A002C202274223A007B202265766562
:1017F0006E74223A7B202269223A00000000002504
:101800000028002B002E003100080B00020202010C
:101810000009040000010202000005240010010577
:1018200024010101042402060524060001070581A4
:101830000310004009040100020A0000000705022D
:101840000240000007058302400000040309044130
:10185000726475696E6F204C4C4300417264756907
:101860006E6F204C656F6E6172646F001201000232
:1018700000000040412336800001010203011201F3
:101880000002EF0201404123368000010102030102
:10189000FFE0FFD1AFFF32FFD0FFFEFFE0FFD1AE90
:1018A000FFD0FFFEFFE0FFD11000FFFEFFD0FFE002
:1018B000FFC1FFD1AED580A83FD300408D142000DA
:1018C000A1C8DA1281CFD9F1DB402EA4A6AFFFD098
:1018D000FFFE070605040100080A0B0C0D090000B5
:1018E0000000240027002A002D0030000000000026
:1018F0002300260029002C002F0004040404040304
:10190000040502020202040302020202060606069F
:1019100006060404020202040404080201104080C6
:1019200040102040804080080204018040201002C6
:1019300001108010204040200000000200090F002C
:1019400000030401000C0000000000000000000083
:101950000000000000000000553211241FBECFEF30
:10196000DAE0DEBFCDBF12E0A0E0B1E0E4ECFDE6DE
:1019700002C005900D92AA34B107D9F725E0AAE478
:10198000B2E001C01D92AA3FB207E1F71CE0CDEA28
:10199000DCE004C02197FE010E946533CC3AD107F8
:1019A000C9F70E945A280C94E0360C94000085ED8B
:1019B0008093BC008091BC0084FDFCCF1092820417
:1019C000089540910804262F30E0240F311D213264
:1019D0003105DCF4209182042430C9F4FC0180E05C
:1019E00090E0861758F4309108042191DC01AA5147
:1019F000BC4FA30FB11D2C930196F3CF8091080427
:101A0000680F6093080480E0089581E0089582E003
:101A100008950895E0913B0480913A04E81730F46A
:101A2000F0E0E45CFB4F808190E008958FEF9FEF42
:101A3000089590913B0480913A04981750F4E92F4F
:101A4000F0E0E45CFB4F208130E09F5F90933B042B
:101A500002C02FEF3FEFC901089580913A0490E052
:101A600020913B04821B91090895CF92DF92EF925F
:101A7000FF920F931F93CF93DF937C01262F972F15
:101A80008A0180918304882391F0C62FD72F6E019D
:101A9000C40ED51ECC15DD0571F06991D701ED910D
:101AA000FC910190F081E02DC7010995F3CF642FDF
:101AB000822F0E94E10CC801DF91CF911F910F91FD
:101AC000FF90EF90DF90CF900895CF93DF931F9218
:101AD000CDB7DEB76983209183042223D1F0209112
:101AE000A504203240F021E030E0FC013383228362
:101AF00080E090E015C080918404E82FF0E0EB577F
:101B0000FB4F998190838F5F809384048093A50419
:101B100005C061E0CE0101960E94E10C81E090E0F9
:101B20000F90DF91CF9108954F925F926F927F92C5
:101B30008F929F92AF92BF92CF92DF92EF92FF92DD
:101B4000CF93DF93CDB7DEB72A970FB6F894DEBFF9
:101B50000FBECDBF5D9A7894BE016F5F7F4F81E06D
:101B60000E94AB2469817A81072E000C880B990BA7
:101B70000E949B342AE037ED43E25CE30E94A835E3
:101B80006093710370937203809373039093740353
:101B9000BE016F5F7F4F82E00E94AB2469817A8132
:101BA00083E0769567958A95E1F7660F771F660F54
:101BB000771F072E000C880B990B0E949B342FE691
:101BC00032E143E85AE30E94A8356093E003709342
:101BD000E1038093E2039093E303BE016F5F7F4FC5
:101BE00084E00E94AB2469817A81072E000C880B67
:101BF000990B0E949B346B017C01609144057091AC
:101C0000450580914605909147050E9499349B01B6
:101C1000AC01C701B6010E94F1336093A903709330
:101C2000AA038093AB039093AC03C090E003D090E1
:101C3000E103E090E203F090E3036091710370919F
:101C40007203809173039091740320E030E04AE7BF
:101C500054E40E94F1339B01AC01C701B6010E941C
:101C600080336093A1037093A2038093A3039093A6
:101C7000A4036091E0037091E1038091E2039091ED
:101C8000E3032091A9033091AA034091AB03509143
:101C9000AC03C0907503D0907603E0907703F0908A
:101CA00078030E94A83520E030EC42EF56EC0E9409
:101CB000A83520E034E244E759E40E94F13320E003
:101CC00030E041E655E40E94F1339B01AC01C701CD
:101CD000B6010E94803360937503709376038093FE
:101CE0007703909378036091A9037091AA03809180
:101CF000AB039091AC03C0907903D0907A03E0904D
:101D00007B03F0907C0320E030EC42EF56EC0E9425
:101D1000A83520E034E244E759E40E94F13320E0A2
:101D200030E041E655E40E94F1339B01AC01C7016C
:101D3000B6010E9480336093790370937A03809395
:101D40007B0390937C036091A9037091AA03809117
:101D5000AB039091AC0320919D0330919E03409181
:101D60009F035091A0030E94A335181684F480911C
:101D7000A9039091AA03A091AB03B091AC03809307
:101D80009D0390939E03A0939F03B093A003609143
:101D9000A9037091AA038091AB039091AC032091A9
:101DA000990330919A0340919B0350919C030E94A8
:101DB000EC3387FF10C08091A9039091AA03A091F2
:101DC000AB03B091AC038093990390939A03A093D3
:101DD0009B03B0939C036091A1037091A203809137
:101DE000A3039091A4032091950330919603409111
:101DF0009703509198030E94A335181684F480919C
:101E0000A1039091A203A091A303B091A403809396
:101E1000950390939603A0939703B09398036091D2
:101E2000A1037091A2038091A3039091A403209138
:101E300091033091920340919303509194030E9437
:101E4000EC3387FF10C08091A1039091A203A09171
:101E5000A303B091A4038093910390939203A09362
:101E60009303B093940340908D0350908E03609041
:101E70008F0370909003C0901001D0901101E090FA
:101E80001201F0901301C701B6010E9499344B0171
:101E90005C018091A9039091AA03A091AB03B0913A
:101EA000AC038F839887A987BA87D701C6010196AB
:101EB000A11DB11D8B839C83AD83BE83BC01CD016D
:101EC0000E9499346B017C01A5019401C301B20108
:101ED0000E94A8352F81388549855A850E94803314
:101EE000A70196010E94F13360938D0370938E03D6
:101EF00080938F03909390036091890370918A037C
:101F000080918B0390918C034090A1035090A20389
:101F10006090A3037090A403A50194010E94A835CA
:101F2000A30192010E948033A70196010E94F13320
:101F30006093890370938A0380938B0390938C033F
:101F40008B819C81AD81BE818093100190931101A2
:101F5000A0931201B09313016091A9037091AA0399
:101F60008091AB039091AC032091630330916403A3
:101F700040916503509166030E94A335181604F53D
:101F80008091A9039091AA03A091AB03B091AC03F7
:101F90008093630390936403A0936503B0936603F7
:101FA0008091A1039091A203A091A303B091A403F7
:101FB00080935F0390936003A0936103B0936203E7
:101FC0006091A1037091A2038091A3039091A40357
:101FD00020910401309105014091060150910701C3
:101FE0000E94EC3387FF20C08091A1039091A2034F
:101FF000A091A303B091A4038093040190930501E1
:10200000A0930601B09307018091A9039091AA03C0
:10201000A091AB03B091AC0380935B0390935C03FE
:10202000A0935D03B0935E036091570370915803D2
:102030008091590390915A03209153033091540396
:1020400040915503509156038090A1039090A203B4
:10205000A090A303B090A4034090A9035090AA03BA
:102060006090AB037090AC030E94A8356B017C01BB
:10207000A3019201C501B4010E94A8359B01AC01E6
:10208000C701B6010E94EC3387FF20C08091A103F5
:102090009091A203A091A303B091A403809357034E
:1020A00090935803A0935903B0935A038091A903C6
:1020B0009091AA03A091AB03B091AC03809353031A
:1020C00090935403A0935503B09356035D982A96BA
:1020D0000FB6F894DEBF0FBECDBFDF91CF91FF905A
:1020E000EF90DF90CF90BF90AF909F908F907F90B8
:1020F0006F905F904F900895CF92DF92EF92FF9292
:102100000F931F93CF93DF931F92CDB7DEB76C0170
:10211000DC01DC961C91DC97DB960C917C01B4E031
:10212000EB0EF11CDC015996ED91FC915A97C70119
:1021300069830995482F410F2981602FC7010E94AB
:102140005022F60123AD082E000C990B820F911D31
:1021500083AF81E090E00F90DF91CF911F910F91BD
:10216000FF90EF90DF90CF900895DB011496ED91F2
:10217000FC91159720E030E063E009940F93FC0197
:102180000150040F84A996A9941718F0081728F491
:1021900002C0081750F0041740F42150260F83A9FD
:1021A00095A9961720F4281720F480E007C0281777
:1021B00020F481E0261710F0F8CF81E00F91089508
:1021C0001F920F920FB60F9211242F933F934F93AC
:1021D0005F936F937F938F939F93AF93BF93EF938F
:1021E000FF938091B900887F803609F49CC068F520
:1021F000883209F45BC090F4803109F454C038F49B
:10220000882309F4F6C0883009F44DC0F6C088313F
:1022100009F44CC0803209F45DC0EFC0803409F489
:1022200068C048F4803309F455C0883309F0E5C02C
:1022300080938004D8C0803509F44FC0883509F4F4
:102240005DC0883409F0D9C0D6C0883909F4C7C048
:10225000A8F4883709F467C038F4883609F463C0F5
:10226000803709F460C0C9C0883809F4B8C0803923
:1022700009F45FC0803809F0C0C05BC0803B09F43E
:1022800086C038F4803A09F466C0883A09F47FC001
:10229000B4C0803C09F4A7C0883C09F4A4C0883BC2
:1022A00009F48AC0AAC080915D0410C090917F0497
:1022B00080917E04981770F5E0917F0481E08E0F85
:1022C00080937F04F0E0E25AFB4F80818093BB0053
:1022D00085EC86C0809380048EC0E0917F0481E00D
:1022E0008E0F80937F048091BB00F0E0E25AFB4F99
:1022F000808390917F0480917E046EC0E0917F0482
:1023000081E08E0F80937F048091BB00F0E0E25A61
:10231000FB4F80838091810481116DC081E08093A7
:102320005C0484EA61C083E08093820410922C04F0
:10233000CFCF80912C04803208F051C0E0912C0462
:1023400081E08E0F80932C048091BB00F0E0E45F6D
:10235000FB4F8083BDCF85EC8093BC00109282043C
:1023600080912C04803230F4E0912C04F0E0E45FA2
:10237000FB4F108260912C0470E0E0910A04F09110
:102380000B048CE094E0099510922C0436C084E094
:10239000809382041092090410920804E0910604CC
:1023A000F0910704099580910804811105C081E02E
:1023B000809308041092E603E091090481E08E0FF7
:1023C00080930904F0E0EA51FC4F80818093BB00C8
:1023D0009091090480910804981708F479CF85E852
:1023E0008093BC000AC085EC8093BC0010928204EC
:1023F00004C0109280040E94D70CFF91EF91BF910E
:10240000AF919F918F917F916F915F914F913F918C
:102410002F910F900FBE0F901F9018958091A503DC
:10242000811116C08AE090E09093A8038093A703DF
:102430006FE072E087E693E00E94283681E08093A7
:10244000A503809104058093A60386E0809304058C
:102450001092630310926403109265031092660356
:1024600010925F0310926003109261031092620356
:102470008091A1039091A203A091A303B091A40322
:102480008093040190930501A0930601B093070186
:102490008091A9039091AA03A091AB03B091AC03E2
:1024A00080935B0390935C03A0935D03B0935E0302
:1024B00010925703109258031092590310925A0326
:1024C0001092530310925403109255031092560326
:1024D000109275031092760310927703109278038E
:1024E0001092790310927A0310927B0310927C036E
:1024F0002FB7F8948091E6059091E705A091E80543
:10250000B091E9052FBF8093810390938203A0933C
:102510008303B0938403089560914F027091500239
:102520008091E4039091E50301969093E5038093F5
:10253000E4032091F6043091F7042115310519F0D8
:10254000281739071CF465E172E00BC020910001E7
:1025500030910101CB0109962817390734F465E859
:1025600071E086EA94E00C945D1C49E050E08DE255
:1025700091E00C94653660914F027091500249E0F1
:1025800050E08DE291E00E9455366FEA71E08DE2F5
:1025900091E00E941F3621E0892B09F020E0822F74
:1025A00008951F93CF93DF93EC0110910F016AE020
:1025B00070E080E090E00E943721112309F44EC0C2
:1025C0006AEE77E186EA94E00E94DB1B8091850346
:1025D000909186030E94A22563EE77E186EA94E05B
:1025E0000E94DB1B40917D0350917E0360917F032D
:1025F0007091800386EA94E00E946C256CED77E18F
:1026000086EA94E00E94DB1B809187039091880307
:102610000E94A22565ED77E186EA94E00E94DB1B2B
:102620004091A9035091AA036091AB037091AC0350
:1026300022E030E086EA94E00E94711C6EEC77E1C3
:1026400086EA94E00E94DB1BCE010E94A2258BEC5F
:1026500097E1DF91CF911F910C94AA25DF91CF9143
:102660001F9108954F925F926F927F928F929F92E7
:10267000AF92BF92CF92DF92EF92FF92CF93C42F8F
:10268000C0908103D0908203E0908303F090840394
:102690006C197D098E099F0928EE33E040E050E077
:1026A0000E947D3669017A018CE3482E512C612C01
:1026B000712CCA01B901A30192010E947D36490122
:1026C0005A01CA01B901A30192010E947D36290174
:1026D0003A01A4ECBFEFA50194010E94AA36C60EF0
:1026E000D71EE81EF91EA30192010E94AA36860E8B
:1026F000971EA81EB91E10924005C1112EC087E07A
:1027000080934105B301A20185E095E00E946C250C
:1027100067E372E085E095E00E94581DB501A401D1
:1027200085E095E00E946C2567E372E085E095E026
:102730000E94581DB701A60185E095E0CF91FF905A
:10274000EF90DF90CF90BF90AF909F908F907F9051
:102750006F905F904F900C946C2582E3D1CFCF9215
:10276000DF92EF92FF92CF93C42F20E030E040E061
:102770005FE30E9480330E94D6346B017C0120E02D
:1027800030E04AE754E40E94EC3387FF06C066ED70
:1027900071E085E095E00E94581D20E030E048ECB3
:1027A00052E4C701B6010E94EC3387FF06C066ED14
:1027B00071E085E095E00E94581D20E030E040E2A5
:1027C00051E4C701B6010E94EC3387FF06C066EDF5
:1027D00071E085E095E00E94581D2C2F30E0B70194
:1027E000A60185E095E0CF91FF90EF90DF90CF902C
:1027F0000C94711C8F929F92AF92BF92CF92DF92F6
:10280000EF92FF92CF93DF936B017C015A01C22FAD
:1028100082E38093400580E1809341058EE29AE057
:102820000E941F25C23010F520E030E04AE754E452
:10283000C701B6010E94EC3387FF06C066ED71E068
:1028400085E095E00E94581DC11110C020E030E4E1
:102850004CE156E4C701B6010E94EC3387FF06C085
:1028600066ED71E085E095E00E94581D20E030E0C3
:1028700048EC52E4C701B6010E94EC3387FF06C062
:1028800066ED71E085E095E00E94581D20E030E0A3
:1028900040E251E4C701B6010E94EC3387FF06C055
:1028A00066ED71E085E095E00E94581D2C2F30E028
:1028B000B701A60185E095E00E94711CB50185E095
:1028C00095E00E94581D81EA92E00E941F250E9417
:1028D000B72688EDA81681E0B80609F09BC01092D3
:1028E000400587E08093410565EC77E185E095E060
:1028F0000E94DB1B1092400580E1809341056091AE
:102900005703709158038091590390915A03209175
:1029100053033091540340915503509156030E9444
:10292000A83520E030E04AE754E40E94F133AB01DF
:10293000BC0122E030E085E095E00E94711C68ED6A
:1029400071E085E095E00E94581D2AE939E941E2ED
:1029500051E4C701B6010E94A3351816BCF02DEC56
:102960003CEC4CE85FE3C701B6010E94A3351816A2
:10297000D4F0EDEC8E2EECEC9E2EECE8AE2EEFE3D8
:10298000BE2E2CEB34E743E15CE318C07DEC872ED0
:102990007CEC972E78ECA72E71E4B72E22EF32ED67
:1029A0004DE45EE30BC063E3862E982C63EAA62E0B
:1029B00060E4B62E2EE93FEE47E25DE3C701B601C3
:1029C0000E94F1336B017C01C2E0D0E0BE010D2E0C
:1029D000000C880B990B0E949B34A70196010E9462
:1029E000EC3318162CF040E16AE18C2F0E94262669
:1029F0002196CF37D10551F748E06CE280E00E9484
:102A0000262681E080934005C4E3C093410563EC32
:102A100077E17EC18AEDA81681E0B80609F0DFC033
:102A20001092400587E0809341056DEB77E185E0EA
:102A300095E00E94DB1B1092400580E180934105E8
:102A40004091630350916403609165037091660344
:102A500022E030E085E095E00E94711C6AED71E0B3
:102A600085E095E00E94581DE0915203F0E0EE0FE2
:102A7000FF1FE05CFE4F6081718180E090E00E946A
:102A8000993420E030E04EEF52E40E94F1334B01E4
:102A90005C019B01AC01C701B6010E94F1336B01DF
:102AA0007C01C2E0D0E0BE010D2E000C880B990B1A
:102AB0000E949B34A70196010E94EC3318162CF05B
:102AC00040E16AE18C2F0E9426262196CE37D1055F
:102AD00051F7609163037091640380916503909155
:102AE0006603A50194010E94F1330E946A34862F87
:102AF00040E16AE10E94262648E06CE280E00E9404
:102B0000262681E080934005C4E3C09341056BEB2A
:102B100077E185E095E00E94DB1B48E06CE280E411
:102B20000E94262680E280934005C0934105E091F3
:102B30005203F0E0EE0FFF1FE05CFE4F60817181F9
:102B400080E090E00E94993420E030E0A9010E94EA
:102B5000803320E030E04AE754E40E94F13320E083
:102B600030E040E05FE30E94A835AB01BC0122E009
:102B700030E085E095E00E94711C69EB77E185E02B
:102B800095E00E94DB1B81E680934005C0934105E0
:102B9000E0915203F0E0EE0FFF1FE05CFE4F60811A
:102BA000718180E090E00E94993420E030E0A9013A
:102BB0000E94803320E030E04AE754E40E94F13381
:102BC000AB01BC0122E030E085E095E00E94711C81
:102BD00067EB77E185E095E00E94DB1BC4C08DEDDB
:102BE000A81681E0B80609F0CDC01092400587E034
:102BF0008093410562EB77E185E095E00E94DB1B65
:102C00004091B1035091B2036091B3037091B4034A
:102C100022E030E085E095E00E94711C10924005B2
:102C200080E1809341056DEA77E185E095E00E94BF
:102C3000DB1B4091AD035091AE036091AF037091E7
:102C4000B00322E030E085E095E00E94711C2AE9A3
:102C500039E941E451E4C701B6010E94A3351816D1
:102C6000B4F023E333E343EA50E4C701B6010E9422
:102C7000A3351816BCF023E3822E982C23EAA22E4B
:102C800020E4B22E2EE93FEE47E25DE316C0812C30
:102C9000912C90EDA92E91E4B92E2DE33AE047E571
:102CA0005EE30BC08AE9882E89E9982E81E4A82E7C
:102CB000BA2C29E334EB48EC5DE3C701B6010E946E
:102CC000F1336B017C01C2E0D0E0BE010D2E000C9F
:102CD000880B990B0E949B34A70196010E94EC334C
:102CE00018162CF040E16AE18C2F0E9426262196CE
:102CF000CF37D10551F748E06CE280E00E942626EC
:102D000081E080934005C4E3C09341056BEA77E11D
:102D100085E095E00E94DB1B48E06CE280E40E94C5
:102D2000262680E280934005C093410520E030E0F4
:102D300040E05FE3C501B4010E94A835AB01BC01CE
:102D400022E030E085E095E00E94711C81E68093EE
:102D50004005C093410522E030E0B501A40185E0C3
:102D600095E00E94711C48E06CE28FE7DF91CF9103
:102D7000FF90EF90DF90CF90BF90AF909F908F909B
:102D80000C942626DF91CF91FF90EF90DF90CF90AB
:102D9000BF90AF909F908F9008951F93CF93DF9334
:102DA00040E00E943213C0E0D0E016E3E09152030D
:102DB000C038D10519F180915103DE01A80FB11D72
:102DC000AF77BB27AA0FBB1FAF5ABD4F2D913C91C8
:102DD000A6E3B0E00E94D136F0E0EE0FFF1FE05C0A
:102DE000FE4F2081318140E050E00E947D36612F0E
:102DF000621B8C2F0E9445262196D8CF88E68093AF
:102E0000400587E080934105F0E0EE0FFF1FE05C96
:102E1000FE4F6081718180E090E00E94993420E053
:102E200030E0A9010E94803320E030E04AE754E41A
:102E30000E94F133AB01BC0122E030E085E095E077
:102E4000DF91CF911F910C94711C409130045091EF
:102E5000310420912E0430912F0442175307B4F40B
:102E60009091E8009570E1F39091E80092FD19C00F
:102E70008093F100809130049091310401968F731A
:102E80009927892B19F48EEF8093E8008091300404
:102E9000909131040196909331048093300481E045
:102EA000089580E00895CF92DF92EF92FF920F9302
:102EB0001F93CF93DF931F92CDB7DEB7182F062F46
:102EC000E42E862F880F8E5F99830E94251783E05A
:102ED0000E942517F12EC12E9981D92E8C2D8F1984
:102EE000801798F4F601E7FE02C0849101C080814A
:102EF0000E942517182F80E00E9425178123FFEFDD
:102F0000CF1ADF0A8111EACF01C081E00F90DF9173
:102F1000CF911F910F91FF90EF90DF90CF90089588
:102F2000DF92EF92FF920F931F93CF93DF93D82EF0
:102F30008A017B01E40EF51EEB01CE15DF0571F071
:102F4000D7FE03C0FE01849101C088810E9425172D
:102F500021968111F2CF8FEF9FEF01C0C801DF9161
:102F6000CF911F910F91FF90EF90DF9008956150E6
:102F700030F02091F100FC0120830196F8CF2898D1
:102F800084E6809338040895CF92DF92EF92FF9207
:102F90000F931F93CF93DF936C017A018B01C0E0F5
:102FA000D0E0CE15DF0589F0D8016D918D01D601F5
:102FB000ED91FC910190F081E02DC6010995892BDE
:102FC00011F47E0102C02196ECCFC701DF91CF91B1
:102FD0001F910F91FF90EF90DF90CF900895CF93C6
:102FE000DF931F92CDB7DEB76983DC01ED91FC91D1
:102FF0000280F381E02D41E050E0BE016F5F7F4F22
:1030000009950F90DF91CF91089583E08093E900B7
:103010008091F200882319F08AE38093E8000895F4
:10302000FC018485958597FD0BC09FB7F89482E0DD
:103030008093E9008091F2009FBF90E0019608958F
:103040009FB7F89482E08093E9008091F2009FBFDF
:1030500090E008950E941A360F931F93CF93DF9349
:103060001F92CDB7DEB782E0898342E450E069E089
:1030700078E180E80E9490170E944628DC011296B1
:103080000D911C9113970115110569F0D801ED916F
:10309000FC910280F381E02DBE016F5F7F4FC8017C
:1030A000099597FF07C089810F90DF91CF911F91FC
:1030B0000F910895F80100851185E5CF8F929F92B9
:1030C000AF92BF92CF92DF92EF92FF920F931F9336
:1030D000CF93DF935C016B018A0180910F018823FC
:1030E00009F45EC080913904882309F459C08091A5
:1030F0004B0280FF05C08091E00082608093E00079
:10310000E8018AEFF82E93E0E92E2FE3822E3AE3CE
:10311000932E209709F43DC08FB7F894E092E90010
:103120009091E80095FF06C09091F200282D291B90
:10313000922F01C090E08FBF91110AC0FA94FF2036
:1031400079F161E070E080E090E00E943721E1CF0A
:10315000292F30E0C217D3070CF49C2F8FB7F894B7
:10316000E092E9002091E80025FF11C0292F30E00E
:10317000C21BD30BF601915020F041914093F10016
:10318000FACFC20ED31E9091E80095FF13C08FBFF7
:10319000C0CF5D9884E6809332041016110644F087
:1031A00081E090E0F5019383828380E090E005C0A8
:1031B000C80103C09092E800EACFDF91CF911F9140
:1031C0000F91FF90EF90DF90CF90BF90AF909F90C6
:1031D0008F900895CF93DF931F92CDB7DEB7FC0198
:1031E0008485958597FD05C02FEF3FEF35872487B0
:1031F0000BC0CE0101960E946727019719F48981BF
:1032000090E002C08FEF9FEF0F90DF91CF91089574
:103210000F931F93CF93DF931F92CDB7DEB78C012F
:10322000FC018485958597FF0EC0CE0101960E9412
:103230006727019719F4298130E002C02FEF3FEF93
:10324000F80135872487F801848595850F90DF91F3
:10325000CF911F910F9108951F920F920FB60F9269
:1032600011248F939F938091E1009091E100937FCF
:103270009093E10083FF0FC01092E90091E09093DA
:10328000EB001092EC0092E39093ED001092390461
:1032900098E09093F00082FF20C093E09093E900C3
:1032A0009091F200992319F09AE39093E80090919D
:1032B0003204992339F09091320491509093320462
:1032C000992389F190913804992339F09091380429
:1032D000915090933804992341F184FF10C080915C
:1032E000E2008E7E81608093E2008091E1008F7E1B
:1032F0008093E10080914B028E7E806111C080FF3F
:1033000016C08091E2008E7E80618093E200809101
:10331000E1008E7E8093E10080914B028E7E816081
:1033200080934B0204C05D9ACDCF289AD6CF9F914F
:103330008F910F900FBE0F901F9018951F920F92B4
:103340000FB60F921124CF92DF92EF92FF920F935C
:103350001F932F933F934F935F936F937F938F931D
:103360009F93AF93BF93EF93FF93CF93DF93CDB72B
:10337000DEB76C97DEBFCDBF1092E9008091E80008
:1033800083FFFAC168E0CE0145960E94B71782EF2D
:103390008093E8008D8987FF05C09091E80090FF39
:1033A000FCCF03C09EEF9093E800982F907609F031
:1033B000C6C09E892F89188D91110CC0803829F4C0
:1033C00080914C028093F10002C01092F1001092A3
:1033D000F10047C1422F50E0512B913051F481113F
:1033E00040C14130510509F03CC180914C028D7FB4
:1033F0000BC0933061F4811134C14130510509F0A3
:1034000030C180914C02826080934C022AC1953079
:1034100041F48091E80080FFFCCF20682093E30016
:1034200020C1963009F05FC0EB8CFC8C1092E90053
:103430001092310410923004123091F510922F0442
:1034400010922E040E942C1899E0BE016F5F7F4FEE
:10345000DB01E92F1D92EA95E9F799831A8391E040
:103460009E8390EA98879AEF998720913004309153
:103470003104275F3F4F3C832B838D831092E900FB
:103480001092310410923004F0922F04E0922E0436
:1034900049E050E080E00E9490170E942C18E1C0A3
:1034A000F0922F04E0922E040E944628DC0112962E
:1034B000ED90FC901397E114F10409F4C0C0D7011A
:1034C000ED91FC910480F581E02DBE016B5E7F4F94
:1034D000C7010995009719F00CF0C3C0C6C0F701E9
:1034E000E084F184E8CF973009F4BFC0983021F42C
:1034F00081E08093F100B5C0993009F0B2C08370CB
:1035000009F0B3C0EFE4F1E081E021E036E390811F
:10351000992361F08093E9002093EB0091919093BF
:10352000EC003093ED008F5F873089F78EE7809352
:10353000EA001092EA008F898093390492C08B8D43
:103540009C8D1092E90010923104109230049093F7
:103550002F0480932E04898D811156C08E899D89F8
:10356000913A59F4813209F080C047E050E068E0B8
:1035700071E080E00E94901774C0913209F075C02C
:10358000833289F4888D90E0982F88272F89822BA9
:10359000A0E0B0E08093170190931801A093190167
:1035A000B0931A015EC0803269F48091E80082FF16
:1035B000FCCF67E088E091E00E94B7178BEF809323
:1035C000E80006C0823209F04CC08F8980930F0159
:1035D00080914A02882319F0EEEFFAE002C0E0E0A1
:1035E000F8E08091080190910901A0910A01B09141
:1035F0000B01803B9440A105B10509F088C0809182
:103600000F0180FFA0C083C00E944628DC011296F3
:103610000D911C9113970115110539F1D801ED9108
:10362000FC910190F081E02DBE016B5E7F4FC801DF
:103630000995811116C0F80100851185ECCF113074
:10364000C1F0133091F48F89882309F455C082307A
:10365000E9F440E860E18BE598E10E945317882384
:1036600021F08EEF8093E80087C081E28093EB0029
:1036700083C08B8D9C8D089711F410932D0480913D
:103680002D04811136C06CE678E138C0813029F410
:1036900040E86BE08FE498E1E0CF833031F70E949F
:1036A0004628DC011296ED90FC9013978E010F5F77
:1036B0001F4F6801E114F10479F0D701ED91FC91FD
:1036C0000680F781E02DB801C7010995080F111D8B
:1036D000F701E084F184EECFD8011C92F60101904D
:1036E0000020E9F73197BF016C197D0940E0C60160
:1036F000B4CF6EE778E102C06BE478E16115710543
:1037000009F4B3CFFB01449150E080E833CF0FB60A
:10371000F894A89580916000886180936000109271
:1037200060000FBEA895EE3F2AE0F20739F08091C5
:10373000FE0A9091FF0A9183808393CF1092FF0A33
:103740001092FE0A8ECFEE3F8AE0F80731F08081BA
:1037500091819093FF0A8093FE0A87E797E7918310
:1037600080839BE088E10FB6F894A8958093600071
:103770000FBE9093600075CF6C960FB6F894DEBFC5
:103780000FBECDBFDF91CF91FF91EF91BF91AF9170
:103790009F918F917F916F915F914F913F912F9169
:1037A0001F910F91FF90EF90DF90CF900F900FBE81
:1037B0000F901F901895EF92FF920F931F93CF9346
:1037C000DF938C017B01C0E0D0E0F701EC0FFD1F1F
:1037D0006491662361F0D801ED91FC910190F08134
:1037E000E02DC8010995892B11F02196EECFCE016D
:1037F000DF91CF911F910F91FF90EF900895611588
:10380000710579F0FB0101900020E9F73197AF01D4
:10381000461B570BDC01ED91FC910280F381E02DFA
:10382000099480E090E008954F925F926F927F92AA
:10383000EF92FF920F931F93CF93DF93CDB7DEB735
:10384000A1970FB6F894DEBF0FBECDBF7C01FA0181
:10385000CB0119A2223008F42AE08E010F5D1F4F20
:10386000422E512C612C712CBF01A30192010E94A8
:10387000AF36F901CA01015011096A3014F4605DD4
:1038800001C0695CD8016C93232B242B252B61F795
:10389000B801C7010E94FF1BA1960FB6F894DEBFC6
:1038A0000FBECDBFDF91CF911F910F91FF90EF9091
:1038B0007F906F905F904F9008950F931F93CF93D9
:1038C000DF93EC010E94FF1B8C0169E372E0CE01E3
:1038D0000E94FF1B800F911FDF91CF911F910F91CD
:1038E00008954F925F926F927F928F929F92AF92C4
:1038F000BF92CF92DF92EF92FF92CF93DF93EC01D2
:103900006A017B01B22E9A01AB01C701B6010E9488
:103910001536882319F06CE372E027C026013701C1
:10392000E89477F82FEF3FEF4FE75FE7C301B2016D
:103930000E94153681110DC02FEF3FEF4FE75FE773
:10394000C301B2010E94EC3318161CF460E472E06B
:103950000CC02FEF3FEF4FE75FE4C701B6010E94B5
:10396000A33518169CF464E472E0CE01DF91CF9188
:10397000FF90EF90DF90CF90BF90AF909F908F908F
:103980007F906F905F904F900C94FF1B2FEF3FEF55
:103990004FE75FECC701B6010E94EC3387FDE3CF30
:1039A00020E030E0A901C701B6010E94EC3387FF97
:1039B0000EC0E881F9810190F081E02D6DE2CE0129
:1039C00009954C01F7FAF094F7F8F09402C0812CB5
:1039D000912CA12C60E070E080E09FE3AB1440F4F8
:1039E00020E030E040E251E40E94F133A394F6CFAE
:1039F0009B01AC01C701B6010E9480332B013C0141
:103A00000E946A346B017C010E9499349B01AC01D5
:103A1000C301B2010E947F332B013C012AE0B701B0
:103A2000A601CE010E94141C7C01E80CF91CBB20ED
:103A300039F068E472E0CE010E94FF1BE80EF91E27
:103A4000DB2CDD2029F120E030E040E251E4C3012D
:103A5000B2010E94A8352B013C010E946A344B013F
:103A6000A12CB12C2AE0B501A401CE010E94141CA6
:103A7000E80EF91EC501B4010E9499349B01AC0106
:103A8000C301B2010E947F332B013C01DA94D9CFEC
:103A9000C701DF91CF91FF90EF90DF90CF90BF9063
:103AA000AF909F908F907F906F905F904F90089510
:103AB0000C94FF1B1F93CF93DF93282F30E0F90165
:103AC000E85CF64E8491F901E75EF64ED491F90177
:103AD000E650F74EC491CC23C9F0162F81110E94F5
:103AE0001120EC2FF0E0EE0FFF1FE550F84EA591EE
:103AF000B4918FB7F894111105C09C91ED2FE0950A
:103B0000E92302C0EC91ED2BEC938FBFDF91CF91B5
:103B10001F9108953FB7F894809134049091350433
:103B2000A0913604B091370426B5A89B05C02F3F5D
:103B300019F00196A11DB11D3FBFBA2FA92F982FD3
:103B40008827820F911DA11DB11DBC01CD0142E04E
:103B5000660F771F881F991F4A95D1F7089508951A
:103B6000DC011696ED91FC91179712968C91481BEB
:103B7000477081E090E001C0880F4A95EAF7E60FB0
:103B8000F11D3081222311F0832B02C08095832305
:103B900080830895FB014181DC0112962C911297DC
:103BA000421768F013962C911397241740F0608108
:103BB00015962C91621718F424810C94B01D089569
:103BC000FC0180819281980F92832181921760F489
:103BD00094819F5F94839381890F821710F08FEFF8
:103BE000820F838381E0089580E00895FC011282B2
:103BF0008081815083831482089580E008950B961C
:103C0000FC01849108950A96FC0184910895FC01B9
:103C1000849108950E94071E882321F0823011F0BC
:103C200083E0089586E00895FC01E60FF11D84917C
:103C300090E0982F88273196E4918E0F911D08957A
:103C400068E00C94141E66E00C94141E2EE93FE00C
:103C5000009729F0F9013197F1F70197F9CF08950D
:103C60008EBD0DB407FEFDCF8EB50895DB01149611
:103C7000ED91FC91159720E030E065E00994DB01BF
:103C80001496ED91FC91159720E030E062E00994E4
:103C9000CF92DF92EF92FF920F931F93CF93DF9318
:103CA0008C017B016A0180E0F601C49181110BC097
:103CB000CF3F09F44CC04C2FB701C8010E94361EFB
:103CC000811143C049C0CF3F11F44FEFF5CFCE3F34
:103CD00009F444C0C03FC8F5C03E38F04C2F4F70C7
:103CE000B701C8010E943F1E30C0C03D38F04C2FC4
:103CF0004F70B701C8010E94B51027C0C03CF8F052
:103D0000D7011496ED91FC91159720E030E040E04A
:103D100064E0C8010995C295C07FCE5FD0E0CE01B6
:103D20000E94261ED7011496ED91FC91159720E074
:103D300030E041E064E0C8010995CE0104C0C7FD50
:103D400004C08C2F90E00E94261E80E001C081E01C
:103D5000BFEFCB1ADB0AA8CF80E001C081E0DF9182
:103D6000CF911F910F91FF90EF90DF90CF9008952A
:103D70008F929F92AF92BF92CF92DF92FF920F935A
:103D80001F93CF93DF9300D0CDB7DEB76C018B01CB
:103D9000F42E490120E1421709F467C0241700F10D
:103DA0003AE0431729F18FE0481369C041E0C601AA
:103DB0000E94B51040E0B801C6010E943F1E41E8D4
:103DC000B801C6010E94361EF4014081B801C60147
:103DD0000E94361E40E0B801C6010E94B51008C11D
:103DE000A1E14A1709F444C0B5E14B1791F047C06F
:103DF000DB011496ED91FC91159720E030E042E054
:103E000061E009954CEA58E1B801C6010E94481EDC
:103E100036C0FB01A280B38044EA58E10E94481EEC
:103E2000D50114964C91406BB801C6010E94361E14
:103E300041E0B801C6010E943F1EF501268137818D
:103E4000D8011496ED91FC911597D50115964C91DA
:103E500066E0C6010995811102C080E0CAC040E059
:103E6000B801C6010E94B5100AC04BE958E102C072
:103E700040E958E1B801C6010E94481EB9C0D80106
:103E800012960D911C911397B2E3FB1609F474C0BE
:103E9000BF15B8F0E5E1FE1609F47BC0F7E1FF16A7
:103EA00009F48DC024E1F212A3C0D8011696ED9159
:103EB000FC91179715968C919F01280F311DC90110
:103EC00060C036E4F31609F48AC087E4F81609F4F2
:103ED0008AC0ABE3FA128CC0F401818193819130E6
:103EE00029F0933031F4482F885004C048E0480F3F
:103EF00001C0482F21E0D80113963C91381708F4EF
:103F000020E031E0F8015281451708F430E051E03B
:103F1000481708F050E0822F852B382319F4252309
:103F200009F466C0D4011296FC90913051F030F043
:103F3000923049F0933051F42FEF09C020E031E086
:103F400007C021E004C020E03FEF02C020E030E0E5
:103F5000F7FE08C0B401C8012A8339830E94CA1D34
:103F600039812A81F4018081830F80838181820FCE
:103F70008183FF0C69F73CC0B401C8010E94CA1DCF
:103F800037C01192E817F907E1F7C8010E94F61D42
:103F90002FC0C8010E94E01D882309F45ECFD8011C
:103FA0001696ED91FC91179715968C919F01280F0D
:103FB000311DC9011192E817F907E1F719C0D401C1
:103FC0001C92F801828111968C9311978581815002
:103FD00012968C931297838113968C9309C0D80103
:103FE00015968C9103C0D80111968C91F4018083B1
:103FF00081E00F900F90DF91CF911F910F91FF9073
:10400000DF90CF90BF90AF909F908F900895860FD4
:10401000911DFC0183A18F3F19F0642F0C945A1D50
:10402000089590E0FC013197EF30F105B0F5EB58C1
:10403000FF4F0C946533809180008F7703C080918F
:1040400080008F7D80938000089580918000877F1D
:10405000F9CF84B58F7702C084B58F7D84BD089574
:10406000809190008F7707C0809190008F7D03C072
:1040700080919000877F8093900008958091C00088
:104080008F7703C08091C0008F7D8093C00008951A
:104090008091C200877F8093C2000895CF93DF9301
:1040A00090E0FC01E75EF64E2491FC01E650F74EED
:1040B0008491882361F190E0880F991FFC01E252FE
:1040C000F74EC591D491FC01E550F84EA591B491FD
:1040D000611109C09FB7F894888120958223888355
:1040E000EC912E230BC0623061F49FB7F8943881B5
:1040F000822F809583238883EC912E2B2C939FBF56
:1041000006C08FB7F894E8812E2B28838FBFDF91EC
:10411000CF910895EF92FF920F931F93CF938C014D
:10412000C42F7901862F90E0FC013197E730F1052B
:1041300008F06BC0EC57FF4F0C946533780183E2B5
:10414000E80EF11C005D1F4FF70180818F3F41F0A9
:1041500061E00E944E2061E0F70180810E945A1DBB
:10416000FFEFEF1AFF0AE016F10671F761E08FE04A
:104170000E944E2060E08FE00E945A1D61E080E1C5
:104180000E944E2060E080E10E945A1D61E081E1C2
:104190000E944E2061E081E10E945A1D1CBC80E516
:1041A0008CBDC23090F581E08DBD2FC061E004C0B0
:1041B000411106C041E062E0C8010E94072025C00D
:1041C00040E064E0C8010E94072040E0F4CFF8011D
:1041D00083A18F3FD1F060E0EFCF842F0E94301E8B
:1041E00014C0CC2391F0F70181917F010E94301E11
:1041F000C150F7CFCC2349F0F70184910E94301EC3
:10420000FFEFEF1AFF0AC150F5CF81E0CF911F9168
:104210000F91FF90EF900895823108F08251E82FBE
:10422000F0E0EE52F74EE49180917B00E3FB222711
:1042300020F930E095E0220F331F9A95E1F78F7D4A
:10424000282B20937B00E770E064E0937C00809152
:104250007A00806480937A0080917A0086FDFCCF9A
:10426000809178002091790090E0922B08958F92B0
:104270009F92AF92BF92CF92DF92EF92FF926B012B
:104280007C010E948A1D4B015C01C114D104E10430
:10429000F104F1F00E948A1DDC01CB018819990913
:1042A000AA09BB09883E9340A105B10570F321E03E
:1042B000C21AD108E108F10888EE880E83E0981E42
:1042C000A11CB11CC114D104E104F10419F7DDCF24
:1042D000FF90EF90DF90CF90BF90AF909F908F9026
:1042E00008951F920F920FB60F9211242F933F93B0
:1042F0008F939F93AF93BF938091E6059091E705CD
:10430000A091E805B091E9053091330423E0230F33
:104310002D3720F40196A11DB11D05C026E8230FFD
:104320000296A11DB11D209333048093E60590935E
:10433000E705A093E805B093E905809134049091D6
:104340003504A0913604B09137040196A11DB11D2A
:104350008093340490933504A0933604B0933704CB
:10436000BF91AF919F918F913F912F910F900FBE71
:104370000F901F9018951F920F920FB60F92112455
:104380002F933F934F935F936F937F938F939F935D
:10439000AF93BF93EF93FF93E0914D02F0914E02E4
:1043A0000995FF91EF91BF91AF919F918F917F916F
:1043B0006F915F914F913F912F910F900FBE0F9092
:1043C0001F901895DB01ED91FC910994EF92FF92FB
:1043D0000F931F93CF93DF931F92CDB7DEB78C015E
:1043E000DC011296ED90FC901397D196ED91FC9123
:1043F000D29782E0099520E030E04AE0B701C80199
:104400000E94E221F82ED801D196ED91FC91D2972D
:1044100083E00995D801D196ED91FC91D29780E087
:104420000995FF20A1F1F801628173819E012F5F40
:104430003F4F46E4C8010E94E2218981D8018C9354
:1044400012966D917C9113979E012F5F3F4F47E429
:10445000C8010E94E2218981F80181836281738110
:1044600020E030E048E4C8010E94E221D8011B9618
:104470008C931B9798012D5C3F4F12966D917C9108
:10448000139747E1C8010E94E22181E001C080E06A
:104490000F90DF91CF911F910F91FF90EF900895B2
:1044A0002F923F925F926F927F928F929F92AF92E4
:1044B000BF92CF92DF92EF92FF920F931F93CF9311
:1044C000DF931F92CDB7DEB71C01C62E142FD22E5C
:1044D000DC011496ED90FC901597C7010E94071E11
:1044E000082FF101848195810E940A1E982E0130C7
:1044F00019F48FE0A82E02C0AA24AA94D101149620
:104500008D919C9115970E94031E082FF1018481C3
:1045100095810E94FF1DB82ED10114968D919C911A
:1045200015970E94201EB0E6BD1530F4009721F0CB
:10453000E80EF91E01E611C0F101848195810E9407
:10454000231EF0E4FD1530F4009721F0E80EF91E6B
:1045500001E403C021E1E20EF11CBD1480F4D1019D
:1045600050961C92509753961C92539754961C92B7
:10457000549751961C92519752961C92C7C0B016F0
:1045800070F3892D90E0F70124912F3F21F4FFEF84
:10459000EF1AFF0A5AC00D114FC0D10114968D9128
:1045A0009C9115970E94071E97012F5F3F4FF701BF
:1045B000882311F08230E1F48491D10153968C93D9
:1045C0005397F901249154962C935497F7013396FD
:1045D000E4915096EC935097F7013496E4915196FC
:1045E000EC935197F7013596E4915296EC9320C0E5
:1045F0008491982F9F709250D10152969C9352971C
:1046000082958F7051968C935197F9012491822F46
:104610008F7054968C93549722952F7053962C93A9
:104620005397F7013296E491E295EF705096EC9330
:10463000E114F10479F46AC0F7013296E491EA21B9
:104640009C012E0F311DE20EF31E0B1509F487CFCE
:104650000F5F99CFF101848195810E940A1EB82EC7
:10466000D10153969C9053975496DC905497519651
:104670008C915197C80E52969C919D0D512E591AAE
:104680000D2D292D452D6C2DC1010E94BE108823B2
:10469000D1F1C7018B0D911D5C0187E0890DF82ECA
:1046A000F694F694F694D50C41019CE1890E911C88
:1046B0006F2C712C5D1439F15C2D8501802F8A19C6
:1046C0008F15E8F4F8018491D10112966D917C91D7
:1046D00013975C965C935C975D965C925D975F9692
:1046E0001C925F975E968C9394014BE3C1015983B2
:1046F0000E94E2210F5F1F4F5981585FDFCFA60C48
:10470000B71C5394D7CFF101808901C080E00F908E
:10471000DF91CF911F910F91FF90EF90DF90CF909D
:10472000BF90AF909F908F907F906F905F903F90E1
:104730002F9008952091A5049091E505213208F06D
:104740004AC0809182048111FCCF32E03093820410
:1047500031E0309381043FEF3093800410927F0466
:1047600020937E04A5E8B4E04EE554E0FA013E2F24
:10477000341B321718F43D913193F9CF10925D0438
:1047800020915D04990F922B90935D0490915C04AD
:10479000913061F410925C0490915D049093BB00A1
:1047A0009091BC0093FDF8CF95EC01C095EE9093ED
:1047B000BC00909182049230E1F3909180049F3F7D
:1047C00079F080918004803241F0809180048033C0
:1047D00031F084E005C081E003C082E001C083E0E5
:1047E000109284041092A504109283040895DF921D
:1047F000EF92FF920F931F93CF93DF93082FD62F43
:10480000C42F142FF62EF40EEE24E394DD24DA9454
:104810008F2D811B1830A8F060910B0570910C054D
:104820000093250580932605E0922805D092270560
:1048300025E235E04BE389E095E00E94E221185043
:10484000E7CF8C2F887FD80F4C2F477029F197E046
:10485000492760910B0570910C0500932505D093B5
:10486000260581E0809328054F5F47708FEF90E029
:1048700001C0880F4A95EAF78093270525E235E0C5
:104880004BE389E095E0DF91CF911F910F91FF906D
:10489000EF90DF900C94E221DF91CF911F910F9167
:1048A000FF90EF90DF900895EF92FF920F931F9388
:1048B000CF93DF93D82F062FC42F142FF82EF40E8A
:1048C000EE24EA948F2D811B1830A8F060910B051F
:1048D00070910C05809325050093260510922805FC
:1048E000E092270525E235E04BE389E095E00E9460
:1048F000E2211850E7CF8C2F887FD80F4C2F4770BC
:1049000019F197E0492760910B0570910C05D09340
:10491000250500932605109228054F5F47708FEFFD
:1049200090E001C0880F4A95EAF78093270525E2B9
:1049300035E04BE389E095E0DF91CF911F910F9136
:10494000FF90EF900C94E221DF91CF911F910F9196
:10495000FF90EF9008951F93CF93DF93EB01909119
:10496000430521E0209383049093E505109284048D
:104970001092A504682F88EF94E00E94650D0E94B4
:104980009A2320914305809182048111FCCF81E01C
:1049900080938204809381049FEF9093800410920F
:1049A0007F0480937E0480935D0490915D04822F48
:1049B000880F892B80935D0480915C04813061F4C1
:1049C00010925C0480915D048093BB008091BC00D8
:1049D00083FDF8CF85EC01C085EE8093BC0080910B
:1049E00082048130E1F380917F04823018F4809159
:1049F0007F0401C082E0AEE5B4E02CE334E0F901CD
:104A00009E2F921B981718F49D919193F9CF1092B5
:104A10003B0480933A0488EF94E00E94190D182F0C
:104A200088EF94E00E94190D20E030E0312F820FD2
:104A3000931F99838883DF91CF911F9108952091CF
:104A40000D0530910E052817390709F444C09093DD
:104A50000E0580930D05009709F437C020912005BD
:104A6000FC01211107C03596E491E0932105FC017A
:104A70003C960FC0213039F43F96E491E093210534
:104A8000FC01709606C03D96E491E0932105FC017F
:104A90003E9684918093220580912105082E000C7A
:104AA000990B20912205821B910927FD9395209156
:104AB0002305203441F0829FC001112426E0969501
:104AC00087952A95E1F7809324058DEF9DE19093DA
:104AD0001F0580931E050895CF92DF92EF92FF92FB
:104AE0000F931F93CF93DF9377FF21C06A017B0160
:104AF000EC01E881F9810190F081E02D6DE20995EA
:104B00008C0144275527BA014C195D096E097F09AC
:104B10002AE0CE010E94141C800F911FDF91CF91DB
:104B20001F910F91FF90EF90DF90CF9008952AE0B2
:104B3000DF91CF911F910F91FF90EF90DF90CF9079
:104B40000C94141CAC01990F660B770B86EA94E069
:104B50000C946C25CF93DF93BC0186EA94E00E940D
:104B6000DB1BEC0169E372E086EA94E00E94FF1B24
:104B70008C0F9D1FDF91CF910895CF93DF9380918C
:104B80004205811107C081E08093420589E095E0EC
:104B90000E94E621C0910B05D0910C05E0913A05E9
:104BA000F0913B0582E00995E0913A05F0913B05D3
:104BB00081E0099520E030E044E1BE0189E095E024
:104BC0000E94E2212CE335E047E1BE0189E095E057
:104BD0000E94E221E0913A05F0913B0580E0DF91EF
:104BE000CF910994CF92DF92FF920F931F93CF93AF
:104BF000DF9300D0CDB7DEB7F82E062FE0911E056B
:104C0000F0911F0589E095E049835A830995080FC3
:104C10004981C42E5A81D52E10E0F60121916F01F1
:104C2000222349F0402F6F2D89E095E00E94502209
:104C3000F80E180FF2CF812F0F900F90DF91CF91C8
:104C40001F910F91FF90DF90CF9008950F931F93C6
:104C5000CF93DF93C82FD62F142F042F21E0462F98
:104C6000682F89E095E00E94BE10882349F0412F0B
:104C70006D2F8C2FDF91CF911F910F910C94F72303
:104C8000DF91CF911F910F910895962FE5E0F5E008
:104C90006681778180A391A325E235E042E389E034
:104CA00095E00C94E221FF920F931F93CF93DF9333
:104CB000C82FD62F142FF22E00FF0CC0622F6D1BB1
:104CC000842F8C0F0E9445266F2D6C1B8D2F810F1A
:104CD0000E94452601FF0CC06F2D6D1B812F8C1B80
:104CE0000E9445266F2D6C1B812F8D1B0E9445262F
:104CF00003FF0CC06F2D6D0F812F8C0F0E94452676
:104D00006F2D6C0F8D2F810F0E94452602FF11C061
:104D10006F2D6D0F812F8C1B0E9445266F2D6C0F00
:104D2000812F8D1BDF91CF911F910F91FF900C94DC
:104D30004526DF91CF911F910F91FF9008950F931A
:104D40001F93CF93DF93C82FD62F042F262F482FE2
:104D500061E080E00E9453262D2F4C2F60E081E01F
:104D60000E945326DF91CF911F910F9108950F93C9
:104D700004E120E848E160E089E095E00E94BE108F
:104D8000882349F142E069E181E00E949F2641E0E9
:104D900069E18EE70E949F2644E06AE281E00E947A
:104DA0009F2648E06AE28EE70E949F264CE768E172
:104DB00082E00E9454244CE76BE282E00E9454247B
:104DC00040E16AE180E00E94F72340E16AE18FE779
:104DD0000F910C94F7230F9108950F93CF93C82F41
:104DE00001E020E8482F60E089E095E00E94BE10D5
:104DF000882339F040E86C2F80E0CF910F910C941C
:104E00005424CF910F9108951F93CF93DF931F9256
:104E1000CDB7DEB7162F9091430521E02093830490
:104E20009093E505109284041092A504682F88EFF2
:104E300094E079830E94650D7981672F88EF94E073
:104E40000E94650D612F88EF94E00E94650D0F9020
:104E5000DF91CF911F910C949A230F931F93CF93BF
:104E6000E0911705F0911805309719F089E095E069
:104E7000099500910B0510910C05E0913A05F09110
:104E80003B0582E00995E0913A05F0913B0581E010
:104E9000099520E030E045E1B80189E095E00E9405
:104EA000E221C82F882341F02CE335E047E1B80127
:104EB00089E095E00E94E221E0913A05F0913B05FE
:104EC00080E009958C2FCF911F910F910895FC01DF
:104ED00080913904811103C08FEF9FEF08959FB730
:104EE000F89482E08093E9002091F20030E01216FD
:104EF000130614F421E030E02115310559F028980B
:104F000084E6809338048091F10080838091F200E0
:104F1000882319F09FBFC90108958BE68093E800AC
:104F2000F9CFCF92DF92EF92FF92CF93DF938FB7BB
:104F3000F894C090E605D090E705E090E805F09081
:104F4000E9058FBF20915B0530E0F901E85CF64E82
:104F50008491F901E75EF64ED491F901E650F74EDF
:104F6000C491CC2379F081110E941120EC2FF0E044
:104F7000EE0FFF1FE451F74EA591B491EC91ED2394
:104F800081E009F480E0817080935D0590915C057B
:104F9000911104C091E0892780935D0520915D0502
:104FA00080915E05281741F0C0926105D09262059C
:104FB000E0926305F092640580916105909162052D
:104FC000A0916305B0916405B701A601481B590B78
:104FD0006A0B7B0BDB01CA0140914F0550915005D4
:104FE0006091510570915205481759076A077B0770
:104FF00094F430914E05231771F020934E0522232F
:1050000051F040915F05509160054F5F5F4F5093A5
:10501000600540935F0530914E05311112C04091FB
:1050200053055091540560915505709156054817E8
:1050300059076A077B070CF580915F059091600521
:1050400014C04091570550915805609159057091D1
:105050005A05481759076A077B077CF480915F055A
:105060009091600591958195910990934D0580935C
:105070004C051092600510925F0520935E05DF914C
:10508000CF91FF90EF90DF90CF9008958091EE0543
:1050900081110DC082E08093EA0584E08093EB05E6
:1050A0001092ED051092EC0581E08093EE058AEEFA
:1050B00095E00895CF93DF9300D0CDB7DEB7789415
:1050C00084B5826084BD84B5816084BD85B582600D
:1050D00085BD85B5816085BD80916E0081608093BE
:1050E0006E00109281008091810082608093810027
:1050F0008091810081608093810080918000816037
:1051000080938000809191008260809391008091D3
:1051100091008160809391008091900081608093E4
:1051200090008091C10084608093C1008091C10093
:1051300082608093C1008091C10081608093C10032
:105140008091C30081608093C3008091C000826021
:105150008093C0008091C20081608093C2008091E2
:105160007A00846080937A0080917A0082608093D4
:105170007A0080917A00816080937A0080917A0031
:10518000806880937A001092390410924C02109239
:105190004B028091D70081608093D70080EA809392
:1051A000D80089B5806189BD89B5826089BD09B49F
:1051B00000FEFDCF61E070E080E090E00E943721CA
:1051C0008091D8008F7C80618093D8008091E0002E
:1051D000807F8093E0008091E1008E7E8093E100EB
:1051E0008DE08093E200559A209AEEEFFFE78591DB
:1051F00094918B3F9C4D19F481E080934A0261E0C9
:105200008DE00E944E2061E08DE00E945A1D8FEFDC
:105210009FEF9093B3048093B20484E190E0A0E008
:10522000B0E080934F0590935005A0935105B09343
:1052300052058AEF90E0A0E0B0E080935305909390
:105240005405A0935505B093560580ED97E0A0E076
:10525000B0E08093570590935805A0935905B093FB
:105260005A052091B7033091B8038091B50390910E
:10527000B6032817390731F480E290E09093B60323
:105280008093B5038091B5039091B6039093B803D2
:105290008093B7038130944014F00C94D03180E0B7
:1052A00094E0909301018093000184E190E0909359
:1052B000F7048093F6040091B7031091B803C80176
:1052C00009969093B8038093B70320910001309121
:1052D0000101281739074CF465E871E086EA94E08B
:1052E0000E945D1C119501951109109350020093C5
:1052F0004F021E9938C00E94BB128093020188237E
:10530000A9F0809131018093040580913201909140
:10531000330190932C0180932B0180913401909163
:10532000350190932A018093290120C080910405C2
:105330008093310180912B0190912C019093330146
:10534000809332018091290190912A019093350137
:10535000809334016FEA71E08DE291E00E9428367B
:105360000E948C1203C081E08093BC0381EA92E02A
:105370000E941F2581E0809329050E94BD2503E13D
:10538000E8E7FE2E43EB51E06AE082E00E94F2255E
:1053900042EC51E064E185E00E94F22543ED51E0EA
:1053A0006CE382E00E94F225009340051CE3109319
:1053B000410522E030E04DEC5CEC6CE070E485E00F
:1053C00095E00E94711C8091BC03882351F0F092FB
:1053D00040051093410566E171E085E095E00E948B
:1053E000DB1B0E942D278111CDCF64EA76E080E09F
:1053F00090E00E943721E1E5F2E080E01192119205
:105400008F5F8038D9F710923B0410923A041092C3
:1054100084041092A5041092820411E01093810478
:1054200010925C0461E082E00E945A1D61E083E01A
:105430000E945A1D8091B9008E7F8093B90080919F
:10544000B9008D7F8093B90088E48093B80085E42B
:105450008093BC008AE090E0A0E0B0E08093440537
:1054600090934505A0934605B093470582E090E0F0
:10547000A0E0B0E08093480590934905A0934A05C9
:10548000B0934B0560E070E185E00E9404276FE176
:105490007CE380E00E94042760E08DE00E945A1DBA
:1054A00080E1809381001092800085E08093BB03AF
:1054B0008FEF9FEF9093BA038093B9039093870087
:1054C0008093860085E18093810084E99DE090933C
:1054D0004E0280934D0210936F00AE014F5F5F4FFD
:1054E0001A010E9491278FB7F894C090E605D090DA
:1054F000E705E090E805F090E9058FBF8091D803BB
:105500009091D903A091DA03B091DB03A701960132
:10551000281B390B4A0B5B0B25363105410551051C
:1055200008F443C38EE580937C0062E070E080E085
:1055300090E00E94372180917A00806480937A0005
:1055400080917A0086FDFCCF2091780080917900CF
:1055500030E0382B032E000C440B550B64EB7BE240
:1055600081E190E00E947D36CA01B9010E949B341E
:1055700020E030E04AE754E40E94F1332B013C0183
:1055800083E10E940C21BC01990F880B990B0E94AA
:105590009B34A30192010E94A83520E030EC4FE734
:1055A00054E40E94F1336093B1037093B20380938B
:1055B000B3039093B40382E10E940C21BC01990FC4
:1055C000880B990B0E949B34A30192010E94A8357D
:1055D00020E030EC4FE754E40E94F1336093AD03D8
:1055E0007093AE038093AF039093B0034090A903F0
:1055F0005090AA036090AB037090AC0310915203DB
:10560000A12EB12CF501EE0FFF1FE05CFE4F608173
:10561000718180E090E00E9499349B01AC01C3014C
:10562000B2010E94A3351816CCF4E12FF0E0EE0F82
:10563000FF1FE05CFE4F6081718180E090E00E947E
:1056400099349B01AC01C301B2010E94A335181625
:105650000CF053C01F5F163041F74FC0112309F4FF
:105660005FC0F501EE0FFF1FE25CFE4F60817181AC
:1056700080E090E00E9499349B01AC01C301B2012B
:105680000E94EC3387FF3BC000910301015000935F
:1056900003012091BD033091BE034091BF0350919F
:1056A000C003C301B2010E94A335181644F440920E
:1056B000BD035092BE036092BF037092C0030111FC
:1056C0002FC08090BD039090BE03A090BF03B09008
:1056D000C003E12FF0E0EE0FFF1FE25CFE4F6081A0
:1056E000718180E090E00E9499349B01AC01C5017A
:1056F000B4010E94EC3387FD0EC01093520380E882
:10570000809303011092BD031092BE031092BF0359
:105710001092C00305C01150E1F610925203EFCF72
:10572000A0905103B12C8501000F111F0F5A1D4F7E
:10573000C301B2010E946A34D8016D937C93BFEF1C
:10574000AB1ABB0AE894A7F8BB24A092510380913E
:1057500004058630B9F48091D703482F50E020919A
:10576000A7033091A8032417350720F08F5F80939B
:10577000D70308C08091A603809304051092D70335
:105780001092A5030E94BD250CE187E0B82E11E11F
:1057900090E2A92E29E2922E80911601882309F425
:1057A000F8C1E09104058E2F90E08730910508F054
:1057B0006CC1FC01EA5AFF4F0C94653341E0C7010C
:1057C000B6010E94321300934005B092410563E395
:1057D00071E085E095E00E94DB1B87E00E94ED26EA
:1057E0001092400510934105609175037091760306
:1057F000809177039091780342E00E94AF136EE2AC
:1058000071E085E095E00E94DB1BE0E4E093400559
:10581000109341056091790370917A0380917B0325
:1058200090917C0342E00E94AF136AE271E085E050
:1058300095E00E94DB1B10924005A092410563E2B7
:1058400071E085E095E00E94DB1B60915703709149
:1058500058038091590390915A032091530330913A
:10586000540340915503509156030E94A83520E0FF
:1058700030E04AE754E40E94F133AB01BC0122E07E
:1058800030E085E095E00E94711C68ED71E085E0F4
:1058900095E00E94581D109240059092410560E2EB
:1058A00071E085E095E00E94DB1B40915703509129
:1058B00058036091590370915A0322E030E085E06B
:1058C00095E00E94711C6BE171E085E095E00E941B
:1058D000DB1B409153035091540360915503709129
:1058E000560322E030E085E095E00E94711C68E1FB
:1058F00071E06FC041E0C701B6010E94321300930E
:105900004005B09241056CE571E085E095E00E94AC
:10591000DB1B87E00E94ED261092400510934105A5
:1059200066E571E085E095E00E94DB1B6091630312
:1059300070916403809165039091660340E00E943A
:10594000AF1361E571E085E095E00E94DB1B4091BB
:105950005F0350916003609161037091620322E0E4
:1059600030E085E095E00E94711C6DE471E085E017
:1059700095E00E94DB1B10924005A092410568E46F
:1059800071E085E095E00E94DB1B4091040150919D
:105990000501609106017091070122E030E085E089
:1059A00095E00E94711C64E471E085E095E00E943E
:1059B000DB1B40915B0350915C0360915D03709130
:1059C0005E0322E030E085E095E00E94711C60E417
:1059D00071E085E095E00E94DB1B85E30E94ED26E7
:1059E00058C06091A9037091AA038091AB03909174
:1059F000AC032091A1033091A2034091A3035091E5
:105A0000A4030E94A83520E030E04AE754E40E9455
:105A1000F13322E048ED51E017C06091A903709185
:105A2000AA038091AB039091AC0320E04AED51E0D2
:105A30000BC06091A1037091A2038091A303909188
:105A4000A40322E04DED51E00E94FA1322C08091A0
:105A5000D70390E02091A7033091A80328173907B6
:105A6000C0F010924005F0E1F09341058EE29AE01B
:105A70000E941F2567E673E085E095E00E94581DAF
:105A800081EA92E00E941F2504C0C701B6010E946E
:105A9000CD161092400520E4209341054091A103CA
:105AA0005091A2036091A3037091A40322E030E01F
:105AB00085E095E00E94711C6CE671E085E095E060
:105AC0000E94DB1B6091A9037091AA038091AB0334
:105AD0009091AC0340E00E94AF1368E671E085E06E
