:100000000C94AD0C0C94D50C0C94D50C0C94D50C14
:100010000C94D50C0C94D50C0C94D50C0C94D50CDC
:100020000C94D50C0C94D50C0C94AB230C941D247F
:100030000C94D50C0C94D50C0C94D50C0C94D50CBC
:100040000C94D50C0C94D50C0C94D50C0C94D50CAC
:100050000C94C41B0C94D50C0C94D50C0C947A1BEA
:100060000C94D50C0C94D50C0C94D50C0C94D50C8C
:100070000C94D50C0C94D50C0C94D50C0C94D50C7C
:100080000C94D50C0C94D50C0C94D50C0C94D50C6C
:100090000C94E0100C94D50C0C94D50C0C94D50C4D
:1000A0000C94D50C0C94D50C0C94D50C912D2A2CB9
:1000B000C62C3D2D592D652D732D9C306A3167302E
:1000C0008F318F318F318F318F318F318F318F3130
:1000D0008F318F3185308F31E82F0E308F318F3156
:1000E000543032308F318F312D30F819FB19EA1925
:1000F000EE19F4191C1A1C1A1C1AFF19031A071AF4
:100100000D1A111A1C1A171AA71ADF1AE11AF01A77
:10011000F61AFA1A031B2A006D4100562026200009
:100120004020005065616B3A20006D4168006D57BA
:10013000682000456E6572677920557361676500B8
:100140006D412900562028004D696E3A005629203D
:10015000006D412028005065616B3A005065616B6D
:10016000202D204D696E73006D4120005620002C1B
:10017000202274696D65223A002C202272616D2262
:100180003A002C2022646D223A002C202264702236
:100190003A002C20227368756E74223A002C2022BB
:1001A0006D7768223A007D2C20226D6168223A002A
:1001B0002C2022617667223A002C20226D696E2263
:1001C0003A007D2C202276223A7B20226D61782213
:1001D0003A002C2022617667223A002C20226D6999
:1001E0006E223A007B202261223A7B20226D6178C8
:1001F000223A007D007B2244223A007D007B22448B
:10020000223A007D7D002C202276223A002C2022EA
:1002100070223A002C202277223A007B2273223A65
:10022000007B225243223A00433A4F4B00433A4666
:1002300061696C656400433A4F4B004661696C65C7
:1002400064007D7D002C202276223A002C20227032
:10025000223A002C202277223A007B2273223A0095
:100260007B2243223A007D007B2250223A007D000F
:100270007B2245223A007D007B2256223A007D00F7
:100280007B2257223A007B225A223A224F4B227D70
:10029000007D007B2253223A007D007B2252223ACD
:1002A0000001060C00FE070135026B20FFFE0AFE6E
:1002B00008FE0C0060221767808080808000801715
:1002C0003363A0A0A002566650F85050F850015970
:1002D000692070A8A07028A87020025767C8C810AD
:1002E0002040989802576740A0A040A89068271324
:1002F00063808080113969204040808080404020A8
:1003000011396980404020202040408002576720FA
:10031000A8702070A8200355652020F82020013304
:10032000636060C0055161F8122262C0C002576765
:100330000810102040408012476760909090909085
:100340006012376740C040404040E0025767708805
:1003500008102040F8025767F8081030088870022B
:10036000576710305090F81010025767F880F00867
:10037000088870025767304080F08888700257679D
:10038000F80810102020200257677088887088882D
:100390007002576770888878081060122565C0C0A1
:1003A00000C0C00136666060006060C01335652023
:1003B00040804020045363F800F8133565804020E6
:1003C0004080025767708810202000200257677015
:1003D00088B8A8B88070025767708888F8888888BD
:1003E000025767F04848704848F0025767708880A5
:1003F00080808870025767F04848484848F00257A4
:1004000067F88080F08080F8025767F88080F0807D
:10041000808002576770888080988870025767884C
:100420008888F8888888123767E04040404040E07C
:10043000025767381010101090600257678890A01C
:10044000C0A09088025767808080808080F8025723
:100450006788D8A8888888880257678888C8A89835
:10046000888802576770888888888870025767F084
:100470008888F080808002576770888888A8906894
:10048000025767F08888F0A09088025767708880CC
:1004900070088870025767F820202020202002571B
:1004A0006788888888888870025767888888885015
:1004B000502002576788888888A8A8500257678804
:1004C0008850205088880257678888502020202034
:1004D000025767F80810204080F8113969E08080E1
:1004E0008080808080E002576780404020101008A4
:1004F000113969E020202020202020E007536320CC
:100500005088005161F817336380402002556570B0
:10051000087888780257678080F0888888F00255CC
:10052000657088808870025767080878888888789E
:100530000255657088F08070025767304840E0408F
:100540004040005767708888887808700257678035
:1005500080F0888888881237674000C0404040E0BB
:100560001049691000301010101090600257678019
:10057000808890E09088123767C04040404040E05B
:10058000025565D0A8A8A8A8025565B0C888888873
:100590000255657088888870005767F0888888F0F1
:1005A000808000576778888888780808025565B089
:1005B000C880808002556578807008F002576720F7
:1005C00020F82020201802556588888898680255F0
:1005D0006588888850200255658888A8A8500255EB
:1005E0006588502050880057678888885020408050
:1005F000025565F8102040F81139692040404080CC
:1006000040404020211969808080808080808080E7
:100610001139698040404020404040800453634885
:10062000A890FFFFFFFFFFFFFFFFFFFFFFFFFFFFA0
:10063000FFFFFFFFFFFFFFFFFFFFFFFFFFFFFFFFCA
:10064000FFFFFF0C006022176780008080808080A1
:100650000157672070A8A0A8702002576730484053
:10066000E04048B0025565A8508850A802576788F6
:1006700050F820F82020221767808080008080803A
:1006800012486870806090906010E0193161A0029B
:100690006767788494A494847816356560A06000B8
:1006A000E00255652850A05028035363F808081548
:1006B0003161E00267677884B4A4A4847809516149
:1006C000F8174464609090600257672020F820205B
:1006D00000F817356540A02040E0173565C0204080
:1006E00020C017336320408000576788888898E8C7
:1006F000808002586878E8E8E8682828282522627F
:10070000C0C010326220C017356540C04040E017BD
:10071000356540A04000E0025565A0502850A00279
:100720005A6A40C04040503050781010025A6A4017
:10073000C04040502808102038025A6AC02040208B
:10074000D030507810100257672000202040887069
:10075000025A6A402000708888F8888888025A6A9D
:10076000102000708888F8888888025A6A20500013
:10077000708888F8888888025A6A68B0007088880B
:10078000F88888880259695000708888F8888888B5
:10079000025A6A205020708888F888888802576733
:1007A00078A0A0F0A0A0B8005969708880808088E7
:1007B000701060025A6A402000F88080F08080F853
:1007C000025A6A102000F88080F08080F8025A6A8D
:1007D000205000F88080F08080F80259695000F8BD
:1007E0008080F08080F8123A6A804000E04040400B
:1007F0004040E0123A6A204000E04040404040E083
:10080000123A6A40A000E04040404040E01239699E
:10081000A000E04040404040E0025767704848E890
:10082000484870025A6A68B0008888C8A8988888C2
:10083000025A6A40200070888888888870025A6A44
:1008400010200070888888888870025A6A205000BA
:1008500070888888888870025A6A68B000708888B2
:1008600088888870025969500070888888888870E4
:100870000355658850205088015969087098A8A8C8
:10088000A8C87080025A6A402000888888888888B2
:1008900070025A6A10200088888888888870025AF6
:1008A0006A205000888888888888700259695000BA
:1008B00088888888888870025A6A10200088885042
:1008C0002020202012476780E0909090E08002571F
:1008D00067708890A09088B0025868402000700827
:1008E0007888780258681020007008788878025854
:1008F00068205000700878887802586868B00070E6
:10090000087888780257675000700878887802580D
:10091000682050207008788878025565702870A08B
:10092000780057677088808870106002586840208F
:10093000007088F080700258681020007088F08085
:10094000700258682050007088F08070025767501D
:10095000007088F08070123868804000C0404040CD
:10096000E0123868204000C0404040E01238684043
:10097000A000C0404040E0123767A000C0404040A7
:10098000E0025969502050087888888870025868B9
:1009900068B000B0C8888888025868402000708815
:1009A0008888700258681020007088888870025803
:1009B00068205000708888887002586868B000709D
:1009C000888888700257675000708888887003553F
:1009D000652000F800200255657898A8C8F00258F4
:1009E0006840200088888888700258681020008835
:1009F000888888700258682050008888888870022B
:100A0000576750008888888870005A6A10200088CC
:100A10008888502040800059698080F0888888F05C
:100A20008080005969500088888850204080000AE2
:100A30001400FC0D024A049920FFFC10FC0DFC0080
:100A400000000A0010020D0D0A0400C0C0C0C0C0A2
:100A5000C0C0C0C0C000C0C00604040A0209CCCC9B
:100A6000CC48090B160A01011B001B001B007F80EC
:100A7000360036003600FF006C006C006C00080D7C
:100A80000D0A0100187EDBD8D8D87E1B1B1BDB7E2D
:100A900018090C180A01007300DB00DE0076000C58
:100AA000000C001800180037003D806D80670009B9
:100AB0000D1A0A010038006C006C006C00780030E0
:100AC000007000D800CD80C700C600EF007980021A
:100AD00005050A0408C0C0C0C080050D0D0A03004A
:100AE00018306060C0C0C0C0C060603018050D0D17
:100AF0000A0200C06030301818181818303060C072
:100B00000807070A010366663CFF3C66660807079C
:100B10000A0103181818FF1818180403030A03FF22
:100B20007070E00801010A0106FF0303030A0400D4
:100B3000E0E0E0070C0C0A020006060C0C18183066
:100B4000306060C0C0080D0D0A0100183C6666C325
:100B5000C3C3C3C366663C18080D0D0A01001838EC
:100B600078D81818181818181818FF080D0D0A0149
:100B7000003C66C3C30303061C3060C0C0FF080D01
:100B80000D0A01003C66C3C303061C0603C3C3660B
:100B90003C080D0D0A010002060E1E3666C6C6FF91
:100BA00006060606080D0D0A0100FFC0C0C0C0DC25
:100BB000E6030303C3663C080D0D0A01003C66C250
:100BC000C0C0DCE6C3C3C3C3663C080D0D0A010008
:100BD000FF030306060C0C181830306060080D0D7A
:100BE0000A01003C66C3C3C3663C66C3C3C3663C1C
:100BF000080D0D0A01003C66C3C3C3C3673B030372
:100C000043663C0308080A0400E0E000000000E03E
:100C1000E00409090A03FF7070000000007070E032
:100C2000070D0D0A010002060C183060C060301874
:100C30000C06020806060A0103FF00000000FF0779
:100C40000D0D0A020080C06030180C060C183060D0
:100C5000C080080D0D0A01003C66C3C3C3060C1812
:100C60001818001818080D0D0A01003C66C3CFDFE4
:100C7000DBDBDBDECCC0633E080D0D0A0100183C57
:100C80006666C3C3C3FFC3C3C3C3C3080D0D0A0154
:100C900000F8CCC6C6C6CCFCC6C3C3C3C6FC080D90
:100CA0000D0A01003C66C3C0C0C0C0C0C0C0C3665E
:100CB0003C080D0D0A0100FCC6C3C3C3C3C3C3C3B4
:100CC000C3C3C6FC080D0D0A0100FFC0C0C0C0C0F0
:100CD000FCC0C0C0C0C0FF080D0D0A0100FFC0C0AD
:100CE000C0C0C0FCC0C0C0C0C0C0080D0D0A01001B
:100CF0003C66C3C0C0C0CFC3C3C3C3673D080D0DAE
:100D00000A0100C3C3C3C3C3C3FFC3C3C3C3C3C3B5
:100D1000080D0D0A0100FF181818181818181818CF
:100D20001818FF090D1A0A01001F800600060006A8
:100D30000006000600060006000600C600C6006C9D
:100D4000003800080D0D0A0100C3C3C6C6CCCCF89C
:100D5000CCCCC6C6C3C3080D0D0A0100C0C0C0C0BC
:100D6000C0C0C0C0C0C0C0C0FF080D0D0A0100C394
:100D7000C3E7E7FFDBDBDBDBC3C3C3C3080D0D0A3F
:100D80000100C3E3E3F3F3DBDBCFCFC7C7C3C30883
:100D90000D0D0A01003C66C3C3C3C3C3C3C3C3C3B1
:100DA000663C080D0D0A0100FCC6C3C3C3C3C6FCE4
:100DB000C0C0C0C0C0080E0E0A01FF3C66C3C3C35A
:100DC000C3C3C3C3DBCF663E03080D0D0A0100FC9D
:100DD000C6C3C3C3C3C6FCCCC6C6C3C3080D0D0A75
:100DE00001003C66C3C0C0603C060303C3663C0808
:100DF0000D0D0A0100FF18181818181818181818DF
:100E00001818080D0D0A0100C3C3C3C3C3C3C3C36D
:100E1000C3C3C3663C080D0D0A0100C3C3C3C36648
:100E200066663C3C3C181818080D0D0A0100C3C347
:100E3000C3C3C3DBDBDBDBE7E7C3C3080D0D0A017C
:100E400000C3C366663C3C183C3C6666C3C3080DE1
:100E50000D0A0100C3C366663C3C18181818181820
:100E600018080D0D0A0100FF0303060C0C183030A2
:100E700060C0C0FF060D0D0A0200FCC0C0C0C0C0AB
:100E8000C0C0C0C0C0C0FC070C0C0A0200C0C060DB
:100E900060303018180C0C0606060D0D0A0200FC16
:100EA0000C0C0C0C0C0C0C0C0C0C0CFC0804040AA8
:100EB0000109183C66C30901020A01FFFF8004030F
:100EC000030A030AC060300808080A01003E6303F1
:100ED0007FC3C3C37D080D0D0A0100C0C0C0C0C0E0
:100EE000DCE6C3C3C3C3E6DC0808080A01003E63AE
:100EF000C0C0C0C0633E080D0D0A01000303030318
:100F0000033B67C3C3C3C3673B0808080A01003C2F
:100F100066C3FFC0C0633E080D0D0A01001E3333D7
:100F20003030FC30303030303030080C0C0A01FCEE
:100F30007DC7C6C6C67CC07EC3C3C37E080D0D0A6E
:100F40000100C0C0C0C0C0DCE6C3C3C3C3C3C30884
:100F50000B0B0A010018180078181818181818FF39
:100F6000070F0F0A02FC0606001E06060606060606
:100F700006C6C6C67C080D0D0A0100C0C0C0C0C0B0
:100F8000C6CCD8F0F8CCC6C3080D0D0A01007818FD
:100F900018181818181818181818FF0808080A013F
:100FA00000B6FFDBDBDBDBDBDB0808080A0100DC6B
:100FB000E6C3C3C3C3C3C30808080A01003C66C331
:100FC000C3C3C3663C080C0C0A01FCDCE6C3C3C304
:100FD000C3E6DCC0C0C0C0080C0C0A01FC3B67C300
:100FE000C3C3C3673B030303030808080A0100DE09
:100FF000736060606060600808080A01007EC3C01A
:101000007E0303C37E080B0B0A0100303030FC3036
:1010100030303030331E0808080A0100C3C3C3C390
:10102000C3C3673B0808080A0100C3C366663C3CAB
:1010300018180808080A0100C3C3C3DBDBDBFF661E
:101040000808080A0100C3663C18183C66C3080C6F
:101050000C0A01FCC3C3C3C3C3C3673B03C3663CE1
:101060000708080A0200FE060C183060C0FE080DD2
:101070000D0A01000F1818181818F0181818181869
:101080000F020D0D0A0400C0C0C0C0C0C0C0C0C067
:10109000C0C0C0C0080D0D0A0100F01818181818BB
:1010A0000F1818181818F00803030A010A73DBCE8A
:1010B000FFFFFFFFFFFFFFFFFFFFFFFFFFFFFFFF40
:1010C000FFFFFFFFFFFFFFFFFFFFFFFFFFFFFFFF30
:1010D000FF0000000A0010020D0D0A0400C0C0004D
:1010E000C0C0C0C0C0C0C0C0C0C0070C0C0A010056
:1010F00018183C66C2C0C0C2663C1818090C180A11
:1011000001001E003300330030003000FC003000CE
:1011100030003000F800AD80E7000909120A000134
:101120008080DD807F006300630063007F00DD80DE
:101130008080080B0B0A010081C3663C7E187E1874
:10114000181818020D0D0A0400C0C0C0C0C000006D
:1011500000C0C0C0C0C0080D0D0A01003C66C660DA
:1011600078CC66331E0663663C0602020A020BCC8C
:10117000CC080B0B0A01003C66C3BDA5A1A5BDC3ED
:10118000663C0809090A01043E43037FC3C37D008E
:10119000FF090B160A000004800D801B0036006C4E
:1011A00000D8006C0036001B000D80048008040489
:1011B0000A0104FFFF03030601010A0206FC080BF3
:1011C0000B0A01003C66C3BDA5BDA9ADC3663C08C2
:1011D00001010A010DFF0606060A02073078CCCC91
:1011E00078300807070A01021818FF181800FF05D1
:1011F00007070A020670D8183060C0F80507070A0A
:10120000020670D8183018D8700403030A030A3095
:1012100060C0070A0A0A01FDC6C6C6C6C6EEFAC005
:10122000C0C0080D0D0A01007FFFFBFBFB7B1B1BF1
:101230001B1B1B1B1B0303030A0405E0E0E0050462
:10124000040A02FC3018D8700407070A020660E09E
:1012500060606060F00709090A0104386CC6C6C600
:101260006C3800FE090B160A01009000D8006C00D3
:1012700036001B000D801B0036006C00D80090006B
:10128000080C0C0A010140C04142E40812264A9EA3
:101290000202080C0C0A010140C04142E408162970
:1012A0004182040F080C0C0A0101E0106112E408ED
:1012B00012264A9F0202080D0D0A01001818001894
:1012C00018183060C3C3C3663C080F0F0A010060E2
:1012D000301800183C66C3C3C3FFC3C3C3C3080FA1
:1012E0000F0A0100060C1800183C66C3C3C3FFC3F5
:1012F000C3C3C3080F0F0A0100183C6600183C6600
:10130000C3C3C3FFC3C3C3C3080F0F0A0100327EA8
:101310004C00183C66C3C3C3FFC3C3C3C3080F0F4D
:101320000A0100666600183C6666C3C3C3FFC3C3F8
:10133000C3C30810100A01003C66663C00183C66F6
:10134000C3C3C3FFC3C3C3C3080D0D0A01001F3CC1
:101350006C6CCCCCFFCCCCCCCCCCCF0811110A011E
:10136000FC3C66C3C0C0C0C0C0C0C0C3663C180C53
:101370006C38080F0F0A010060301800FFC0C0C0B1
:10138000C0FCC0C0C0C0FF080F0F0A01000C18301D
:1013900000FFC0C0C0C0FCC0C0C0C0FF080F0F0A23
:1013A0000100183C6600FFC0C0C0C0FCC0C0C0C087
:1013B000FF080F0F0A010066660000FFC0C0C0C032
:1013C000FCC0C0C0C0FF060F0F0A0200603018004A
:1013D000FC303030303030303030FC060F0F0A0235
:1013E0000018306000FC303030303030303030FCAD
:1013F000060F0F0A02003078CC00FC30303030305D
:1014000030303030FC060F0F0A0200CCCC00FC302C
:10141000303030303030303030FC090D1A0A0000E6
:101420007E0063006180618061806180F9806180FD
:1014300061806180618063007E00080F0F0A0100F7
:10144000327E4C00C3E3F3F3DBDBCFCFC7C3C3086B
:101450000F0F0A010030180C003C66C3C3C3C3C39E
:10146000C3C3663C080F0F0A01000C1830003C662D
:10147000C3C3C3C3C3C3C3663C080F0F0A0100182C
:101480003C66003C66C3C3C3C3C3C3C3663C080F0A
:101490000F0A0100327E4C003C66C3C3C3C3C3C302
:1014A000C3663C080F0F0A01006666003C66C3C3B2
:1014B000C3C3C3C3C3C3663C0708080A010082C68E
:1014C0006C38386CC682080F0F0A01FF013E66C7F0
:1014D000C7CBCBCBD3D3D3E3667C80080F0F0A01F5
:1014E0000030180C00C3C3C3C3C3C3C3C3C3663C2B
:1014F000080F0F0A01000C183000C3C3C3C3C3C3D5
:10150000C3C3C3663C080F0F0A0100183C6600C342
:10151000C3C3C3C3C3C3C3C3663C080F0F0A0100E0
:10152000666600C3C3C3C3C3C3C3C3C3C3663C08A7
:101530000F0F0A01000C183000C3C366663C3C184C
:1015400018181818070D0D0A0200C0C0C0FCC6C646
:10155000C6C6C6FCC0C0C0080D0D0A01001C36631B
:101560006366EC6C66636363666C080C0C0A0100CE
:1015700030180C007EC3037FC3C3C37D080C0C0A64
:1015800001000C1830007EC3037FC3C3C37D080C69
:101590000C0A0100183C66007EC3037FC3C3C37DF1
:1015A000080C0C0A0100327E4C007EC3037FC3C3CB
:1015B000C37D080B0B0A01006666007EC3037FC370
:1015C000C3C37D080D0D0A01003C66663C007EC366
:1015D000037FC3C3C37D0808080A0100769B1B1E56
:1015E00078D8D96E080C0C0A01FC3E63C0C0C0C09C
:1015F000633E180C6C38080C0C0A010060301800AF
:101600003C66C3FFC0C0633E080C0C0A0100060C18
:1016100018003C66C3FFC0C0633E080C0C0A010002
:10162000183C66003C66C3FFC0C0633E080B0B0A53
:1016300001006666003C66C3FFC0C0633E080C0C38
:101640000A01006030180078181818181818FF08D8
:101650000C0C0A01000C183000781818181818180B
:10166000FF080C0C0A0100183C66007818181818BE
:101670001818FF080B0B0A01006666007818181886
:10168000181818FF080D0D0A010088D87070D88C42
:101690003E67C3C3C3663C080C0C0A0100327E4C93
:1016A00000DCE6C3C3C3C3C3C3080C0C0A0100605B
:1016B0003018003C66C3C3C3C3663C080C0C0A0167
:1016C00000060C18003C66C3C3C3C3663C080C0C80
:1016D0000A0100183C66003C66C3C3C3C3663C08ED
:1016E0000C0C0A0100327E4C003C66C3C3C3C366C7
:1016F0003C080B0B0A01006666003C66C3C3C3C30B
:10170000663C080A0A0A010118180000FFFF0000E1
:101710001818080A0A0A01FF013E66CBCBD3D3662C
:101720007C80080C0C0A010030180C00C3C3C3C332
:10173000C3C3673B080C0C0A0100060C1800C3C3A6
:10174000C3C3C3C3673B080C0C0A0100183C660006
:10175000C3C3C3C3C3C3673B080B0B0A0100666660
:1017600000C3C3C3C3C3C3673B0810100A01FC0C0A
:10177000183000C3C3C3C3C3C3673B03C3663C077E
:1017800011110A02FCC0C0C0C0C0C0F8CCC6C6C699
:10179000CCF8C0C0C0C0080F0F0A01FC666600C3C9
:1017A000C3C3C3C3C3673B03C3663C3000442D3A85
:1017B0002000442B3A200041004100300050656178
:1017C0006B3A0030005065616B3A007D7D002C2043
:1017D0002277223A002C202261223A002C20226318
:1017E000223A002C202274223A007B202265766562
:1017F0006E74223A7B202269223A00FFE0FFD1AFCB
:10180000FF32FFD0FFFEFFE0FFD1AEFFD0FFFEFFB3
:10181000E0FFD11000FFFEFFD0FFE0FFC1FFD1AE1F
:10182000D580A83FD300408D142000A1C8DA1281D2
:10183000CFD9F1DB402EA4A6AFFFD0FFFE070605EF
:10184000040100080A0B0C0D090000000024002709
:10185000002A002D00300000000000250028002B89
:10186000002E003100080B000202020100090400F2
:1018700000010202000005240010010524010101FD
:101880000424020605240600010705810310004018
:1018900009040100020A00000007050202400000DE
:1018A000070583024000000403090441726475695E
:1018B0006E6F204C4C430041726475696E6F204C12
:1018C000656F6E6172646F001201000200000040DB
:1018D0004123368000010102030112010002EF02E0
:1018E0000140412336800001010203010000000095
:1018F0002300260029002C002F0004040404040304
:10190000040502020202040302020202060606069F
:1019100006060404020202040404080201104080C6
:1019200040102040804080080204018040201002C6
:1019300001108010204040200000000200090F002C
:1019400000030401000C0000000000000000000083
:101950000000000000000000A13211241FBECFEFE4
:10196000DAE0DEBFCDBF12E0A0E0B1E0E8E5FEE6E0
:1019700002C005900D92A834B107D9F725E0A8E47C
:10198000B2E001C01D92A83FB207E1F71CE0CDEA2A
:10199000DCE004C02197FE010E94B133CC3AD107AC
:1019A000C9F70E94A4280C942A370C94000085EDF6
:1019B0008093BC008091BC0084FDFCCF1092780421
:1019C000089540910404262F30E0240F311D213268
:1019D0003105DCF4209178042430C9F4FC0180E066
:1019E00090E0861758F4309104042191DC01AE5147
:1019F000BC4FA30FB11D2C930196F3CF809104042B
:101A0000680F6093040480E0089581E0089582E007
:101A100008950895E091310480913004E81730F47E
:101A2000F0E0EE5CFB4F808190E008958FEF9FEF38
:101A300008959091310480913004981750F4E92F63
:101A4000F0E0EE5CFB4F208130E09F5F909331042B
:101A500002C02FEF3FEFC90108958091300490E05C
:101A600020913104821B91090895CF92DF92EF9269
:101A7000FF920F931F93CF93DF937C01262F972F15
:101A80008A0180917904882391F0C62FD72F6E01A7
:101A9000C40ED51ECC15DD0571F06991D701ED910D
:101AA000FC910190F081E02DC7010995F3CF642FDF
:101AB000822F0E94E10CC801DF91CF911F910F91FD
:101AC000FF90EF90DF90CF900895CF93DF931F9218
:101AD000CDB7DEB76983209179042223D1F020911C
:101AE0009B04203240F021E030E0FC01338322836C
:101AF00080E090E015C080917A04E82FF0E0E5588E
:101B0000FB4F998190838F5F80937A0480939B042D
:101B100005C061E0CE0101960E94E10C81E090E0F9
:101B20000F90DF91CF9108954F925F926F927F92C5
:101B30008F929F92AF92BF92CF92DF92EF92FF92DD
:101B4000CF93DF93CDB7DEB72A970FB6F894DEBFF9
:101B50000FBECDBF5D9A7894BE016F5F7F4F81E06D
:101B60000E94B41E69817A81072E000C880B990BA4
:101B70000E94E7342AE037ED43E25CE30E94F4354B
:101B800060936F037093700380937103909372035B
:101B9000BE016F5F7F4F82E00E94B41E69817A812F
:101BA00083E0769567958A95E1F7660F771F660F54
:101BB000771F072E000C880B990B0E94E7342FE645
:101BC00032E143E85AE30E94F4356093DE037093F8
:101BD000DF038093E0039093E103BE016F5F7F4FCB
:101BE00084E00E94B41E69817A81072E000C880B64
:101BF000990B0E94E7346B017C0160913A0570916A
:101C00003B0580913C0590913D050E94E5349B0188
:101C1000AC01C701B6010E943D346093A7037093E5
:101C2000A8038093A9039093AA03C090DE03D090E9
:101C3000DF03E090E003F090E10360916F037091A7
:101C40007003809171039091720320E030E04AE7C5
:101C500054E40E943D349B01AC01C701B6010E94CF
:101C6000CC3360939F037093A0038093A103909360
:101C7000A2036091DE037091DF038091E0039091F5
:101C8000E1032091A7033091A8034091A90350914B
:101C9000AA03C0907303D0907403E0907503F09092
:101CA00076030E94F43520E030E44CE955E40E94CC
:101CB000F43520E034E244E759E40E943D3420E06A
:101CC00030E041E655E40E943D349B01AC01C70180
:101CD000B6010E94CC3360937303709374038093B6
:101CE0007503909376036091A7037091A803809188
:101CF000A9039091AA03C0907703D0907803E09055
:101D00007903F0907A0320E030E44CE955E40E9436
:101D1000F43520E034E244E759E40E943D3420E009
:101D200030E041E655E40E943D349B01AC01C7011F
:101D3000B6010E94CC33609377037093780380934D
:101D4000790390937A036091A7037091A80380911F
:101D5000A9039091AA0320919B0330919C03409189
:101D60009D0350919E030E94EF35181684F48091D4
:101D7000A7039091A803A091A903B091AA0380930F
:101D80009B0390939C03A0939D03B0939E0360914B
:101D9000A7037091A8038091A9039091AA032091B1
:101DA0009703309198034091990350919A030E94B0
:101DB000383487FF10C08091A7039091A803A091A9
:101DC000A903B091AA038093970390939803A093DB
:101DD0009903B0939A0360919F037091A00380913F
:101DE000A1039091A2032091930330919403409119
:101DF0009503509196030E94EF35181684F4809154
:101E00009F039091A003A091A103B091A20380939E
:101E1000930390939403A0939503B09396036091DA
:101E20009F037091A0038091A1039091A203209140
:101E30008F033091900340919103509192030E943F
:101E4000383487FF10C080919F039091A003A09128
:101E5000A103B091A20380938F0390939003A0936A
:101E60009103B093920340908B0350908C03609049
:101E70008D0370908E03C0900E01D0900F01E09002
:101E80001001F0901101C701B6010E94E5344B0129
:101E90005C018091A7039091A803A091A903B09140
:101EA000AA038F839887A987BA87D701C6010196AD
:101EB000A11DB11D8B839C83AD83BE83BC01CD016D
:101EC0000E94E5346B017C01A5019401C301B201BC
:101ED0000E94F4352F81388549855A850E94CC337C
:101EE000A70196010E943D3460938B0370938C038D
:101EF00080938D0390938E03609187037091880384
:101F00008091890390918A0340909F035090A00391
:101F10006090A1037090A203A50194010E94F43582
:101F2000A30192010E94CC33A70196010E943D3487
:101F300060938703709388038093890390938A0347
:101F40008B819C81AD81BE8180930E0190930F01A6
:101F5000A0931001B09311016091A7037091A803A1
:101F60008091A9039091AA032091610330916203AB
:101F700040916303509164030E94EF35181604F5F5
:101F80008091A7039091A803A091A903B091AA03FF
:101F90008093610390936203A0936303B0936403FF
:101FA00080919F039091A003A091A103B091A203FF
:101FB00080935D0390935E03A0935F03B0936003EF
:101FC00060919F037091A0038091A1039091A2035F
:101FD00020910201309103014091040150910501CB
:101FE0000E94383487FF20C080919F039091A00306
:101FF000A091A103B091A2038093020190930301E9
:10200000A0930401B09305018091A7039091A803C8
:10201000A091A903B091AA038093590390935A0306
:10202000A0935B03B0935C036091550370915603DA
:10203000809157039091580320915103309152039E
:10204000409153035091540380909F039090A003BC
:10205000A090A103B090A2034090A7035090A803C2
:102060006090A9037090AA030E94F4356B017C0173
:10207000A3019201C501B4010E94F4359B01AC019A
:10208000C701B6010E94383487FF20C080919F03AA
:102090009091A003A091A103B091A2038093550356
:1020A00090935603A0935703B09358038091A703CE
:1020B0009091A803A091A903B091AA038093510322
:1020C00090935203A0935303B09354035D982A96C0
:1020D0000FB6F894DEBF0FBECDBFDF91CF91FF905A
:1020E000EF90DF90CF90BF90AF909F908F907F90B8
:1020F0006F905F904F900895CF92DF92EF92FF9292
:102100000F931F93CF93DF931F92CDB7DEB76C0170
:10211000DC01DC961C91DC97DB960C917C01B4E031
:10212000EB0EF11CDC015996ED91FC915A97C70119
:1021300069830995482F410F2981602FC7010E94AB
:10214000591CF60123AD082E000C990B820F911D2E
:1021500083AF81E090E00F90DF91CF911F910F91BD
:10216000FF90EF90DF90CF900895DB011496ED91F2
:10217000FC91159720E030E063E009940F93FC0197
:102180000150040F84A996A9941718F0081728F491
:1021900002C0081750F0041740F42150260F83A9FD
:1021A00095A9961720F4281720F480E007C0281777
:1021B00020F481E0261710F0F8CF81E00F91089508
:1021C0001F920F920FB60F9211242F933F934F93AC
:1021D0005F936F937F938F939F93AF93BF93EF938F
:1021E000FF938091B900887F803609F49CC068F520
:1021F000883209F45BC090F4803109F454C038F49B
:10220000882309F4F6C0883009F44DC0F6C088313F
:1022100009F44CC0803209F45DC0EFC0803409F489
:1022200068C048F4803309F455C0883309F0E5C02C
:1022300080937604D8C0803509F44FC0883509F4FE
:102240005DC0883409F0D9C0D6C0883909F4C7C048
:10225000A8F4883709F467C038F4883609F463C0F5
:10226000803709F460C0C9C0883809F4B8C0803923
:1022700009F45FC0803809F0C0C05BC0803B09F43E
:1022800086C038F4803A09F466C0883A09F47FC001
:10229000B4C0803C09F4A7C0883C09F4A4C0883BC2
:1022A00009F48AC0AAC08091530410C090917504AB
:1022B00080917404981770F5E091750481E08E0F99
:1022C00080937504F0E0EC5AFB4F80818093BB0053
:1022D00085EC86C0809376048EC0E091750481E021
:1022E0008E0F809375048091BB00F0E0EC5AFB4F99
:1022F000808390917504809174046EC0E0917504A0
:1023000081E08E0F809375048091BB00F0E0EC5A61
:10231000FB4F80838091770481116DC081E08093B1
:10232000520484EA61C083E0809378041092280408
:10233000CFCF80912804803208F051C0E09128046A
:1023400081E08E0F809328048091BB00F0E0E85F6D
:10235000FB4F8083BDCF85EC8093BC001092780446
:1023600080912804803230F4E0912804F0E0E85FA6
:10237000FB4F10826091280470E0E0910604F09118
:10238000070488E094E009951092280436C084E0A0
:10239000809378041092050410920404E0910204E2
:1023A000F0910304099580910404811105C081E036
:1023B000809304041092E203E091050481E08E0F03
:1023C00080930504F0E0EE51FC4F80818093BB00C8
:1023D0009091050480910404981708F479CF85E85A
:1023E0008093BC000AC085EC8093BC0010927804F6
:1023F00004C0109276040E94D70CFF91EF91BF9118
:10240000AF919F918F917F916F915F914F913F918C
:102410002F910F900FBE0F901F9018958091A303DE
:10242000811116C08AE090E09093A6038093A503E3
:102430006FE072E085E693E00E94743681E080935D
:10244000A3038091FA048093A40386E08093FA04A6
:10245000109261031092620310926303109264035E
:1024600010925D0310925E0310925F03109260035E
:1024700080919F039091A003A091A103B091A2032A
:102480008093020190930301A0930401B09305018E
:102490008091A7039091A803A091A903B091AA03EA
:1024A0008093590390935A03A0935B03B0935C030A
:1024B000109255031092560310925703109258032E
:1024C000109251031092520310925303109254032E
:1024D0001092730310927403109275031092760396
:1024E00010927703109278031092790310927A0376
:1024F0002FB7F8948091E4059091E505A091E60549
:10250000B091E7052FBF80937F0390938003A09342
:102510008103B09382030895AF92BF92CF92DF926E
:10252000EF92FF920F931F93CF93DF931F92CDB73C
:10253000DEB7A0904D02B0904E02750189E0E80E22
:10254000F11CC7010E94C21F882369F189E2C82ECD
:1025500081E0D82E85010F5F1F4F80911D01909162
:102560001E0180179107DCF465E871E08CE994E0C6
:102570000E94E32680E0F60161916F01861751F019
:10258000C80169830E94C21F6981882319F0C501AF
:102590000E94B93658010E151F05E1F604C0C501A9
:1025A0000E94B136E8CF0F90DF91CF911F910F912C
:1025B000FF90EF90DF90CF90BF90AF900895609123
:1025C0004D0270914E0249E050E089E291E00E9494
:1025D000A1366FEA71E089E291E00E946B3621E05A
:1025E000892B09F020E0822F08951F93CF93DF936A
:1025F000EC0110910D016AE070E080E090E00E9433
:10260000401B112309F44EC06AEE77E18CE994E097
:102610000E94612680918303909184030E94A71FEA
:1026200063EE77E18CE994E00E94612640917B03A0
:1026300050917C0360917D0370917E038CE994E05E
:102640000E94751F6CED77E18CE994E00E94612691
:1026500080918503909186030E94A71F65ED77E125
:102660008CE994E00E9461264091A7035091A80351
:102670006091A9037091AA0322E030E08CE994E014
:102680000E94F7266EEC77E18CE994E00E946126C7
:10269000CE010E94A71F8BEC97E1DF91CF911F9194
:1026A0000C94AF1FDF91CF911F9108954F925F92CD
:1026B0006F927F928F929F92AF92BF92CF92DF9252
:1026C000EF92FF92CF93C42FC0907F03D0908003EE
:1026D000E0908103F09082036C197D098E099F09B7
:1026E00028EE33E040E050E00E94C73669017A01ED
:1026F0008CE3482E512C612C712CCA01B901A30125
:1027000092010E94C73649015A01CA01B901A301C9
:1027100092010E94C73629013A01A4ECBFEFA5013E
:1027200094010E94F436C60ED71EE81EF91EA301BE
:1027300092010E94F436860E971EA81EB91E1092B2
:102740003605C1112EC087E080933705B301A20181
:102750008BEF94E00E94751F65E172E08BEF94E0CF
:102760000E94D927B501A4018BEF94E00E94751F48
:1027700065E172E08BEF94E00E94D927B701A601D2
:102780008BEF94E0CF91FF90EF90DF90CF90BF90D0
:10279000AF909F908F907F906F905F904F900C9430
:1027A000751F82E3D1CFCF92DF92EF92FF92CF934A
:1027B000C42F20E030E040E05FE30E94CC330E9471
:1027C00022356B017C0120E030E04AE754E40E94AE
:1027D000383487FF06C066ED71E08BEF94E00E940D
:1027E000D92720E030E048EC52E4C701B6010E944E
:1027F000383487FF06C066ED71E08BEF94E00E94ED
:10280000D92720E030E040E251E4C701B6010E9440
:10281000383487FF06C066ED71E08BEF94E00E94CC
:10282000D9272C2F30E0B701A6018BEF94E0CF9190
:10283000FF90EF90DF90CF900C94F7268F929F92AD
:10284000AF92BF92CF92DF92EF92FF92CF93DF933E
:102850006B017C015A01C22F82E38093360580E12F
:10286000809337058EE29AE00E94281FC23010F54F
:1028700020E030E04AE754E4C701B6010E94383452
:1028800087FF06C066ED71E08BEF94E00E94D927C8
:10289000C11110C020E030E44CE156E4C701B6019C
:1028A0000E94383487FF06C066ED71E08BEF94E03C
:1028B0000E94D92720E030E048EC52E4C701B6017D
:1028C0000E94383487FF06C066ED71E08BEF94E01C
:1028D0000E94D92720E030E040E251E4C701B60170
:1028E0000E94383487FF06C066ED71E08BEF94E0FC
:1028F0000E94D9272C2F30E0B701A6018BEF94E07E
:102900000E94F726B5018BEF94E00E94D92781EA57
:1029100092E00E94281F0E94E42088EDA81681E022
:10292000B80609F09BC01092360587E08093370502
:1029300065EC77E18BEF94E00E94612610923605FA
:1029400080E1809337056091550370915603809123
:1029500057039091580320915103309152034091B5
:102960005303509154030E94F43520E030E04AE7CD
:1029700054E40E943D34AB01BC0122E030E08BEF17
:1029800094E00E94F72668ED71E08BEF94E00E94DE
:10299000D9272AE939E941E251E4C701B6010E9489
:1029A000EF351816BCF02DEC3CEC4CE85FE3C701AA
:1029B000B6010E94EF351816D4F0EDEC8E2EECEC3B
:1029C0009E2EECE8AE2EEFE3BE2E2CEB34E743E177
:1029D0005CE318C07DEC872E7CEC972E78ECA72E5C
:1029E00071E4B72E22EF32ED4DE45EE30BC063E3FA
:1029F000862E982C63EAA62E60E4B62E2EE93FEED2
:102A000047E25DE3C701B6010E943D346B017C01E2
:102A1000C2E0D0E0BE010D2E000C880B990B0E9485
:102A2000E734A70196010E94383418162CF040E1D3
:102A30006AE18C2F0E9453202196CF37D10551F7A0
:102A400048E06CE280E00E94532081E080933605EC
:102A5000C4E3C093370563EC77E17EC18AEDA81625
:102A600081E0B80609F0DFC01092360587E0809358
:102A700037056DEB77E18BEF94E00E9461261092B1
:102A8000360580E1809337054091610350916203E0
:102A9000609163037091640322E030E08BEF94E077
:102AA0000E94F7266AED71E08BEF94E00E94D9272F
:102AB000E0915003F0E0EE0FFF1FE05CFE4F6081FD
:102AC000718180E090E00E94E53420E030E04EEF3C
:102AD00052E40E943D344B015C019B01AC01C701F3
:102AE000B6010E943D346B017C01C2E0D0E0BE0122
:102AF0000D2E000C880B990B0E94E734A70196015C
:102B00000E94383418162CF040E16AE18C2F0E94A4
:102B100053202196CE37D10551F760916103709112
:102B200062038091630390916403A50194010E9464
:102B30003D340E94B634862F40E16AE10E94532062
:102B400048E06CE280E00E94532081E080933605EB
:102B5000C4E3C09337056BEB77E18BEF94E00E9401
:102B6000612648E06CE280E40E94532080E280937A
:102B70003605C0933705E0915003F0E0EE0FFF1FDC
:102B8000E05CFE4F6081718180E090E00E94E5345E
:102B900020E030E0A9010E94CC3320E030E04AE799
:102BA00054E40E943D3420E030E040E05FE30E94C6
:102BB000F435AB01BC0122E030E08BEF94E00E94E1
:102BC000F72669EB77E18BEF94E00E94612681E6BE
:102BD00080933605C0933705E0915003F0E0EE0F87
:102BE000FF1FE05CFE4F6081718180E090E00E94F9
:102BF000E53420E030E0A9010E94CC3320E030E051
:102C00004AE754E40E943D34AB01BC0122E030E0CD
:102C10008BEF94E00E94F72667EB77E18BEF94E06F
:102C20000E946126C4C08DEDA81681E0B80609F0A7
:102C3000CDC01092360587E08093370562EB77E1CF
:102C40008BEF94E00E9461264091AF035091B00356
:102C50006091B1037091B20322E030E08BEF94E019
:102C60000E94F7261092360580E1809337056DEAC1
:102C700077E18BEF94E00E9461264091AB03509185
:102C8000AC036091AD037091AE0322E030E08BEFB6
:102C900094E00E94F7262AE939E941E451E4C701AA
:102CA000B6010E94EF351816B4F023E333E343EA8C
:102CB00050E4C701B6010E94EF351816BCF023E3BB
:102CC000822E982C23EAA22E20E4B22E2EE93FEE8B
:102CD00047E25DE316C0812C912C90EDA92E91E482
:102CE000B92E2DE33AE047E55EE30BC08AE9882E72
:102CF00089E9982E81E4A82EBA2C29E334EB48EC1C
:102D00005DE3C701B6010E943D346B017C01C2E066
:102D1000D0E0BE010D2E000C880B990B0E94E73409
:102D2000A70196010E94383418162CF040E16AE1A0
:102D30008C2F0E9453202196CF37D10551F748E0C0
:102D40006CE280E00E94532081E080933605C4E36A
:102D5000C09337056BEA77E18BEF94E00E94612620
:102D600048E06CE280E40E94532080E280933605C4
:102D7000C093370520E030E040E05FE3C501B401D7
:102D80000E94F435AB01BC0122E030E08BEF94E00F
:102D90000E94F72681E680933605C093370522E02E
:102DA00030E0B501A4018BEF94E00E94F72648E0E3
:102DB0006CE28FE7DF91CF91FF90EF90DF90CF90A3
:102DC000BF90AF909F908F900C945320DF91CF9144
:102DD000FF90EF90DF90CF90BF90AF909F908F903B
:102DE00008951F93CF93DF9340E00E945613C0E0F5
:102DF000D0E016E3E0915003C038D10519F180917D
:102E00004F03DE01A80FB11DAF77BB27AA0FBB1F71
:102E1000A15BBD4F2D913C91A6E3B0E00E941B3712
:102E2000F0E0EE0FFF1FE05CFE4F2081318140E0BB
:102E300050E00E94C736612F621B8C2F0E947220C7
:102E40002196D8CF88E68093360587E080933705B2
:102E5000F0E0EE0FFF1FE05CFE4F6081718180E0CB
:102E600090E00E94E53420E030E0A9010E94CC33DC
:102E700020E030E04AE754E40E943D34AB01BC015D
:102E800022E030E08BEF94E0DF91CF911F910C9422
:102E9000F726FC018485958597FD0BC09FB7F894B4
:102EA00082E08093E9008091F2009FBF90E001965C
:102EB00008959FB7F89482E08093E9008091F20032
:102EC0009FBF90E008953FB7F89480912A049091B5
:102ED0002B04A0912C04B0912D0426B5A89B05C00D
:102EE0002F3F19F00196A11DB11D3FBFBA2FA92F89
:102EF000982F8827820F911DA11DB11DBC01CD0106
:102F000042E0660F771F881F991F4A95D1F70895F1
:102F10000895DC011696ED91FC91179712968C910D
:102F2000481B477081E090E001C0880F4A95EAF79E
:102F3000E60FF11D3081222311F0832B02C0809512
:102F4000832380830895FB014181DC0112962C913B
:102F50001297421768F013962C911397241740F09C
:102F6000608115962C91621718F424810C948917AE
:102F70000895FC0180819281980F9283218192179C
:102F800060F494819F5F94839381890F821710F07E
:102F90008FEF820F838381E0089580E00895FC0124
:102FA00012828081815083831482089580E0089585
:102FB0000B96FC01849108950A96FC018491089572
:102FC000FC01849108950E94E017882321F082304B
:102FD00011F083E0089586E00895FC01E60FF11DED
:102FE000849190E0982F88273196E4918E0F911D5F
:102FF000089568E00C94ED1766E00C94ED172EE947
:103000003FE0009729F0F9013197F1F70197F9CFE7
:1030100008958EBD0DB407FEFDCF8EB50895DB017A
:103020001496ED91FC91159720E030E065E009944D
:10303000DB011496ED91FC91159720E030E062E001
:103040000994CF92DF92EF92FF920F931F93CF9349
:10305000DF938C017B016A0180E0F601C49181114C
:103060000BC0CF3F09F44CC04C2FB701C8010E94E0
:103070000F18811143C049C0CF3F11F44FEFF5CF76
:10308000CE3F09F444C0C03FC8F5C03E38F04C2FD5
:103090004F70B701C8010E94181830C0C03D38F009
:1030A0004C2F4F70B701C8010E94B51027C0C03C1B
:1030B000F8F0D7011496ED91FC91159720E030E0DF
:1030C00040E064E0C8010995C295C07FCE5FD0E0C2
:1030D000CE010E94FF17D7011496ED91FC91159730
:1030E00020E030E041E064E0C8010995CE0104C071
:1030F000C7FD04C08C2F90E00E94FF1780E001C044
:1031000081E0BFEFCB1ADB0AA8CF80E001C081E0ED
:10311000DF91CF911F910F91FF90EF90DF90CF90B3
:1031200008958F929F92AF92BF92CF92DF92FF92BB
:103130000F931F93CF93DF9300D0CDB7DEB76C0111
:103140008B01F42E490120E1421709F467C02417CE
:1031500000F13AE0431729F18FE0481369C041E0DC
:10316000C6010E94B51040E0B801C6010E941818BF
:1031700041E8B801C6010E940F18F4014081B8016E
:10318000C6010E940F1840E0B801C6010E94B510A8
:1031900008C1A1E14A1709F444C0B5E14B1791F009
:1031A00047C0DB011496ED91FC91159720E030E0CB
:1031B00042E061E0099547E158E1B801C6010E948B
:1031C000211836C0FB01A280B3804FE058E10E9475
:1031D0002118D50114964C91406BB801C6010E948C
:1031E0000F1841E0B801C6010E941818F5012681A8
:1031F0003781D8011496ED91FC911597D50115965C
:103200004C9166E0C6010995811102C080E0CAC0F8
:1032100040E0B801C6010E94B5100AC046E058E17E
:1032200002C04BEF57E1B801C6010E942118B9C096
:10323000D80112960D911C911397B2E3FB1609F475
:1032400074C0BF15B8F0E5E1FE1609F47BC0F7E1E4
:10325000FF1609F48DC024E1F212A3C0D80116961E
:10326000ED91FC91179715968C919F01280F311DB8
:10327000C90160C036E4F31609F48AC087E4F81681
:1032800009F48AC0ABE3FA128CC0F4018181938106
:10329000913029F0933031F4482F885004C048E031
:1032A000480F01C0482F21E0D80113963C913817F0
:1032B00008F420E031E0F8015281451708F430E0CD
:1032C00051E0481708F050E0822F852B382319F47D
:1032D000252309F466C0D4011296FC90913051F078
:1032E00030F0923049F0933051F42FEF09C020E0D4
:1032F00031E007C021E004C020E03FEF02C020E041
:1033000030E0F7FE08C0B401C8012A8339830E9467
:10331000A31739812A81F4018081830F8083818101
:10332000820F8183FF0C69F73CC0B401C8010E9481
:10333000A31737C01192E817F907E1F7C8010E94F7
:10334000CF172FC0C8010E94B917882309F45ECF98
:10335000D8011696ED91FC91179715968C919F01C7
:10336000280F311DC9011192E817F907E1F719C0BB
:10337000D4011C92F801828111968C93119785815A
:10338000815012968C931297838113968C9309C067
:10339000D80115968C9103C0D80111968C91F40137
:1033A000808381E00F900F90DF91CF911F910F915B
:1033B000FF90DF90CF90BF90AF909F908F90089537
:1033C00090E0FC013197EF30F105B0F5EB58FF4F7D
:1033D0000C94B133809180008F7703C0809180007E
:1033E0008F7D80938000089580918000877FF9CF42
:1033F00084B58F7702C084B58F7D84BD0895809198
:1034000090008F7707C0809190008F7D03C08091DE
:103410009000877F8093900008958091C0008F77FF
:1034200003C08091C0008F7D8093C000089580917B
:10343000C200877F8093C20008951F93CF93DF93CC
:10344000282F30E0F901E85CF64E8491F901E75E3F
:10345000F64ED491F901E650F74EC491CC23C9F051
:10346000162F81110E94E019EC2FF0E0EE0FFF1FE4
:10347000E95AF74EA591B4918FB7F894111105C090
:103480009C91ED2FE095E92302C0EC91ED2BEC939C
:103490008FBFDF91CF911F910895860F911DFC0181
:1034A00083A18F3F19F0642F0C941D1A0895CF93B8
:1034B000DF9390E0FC01E75EF64E2491FC01E650BC
:1034C000F74E8491882361F190E0880F991FFC01E9
:1034D000E75BF74EC591D491FC01E95AF74EA591EF
:1034E000B491611109C09FB7F89488812095822317
:1034F0008883EC912E230BC0623061F49FB7F8945F
:103500003881822F809583238883EC912E2B2C93F6
:103510009FBF06C08FB7F894E8812E2B28838FBFFA
:10352000DF91CF910895EF92FF920F931F93CF9366
:103530008C01C42F7901862F90E0FC013197E73090
:10354000F10508F06BC0EC57FF4F0C94B1337801D4
:1035500083E2E80EF11C005D1F4FF70180818F3F71
:1035600041F061E00E94571A61E0F70180810E94FA
:103570001D1AFFEFEF1AFF0AE016F10671F761E07E
:103580008FE00E94571A60E08FE00E941D1A61E0F0
:1035900080E10E94571A60E080E10E941D1A61E0FC
:1035A00081E10E94571A61E081E10E941D1A1CBC52
:1035B00080E58CBDC23090F581E08DBD2FC061E00B
:1035C00004C0411106C041E062E0C8010E944D1AEA
:1035D00025C040E064E0C8010E944D1A40E0F4CFED
:1035E000F80183A18F3FD1F060E0EFCF842F0E94DC
:1035F000091814C0CC2391F0F70181917F010E943A
:103600000918C150F7CFCC2349F0F70184910E94EB
:103610000918FFEFEF1AFF0AC150F5CF81E0CF91F3
:103620001F910F91FF90EF900895823108F0825121
:10363000E82FF0E0E35CF74EE49180917B00E3FB40
:10364000222720F930E095E0220F331F9A95E1F709
:103650008F7D282B20937B00E770E064E0937C0053
:1036600080917A00806480937A0080917A0086FD50
:10367000FCCF809178002091790090E0922B089502
:103680008F929F92AF92BF92CF92DF92EF92FF9272
:103690006B017C010E9463174B015C01C114D104D2
:1036A000E104F104F1F00E946317DC01CB018819F9
:1036B0009909AA09BB09883E9340A105B10570F399
:1036C00021E0C21AD108E108F10888EE880E83E0F3
:1036D000981EA11CB11CC114D104E104F10419F716
:1036E000DDCFFF90EF90DF90CF90BF90AF909F9095
:1036F0008F9008951F920F920FB60F9211242F935F
:103700003F938F939F93AF93BF938091E4059091E4
:10371000E505A091E605B091E7053091290423E085
:10372000230F2D3720F40196A11DB11D05C026E8F9
:10373000230F0296A11DB11D209329048093E40557
:103740009093E505A093E605B093E70580912A04E0
:1037500090912B04A0912C04B0912D040196A11DF1
:10376000B11D80932A0490932B04A0932C04B09352
:103770002D04BF91AF919F918F913F912F910F9009
:103780000FBE0F901F9018951F920F920FB60F92B9
:1037900011242F933F934F935F936F937F938F9356
:1037A0009F93AF93BF93EF93FF93E0914B02F09100
:1037B0004C020995FF91EF91BF91AF919F918F912D
:1037C0007F916F915F914F913F912F910F900FBE1D
:1037D0000F901F901895DB01ED91FC910994EF92E9
:1037E000FF920F931F93CF93DF931F92CDB7DEB756
:1037F0008C01DC011296ED90FC901397D196ED911F
:10380000FC91D29782E0099520E030E04AE0B701D0
:10381000C8010E94EB1BF82ED801D196ED91FC91C6
:10382000D29783E00995D801D196ED91FC91D2977A
:1038300080E00995FF20A1F1F801628173819E016A
:103840002F5F3F4F46E4C8010E94EB1B8981D801DE
:103850008C9312966D917C9113979E012F5F3F4F31
:1038600047E4C8010E94EB1B8981F80181836281D2
:10387000738120E030E048E4C8010E94EB1BD801CE
:103880001B968C931B9798012D5C3F4F12966D9160
:103890007C91139747E1C8010E94EB1B81E001C0B6
:1038A00080E00F90DF91CF911F910F91FF90EF90EB
:1038B00008952F923F925F926F927F928F929F9284
:1038C000AF92BF92CF92DF92EF92FF920F931F932E
:1038D000CF93DF931F92CDB7DEB71C01C62E142FF6
:1038E000D22EDC011496ED90FC901597C7010E9432
:1038F000E017082FF101848195810E94E317982E2B
:10390000013019F48FE0A82E02C0AA24AA94D10194
:1039100014968D919C9115970E94DC17082FF10148
:10392000848195810E94D817B82ED10114968D916B
:103930009C9115970E94F917B0E6BD1530F40097D9
:1039400021F0E80EF91E01E611C0F1018481958194
:103950000E94FC17F0E4FD1530F4009721F0E80E0A
:10396000F91E01E403C021E1E20EF11CBD1480F454
:10397000D10150961C92509753961C92539754968F
:103980001C92549751961C92519752961C92C7C004
:10399000B01670F3892D90E0F70124912F3F21F4A8
:1039A000FFEFEF1AFF0A5AC00D114FC0D101149654
:1039B0008D919C9115970E94E01797012F5F3F4FC3
:1039C000F701882311F08230E1F48491D1015396FC
:1039D0008C935397F901249154962C935497F701A3
:1039E0003396E4915096EC935097F7013496E49116
:1039F0005196EC935197F7013596E4915296EC93DA
:103A000020C08491982F9F709250D10152969C9320
:103A1000529782958F7051968C935197F90124910A
:103A2000822F8F7054968C93549722952F705396B3
:103A30002C935397F7013296E491E295EF705096EC
:103A4000EC93E114F10479F46AC0F7013296E49141
:103A5000EA219C012E0F311DE20EF31E0B1509F415
:103A600087CF0F5F99CFF101848195810E94E31781
:103A7000B82ED10153969C9053975496DC9054974E
:103A800051968C915197C80E52969C919D0D512E36
:103A9000591A0D2D292D452D6C2DC1010E94BE10E6
:103AA0008823D1F1C7018B0D911D5C0187E0890D41
:103AB000F82EF694F694F694D50C41019CE1890E0B
:103AC000911C6F2C712C5D1439F15C2D8501802FB8
:103AD0008A198F15E8F4F8018491D10112966D913D
:103AE0007C9113975C965C935C975D965C925D9776
:103AF0005F961C925F975E968C9394014BE3C10195
:103B000059830E94EB1B0F5F1F4F5981585FDFCF16
:103B1000A60CB71C5394D7CFF101808901C080E077
:103B20000F90DF91CF911F910F91FF90EF90DF9059
:103B3000CF90BF90AF909F908F907F906F905F904D
:103B40003F902F90089520919B049091DD052132A4
:103B500008F04AC0809178048111FCCF32E03093A4
:103B6000780431E0309377043FEF3093760410927D
:103B7000750420937404ABE7B4E044E554E0FA0123
:103B80003E2F341B321718F43D913193F9CF109228
:103B9000530420915304990F922B909353049091C6
:103BA0005204913061F41092520490915304909316
:103BB000BB009091BC0093FDF8CF95EC01C095EE51
:103BC0009093BC00909178049230E1F39091760448
:103BD0009F3F79F080917604803241F080917604A5
:103BE000803331F084E005C081E003C082E001C091
:103BF00083E010927A0410929B0410927904089545
:103C0000DF92EF92FF920F931F93CF93DF93082FD2
:103C1000D62FC42F142FF62EF40EEE24E394DD24B9
:103C2000DA948F2D811B1830A8F0609101057091F6
:103C3000020500931B0580931C05E0921E05D0929F
:103C40001D052BE135E04BE38FEF94E00E94EB1B69
:103C50001850E7CF8C2F887FD80F4C2F477029F151
:103C600097E04927609101057091020500931B05BB
:103C7000D0931C0581E080931E054F5F47708FEF46
:103C800090E001C0880F4A95EAF780931D052BE16B
:103C900035E04BE38FEF94E0DF91CF911F910F91CF
:103CA000FF90EF90DF900C94EB1BDF91CF911F9171
:103CB0000F91FF90EF90DF900895EF92FF920F9396
:103CC0001F93CF93DF93D82F062FC42F142FF82ED6
:103CD000F40EEE24EA948F2D811B1830A8F0609129
:103CE00001057091020580931B0500931C0510923D
:103CF0001E05E0921D052BE135E04BE38FEF94E0CC
:103D00000E94EB1B1850E7CF8C2F887FD80F4C2FC9
:103D1000477019F197E049276091010570910205FC
:103D2000D0931B0500931C0510921E054F5F477032
:103D30008FEF90E001C0880F4A95EAF780931D0548
:103D40002BE135E04BE38FEF94E0DF91CF911F91B2
:103D50000F91FF90EF900C94EB1BDF91CF911F918F
:103D60000F91FF90EF9008951F93CF93DF93EB0196
:103D70009091390521E0209379049093DD0510920C
:103D80007A0410929B04682F8EEE94E00E94650DD9
:103D90000E94A31D20913905809178048111FCCFE8
:103DA00081E080937804809377049FEF909376046A
:103DB000109275048093740480935304909153047B
:103DC000822F880F892B8093530480915204813075
:103DD00061F410925204809153048093BB0080914F
:103DE000BC0083FDF8CF85EC01C085EE8093BC005C
:103DF000809178048130E1F380917504823018F469
:103E00008091750401C082E0A4E5B4E022E334E0CF
:103E1000F9019E2F921B981718F49D919193F9CF59
:103E200010923104809330048EEE94E00E94190DBC
:103E3000182F8EEE94E00E94190D20E030E0312F13
:103E4000820F931F99838883DF91CF911F910895EB
:103E500020910305309104052817390709F444C05F
:103E60009093040580930305009709F437C02091CF
:103E70001605FC01211107C03596E491E093170562
:103E8000FC013C960FC0213039F43F96E491E09359
:103E90001705FC01709606C03D96E491E093170566
:103EA000FC013E9684918093180580911705082E99
:103EB000000C990B20911805821B910927FD939501
:103EC00020911905203441F0829FC001112426E081
:103ED000969587952A95E1F780931A0586ED97E1E7
:103EE00090931505809314050895CF92DF92EF9279
:103EF000FF920F931F93CF93DF9377FF1DC06A014B
:103F00007B01EC016DE20E945A268C014427552763
:103F1000BA014C195D096E097F092AE0CE010E94A1
:103F20009A26800F911FDF91CF911F910F91FF90E3
:103F3000EF90DF90CF9008952AE0DF91CF911F910D
:103F40000F91FF90EF90DF90CF900C949A26AC01E8
:103F5000990F660B770B8CE994E00C94751FCF9347
:103F6000DF93BC018CE994E00E946126EC0167E1DB
:103F700072E08CE994E00E9485268C0F9D1FDF91F2
:103F8000CF9108952091DB053091DC052F5F3F4FE5
:103F90003093DC052093DB054091EC045091ED0457
:103FA0004115510519F0421753071CF46AE172E0FC
:103FB00009C020911D0130911E012817390744F4D2
:103FC00065E871E08CE994E00E94E32680E00895C2
:103FD00081E00895CF93DF9380913805811107C068
:103FE00081E0809338058FEF94E00E94EF1BC09131
:103FF0000105D0910205E0913005F091310582E094
:104000000995E0913005F091310581E0099520E0B6
:1040100030E044E1BE018FEF94E00E94EB1B22E30D
:1040200035E047E1BE018FEF94E00E94EB1BE09189
:104030003005F091310580E0DF91CF910994CF9266
:10404000DF92FF920F931F93CF93DF9300D0CDB7F2
:10405000DEB7F82E062FE0911405F09115058FEFCD
:1040600094E049835A830995080F4981C42E5A81E7
:10407000D52E10E0F60121916F01222349F0402F47
:104080006F2D8FEF94E00E94591CF80E180FF2CF9D
:10409000812F0F900F90DF91CF911F910F91FF9083
:1040A000DF90CF9008950F931F93CF93DF93C82F86
:1040B000D62F142F042F21E0462F682F8FEF94E086
:1040C0000E94BE10882349F0412F6D2F8C2FDF9165
:1040D000CF911F910F910C94001EDF91CF911F91F2
:1040E0000F910895962FEBEFF4E06681778180A31E
:1040F00091A32BE135E042E38FEF94E00C94EB1BAE
:10410000FF920F931F93CF93DF93C82FD62F142FB7
:10411000F22E00FF0CC0622F6D1B842F8C0F0E94AB
:1041200072206F2D6C1B8D2F810F0E94722001FF5A
:104130000CC06F2D6D1B812F8C1B0E9472206F2D68
:104140006C1B812F8D1B0E94722003FF0CC06F2DF2
:104150006D0F812F8C0F0E9472206F2D6C0F8D2F91
:10416000810F0E94722002FF11C06F2D6D0F812FF1
:104170008C1B0E9472206F2D6C0F812F8D1BDF9185
:10418000CF911F910F91FF900C947220DF91CF91EE
:104190001F910F91FF9008950F931F93CF93DF937B
:1041A000C82FD62F042F262F482F61E080E00E94D1
:1041B00080202D2F4C2F60E081E00E948020DF9135
:1041C000CF911F910F9108950F9304E120E848E1EA
:1041D00060E08FEF94E00E94BE10882349F142E036
:1041E00069E181E00E94CC2041E069E18EE70E9414
:1041F000CC2044E06AE281E00E94CC2048E06AE200
:104200008EE70E94CC204CE768E182E00E945D1EB0
:104210004CE76BE282E00E945D1E40E16AE180E0D3
:104220000E94001E40E16AE18FE70F910C94001E8E
:104230000F9108950F93CF93C82F01E020E8482FE6
:1042400060E08FEF94E00E94BE10882339F040E8D0
:104250006C2F80E0CF910F910C945D1ECF910F9148
:1042600008951F93CF93DF931F92CDB7DEB7162F1C
:104270009091390521E0209379049093DD05109207
:104280007A0410929B04682F8EEE94E079830E944A
:10429000650D7981672F8EEE94E00E94650D612F88
:1042A0008EEE94E00E94650D0F90DF91CF911F91EB
:1042B0000C94A31D0F931F93CF93E0910D05F091E4
:1042C0000E05309719F08FEF94E0099500910105E4
:1042D00010910205E0913005F091310582E00995D9
:1042E000E0913005F091310581E0099520E030E062
:1042F00045E1B8018FEF94E00E94EB1BC82F8823A3
:1043000041F022E335E047E1B8018FEF94E00E94ED
:10431000EB1BE0913005F091310580E009958C2F81
:10432000CF911F910F910895FC0180912F0481116D
:1043300003C08FEF9FEF08959FB7F89482E08093BA
:10434000E9002091F20030E01216130614F421E087
:1043500030E02115310559F0289884E680932E0429
:104360008091F10080838091F200882319F09FBF33
:10437000C90108958BE68093E800F9CF4091E105EB
:104380005091E2052091DF053091E0054217530777
:10439000B4F49091E8009570E1F39091E80092FDFB
:1043A00019C08093F1008091E1059091E20501969A
:1043B0008F739927892B19F48EEF8093E8008091F1
:1043C000E1059091E20501969093E2058093E10565
:1043D00081E0089580E00895CF92DF92EF92FF92FE
:1043E0000F931F93CF93DF931F92CDB7DEB7182F94
:1043F000062FE42E862F880F8E5F99830E94BE21A0
:1044000083E00E94BE21F12EC12E9981D92E8C2DE0
:104410008F19801798F4F601E7FE02C0849101C05D
:1044200080810E94BE21182F80E00E94BE2181233E
:10443000FFEFCF1ADF0A8111EACF01C081E00F90B0
:10444000DF91CF911F910F91FF90EF90DF90CF9070
:104450000895DF92EF92FF920F931F93CF93DF9314
:10446000D82E8A017B01E40EF51EEB01CE15DF0587
:1044700071F0D7FE03C0FE01849101C088810E94C3
:10448000BE2121968111F2CF8FEF9FEF01C0C801AD
:10449000DF91CF911F910F91FF90EF90DF900895E2
:1044A000615030F02091F100FC0120830196F8CF9B
:1044B000289884E680932E040895CF92DF92EF929D
:1044C000FF920F931F93CF93DF936C017A018B01BF
:1044D000C0E0D0E0CE15DF0589F0D8016D918D01E7
:1044E000D601ED91FC910190F081E02DC601099576
:1044F000892B11F47E0102C02196ECCFC701DF9118
:10450000CF911F910F91FF90EF90DF90CF90089582
:10451000CF93DF931F92CDB7DEB76983DC01ED91B6
:10452000FC910280F381E02D41E050E0BE016F5F1D
:104530007F4F09950F90DF91CF91089583E080938D
:10454000E9008091F200882319F08AE38093E80063
:1045500008950E9466360F931F93CF93DF931F92A7
:10456000CDB7DEB782E0898342E450E065E678E1CA
:1045700080E80E9429220E949028DC0112960D9169
:104580001C9113970115110569F0D801ED91FC916B
:104590000280F381E02DBE016F5F7F4FC801099556
:1045A00097FF07C089810F90DF91CF911F910F91E5
:1045B0000895F80100851185E5CF8F929F92AF9203
:1045C000BF92CF92DF92EF92FF920F931F93CF9300
:1045D000DF935C016B018A0180910D01882309F44E
:1045E0005EC080912F04882309F459C0809149024C
:1045F00080FF05C08091E00082608093E000E801C8
:104600008AEFF82E93E0E92E2FE3822E3AE3932EE1
:10461000209709F43DC08FB7F894E092E90090919B
:10462000E80095FF06C09091F200282D291B922FDB
:1046300001C090E08FBF91110AC0FA94FF2079F178
:1046400061E070E080E090E00E94401BE1CF292F04
:1046500030E0C217D3070CF49C2F8FB7F894E09288
:10466000E9002091E80025FF11C0292F30E0C21B8E
:10467000D30BF601915020F041914093F100FACF15
:10468000C20ED31E9091E80095FF13C08FBFC0CF1C
:104690005D9884E68093E3051016110644F081E0EE
:1046A00090E0F5019383828380E090E005C0C8012B
:1046B00003C09092E800EACFDF91CF911F910F9154
:1046C000FF90EF90DF90CF90BF90AF909F908F9032
:1046D0000895CF93DF931F92CDB7DEB7FC01848599
:1046E000958597FD05C02FEF3FEF358724870BC0D9
:1046F000CE0101960E949421019719F4898190E0DE
:1047000002C08FEF9FEF0F90DF91CF9108950F932D
:104710001F93CF93DF931F92CDB7DEB78C01FC01BF
:104720008485958597FF0EC0CE0101960E94942145
:10473000019719F4298130E002C02FEF3FEFF80113
:1047400035872487F801848595850F90DF91CF9177
:104750001F910F9108951F920F920FB60F9211247F
:104760008F939F938091E1009091E100937F9093CC
:10477000E10083FF0FC01092E90091E09093EB00FD
:104780001092EC0092E39093ED0010922F0498E0C9
:104790009093F00082FF20C093E09093E900909105
:1047A000F200992319F09AE39093E8009091E305C1
:1047B000992339F09091E30591509093E305992363
:1047C00089F190912E04992339F090912E04915003
:1047D00090932E04992341F184FF10C08091E20050
:1047E0008E7E81608093E2008091E1008F7E8093D5
:1047F000E100809149028E7E806111C080FF16C069
:104800008091E2008E7E80618093E2008091E100E1
:104810008E7E8093E100809149028E7E816080933C
:10482000490204C05D9ACDCF289AD6CF9F918F912F
:104830000F900FBE0F901F9018951F920F920FB6FA
:104840000F921124CF92DF92EF92FF920F931F935A
:104850002F933F934F935F936F937F938F939F9388
:10486000AF93BF93EF93FF93CF93DF93CDB7DEB7B3
:104870006C97DEBFCDBF1092E9008091E80083FF06
:10488000FAC168E0CE0145960E94502282EF8093E3
:10489000E8008D8987FF05C09091E80090FFFCCF6C
:1048A00003C09EEF9093E800982F907609F0C6C061
:1048B0009E892F89188D91110CC0803829F4809120
:1048C0004A028093F10002C01092F1001092F100B0
:1048D00047C1422F50E0512B913051F4811140C11A
:1048E0004130510509F03CC180914A028D7F0BC0D7
:1048F000933061F4811134C14130510509F030C168
:1049000080914A02826080934A022AC1953041F424
:104910008091E80080FFFCCF20682093E30020C155
:10492000963009F05FC0EB8CFC8C1092E90010927D
:10493000E2051092E105123091F51092E005109217
:10494000DF050E94AB2299E0BE016F5F7F4FDB0164
:10495000E92F1D92EA95E9F799831A8391E09E83E6
:1049600090EA98879AEF99872091E1053091E205C6
:10497000275F3F4F3C832B838D831092E900109279
:10498000E2051092E105F092E005E092DF0549E0D2
:1049900050E080E00E9429220E94AB22E1C0F09208
:1049A000E005E092DF050E949028DC011296ED9070
:1049B000FC901397E114F10409F4C0C0D701ED9104
:1049C000FC910480F581E02DBE016B5E7F4FC70135
:1049D0000995009719F00CF0C3C0C6C0F701E08438
:1049E000F184E8CF973009F4BFC0983021F481E01A
:1049F0008093F100B5C0993009F0B2C0837009F01E
:104A0000B3C0EFE7F1E081E021E036E39081992344
:104A100061F08093E9002093EB0091919093EC007A
:104A20003093ED008F5F873089F78EE78093EA003F
:104A30001092EA008F8980932F0492C08B8D9C8DF9
:104A40001092E9001092E2051092E1059093E005C2
:104A50008093DF05898D811156C08E899D89913A99
:104A600059F4813209F080C047E050E066E071E01F
:104A700080E00E94292274C0913209F075C083320F
:104A800089F4888D90E0982F88272F89822BA0E0C9
:104A9000B0E08093320190933301A0933401B0933E
:104AA00035015EC0803269F48091E80082FFFCCF5E
:104AB00067E086E091E00E9450228BEF8093E8004F
:104AC00006C0823209F04CC08F8980930D0180911D
:104AD0004802882319F0EEEFFAE002C0E0E0F8E0C7
:104AE0008091060190910701A0910801B091090100
:104AF000803B9440A105B10509F088C080910D016B
:104B000080FFA0C083C00E949028DC0112960D9106
:104B10001C9113970115110539F1D801ED91FC9104
:104B20000190F081E02DBE016B5E7F4FC8010995B9
:104B3000811116C0F80100851185ECCF1130C1F04C
:104B4000133091F48F89882309F455C08230E9F439
:104B500040E860E187EB98E10E94EC21882321F096
:104B60008EEF8093E80087C081E28093EB0083C0E2
:104B70008B8D9C8D089711F41093DE058091DE05D6
:104B8000811136C068EC78E138C0813029F440E802
:104B90006BE08BEA98E1E0CF833031F70E949028F8
:104BA000DC011296ED90FC9013978E010F5F1F4F62
:104BB0006801E114F10479F0D701ED91FC910680D0
:104BC000F781E02DB801C7010995080F111DF70104
:104BD000E084F184EECFD8011C92F6010190002010
:104BE000E9F73197BF016C197D0940E0C601B4CFE8
:104BF0006AED78E102C067EA78E16115710509F4B0
:104C0000B3CFFB01449150E080E833CF0FB6F89466
:104C1000A895809160008861809360001092600088
:104C20000FBEA895EE3F2AE0F20739F08091FE0A08
:104C30009091FF0A9183808393CF1092FF0A109284
:104C4000FE0A8ECFEE3F8AE0F80731F08081918135
:104C50009093FF0A8093FE0A87E797E7918380830A
:104C60009BE088E10FB6F894A895809360000FBE92
:104C70009093600075CF6C960FB6F894DEBF0FBEB0
:104C8000CDBFDF91CF91FF91EF91BF91AF919F91F8
:104C90008F917F916F915F914F913F912F911F91D4
:104CA0000F91FF90EF90DF90CF900F900FBE0F907D
:104CB0001F901895DC01ED91FC910190F081E02DA1
:104CC0000994EF92FF920F931F93CF93DF938C0180
:104CD0007B01C0E0D0E0F701EC0FFD1F649166237B
:104CE00061F0D801ED91FC910190F081E02DC801B7
:104CF0000995892B11F02196EECFCE01DF91CF914E
:104D00001F910F91FF90EF9008956115710579F053
:104D1000FB0101900020E9F73197AF01461B570BCB
:104D2000DC01ED91FC910280F381E02D099480E09B
:104D300090E008954F925F926F927F92EF92FF9270
:104D40000F931F93CF93DF93CDB7DEB7A1970FB625
:104D5000F894DEBF0FBECDBF7C01FA01CB0119A2D2
:104D6000223008F42AE08E010F5D1F4F422E512C95
:104D7000612C712CBF01A30192010E94F936F90147
:104D8000CA01015011096A3014F4605D01C0695C08
:104D9000D8016C93232B242B252B61F7B801C70175
:104DA0000E948526A1960FB6F894DEBF0FBECDBF38
:104DB000DF91CF911F910F91FF90EF907F906F90B7
:104DC0005F904F9008950F931F93CF93DF93EC0163
:104DD0000E9485268C0167E172E0CE010E94852643
:104DE000800F911FDF91CF911F910F9108954F92E6
:104DF0005F926F927F928F929F92AF92BF92CF926B
:104E0000DF92EF92FF92CF93DF93EC016A017B0177
:104E1000B22E9A01AB01C701B6010E946136882308
:104E200019F06CE372E027C026013701E89477F8A7
:104E30002FEF3FEF4FE75FE7C301B2010E946136FA
:104E400081110DC02FEF3FEF4FE75FE7C301B201C4
:104E50000E94383418161CF460E472E00CC02FEF86
:104E60003FEF4FE75FE4C701B6010E94EF35181628
:104E70009CF464E472E0CE01DF91CF91FF90EF905B
:104E8000DF90CF90BF90AF909F908F907F906F906A
:104E90005F904F900C9485262FEF3FEF4FE75FEC2C
:104EA000C701B6010E94383487FDE3CF20E030E02F
:104EB000A901C701B6010E94383487FF0AC06DE21C
:104EC000CE010E945A264C01F7FAF094F7F8F094BC
:104ED00002C0812C912CA12C60E070E080E09FE367
:104EE000AB1440F420E030E040E251E40E943D3455
:104EF000A394F6CF9B01AC01C701B6010E94CC334D
:104F00002B013C010E94B6346B017C010E94E53408
:104F10009B01AC01C301B2010E94CB332B013C01C8
:104F20002AE0B701A601CE010E949A267C01E80C76
:104F3000F91CBB2031F06EE2CE010E945A26E80E29
:104F4000F91EDB2CDD2029F120E030E040E251E4C5
:104F5000C301B2010E94F4352B013C010E94B6341A
:104F60004B01A12CB12C2AE0B501A401CE010E9475
:104F70009A26E80EF91EC501B4010E94E5349B0192
:104F8000AC01C301B2010E94CB332B013C01DA9486
:104F9000D9CFC701DF91CF91FF90EF90DF90CF90F5
:104FA000BF90AF909F908F907F906F905F904F9049
:104FB00008950C948526CF92DF92EF92FF92CF93C3
:104FC000DF938FB7F894C090E405D090E505E090AA
:104FD000E605F090E7058FBF2091510530E0F9011B
:104FE000E85CF64E8491F901E75EF64ED491F90142
:104FF000E650F74EC491CC2379F081110E94E0195C
:10500000EC2FF0E0EE0FFF1FE451F74EA591B491A5
:10501000EC91ED2381E009F480E0817080935305E9
:1050200090915205911104C091E089278093530516
:105030002091530580915405281741F0C0925705DF
:10504000D0925805E0925905F0925A058091570583
:1050500090915805A0915905B0915A05B701A60144
:10506000481B590B6A0B7B0BDB01CA0140914505BC
:1050700050914605609147057091480548175907BA
:105080006A077B0794F430914405231771F020934D
:105090004405222351F040915505509156054F5F2C
:1050A0005F4F50935605409355053091440531119B
:1050B00012C04091490550914A0560914B0570918D
:1050C0004C05481759076A077B070CF58091550571
:1050D0009091560514C040914D0550914E05609138
:1050E0004F0570915005481759076A077B077CF4F4
:1050F00080915505909156059195819591099093D0
:105100004305809342051092560510925505209351
:105110005405DF91CF91FF90EF90DF90CF900895ED
:105120008091EC0581110DC082E08093E80584E058
:105130008093E9051092EB051092EA0581E08093D7
:10514000EC0588EE95E00895CF93DF9300D0CDB7BE
:10515000DEB7789484B5826084BD84B5816084BDF7
:1051600085B5826085BD85B5816085BD80916E0005
:10517000816080936E001092810080918100826036
:105180008093810080918100816080938100809173
:105190008000816080938000809191008260809384
:1051A00091008091910081608093910080919000A6
:1051B0008160809390008091C10084608093C100E1
:1051C0008091C10082608093C1008091C1008160A4
:1051D0008093C1008091C30081608093C30080915F
:1051E000C00082608093C0008091C2008160809383
:1051F000C20080917A00846080937A0080917A0066
:10520000826080937A0080917A00816080937A0036
:1052100080917A00806880937A0010922F04109217
:105220004A02109249028091D70081608093D70092
:1052300080EA8093D80089B5806189BD89B5826094
:1052400089BD09B400FEFDCF61E070E080E090E030
:105250000E94401B8091D8008F7C80618093D80091
:105260008091E000807F8093E0008091E1008E7E5D
:105270008093E1008DE08093E200559A209AEEEF52
:10528000FFE7859194918B3F9C4D19F481E08093C9
:10529000480261E08DE00E94571A61E08DE00E94B3
:1052A0001D1A8FEF9FEF9093A9048093A80484E1C7
:1052B00090E0A0E0B0E08093450590934605A09370
:1052C0004705B09348058AEF90E0A0E0B0E08093F6
:1052D000490590934A05A0934B05B0934C0580ED8A
:1052E00097E0A0E0B0E080934D0590934E05A09329
:1052F0004F05B09350052091B5033091B6038091CE
:10530000B3039091B4032817390731F480E290E099
:105310009093B4038093B3038091B3039091B4034B
:105320009093B6038093B5038130944014F00C94AD
:105330001C3280E094E090931E0180931D0184E173
:1053400090E09093ED048093EC040091B5031091EC
:10535000B603C80109969093B6038093B5032091D4
:105360001D0130911E01281739074CF465E871E0E2
:105370008CE994E00E94E3261195019511091093A0
:105380004E0200934D021E9938C00E94DF12809396
:1053900000018823A9F080912D018093FA04809167
:1053A0002E0190912F0190932801809327018091E5
:1053B000300190913101909326018093250120C006
:1053C0008091FA0480932D0180912701909128010A
:1053D00090932F0180932E018091250190912601B9
:1053E00090933101809330016FEA71E089E291E09E
:1053F0000E9474360E948C1203C081E08093BA032D
:1054000081EA92E00E94281F81E080931F050E949C
:10541000EA1F03E1E8E7FE2E43EB51E06AE082E099
:105420000E941F2042EC51E064E185E00E941F20B1
:1054300043ED51E06CE382E00E941F2000933605AB
:105440001CE31093370522E030E04DEC5CEC6CE09F
:1054500070E48BEF94E00E94F7268091BA038823D2
:1054600051F0F09236051093370566E171E08BEF4D
:1054700094E00E9461260E945A218111CDCF64EAF6
:1054800076E080E090E00E94401BEFE4F2E080E0F4
:10549000119211928F5F8038D9F7109231041092D7
:1054A000300410927A0410929B041092780411E058
:1054B000109377041092520461E082E00E941D1A5A
:1054C00061E083E00E941D1A8091B9008E7F809375
:1054D000B9008091B9008D7F8093B90088E48093F2
:1054E000B80085E48093BC008AE090E0A0E0B0E0E2
:1054F00080933A0590933B05A0933C05B0933D05FE
:1055000082E090E0A0E0B0E080933E0590933F05FC
:10551000A0934005B093410560E070E185E00E94F2
:1055200031216FE17CE380E00E94312182E08093B1
:10553000B80060E08DE00E941D1A80E18093810038
:10554000109280001093B90380E49CE99093B80313
:105550008093B703909387008093860081E18093C6
:10556000810084E99DE090934C0280934B0210935C
:105570006F00AE014F5F5F4F1A010E94DB278FB7AC
:10558000F894C090E405D090E505E090E605F09031
:10559000E7058FBF8091D6039091D703A091D803E0
:1055A000B091D903A7019601281B390B4A0B5B0B5D
:1055B000253631054105510508F443C38EE5809336
:1055C0007C0062E070E080E090E00E94401B8091EF
:1055D0007A00806480937A0080917A0086FDFCCF07
:1055E000209178008091790030E0382B032E000C58
:1055F000440B550B64EB7BE281E190E00E94C736DF
:10560000CA01B9010E94E73420E030E04AE754E4DF
:105610000E943D342B013C0183E10E94151BBC011B
:10562000990F880B990B0E94E734A30192010E9405
:10563000F43520E030EC4FE754E40E943D346093B1
:10564000AF037093B0038093B1039093B20382E1F0
:105650000E94151BBC01990F880B990B0E94E7341F
:10566000A30192010E94F43520E030EC4FE754E4AE
:105670000E943D346093AB037093AC038093AD0301
:105680009093AE034090A7035090A8036090A903A5
:105690007090AA0310915003A12EB12CF501EE0FCA
:1056A000FF1FE05CFE4F6081718180E090E00E940E
:1056B000E5349B01AC01C301B2010E94EF3518161D
:1056C000CCF4E12FF0E0EE0FFF1FE05CFE4F6081B5
:1056D000718180E090E00E94E5349B01AC01C30140
:1056E000B2010E94EF3518160CF053C01F5F163040
:1056F00041F74FC0112309F45FC0F501EE0FFF1F02
:10570000E25CFE4F6081718180E090E00E94E534B0
:105710009B01AC01C301B2010E94383487FF3BC03A
:10572000009101010150009301012091BB033091D0
:10573000BC034091BD035091BE03C301B2010E945E
:10574000EF35181644F44092BB035092BC036092AC
:10575000BD037092BE0301112FC08090BB039090D7
:10576000BC03A090BD03B090BE03E12FF0E0EE0FAC
:10577000FF1FE25CFE4F6081718180E090E00E943B
:10578000E5349B01AC01C501B4010E94383487FDAA
:105790000EC01093500380E8809301011092BB0368
:1057A0001092BC031092BD031092BE0305C01150AD
:1057B000E1F610925003EFCFA0904F03B12C85017A
:1057C000000F111F015B1D4FC301B2010E94B634CF
:1057D000D8016D937C93BFEFAB1ABB0AE894A7F88E
:1057E000BB24A0924F038091FA048630B9F48091D3
:1057F000D503482F50E02091A5033091A60324172C
:10580000350720F08F5F8093D50308C08091A403F3
:105810008093FA041092D5031092A3030E94EA1F0A
:105820000CE187E0B82E11E190E2A92E29E2922E38
:1058300080911401882309F4F8C1E091FA048E2FB5
:1058400090E08730910508F06CC1FC01EA5AFF4FE7
:105850000C94B13341E0C701B6010E945613009386
:105860003605B092370563E371E08BEF94E00E9458
:10587000612687E00E941A211092360510933705A1
:105880006091730370917403809175039091760316
:1058900042E00E94D3136EE271E08BEF94E00E942D
:1058A0006126E0E4E09336051093370560917703B5
:1058B000709178038091790390917A0342E00E947D
:1058C000D3136AE271E08BEF94E00E94612610929C
:1058D0003605A092370563E271E08BEF94E00E94F9
:1058E0006126609155037091560380915703909102
:1058F000580320915103309152034091530350912A
:1059000054030E94F43520E030E04AE754E40E945A
:105910003D34AB01BC0122E030E08BEF94E00E940B
:10592000F72668ED71E08BEF94E00E94D927109282
:1059300036059092370560E271E08BEF94E00E94AB
:105940006126409155035091560360915703709121
:10595000580322E030E08BEF94E00E94F7266BE1E1
:1059600071E08BEF94E00E946126409151035091C9
:105970005203609153037091540322E030E08BEFA7
:1059800094E00E94F72668E171E06FC041E0C70132
:10599000B6010E94561300933605B09237056CE5A8
:1059A00071E08BEF94E00E94612687E00E941A214B
:1059B000109236051093370566E571E08BEF94E0A1
:1059C0000E9461266091610370916203809163037C
:1059D0009091640340E00E94D31361E571E08BEF86
:1059E00094E00E94612640915D0350915E036091B6
:1059F0005F037091600322E030E08BEF94E00E943F
:105A0000F7266DE471E08BEF94E00E94612610921E
:105A10003605A092370568E471E08BEF94E00E94B0
:105A2000612640910201509103016091040170913F
:105A3000050122E030E08BEF94E00E94F72664E459
:105A400071E08BEF94E00E946126409159035091E0
:105A50005A0360915B0370915C0322E030E08BEFAE
:105A600094E00E94F72660E471E08BEF94E00E94DE
:105A7000612685E30E941A2158C06091A7037091A6
:105A8000A8038091A9039091AA0320919F033091CC
:105A9000A0034091A1035091A2030E94F43520E09D
:105AA00030E04AE754E40E943D3422E048ED51E002
:105AB00017C06091A7037091A8038091A9039091EA
:105AC000AA0320E04AED51E00BC060919F03709162
:105AD000A0038091A1039091A20322E04DED51E03B
