:100000000C94BF0B0C94E70B0C94E70B0C94E70BD0
:100010000C94E70B0C94E70B0C94E70B0C94E70B98
:100020000C94E70B0C94E70B0C94C0220C94322335
:100030000C94E70B0C94E70B0C94E70B0C94E70B78
:100040000C94E70B0C94E70B0C94E70B0C94E70B68
:100050000C9429210C94E70B0C94E70B0C94B11F22
:100060000C94E70B0C94E70B0C94E70B0C94E70B48
:100070000C94E70B0C94E70B0C94E70B0C94E70B38
:100080000C94E70B0C94E70B0C94E70B0C94E70B28
:100090000C94FB1F0C94E70B0C94E70B0C94E70BF0
:1000A0000C94E70B0C94E70B0C94E70B1A0E520E12
:1000B000540E630E690E6D0E760E7D2C1D2BB32B28
:1000C0002A2C462C522C602C252FEC2FF82E063093
:1000D0000630063006300630063006300630063070
:1000E0000630122F06308A2EA82E06300630E72E54
:1000F000C92E06300630C42E2F1E321E211E251E8C
:100100002B1E531E531E531E361E3A1E3E1E441EE9
:10011000481E531E4E1EFFE0FFD1AFFF32FFD0FF3F
:10012000FEFFE0FFD1AEFFD0FFFEFFE0FFD11000E9
:10013000FFFEFFD0FFE0FFC1FFD1AED580A83FD3C7
:1001400000408D142000A1C8DA1281CFD9F1DB4024
:100150002EA4A6AFFFD0FFFE01060C00FE0701355E
:10016000026B20FFFE0AFE08FE0C0060221767806B
:10017000808080800080173363A0A0A00256665064
:10018000F85050F8500159692070A8A07028A87044
:1001900020025767C8C8102040989802576740A0AF
:1001A000A040A8906827136380808011396920409F
:1001B00040808080404020113969804040202020CC
:1001C00040408002576720A8702070A82003556522
:1001D0002020F820200133636060C0055161F812CF
:1001E0002262C0C0025767081010204040801247AA
:1001F000676090909090906012376740C040404098
:1002000040E0025767708808102040F8025767F8EE
:1002100008103008887002576710305090F810109E
:10022000025767F880F008088870025767304080EE
:10023000F0888870025767F80810102020200257B5
:100240006770888870888870025767708888780817
:100250001060122565C0C000C0C001366660600035
:100260006060C01335652040804020045363F8006F
:10027000F813356580402040800257677088102051
:100280002000200257677088B8A8B88070025767AE
:10029000708888F8888888025767F048487048480E
:1002A000F002576770888080808870025767F04836
:1002B00048484848F0025767F88080F08080F8028C
:1002C0005767F88080F08080800257677088808050
:1002D000988870025767888888F8888888123767F6
:1002E000E04040404040E002576738101010109046
:1002F000600257678890A0C0A090880257678080EE
:1003000080808080F802576788D8A888888888020B
:1003100057678888C8A8988888025767708888882F
:10032000888870025767F08888F08080800257675D
:1003300070888888A89068025767F08888F0A09035
:100340008802576770888070088870025767F820A5
:10035000202020202002576788888888888870029B
:10036000576788888888505020025767888888880F
:10037000A8A850025767888850205088880257677D
:1003800088885020202020025767F80810204080DD
:10039000F8113969E080808080808080E0025767B2
:1003A00080404020101008113969E02020202020D2
:1003B0002020E0075363205088005161F817336311
:1003C00080402002556570087888780257678080E1
:1003D000F0888888F00255657088808870025767B9
:1003E000080878888888780255657088F0807002DF
:1003F0005767304840E04040400057677088888821
:100400007808700257678080F0888888881237677C
:100410004000C0404040E01049691000301010100A
:1004200010906002576780808890E090881237674C
:10043000C04040404040E0025565D0A8A8A8A802AE
:100440005565B0C8888888025565708888887000AE
:100450005767F0888888F080800057677888888898
:10046000780808025565B0C880808002556578809C
:100470007008F00257672020F820202018025565E8
:100480008888889868025565888888502002556554
:100490008888A8A850025565885020508800576762
:1004A00088888850204080025565F8102040F81157
:1004B00039692040404080404040202119698080B7
:1004C0008080808080808011396980404040204059
:1004D00040408004536348A890FFFFFFFFFFFFFFE9
:1004E000FFFFFFFFFFFFFFFFFFFFFFFFFFFFFFFF1C
:1004F000FFFFFFFFFFFFFFFFFFFF0C0060221767FA
:10050000800080808080800157672070A8A0A8703C
:1005100020025767304840E04048B0025565A85077
:100520008850A80257678850F820F82020221767C3
:100530008080800080808012486870806090906029
:1005400010E0193161A0026767788494A4948478DC
:1005500016356560A06000E00255652850A050285F
:10056000035363F80808153161E00267677884B4C3
:10057000A4A48478095161F81744646090906002E3
:1005800057672020F8202000F817356540A020404C
:10059000E0173565C0204020C0173363204080003D
:1005A000576788888898E8808002586878E8E8E883
:1005B00068282828252262C0C010326220C0173562
:1005C0006540C04040E017356540A04000E002555E
:1005D00065A0502850A0025A6A40C0404050305098
:1005E000781010025A6A40C0404050280810203845
:1005F000025A6AC0204020D030507810100257674D
:1006000020002020408870025A6A402000708888AC
:10061000F8888888025A6A102000708888F88888CC
:1006200088025A6A205000708888F8888888025AA0
:100630006A68B000708888F8888888025969500014
:10064000708888F8888888025A6A205020708888C4
:10065000F888888802576778A0A0F0A0A0B8005951
:1006600069708880808088701060025A6A4020001B
:10067000F88080F08080F8025A6A102000F88080AC
:10068000F08080F8025A6A205000F88080F0808064
:10069000F80259695000F88080F08080F8123A6AB8
:1006A000804000E04040404040E0123A6A20400074
:1006B000E04040404040E0123A6A40A000E0404044
:1006C000404040E0123969A000E04040404040E036
:1006D000025767704848E8484870025A6A68B00094
:1006E0008888C8A8988888025A6A4020007088883C
:1006F00088888870025A6A102000708888888888E4
:1007000070025A6A20500070888888888870025A5F
:100710006A68B000708888888888700259695000BB
:1007200070888888888870035565885020508801B3
:100730005969087098A8A8A8C87080025A6A402011
:100740000088888888888870025A6A102000888803
:100750008888888870025A6A20500088888888882B
:100760008870025969500088888888888870025A81
:100770006A1020008888502020202012476780E0DF
:10078000909090E080025767708890A09088B002A7
:100790005868402000700878887802586810200057
:1007A0007008788878025868205000700878887837
:1007B00002586868B000700878887802576750005F
:1007C00070087888780258682050207008788878F7
:1007D000025565702870A07800576770888088700F
:1007E00010600258684020007088F08070025868DD
:1007F0001020007088F080700258682050007088C7
:10080000F0807002576750007088F080701238686E
:10081000804000C0404040E0123868204000C040A6
:100820004040E012386840A000C0404040E012372D
:1008300067A000C0404040E002596950205008784D
:100840008888887002586868B000B0C888888802B4
:10085000586840200070888888700258681020000E
:100860007088888870025868205000708888887066
:1008700002586868B0007088888870025767500016
:1008800070888888700355652000F800200255653F
:100890007898A8C8F0025868402000888888887036
:1008A0000258681020008888888870025868205094
:1008B0000088888888700257675000888888887008
:1008C000005A6A10200088888850204080005969AA
:1008D0008080F0888888F08080005969500088887E
:1008E0008850204080000A1400FC0D024A04992020
:1008F000FFFC10FC0DFC0000000A0010020D0D0AA8
:100900000400C0C0C0C0C0C0C0C0C0C000C0C006DD
:1009100004040A0209CCCCCC48090B160A01011BBD
:10092000001B001B007F80360036003600FF006C85
:10093000006C006C00080D0D0A0100187EDBD8D891
:10094000D87E1B1B1BDB7E18090C180A01007300E4
:10095000DB00DE0076000C000C00180018003700E9
:100960003D806D806700090D1A0A010038006C0097
:100970006C006C00780030007000D800CD80C7009B
:10098000C600EF0079800205050A0408C0C0C0C097
:1009900080050D0D0A030018306060C0C0C0C0C0E3
:1009A00060603018050D0D0A0200C0603030181864
:1009B000181818303060C00807070A010366663C43
:1009C000FF3C66660807070A0103181818FF181885
:1009D000180403030A03FF7070E00801010A01060E
:1009E000FF0303030A0400E0E0E0070C0C0A020026
:1009F00006060C0C181830306060C0C0080D0D0AD7
:100A00000100183C6666C3C3C3C3C366663C1808CE
:100A10000D0D0A0100183878D81818181818181869
:100A200018FF080D0D0A01003C66C3C30303061C32
:100A30003060C0C0FF080D0D0A01003C66C3C3034F
:100A4000061C0603C3C3663C080D0D0A010002061E
:100A50000E1E3666C6C6FF06060606080D0D0A01FE
:100A600000FFC0C0C0C0DCE6030303C3663C080D42
:100A70000D0A01003C66C2C0C0DCE6C3C3C3C36646
:100A80003C080D0D0A0100FF030306060C0C1818A4
:100A900030306060080D0D0A01003C66C3C3C366B8
:100AA0003C66C3C3C3663C080D0D0A01003C66C327
:100AB000C3C3C3673B030343663C0308080A04003F
:100AC000E0E000000000E0E00409090A03FF7070A4
:100AD000000000007070E0070D0D0A010002060C16
:100AE000183060C06030180C06020806060A0103C0
:100AF000FF00000000FF070D0D0A020080C06030FB
:100B0000180C060C183060C080080D0D0A01003C5E
:100B100066C3C3C3060C181818001818080D0D0A70
:100B200001003C66C3CFDFDBDBDBDECCC0633E080D
:100B30000D0D0A0100183C6666C3C3C3FFC3C3C3DF
:100B4000C3C3080D0D0A0100F8CCC6C6C6CCFCC64E
:100B5000C3C3C3C6FC080D0D0A01003C66C3C0C078
:100B6000C0C0C0C0C0C3663C080D0D0A0100FCC671
:100B7000C3C3C3C3C3C3C3C3C3C6FC080D0D0A01AB
:100B800000FFC0C0C0C0C0FCC0C0C0C0C0FF080DD6
:100B90000D0A0100FFC0C0C0C0C0FCC0C0C0C0C0C2
:100BA000C0080D0D0A01003C66C3C0C0C0CFC3C35E
:100BB000C3C3673D080D0D0A0100C3C3C3C3C3C34C
:100BC000FFC3C3C3C3C3C3080D0D0A0100FF181838
:100BD000181818181818181818FF090D1A0A010003
:100BE0001F8006000600060006000600060006003C
:100BF0000600C600C6006C003800080D0D0A010092
:100C0000C3C3C6C6CCCCF8CCCCC6C6C3C3080D0D76
:100C10000A0100C0C0C0C0C0C0C0C0C0C0C0C0FFCA
:100C2000080D0D0A0100C3C3E7E7FFDBDBDBDBC315
:100C3000C3C3C3080D0D0A0100C3E3E3F3F3DBDB19
:100C4000CFCFC7C7C3C3080D0D0A01003C66C3C39D
:100C5000C3C3C3C3C3C3C3663C080D0D0A0100FC74
:100C6000C6C3C3C3C3C6FCC0C0C0C0C0080E0E0A02
:100C700001FF3C66C3C3C3C3C3C3C3DBCF663E032C
:100C8000080D0D0A0100FCC6C3C3C3C3C6FCCCC615
:100C9000C6C3C3080D0D0A01003C66C3C0C0603C5A
:100CA000060303C3663C080D0D0A0100FF1818185F
:100CB000181818181818181818080D0D0A0100C36C
:100CC000C3C3C3C3C3C3C3C3C3C3663C080D0D0AB8
:100CD0000100C3C3C3C36666663C3C3C18181808D1
:100CE0000D0D0A0100C3C3C3C3C3DBDBDBDBE7E7D6
:100CF000C3C3080D0D0A0100C3C366663C3C183C23
:100D00003C6666C3C3080D0D0A0100C3C366663C9A
:100D10003C18181818181818080D0D0A0100FF03C0
:100D200003060C0C18303060C0C0FF060D0D0A021F
:100D300000FCC0C0C0C0C0C0C0C0C0C0C0FC070C68
:100D40000C0A0200C0C06060303018180C0C060697
:100D5000060D0D0A0200FC0C0C0C0C0C0C0C0C0CFF
:100D60000C0CFC0804040A0109183C66C3090102C2
:100D70000A01FFFF800403030A030AC06030080869
:100D8000080A01003E63037FC3C3C37D080D0D0A3B
:100D90000100C0C0C0C0C0DCE6C3C3C3C3E6DC08FA
:100DA00008080A01003E63C0C0C0C0633E080D0DC4
:100DB0000A010003030303033B67C3C3C3C3673BC9
:100DC0000808080A01003C66C3FFC0C0633E080D66
:100DD0000D0A01001E33333030FC303030303030FB
:100DE00030080C0C0A01FC7DC7C6C6C67CC07EC399
:100DF000C3C37E080D0D0A0100C0C0C0C0C0DCE640
:100E0000C3C3C3C3C3C3080B0B0A0100181800787F
:100E1000181818181818FF070F0F0A02FC0606000A
:100E20001E06060606060606C6C6C67C080D0D0A80
:100E30000100C0C0C0C0C0C6CCD8F0F8CCC6C30842
:100E40000D0D0A0100781818181818181818181815
:100E500018FF0808080A0100B6FFDBDBDBDBDBDB81
:100E60000808080A0100DCE6C3C3C3C3C3C30808FB
:100E7000080A01003C66C3C3C3C3663C080C0C0AE5
:100E800001FCDCE6C3C3C3C3E6DCC0C0C0C0080CC1
:100E90000C0A01FC3B67C3C3C3C3673B03030303E3
:100EA0000808080A0100DE7360606060606008087E
:100EB000080A01007EC3C07E0303C37E080B0B0A31
:100EC0000100303030FC3030303030331E0808083C
:100ED0000A0100C3C3C3C3C3C3673B0808080A01B0
:100EE00000C3C366663C3C18180808080A0100C322
:100EF000C3C3DBDBDBFF660808080A0100C3663CEE
:100F000018183C66C3080C0C0A01FCC3C3C3C3C356
:100F1000C3673B03C3663C0708080A0200FE060CD1
:100F2000183060C0FE080D0D0A01000F18181818BF
:100F300018F018181818180F020D0D0A0400C0C078
:100F4000C0C0C0C0C0C0C0C0C0C0C0080D0D0A0134
:100F500000F018181818180F1818181818F00803A7
:100F6000030A010A73DBCEFFFFFFFFFFFFFFFFFF56
:100F7000FFFFFFFFFFFFFFFFFFFFFFFFFFFFFFFF81
:100F8000FFFFFFFFFFFFFFFF0000000A0010020D40
:100F90000D0A0400C0C000C0C0C0C0C0C0C0C0C0F6
:100FA000C0070C0C0A010018183C66C2C0C0C2661B
:100FB0003C1818090C180A01001E003300330030D9
:100FC000003000FC00300030003000F800AD80E759
:100FD000000909120A00018080DD807F0063006340
:100FE0000063007F00DD808080080B0B0A01008118
:100FF000C3663C7E187E18181818020D0D0A0400EE
:10100000C0C0C0C0C0000000C0C0C0C0C0080D0D3E
:101010000A01003C66C66078CC66331E0663663CF7
:101020000602020A020BCCCC080B0B0A01003C663C
:10103000C3BDA5A1A5BDC3663C0809090A01043EBC
:1010400043037FC3C37D00FF090B160A0000048021
:101050000D801B0036006C00D8006C0036001B00B1
:101060000D8004800804040A0104FFFF0303060145
:10107000010A0206FC080B0B0A01003C66C3BDA571
:10108000BDA9ADC3663C0801010A010DFF060606B5
:101090000A02073078CCCC78300807070A0102181A
:1010A00018FF181800FF0507070A020670D8183045
:1010B00060C0F80507070A020670D8183018D87003
:1010C0000403030A030A3060C0070A0A0A01FDC6C6
:1010D000C6C6C6C6EEFAC0C0C0080D0D0A01007F24
:1010E000FFFBFBFB7B1B1B1B1B1B1B1B0303030AC5
:1010F0000405E0E0E00504040A02FC3018D870049E
:1011000007070A020660E060606060F00709090AEC
:101110000104386CC6C6C66C3800FE090B160A01FD
:10112000009000D8006C0036001B000D801B0036BC
:10113000006C00D8009000080C0C0A010140C0416E
:1011400042E40812264A9E0202080C0C0A010140E1
:10115000C04142E40816294182040F080C0C0A0120
:1011600001E0106112E40812264A9F0202080D0DE8
:101170000A01001818001818183060C3C3C3663C71
:10118000080F0F0A010060301800183C66C3C3C383
:10119000FFC3C3C3C3080F0F0A0100060C180018D1
:1011A0003C66C3C3C3FFC3C3C3C3080F0F0A010018
:1011B000183C6600183C66C3C3C3FFC3C3C3C3085F
:1011C0000F0F0A0100327E4C00183C66C3C3C3FFF8
:1011D000C3C3C3C3080F0F0A0100666600183C664C
:1011E00066C3C3C3FFC3C3C3C30810100A01003CD6
:1011F00066663C00183C66C3C3C3FFC3C3C3C308D1
:101200000D0D0A01001F3C6C6CCCCCFFCCCCCCCCBF
:10121000CCCF0811110A01FC3C66C3C0C0C0C0C0DD
:10122000C0C0C3663C180C6C38080F0F0A01006080
:10123000301800FFC0C0C0C0FCC0C0C0C0FF080F55
:101240000F0A01000C183000FFC0C0C0C0FCC0C0B5
:10125000C0C0FF080F0F0A0100183C6600FFC0C0A5
:10126000C0C0FCC0C0C0C0FF080F0F0A0100666606
:101270000000FFC0C0C0C0FCC0C0C0C0FF060F0F50
:101280000A020060301800FC30303030303030302E
:1012900030FC060F0F0A020018306000FC303030BE
:1012A000303030303030FC060F0F0A02003078CC7E
:1012B00000FC303030303030303030FC060F0F0A58
:1012C0000200CCCC00FC30303030303030303030A8
:1012D000FC090D1A0A00007E0063006180618061D4
:1012E000806180F980618061806180618063007EBF
:1012F00000080F0F0A0100327E4C00C3E3F3F3DB5A
:10130000DBCFCFC7C3C3080F0F0A010030180C0092
:101310003C66C3C3C3C3C3C3C3663C080F0F0A0103
:10132000000C1830003C66C3C3C3C3C3C3C3663CD0
:10133000080F0F0A0100183C66003C66C3C3C3C314
:10134000C3C3C3663C080F0F0A0100327E4C003C49
:1013500066C3C3C3C3C3C3C3663C080F0F0A0100FF
:101360006666003C66C3C3C3C3C3C3C3C3663C074E
:1013700008080A010082C66C38386CC682080F0F54
:101380000A01FF013E66C7C7CBCBCBD3D3D3E366FD
:101390007C80080F0F0A010030180C00C3C3C3C3C0
:1013A000C3C3C3C3C3663C080F0F0A01000C183047
:1013B00000C3C3C3C3C3C3C3C3C3663C080F0F0A80
:1013C0000100183C6600C3C3C3C3C3C3C3C3C36621
:1013D0003C080F0F0A0100666600C3C3C3C3C3C342
:1013E000C3C3C3C3663C080F0F0A01000C183000CA
:1013F000C3C366663C3C1818181818070D0D0A027E
:1014000000C0C0C0FCC6C6C6C6C6FCC0C0C0080D71
:101410000D0A01001C36636366EC6C6663636366E9
:101420006C080C0C0A010030180C007EC3037FC34B
:10143000C3C37D080C0C0A01000C1830007EC303E6
:101440007FC3C3C37D080C0C0A0100183C66007EF4
:10145000C3037FC3C3C37D080C0C0A0100327E4C5A
:10146000007EC3037FC3C3C37D080B0B0A01006664
:1014700066007EC3037FC3C3C37D080D0D0A010050
:101480003C66663C007EC3037FC3C3C37D08080877
:101490000A0100769B1B1E78D8D96E080C0C0A0135
:1014A000FC3E63C0C0C0C0633E180C6C38080C0C16
:1014B0000A0100603018003C66C3FFC0C0633E08EC
:1014C0000C0C0A0100060C18003C66C3FFC0C06388
:1014D0003E080C0C0A0100183C66003C66C3FFC0C5
:1014E000C0633E080B0B0A01006666003C66C3FF42
:1014F000C0C0633E080C0C0A010060301800781868
:101500001818181818FF080C0C0A01000C183000E5
:1015100078181818181818FF080C0C0A0100183C45
:10152000660078181818181818FF080B0B0A010025
:1015300066660078181818181818FF080D0D0A01AB
:101540000088D87070D88C3E67C3C3C3663C080C53
:101550000C0A0100327E4C00DCE6C3C3C3C3C3C324
:10156000080C0C0A0100603018003C66C3C3C3C3FA
:10157000663C080C0C0A0100060C18003C66C3C34C
:10158000C3C3663C080C0C0A0100183C66003C66AC
:10159000C3C3C3C3663C080C0C0A0100327E4C0076
:1015A0003C66C3C3C3C3663C080B0B0A01006666F6
:1015B000003C66C3C3C3C3663C080A0A0A0101189B
:1015C000180000FFFF00001818080A0A0A01FF01AE
:1015D0003E66CBCBD3D3667C80080C0C0A0100306E
:1015E000180C00C3C3C3C3C3C3673B080C0C0A0178
:1015F00000060C1800C3C3C3C3C3C3673B080C0C6D
:101600000A0100183C6600C3C3C3C3C3C3673B08D9
:101610000B0B0A0100666600C3C3C3C3C3C3673BA9
:101620000810100A01FC0C183000C3C3C3C3C3C3A5
:10163000673B03C3663C0711110A02FCC0C0C0C06F
:10164000C0C0F8CCC6C6C6CCF8C0C0C0C0080F0F1A
:101650000A01FC666600C3C3C3C3C3C3673B03C3BD
:10166000663C000000002300260029002C002F000B
:101670000404040404030405020202020403020237
:101680000202060606060606040402020204040418
:101690000802011040804010204080408008020471
:1016A00001804020100201108010204040200000E6
:1016B000000200090F0000030401000C00000000FC
:1016C0000000000000000000000000000007060508
:1016D000040100080A0B0C0D09000000002400277B
:1016E000002A002D00300000000000250028002BFB
:1016F000002E003100080B00020202010009040064
:10170000000102020000052400100105240101016E
:101710000424020605240600010705810310004089
:1017200009040100020A000000070502024000004F
:1017300007058302400000040309044172647569CF
:101740006E6F204C4C430041726475696E6F204C83
:10175000656F6E6172646F0012010002000000404C
:101760004123368000010102030112010002EF0251
:10177000014041233680000101020301033111249D
:101780001FBECFEFDAE0DEBFCDBF13E0A0E0B1E0D7
:10179000E8EBFBE602C005900D92A439B107D9F73A
:1017A00027E0A4E9B3E001C01D92A83CB207E1F72D
:1017B0001BE0CFEBDBE004C02197FE010E94683202
:1017C000CE3BD107C9F70E94AE260C94DA350C94B3
:1017D000000080E008950B96FC01849108950A961C
:1017E000FC0184910895FC01849108950E94F30BFB
:1017F000882321F0823011F083E0089586E0089577
:10180000FC01E60FF11D849190E0982F8827319616
:10181000E4918E0F911D089568E00C94000C66E031
:101820000C94000C2EE93FE0009729F0F901319764
:10183000F1F70197F9CF08958EBD0DB407FEFDCFE6
:101840008EB50895DB011496ED91FC91159720E07B
:1018500030E065E00994DB011496ED91FC91159759
:1018600020E030E062E00994DB011496ED91FC91F8
:10187000159720E030E063E00994CF92DF92EF9279
:10188000FF920F931F93CF93DF938C017B016A012B
:1018900080E0F601C49181110BC0CF3F09F44CC028
:1018A0004C2FB701C8010E94220C811143C049C0CE
:1018B000CF3F11F44FEFF5CFCE3F09F444C0C03F06
:1018C000C8F5C03E38F04C2F4F70B701C8010E94D8
:1018D0002B0C30C0C03D38F04C2F4F70B701C80101
:1018E0000E94340C27C0C03CF8F0D7011496ED914B
:1018F000FC91159720E030E040E064E0C8010995D4
:10190000C295C07FCE5FD0E0CE010E94120CD701FD
:101910001496ED91FC91159720E030E041E064E0F1
:10192000C8010995CE0104C0C7FD04C08C2F90E00A
:101930000E94120C80E001C081E0BFEFCB1ADB0AED
:10194000A8CF80E001C081E0DF91CF911F910F917E
:10195000FF90EF90DF90CF9008958F929F92AF927B
:10196000BF92CF92DF92FF920F931F93CF93DF939B
:1019700000D0CDB7DEB76C018B01F42E490120E118
:10198000421709F467C0241700F13AE0431729F120
:101990008FE0481369C041E0C6010E94340C40E06A
:1019A000B801C6010E942B0C41E8B801C6010E9493
:1019B000220CF4014081B801C6010E94220C40E0D3
:1019C000B801C6010E94340C08C1A1E14A1709F40C
:1019D00044C0B5E14B1791F047C0DB011496ED917F
:1019E000FC91159720E030E042E061E0099542E388
:1019F00051E0B801C6010E943D0C36C0FB01A28037
:101A0000B3804AE251E00E943D0CD50114964C91FE
:101A1000406BB801C6010E94220C41E0B801C6012A
:101A20000E942B0CF50126813781D8011496ED9187
:101A3000FC911597D50115964C9166E0C601099564
:101A4000811102C080E0CAC040E0B801C6010E9416
:101A5000340C0AC041E251E002C046E151E0B80155
:101A6000C6010E943D0CB9C0D80112960D911C917F
:101A70001397B2E3FB1609F474C0BF15B8F0E5E1A3
:101A8000FE1609F47BC0F7E1FF1609F48DC024E1CE
:101A9000F212A3C0D8011696ED91FC9117971596F6
:101AA0008C919F01280F311DC90160C036E4F316E7
:101AB00009F48AC087E4F81609F48AC0ABE3FA1285
:101AC0008CC0F40181819381913029F0933031F4FD
:101AD000482F885004C048E0480F01C0482F21E03B
:101AE000D80113963C91381708F420E031E0F80152
:101AF0005281451708F430E051E0481708F050E0F3
:101B0000822F852B382319F4252309F466C0D401CC
:101B10001296FC90913051F030F0923049F09330B1
:101B200051F42FEF09C020E031E007C021E004C0EC
:101B300020E03FEF02C020E030E0F7FE08C0B40133
:101B4000C8012A8339830E94502139812A81F401F6
:101B50008081830F80838181820F8183FF0C69F7ED
:101B60003CC0B401C8010E94502137C01192E8174F
:101B7000F907E1F7C8010E947C212FC0C8010E942B
:101B80006621882309F45ECFD8011696ED91FC9169
:101B9000179715968C919F01280F311DC90111923D
:101BA000E817F907E1F719C0D4011C92F801828106
:101BB00011968C9311978581815012968C93129770
:101BC000838113968C9309C0D80115968C9103C01C
:101BD000D80111968C91F401808381E00F900F90D1
:101BE000DF91CF911F910F91FF90DF90CF90BF9029
:101BF000AF909F908F900895860F911DFC0183A157
:101C00008F3F19F0642F0C94541E0895EF92FF92A9
:101C10000F931F93CF938C01C42F7901862F90E0EF
:101C2000FC013197E730F10508F06BC0EA5AFF4F2D
:101C30000C946832780183E2E80EF11C005D1F4FBE
:101C4000F70180818F3F41F061E00E94841E61E0D6
:101C5000F70180810E94541EFFEFEF1AFF0AE01681
:101C6000F10671F761E08FE00E94841E60E08FE072
:101C70000E94541E61E080E10E94841E60E080E1C9
:101C80000E94541E61E081E10E94841E61E081E1B6
:101C90000E94541E1CBC80E58CBDC23090F581E0D2
:101CA0008DBD2FC061E004C0411106C041E062E07B
:101CB000C8010E94FC0D25C040E064E0C8010E94FC
:101CC000FC0D40E0F4CFF80183A18F3FD1F060E03C
:101CD000EFCF842F0E941C0C14C0CC2391F0F7018D
:101CE00081917F010E941C0CC150F7CFCC2349F099
:101CF000F70184910E941C0CFFEFEF1AFF0AC150FC
:101D0000F5CF81E0CF911F910F91FF90EF90089553
:101D10004F925F926F927F928F929F92AF92BF92FB
:101D2000CF92DF92EF92FF920F931F93CF93DF93A7
:101D300000D0CDB7DEB77894BE016F5F7F4F81E0F2
:101D40000E947D1889819A818A38924010F01A8207
:101D5000198289819A819093320480933104BE0163
:101D60006F5F7F4F82E00E947D1889819A8123E016
:101D7000969587952A95E1F7880F991F880F991FE7
:101D80009093950380939403BE016F5F7F4F84E02F
:101D90000E947D1869817A81072E000C880B990BAF
:101DA0000E9414346B017C016091C6067091C706D5
:101DB0008091C8069091C9060E9412349B01AC0123
:101DC000C701B6010E946A3320E030E040E05FE3E3
:101DD0000E94F9320E94DC3370934C0460934B04F0
:101DE0006091940370919503009131041091320435
:101DF00080E090E00E9412346B017C01B80180E029
:101E000090E00E94123420E030E04AE754E40E945F
:101E10006A339B01AC01C701B6010E94F93220E090
:101E200030E040E05FE30E94F9320E94E3337093B8
:101E3000540460935304A0919403B09195032091AE
:101E40004B0430914C0440906D0450906E046090AF
:101E50006F0470907004F0917104E091720400912D
:101E60007304109174040E946E324B015C019B015B
:101E7000A50160E070E080E090E052016301EF2E88
:101E8000FE2E0E94E43220936D0430936E04409342
:101E90006F04509370046093710470937204809384
:101EA00073049093740480904B0490904C04609061
:101EB000650470906604B0916704A0916804F09185
:101EC0006904E0916A0400916B0410916C04940120
:101ED00040E050E060E070E080E090E05301CB2E05
:101EE000DA2EEF2EFE2E0E94E4322093650430930A
:101EF0006604409367045093680460936904709388
:101F00006A0480936B0490936C0420914B0430918D
:101F10004C0480914504909146048217930740F445
:101F200080914B0490914C04909346048093450417
:101F300020914B0430914C048091430490914404CF
:101F40002817390740F480914B0490914C049093EA
:101F500044048093430420915304309154048091AD
:101F60004104909142048217930740F480915304F6
:101F7000909154049093420480934104209153041F
:101F80003091540480913F04909140042817390700
:101F900040F48091530490915404909340048093B2
:101FA0003F0480904B0490904C0460905D047090CE
:101FB0005E04B0915F04A0916004F0916104E0912F
:101FC00062040091630410916404940140E050E0C5
:101FD00060E070E080E090E05301CB2EDA2EEF2E2F
:101FE000FE2E0E94E43220935D0430935E04409301
:101FF0005F04509360046093610470936204809363
:10200000630490936404809053049090540460900F
:10201000550470905604B0915704A0915804F09163
:102020005904E0915A0400915B0410915C049401FE
:1020300040E050E060E070E080E090E05301CB2EA3
:10204000DA2EEF2EFE2E0E94E432209355043093B8
:102050005604409357045093580460935904709366
:102060005A0480935B0490935C0480910F019091DB
:10207000100101969093100180930F0120914B0461
:1020800030914C0480912504909126048217930787
:1020900080F480914B0490914C049093260480939B
:1020A0002504809153049091540490939703809356
:1020B0009603209153043091540480910201909131
:1020C00003012817390780F4809153049091540438
:1020D000909303018093020180914B0490914C04F2
:1020E000909324048093230480915104909152048E
:1020F000E0912104F0912204409153045091540442
:1021000060914B0470914C04E89F9001E99F300D61
:10211000F89F300D1124649FC001659F900D749F3E
:10212000900D11242817390780F480915304909161
:102130005404909352048093510480914B049091E5
:102140004C0490932204809321040F900F90DF9110
:10215000CF911F910F91FF90EF90DF90CF90BF90A4
:10216000AF909F908F907F906F905F904F90089569
:10217000DB01ED91FC9109940F93FC010150040FD8
:1021800084A996A9941718F0081728F402C0081714
:1021900050F0041740F42150260F83A995A99617F3
:1021A00020F4281720F480E007C0281720F481E0ED
:1021B000261710F0F8CF81E00F9108952F923F92EB
:1021C0005F926F927F928F929F92AF92BF92CF92C7
:1021D000DF92EF92FF920F931F93CF93DF931F92A3
:1021E000CDB7DEB71C01C62E142FD22EDC011496FB
:1021F000ED90FC901597C7010E94F30B082FF10199
:10220000848195810E94F60B982E013019F48FE09D
:10221000A82E02C0AA24AA94D10114968D919C9153
:1022200015970E94EF0B082FF101848195810E9480
:10223000EB0BB82ED10114968D919C9115970E94AD
:102240000C0CB0E6BD1530F4009721F0E80EF91E35
:1022500001E611C0F101848195810E940F0CF0E428
:10226000FD1530F4009721F0E80EF91E01E403C0DB
:1022700021E1E20EF11CBD1480F4D10150961C92B4
:10228000509753961C92539754961C92549751967C
:102290001C92519752961C92C7C0B01670F3892DAC
:1022A00090E0F70124912F3F21F4FFEFEF1AFF0A8E
:1022B0005AC00D114FC0D10114968D919C91159764
:1022C0000E94F30B97012F5F3F4FF701882311F016
:1022D0008230E1F48491D10153968C935397F901A4
:1022E000249154962C935497F7013396E491509689
:1022F000EC935097F7013496E4915196EC935197F3
:10230000F7013596E4915296EC9320C08491982F72
:102310009F709250D10152969C93529782958F70E4
:1023200051968C935197F9012491822F8F70549676
:102330008C93549722952F7053962C935397F701B3
:102340003296E491E295EF705096EC93E114F1042B
:1023500079F46AC0F7013296E491EA219C012E0FCC
:10236000311DE20EF31E0B1509F487CF0F5F99CFD5
:10237000F101848195810E94F60BB82ED10153960C
:102380009C9053975496DC90549751968C9151970A
:10239000C80E52969C919D0D512E591A0D2D292D26
:1023A000452D6C2DC1010E94BC108823D1F1C701BD
:1023B0008B0D911D5C0187E0890DF82EF694F69443
:1023C000F694D50C41019CE1890E911C6F2C712C67
:1023D0005D1439F15C2D8501802F8A198F15E8F481
:1023E000F8018491D10112966D917C9113975C96BE
:1023F0005C935C975D965C925D975F961C925F978D
:102400005E968C9394014BE3C10159830E94B810EE
:102410000F5F1F4F5981585FDFCFA60CB71C539435
:10242000D7CFF101808901C080E00F90DF91CF917B
:102430001F910F91FF90EF90DF90CF90BF90AF90E2
:102440009F908F907F906F905F903F902F90089516
:10245000CF92DF92EF92FF920F931F93CF93DF9370
:102460001F92CDB7DEB76C01DC01DC961C91DC97C6
:10247000DB960C917C01B4E0EB0EF11CDC0159966B
:10248000ED91FC915A97C70169830995482F410F37
:102490002981602FC7010E94DE10F60123AD082EAE
:1024A000000C990B820F911D83AF81E090E00F909B
:1024B000DF91CF911F910F91FF90EF90DF90CF9020
:1024C000089580914704811116C08AE090E09093AE
:1024D0004A048093490467E771E087E294E00E9430
:1024E000873581E080934704809186068093480475
:1024F00086E080938606109226041092250410929E
:1025000097031092960380915304909154049093F2
:1025100003018093020180914B0490914C049093AD
:1025200024048093230410925204109251041092B8
:1025300022041092210410926D0410926E041092E5
:102540006F04109270041092710410927204109231
:102550007304109274041092650410926604109231
:102560006704109268041092690410926A04109231
:102570006B0410926C042FB7F8948091B60590917B
:10258000B705A091B805B091B9052FBF8093370466
:1025900090933804A0933904B0933A040895AF920D
:1025A000BF92CF92DF92EF92FF920F931F93CF9340
:1025B000DF931F92CDB7DEB7A0909D03B0909E032E
:1025C000750189E0E80EF11CC7010E947819882383
:1025D00069F185E2C82E81E0D82E85010F5F1F4F7B
:1025E0008091190190911A0180179107DCF46DE731
:1025F00071E088E296E00E94B82580E0F6016191E2
:102600006F01861751F0C80169830E9478196981AA
:10261000882319F0C5010E94CC3558010E151F05FD
:10262000E1F604C0C5010E94C435E8CF0F90DF91E8
:10263000CF911F910F91FF90EF90DF90CF90BF90BF
:10264000AF90089560919D0370919E0349E050E022
:1026500085E291E00E94B43567EA71E085E291E09D
:102660000E947E3521E0892B09F020E0822F089519
:102670001F93CF93DF93EC0110910B016AE070E0A0
:1026800080E090E00E94EB1E112309F44DC06BEA3C
:1026900071E088E296E00E94151E80913B049091C3
:1026A0003C040E9470196CEB71E088E296E00E9495
:1026B000151E40913304509134046091350470919B
:1026C000360488E296E00E943E1963EC71E088E2ED
:1026D00096E00E94151E80913D0490913E040E9458
:1026E00070196AEC71E088E296E00E94151E409134
:1026F0004B0450914C0460E070E02AE088E296E0E0
:102700000E946F2561ED71E088E296E00E94151E3F
:10271000CE010E94701968ED71E088E296E0DF91C9
:10272000CF911F910C94B825DF91CF911F910895FF
:102730004F925F926F927F928F929F92AF92BF92D1
:10274000CF92DF92EF92FF92CF93C42FC0903704C5
:10275000D0903804E0903904F0903A046C197D0967
:102760008E099F0928EE33E040E050E00E94493294
:1027700069017A018CE3482E512C612C712CCA011D
:10278000B901A30192010E94493249015A01CA01CB
:10279000B901A30192010E94493229013A01A4EC36
:1027A000BFEFA50194010E948032C60ED71EE81E1D
:1027B000F91EA30192010E948032860E971EA81E68
:1027C000B91E1092C206C1112EC087E08093C306C5
:1027D000B301A20187E896E00E943E1963E073E02E
:1027E00087E896E00E94151EB501A40187E896E0EF
:1027F0000E943E1963E073E087E896E00E94151E90
:10280000B701A60187E896E0CF91FF90EF90DF90A7
:10281000CF90BF90AF909F908F907F906F905F9080
:102820004F900C943E1982E3D1CFCF93DF93EC010C
:10283000C83E83E0D807C0F46CE372E087E896E016
:102840000E94151EC436D10578F46CE372E087E867
:1028500096E00E94151ECA30D10530F46CE372E098
:1028600087E896E00E94151EAE0160E070E02AE065
:1028700087E896E0DF91CF910C946F258F929F921D
:10288000AF92BF92CF92DF92EF92FF92CF93DF93FE
:102890006B017C015A01C22F82E38093C20680E162
:1028A0008093C30685EE98E00E94F118C23010F5BF
:1028B00020E030E04AE754E4C701B6010E946533E6
:1028C00087FF06C06CE372E087E896E00E94151E61
:1028D000C11110C020E030E44CE156E4C701B6015C
:1028E0000E94653387FF06C06CE372E087E896E0DC
:1028F0000E94151E20E030E048EC52E4C701B6010A
:102900000E94653387FF06C06CE372E087E896E0BB
:102910000E94151E20E030E040E251E4C701B601FC
:102920000E94653387FF06C06CE372E087E896E09B
:102930000E94151E2C2F30E0B701A60187E896E013
:102940000E94CC25B50187E896E00E94151E88E517
:1029500091E00E94F1180E949A1A8BEDA81681E06E
:10296000B80609F08EC01092C20687E08093C306B5
:102970006DED71E087E896E00E94151E1092C20688
:1029800080E18093C306609121047091220480E06D
:1029900090E00E94123420914D0430914E044091F9
:1029A0004F04509150040E94073520E030E04AE780
:1029B00054E40E946A33AB01BC0122E030E087E8B6
:1029C00096E00E94CC256BED71E087E896E00E94CE
:1029D000151E2AE939E941E251E4C701B6010E9416
:1029E00002351816BCF02DEC3CEC4CE85FE3C70157
:1029F000B6010E9402351816D4F0EDEC8E2EECECE8
:102A00009E2EECE8AE2EEFE3BE2E2CEB34E743E136
:102A10005CE318C07DEC872E7CEC972E78ECA72E1B
:102A200071E4B72E22EF32ED4DE45EE30BC063E3B9
:102A3000862E982C63EAA62E60E4B62E2EE93FEE91
:102A400047E25DE3C701B6010E946A336B017C0176
:102A5000C2E0D0E0BE010D2E000C880B990B0E9445
:102A60001434A70196010E94653318162CF040E13A
:102A70006AE18C2F0E94091A2196CF37D10551F7B0
:102A80006FC183EEA81681E0B80609F0DDC0109290
:102A9000C20687E08093C3066DED71E087E896E09B
:102AA0000E94151E1092C20680E18093C3064091D9
:102AB00025045091260460E070E02AE087E896E063
:102AC0000E946F2563EE71E087E896E00E94151E74
:102AD000E0912004F0E0EE0FFF1FEE5CFE4F6081FE
:102AE000718180E090E00E94123420E030E04EEFEF
:102AF00052E40E946A334B015C019B01AC01C701A7
:102B0000B6010E946A336B017C01C2E0D0E0BE01D5
:102B10000D2E000C880B990B0E941434A70196010E
:102B20000E94653318162CF040E16AE18C2F0E9458
:102B3000091A2196CE37D10551F78091250490913D
:102B40002604BC0180E090E00E941234A5019401AB
:102B50000E946A330E94E333862F40E16AE10E94BB
:102B6000091A48E06CE280E00E94091A81E0809333
:102B7000C206C4E3C093C30669EA71E087E896E041
:102B80000E94151E48E06CE280E40E94091A80E26F
:102B90008093C206C093C306E0912004F0E0EE0FDC
:102BA000FF1FEE5CFE4F6081718180E090E00E942B
:102BB000123420E030E0A9010E94F93220E030E038
:102BC0004AE754E40E946A3320E030E040E05FE3EB
:102BD0000E940735AB01BC0122E030E087E896E0B7
:102BE0000E94CC2564EE71E087E896E00E94151EF5
:102BF00081E68093C206C093C306E0912004F0E012
:102C0000EE0FFF1FEE5CFE4F6081718180E090E06F
:102C10000E94123420E030E0A9010E94F93220E045
:102C200030E04AE754E40E946A33AB01BC0122E081
:102C300030E087E896E00E94CC2564EE71E087E8FA
:102C400096E00E94151EC4C086EEA81681E0B80664
:102C500009F0CDC01092C20687E08093C30668EEEB
:102C600071E087E896E00E94151E4091790450912A
:102C70007A0460917B0470917C0422E030E087E864
:102C800096E00E94CC251092C20680E18093C30694
:102C90006DEE71E087E896E00E94151E4091750484
:102CA00050917604609177047091780422E030E0CE
:102CB00087E896E00E94CC252AE939E941E451E40D
:102CC000C701B6010E9402351816B4F023E333E3BE
:102CD00043EA50E4C701B6010E9402351816BCF061
:102CE00023E3822E982C23EAA22E20E4B22E2EE992
:102CF0003FEE47E25DE316C0812C912C90EDA92EAA
:102D000091E4B92E2DE33AE047E55EE30BC08AE992
:102D1000882E89E9982E81E4A82EBA2C29E334EB79
:102D200048EC5DE3C701B6010E946A336B017C0188
:102D3000C2E0D0E0BE010D2E000C880B990B0E9462
:102D40001434A70196010E94653318162CF040E157
:102D50006AE18C2F0E94091A2196CF37D10551F7CD
:102D600048E06CE280E00E94091A81E08093C2068C
:102D7000C4E3C093C30669EA71E087E896E00E9465
:102D8000151E48E06CE280E40E94091A80E28093FC
:102D9000C206C093C30620E030E040E05FE3C50117
:102DA000B4010E940735AB01BC0122E030E087E8A6
:102DB00096E00E94CC2581E68093C206C093C306AC
:102DC00022E030E0B501A40187E896E00E94CC251E
:102DD00048E06CE28FE7DF91CF91FF90EF90DF90BA
:102DE000CF90BF90AF909F908F900C94091ADF9175
:102DF000CF91FF90EF90DF90CF90BF90AF909F90DA
:102E00008F900895CF93DF9340E00E949813C0E025
:102E1000D0E0C038D10579F080919F03FE01E80F22
:102E2000F11DEF77FF27E056FC4F60818C2F0E9449
:102E3000281A2196EECF88E68093C20687E0809319
:102E4000C306E0912004F0E0EE0FFF1FEE5CFE4FA2
:102E50006081718180E090E00E94123420E030E0D7
:102E6000A9010E94F93220E030E04AE754E40E94D0
:102E70006A33AB01BC0122E030E087E896E0DF91E5
:102E8000CF910C94CC252091270690917507213283
:102E900008F04AC0809104068111FCCF32E03093E3
:102EA000040631E0309303063FEF309302061092A0
:102EB000010620930006A7E0B6E040EE55E0FA01D7
:102EC0003E2F341B321718F43D913193F9CF1092F5
:102ED000DF052091DF05990F922B9093DF059091EC
:102EE000DE05913061F41092DE059091DF0590933C
:102EF000BB009091BC0093FDF8CF95EC01C095EE1E
:102F00009093BC00909104069230E1F390910206F8
:102F10009F3F79F080910206803241F08091020655
:102F2000803331F084E005C081E003C082E001C05D
:102F300083E0109206061092270610920506089567
:102F4000DF92EF92FF920F931F93CF93DF93082F9F
:102F5000D62FC42F142FF62EF40EEE24E394DD2486
:102F6000DA948F2D811B1830A8F060918D06709136
:102F70008E060093A7068093A806E092AA06D09238
:102F8000A90627EA36E04BE38BE896E00E94B810EA
:102F90001850E7CF8C2F887FD80F4C2F477029F11E
:102FA00097E0492760918D0670918E060093A706E1
:102FB000D093A80681E08093AA064F5F47708FEFF9
:102FC00090E001C0880F4A95EAF78093A90627EAA6
:102FD00036E04BE38BE896E0DF91CF911F910F91A4
:102FE000FF90EF90DF900C94B810DF91CF911F917C
:102FF0000F91FF90EF90DF900895EF92FF920F9363
:103000001F93CF93DF93D82F062FC42F142FF82EA2
:10301000F40EEE24EA948F2D811B1830A8F06091F5
:103020008D0670918E068093A7060093A8061092D5
:10303000AA06E092A90627EA36E04BE38BE896E081
:103040000E94B8101850E7CF8C2F887FD80F4C2FD4
:10305000477019F197E0492760918D0670918E06AF
:10306000D093A7060093A8061092AA064F5F477058
:103070008FEF90E001C0880F4A95EAF78093A90688
:1030800027EA36E04BE38BE896E0DF91CF911F9182
:103090000F91FF90EF900C94B810DF91CF911F919A
:1030A0000F91FF90EF9008951F93CF93DF931F929E
:1030B000CDB7DEB7162F9091C50621E02093050607
:1030C000909375071092060610922706682F88E7DE
:1030D00096E079830E946D1D7981672F88E796E0DD
:1030E0000E946D1D612F88E796E00E946D1D0F9074
:1030F000DF91CF911F910C9443171F93CF93DF93D0
:10310000EB019091C50621E0209305069093750789
:103110001092060610922706682F88E796E00E9414
:103120006D1D0E9443172091C506809104068111F0
:10313000FCCF81E080930406809303069FEF909379
:10314000020610920106809300068093DF0590919D
:10315000DF05822F880F892B8093DF058091DE05A4
:10316000813061F41092DE058091DF058093BB0011
:103170008091BC0083FDF8CF85EC01C085EE809383
:10318000BC00809104068130E1F380910106823019
:1031900018F48091010601C082E0A0EEB5E02EEBAC
:1031A00035E0F9019E2F921B981718F49D91919389
:1031B000F9CF1092BD058093BC0588E796E00E9488
:1031C000211D182F88E796E00E94211D20E030E0A5
:1031D000312F820F931F99838883DF91CF911F91A5
:1031E000089520918F06309190062817390709F429
:1031F00044C09093900680938F06009709F437C0DF
:103200002091A206FC01211107C03596E491E093BC
:10321000A306FC013C960FC0213039F43F96E4919F
:10322000E093A306FC01709606C03D96E491E093FE
:10323000A306FC013E9684918093A4068091A30688
:10324000082E000C990B2091A406821B910927FDE2
:1032500093952091A506203441F0829FC00111244E
:1032600026E0969587952A95E1F78093A60689EE44
:103270009BE09093A1068093A0060895CF92DF92E1
:10328000EF92FF920F931F93CF93DF9377FF1DC0B1
:103290006A017B01EC016DE20E94F91D8C0144275B
:1032A0005527BA014C195D096E097F092AE0CE0144
:1032B0000E946F25800F911FDF91CF911F910F9179
:1032C000FF90EF90DF90CF9008952AE0DF91CF91AB
:1032D0001F910F91FF90EF90DF90CF900C946F258E
:1032E000AC01990F660B770B88E296E00C943E19BF
:1032F00020917307309174072F5F3F4F309374070D
:10330000209373074091840650918506411551051D
:1033100019F0421753071CF462E673E009C02091CC
:10332000190130911A012817390744F46DE771E04B
:1033300088E296E00E94B82580E0089581E0089533
:10334000CF93DF938091C406811107C081E0809301
:10335000C4068BE896E00E948321C0918D06D0912F
:103360008E06E091BC06F091BD0682E00995E091E1
:10337000BC06F091BD0681E0099520E030E044E113
:10338000BE018BE896E00E94B8102EEB36E047E1D4
:10339000BE018BE896E00E94B810E091BC06F09167
:1033A000BD0680E0DF91CF910994CF92DF92FF922A
:1033B0000F931F93CF93DF9300D0CDB7DEB7F82ED6
:1033C000062FE091A006F091A1068BE896E04983D4
:1033D0005A830995080F4981C42E5A81D52E10E0D1
:1033E000F60121916F01222349F0402F6F2D8BE8C8
:1033F00096E00E94DE10F80E180FF2CF812F0F908A
:103400000F90DF91CF911F910F91FF90DF90CF90A0
:1034100008950F931F93CF93DF93C82FD62F142FA8
:10342000042F21E0462F682F8BE896E00E94BC1005
:10343000882349F0412F6D2F8C2FDF91CF911F9161
:103440000F910C94A017DF91CF911F910F910895C8
:10345000962FE7E8F6E06681778180A391A327EABB
:1034600036E042E38BE896E00C94B810FF920F939D
:103470001F93CF93DF93C82FD62F142FF22E00FF68
:103480000CC0622F6D1B842F8C0F0E94281A6F2D89
:103490006C1B8D2F810F0E94281A01FF0CC06F2D0D
:1034A0006D1B812F8C1B0E94281A6F2D6C1B812F86
:1034B0008D1B0E94281A03FF0CC06F2D6D0F812FEA
:1034C0008C0F0E94281A6F2D6C0F8D2F810F0E9478
:1034D000281A02FF11C06F2D6D0F812F8C1B0E94C7
:1034E000281A6F2D6C0F812F8D1BDF91CF911F91AB
:1034F0000F91FF900C94281ADF91CF911F910F919B
:10350000FF9008950F931F93CF93DF93C82FD62F6B
:10351000042F262F482F61E080E00E94361A2D2FBD
:103520004C2F60E081E00E94361ADF91CF911F910D
:103530000F9108950F9304E120E848E160E08BE8E3
:1035400096E00E94BC10882349F142E069E181E0E5
:103550000E94821A41E069E18EE70E94821A44E0EB
:103560006AE281E00E94821A48E06AE28EE70E94E5
:10357000821A4CE768E182E00E94FD174CE76BE29B
:1035800082E00E94FD1740E16AE180E00E94A017FE
:1035900040E16AE18FE70F910C94A0170F91089515
:1035A000CF92DF92EF92FF926B017C0120E030E03E
:1035B0004AE754E40E94653387FF06C06CE372E07B
:1035C00087E896E00E94151E20E030E048EC52E4C7
:1035D000C701B6010E94653387FF06C06CE372E045
:1035E00087E896E00E94151E20E030E040E251E4BA
:1035F000C701B6010E94653387FF06C06CE372E025
:1036000087E896E00E94151E22E030E0B701A6018F
:1036100087E896E0FF90EF90DF90CF900C94CC2558
:103620000F93CF93C82F01E020E8482F60E08BE88C
:1036300096E00E94BC10882339F040E86C2F80E0AF
:10364000CF910F910C94FD17CF910F9108950F9387
:103650001F93CF93E0919906F0919A06309719F055
:103660008BE896E0099500918D0610918E06E09109
:10367000BC06F091BD0682E00995E091BC06F09190
:10368000BD0681E0099520E030E045E1B8018BE816
:1036900096E00E94B810C82F882341F02EEB36E048
:1036A00047E1B8018BE896E00E94B810E091BC06B3
:1036B000F091BD0680E009958C2FCF911F910F915D
:1036C0000895FC018091BB05811103C08FEF9FEF2E
:1036D00008959FB7F89482E08093E9002091F2006A
:1036E00030E01216130614F421E030E02115310504
:1036F00059F0289884E68093BA058091F100808380
:103700008091F200882319F09FBFC90108958BE6CC
:103710008093E800F9CFCF92DF92EF92FF92CF93A0
:10372000DF938FB7F894C090B605D090B705E090BE
:10373000B805F090B9058FBF2091DD0630E0F901A2
:10374000E255F94E8491F901E157F94ED491F9010E
:10375000E059F94EC491CC2379F081110E94171ED3
:10376000EC2FF0E0EE0FFF1FEE59F94EA591B4914A
:10377000EC91ED2381E009F480E081708093DF0615
:103780009091DE06911104C091E089278093DF06B5
:103790002091DF068091E006281741F0C092E306F1
:1037A000D092E406E092E506F092E6068091E30608
:1037B0009091E406A091E506B091E606B701A60156
:1037C000481B590B6A0B7B0BDB01CA014091D106E8
:1037D0005091D2066091D3067091D40648175907CC
:1037E0006A077B0794F43091D006231771F0209379
:1037F000D006222351F04091E1065091E2064F5F3E
:103800005F4F5093E2064093E1063091D0063111AC
:1038100012C04091D5065091D6066091D70670919E
:10382000D806481759076A077B070CF58091E1060F
:103830009091E20614C04091D9065091DA06609149
:10384000DB067091DC06481759076A077B077CF492
:103850008091E1069091E20691958195910990936E
:10386000CF068093CE061092E2061092E1062093D6
:10387000E006DF91CF91FF90EF90DF90CF90089519
:1038800080916B0781110DC082E08093670784E00F
:103890008093680710926A071092690781E080930D
:1038A0006B0787E697E00895CF92DF92EF92FF9241
:1038B0000F931F93CF93DF936C017A018B01C0E0CC
:1038C000D0E0CE15DF0589F0D8016D918D01D601CC
:1038D000ED91FC910190F081E02DC6010995892BB5
:1038E00011F47E0102C02196ECCFC701DF91CF9188
:1038F0001F910F91FF90EF90DF90CF900895CF939D
:10390000DF931F92CDB7DEB76983DC01ED91FC91A7
:103910000280F381E02D41E050E0BE016F5F7F4FF8
:1039200009950F90DF91CF91089583E08093E9008E
:103930008091F200882319F08AE38093E8000895CB
:10394000FC018485958597FD0BC09FB7F89482E0B4
:103950008093E9008091F2009FBF90E00196089566
:103960009FB7F89482E08093E9008091F2009FBFB6
:1039700090E008953FB7F8948091BE079091BF07FB
:10398000A091C007B091C10726B5A89B05C02F3FE5
:1039900019F00196A11DB11D3FBFBA2FA92F982F75
:1039A0008827820F911DA11DB11DBC01CD0142E0F0
:1039B000660F771F881F991F4A95D1F7089585EDE7
:1039C0008093BC008091BC0084FDFCCF1092040663
:1039D000089540919807262F30E0240F311D2132A1
:1039E0003105DCF4209104062430C9F4FC0180E0A8
:1039F00090E0861758F4309198072191DC01AA587D
:103A0000B84FA30FB11D2C930196F3CF8091980767
:103A1000680F6093980780E0089581E0089582E040
:103A200008950895E091BD058091BC05E81730F434
:103A3000F0E0E254FA4F808190E008958FEF9FEF1D
:103A400008959091BD058091BC05981750F4E92F19
:103A5000F0E0E254FA4F208130E09F5F9093BD0583
:103A600002C02FEF3FEFC90108958091BC0590E09F
:103A70002091BD05821B91090895CF92DF92EF92AC
:103A8000FF920F931F93CF93DF937C01262F972FE5
:103A90008A0180910506882391F0C62FD72F6E01E9
:103AA000C40ED51ECC15DD0571F06991D701ED91DD
:103AB000FC910190F081E02DC7010995F3CF642FAF
:103AC000822F0E94E91CC801DF91CF911F910F91B5
:103AD000FF90EF90DF90CF900895CF93DF931F92E8
:103AE000CDB7DEB76983209105062223D1F020915E
:103AF0002706203240F021E030E0FC0133832283AE
:103B000080E090E015C080910606E82FF0E0E95FC4
:103B1000F94F998190838F5F8093060680932706E3
:103B200005C061E0CE0101960E94E91C81E090E0B1
:103B30000F90DF91CF9108950895DC011696ED91D5
:103B4000FC91179712968C91481B477081E090E08A
:103B500001C0880F4A95EAF7E60FF11D3081222354
:103B600011F0832B02C080958323808308950F93E7
:103B70001F93CF93DF931F92CDB7DEB78C01FC016B
:103B80008485958597FF0EC0CE0101960E94611B2A
:103B9000019719F4298130E002C02FEF3FEFF801BF
:103BA00035872487F801848595850F90DF91CF9123
:103BB0001F910F910895CF93DF931F92CDB7DEB77A
:103BC000FC018485958597FD05C02FEF3FEF358774
:103BD00024870BC0CE0101960E94611B019719F446
:103BE000898190E002C08FEF9FEF0F90DF91CF911E
:103BF0000895DC01ED91FC910190F081E02D099494
:103C00006115710579F0FB0101900020E9F731970A
:103C1000AF01461B570BDC01ED91FC910280F38153
:103C2000E02D099480E090E008950C94001E90E04F
:103C3000FC013197EF30F105B0F5E458FF4F0C94DB
:103C40006832809180008F7703C0809180008F7DE3
:103C500080938000089580918000877FF9CF84B59C
:103C60008F7702C084B58F7D84BD089580919000C8
:103C70008F7707C0809190008F7D03C08091900066
:103C8000877F8093900008958091C0008F7703C054
:103C90008091C0008F7D8093C00008958091C20004
:103CA000877F8093C20008951F93CF93DF93282FBF
:103CB00030E0F901E255F94E8491F901E157F94EEE
:103CC000D491F901E059F94EC491CC23C9F0162FD3
:103CD00081110E94171EEC2FF0E0EE0FFF1FE9513B
:103CE000F94EA591B4918FB7F894111105C09C912C
:103CF000ED2FE095E92302C0EC91ED2BEC938FBF03
:103D0000DF91CF911F910895CF93DF9390E0FC0155
:103D1000E157F94E2491FC01E059F94E8491882332
:103D200061F190E0880F991FFC01E752F94EC591AF
:103D3000D491FC01E951F94EA591B491611109C0EA
:103D40009FB7F8948881209582238883EC912E2355
:103D50000BC0623061F49FB7F8943881822F809550
:103D600083238883EC912E2B2C939FBF06C08FB7A3
:103D7000F894E8812E2B28838FBFDF91CF9108958F
:103D8000823108F08251E82FF0E0E353F94EE491DC
:103D900080917B00E3FB222720F930E095E0220FA1
:103DA000331F9A95E1F78F7D282B20937B00E770D6
:103DB000E064E0937C0080917A00806480937A00D4
:103DC00080917A0086FDFCCF809178002091790067
:103DD00090E0922B08958F929F92AF92BF92CF92D4
:103DE000DF92EF92FF926B017C010E94BA1C4B01A3
:103DF0005C01C114D104E104F104F1F00E94BA1C89
:103E0000DC01CB0188199909AA09BB09883E9340B6
:103E1000A105B10570F321E0C21AD108E108F1084B
:103E200088EE880E83E0981EA11CB11CC114D10439
:103E3000E104F10419F7DDCFFF90EF90DF90CF9010
:103E4000BF90AF909F908F9008958F929F92AF9266
:103E5000BF92CF92DF92EF92FF920F931F93CF9377
:103E6000DF935C016B018A0180910B01882309F4C7
:103E70005EC08091BB05882309F459C080919903E5
:103E800080FF05C08091E00082608093E000E8013F
:103E90008AEFF82E93E0E92E2FE3822E3AE3932E59
:103EA000209709F43DC08FB7F894E092E900909113
:103EB000E80095FF06C09091F200282D291B922F53
:103EC00001C090E08FBF91110AC0FA94FF2079F1F0
:103ED00061E070E080E090E00E94EB1EE1CF292FCE
:103EE00030E0C217D3070CF49C2F8FB7F894E09200
:103EF000E9002091E80025FF11C0292F30E0C21B06
:103F0000D30BF601915020F041914093F100FACF8C
:103F1000C20ED31E9091E80095FF13C08FBFC0CF93
:103F20005D9884E68093C2071016110644F081E084
:103F300090E0F5019383828380E090E005C0C801A2
:103F400003C09092E800EACFDF91CF911F910F91CB
:103F5000FF90EF90DF90CF90BF90AF909F908F90A9
:103F600008951F920F920FB60F9211242F933F9333
:103F70008F939F93AF93BF938091B6059091B705B0
:103F8000A091B805B091B9053091BD0723E0230F8A
:103F90002D3720F40196A11DB11D05C026E8230F81
:103FA0000296A11DB11D2093BD078093B605909385
:103FB000B705A093B805B093B9058091BE0790915D
:103FC000BF07A091C007B091C1070196A11DB11D07
:103FD0008093BE079093BF07A093C007B093C1071B
:103FE000BF91AF919F918F913F912F910F900FBEF5
:103FF0000F901F9018951F920F920FB60F921124D9
:104000002F933F934F935F936F937F938F939F93E0
:10401000AF93BF93EF93FF938091B900887F803671
:1040200009F49CC068F5883209F45BC090F48031D3
:1040300009F454C038F4882309F4F6C0883009F430
:104040004DC0F6C0883109F44CC0803209F45DC01F
:10405000EFC0803409F468C048F4803309F455C0D7
:10406000883309F0E5C080930206D8C0803509F492
:104070004FC0883509F45DC0883409F0D9C0D6C076
:10408000883909F4C7C0A8F4883709F467C038F440
:10409000883609F463C0803709F460C0C9C0883825
:1040A00009F4B8C0803909F45FC0803809F0C0C095
:1040B0005BC0803B09F486C038F4803A09F466C0DE
:1040C000883A09F47FC0B4C0803C09F4A7C0883C9A
:1040D00009F4A4C0883B09F48AC0AAC08091DF0516
:1040E00010C09091010680910006981770F5E0913C
:1040F000010681E08E0F80930106F0E0E052FA4F56
:1041000080818093BB0085EC86C0809302068EC0C0
:10411000E091010681E08E0F809301068091BB0043
:10412000F0E0E052FA4F8083909101068091000602
:104130006EC0E091010681E08E0F809301068091B0
:10414000BB00F0E0E052FA4F8083809103068111BA
:104150006DC081E08093DE0584EA61C083E08093D6
:1041600004061092BC07CFCF8091BC07803208F0C4
:1041700051C0E091BC0781E08E0F8093BC07809115
:10418000BB00F0E0E456F84F8083BDCF85EC809310
:10419000BC00109204068091BC07803230F4E0919C
:1041A000BC07F0E0E456F84F10826091BC0770E065
:1041B000E0919A07F0919B078CE997E0099510929E
:1041C000BC0736C084E080930406109299071092D1
:1041D0009807E0919607F0919707099580919807C5
:1041E000811105C081E08093980710927607E091D5
:1041F000990781E08E0F80939907F0E0EA58F84F15
:1042000080818093BB0090919907809198079817BF
:1042100008F479CF85E88093BC000AC085EC8093D0
:10422000BC001092040604C0109202060E94DF1C1B
:10423000FF91EF91BF91AF919F918F917F916F917E
:104240005F914F913F912F910F900FBE0F901F9054
:1042500018951F920F920FB60F9211242F933F9330
:104260004F935F936F937F938F939F93AF93BF937E
:10427000EF93FF93E0919B03F0919C030995FF91CD
:10428000EF91BF91AF919F918F917F916F915F91CE
:104290004F913F912F910F900FBE0F901F90189547
:1042A000FB014181DC0112962C911297421768F0B4
:1042B00013962C911397241740F0608115962C913A
:1042C000621718F424810C949D1D0895FC018081CF
:1042D0009281980F92832181921760F494819F5F5D
:1042E00094839381890F821710F08FEF820F83835D
:1042F00081E0089580E00895FC0112828081815060
:10430000838314820895EF92FF920F931F93CF93AC
:10431000DF931F92CDB7DEB78C01DC011296ED90D2
:10432000FC901397D196ED91FC91D29782E009957C
:1043300020E030E04AE0B701C8010E94B810F82E32
:10434000D801D196ED91FC91D29783E00995D801DF
:10435000D196ED91FC91D29780E00995FF20A1F1D3
:10436000F801628173819E012F5F3F4F46E4C801CF
:104370000E94B8108981D8018C9312966D917C911E
:1043800013979E012F5F3F4F47E4C8010E94B8106A
:104390008981F80181836281738120E030E048E403
:1043A000C8010E94B810D8011B968C931B979801E6
:1043B0002D5C3F4F12966D917C91139747E1C80198
:1043C0000E94B81081E001C080E00F90DF91CF9192
:1043D0001F910F91FF90EF9008954091C607509163
:1043E000C7072091C4073091C50742175307B4F49B
:1043F0009091E8009570E1F39091E80092FD19C06A
:104400008093F1008091C6079091C70701968F7342
:104410009927892B19F48EEF8093E8008091C607C5
:104420009091C70701969093C7078093C60781E0D4
:10443000089580E00895CF92DF92EF92FF920F935C
:104440001F93CF93DF931F92CDB7DEB7182F062FA0
:10445000E42E862F880F8E5F99830E94ED2183E0E2
:104460000E94ED21F12EC12E9981D92E8C2D8F190C
:10447000801798F4F601E7FE02C0849101C08081A4
:104480000E94ED21182F80E00E94ED218123FFEF93
:10449000CF1ADF0A8111EACF01C081E00F90DF91CE
:1044A000CF911F910F91FF90EF90DF90CF900895E3
:1044B000DF92EF92FF920F931F93CF93DF93D82E4B
:1044C0008A017B01E40EF51EEB01CE15DF0571F0CC
:1044D000D7FE03C0FE01849101C088810E94ED21B6
:1044E00021968111F2CF8FEF9FEF01C0C801DF91BC
:1044F000CF911F910F91FF90EF90DF900895615041
:1045000030F02091F100FC0120830196F8CF28982B
:1045100084E68093BA0508950E9479350F931F931E
:10452000CF93DF931F92CDB7DEB782E0898342E459
:1045300050E065EF76E180E80E9458220E94401C1E
:10454000DC0112960D911C9113970115110569F06C
:10455000D801ED91FC910280F381E02DBE016F5FE7
:104560007F4FC801099597FF07C089810F90DF91A0
:10457000CF911F910F910895F80100851185E5CF26
:104580001F920F920FB60F9211248F939F938091D9
:10459000E1009091E100937F9093E10083FF0FC0D1
:1045A0001092E90091E09093EB001092EC0092E3FE
:1045B0009093ED001092BB0598E09093F00082FF7D
:1045C00020C093E09093E9009091F200992319F0B4
:1045D0009AE39093E8009091C207992339F0909163
:1045E000C20791509093C207992389F19091BA051F
:1045F000992339F09091BA0591509093BA05992377
:1046000041F184FF10C08091E2008E7E8160809332
:10461000E2008091E1008F7E8093E1008091990318
:104620008E7E806111C080FF16C08091E2008E7E78
:1046300080618093E2008091E1008E7E8093E100B2
:10464000809199038E7E81608093990304C05D9A66
:10465000CDCF289AD6CF9F918F910F900FBE0F90FC
:104660001F9018951F920F920FB60F921124CF92A0
:10467000DF92EF92FF920F931F932F933F934F93ED
:104680005F936F937F938F939F93AF93BF93EF93BA
:10469000FF93CF93DF93CDB7DEB76C97DEBFCDBF6F
:1046A0001092E9008091E80083FFFAC168E0CE0132
:1046B00045960E947F2282EF8093E8008D8987FFD4
:1046C00005C09091E80090FFFCCF03C09EEF90934F
:1046D000E800982F907609F0C6C09E892F89188D22
:1046E00091110CC0803829F480919A038093F100D5
:1046F00002C01092F1001092F10047C1422F50E029
:10470000512B913051F4811140C14130510509F0D4
:104710003CC180919A038D7F0BC0933061F481116D
:1047200034C14130510509F030C180919A03826053
:1047300080939A032AC1953041F48091E80080FF6C
:10474000FCCF20682093E30020C1963009F05FC0C1
:10475000EB8CFC8C1092E9001092C7071092C607F0
:10476000123091F51092C5071092C4070E948E2254
:1047700099E0BE016F5F7F4FDB01E92F1D92EA9543
:10478000E9F799831A8391E09E8390EA98879AEFDC
:1047900099872091C6073091C707275F3F4F3C8319
:1047A0002B838D831092E9001092C7071092C607E1
:1047B000F092C507E092C40749E050E080E00E9413
:1047C00058220E948E22E1C0F092C507E092C407F1
:1047D0000E94401CDC011296ED90FC901397E114AE
:1047E000F10409F4C0C0D701ED91FC910480F5817A
:1047F000E02DBE016B5E7F4FC7010995009719F050
:104800000CF0C3C0C6C0F701E084F184E8CF973054
:1048100009F4BFC0983021F481E08093F100B5C065
:10482000993009F0B2C0837009F0B3C0E1E7F1E05C
:1048300081E021E036E39081992361F08093E900E3
:104840002093EB0091919093EC003093ED008F5FFB
:10485000873089F78EE78093EA001092EA008F890B
:104860008093BB0592C08B8D9C8D1092E9001092B5
:10487000C7071092C6079093C5078093C407898D18
:10488000811156C08E899D89913A59F4813209F07F
:1048900080C047E050E064E071E080E00E94582270
:1048A00074C0913209F075C0833289F4888D90E02C
:1048B000982F88272F89822BA0E0B0E080932E01CB
:1048C00090932F01A0933001B09331015EC08032EC
:1048D00069F48091E80082FFFCCF67E084E091E01A
:1048E0000E947F228BEF8093E80006C0823209F09D
:1048F0004CC08F8980930B0180919803882319F015
:10490000EEEFFAE002C0E0E0F8E08091040190915F
:104910000501A0910601B0910701803B9440A105DB
:10492000B10509F088C080910B0180FFA0C083C051
:104930000E94401CDC0112960D911C9113970115E9
:10494000110539F1D801ED91FC910190F081E02D34
:10495000BE016B5E7F4FC8010995811116C0F80139
:1049600000851185ECCF1130C1F0133091F48F899F
:10497000882309F455C08230E9F440E860E187E417
:1049800097E10E941B22882321F08EEF8093E8009C
:1049900087C081E28093EB0083C08B8D9C8D08974C
:1049A00011F41093C3078091C307811136C068E5E5
:1049B00077E138C0813029F440E86BE08BE397E180
:1049C000E0CF833031F70E94401CDC011296ED905D
:1049D000FC9013978E010F5F1F4F6801E114F104E3
:1049E00079F0D701ED91FC910680F781E02DB801B7
:1049F000C7010995080F111DF701E084F184EECF7E
:104A0000D8011C92F60101900020E9F73197BF010F
:104A10006C197D0940E0C601B4CF6AE677E102C0B7
:104A200067E377E16115710509F4B3CFFB014491A8
:104A300050E080E833CF0FB6F894A89580916000DD
:104A4000886180936000109260000FBEA895EE3FD1
:104A50002AE0F20739F08091FE0A9091FF0A9183D3
:104A6000808393CF1092FF0A1092FE0A8ECFEE3F02
:104A70008AE0F80731F0808191819093FF0A80935A
:104A8000FE0A87E797E7918380839BE088E10FB672
:104A9000F894A895809360000FBE9093600075CF46
:104AA0006C960FB6F894DEBF0FBECDBFDF91CF91ED
:104AB000FF91EF91BF91AF919F918F917F916F91F6
:104AC0005F914F913F912F911F910F91FF90EF9028
:104AD000DF90CF900F900FBE0F901F9018954F92C0
:104AE0005F926F927F92EF92FF920F931F93CF93FB
:104AF000DF93CDB7DEB7A1970FB6F894DEBF0FBE38
:104B0000CDBF7C01FA01CB0119A2223008F42AE0C2
:104B10008E010F5D1F4F422E512C612C712CBF0155
:104B2000A30192010E942732F901CA010150110923
:104B30006A3014F4605D01C0695CD8016C93232B6A
:104B4000242B252B61F7B801C7010E94001EA196F6
:104B50000FB6F894DEBF0FBECDBFDF91CF911F918E
:104B60000F91FF90EF907F906F905F904F9008951E
:104B70000F931F93CF93DF93EC010E94001E8C01D3
:104B800064E873E0CE010E94001E800F911FDF9148
:104B9000CF911F910F9108954F925F926F927F92E4
:104BA0008F929F92AF92BF92CF92DF92EF92FF923D
:104BB000CF93DF93EC016A017B01B22E9A01AB0126
:104BC000C701B6010E947435882319F067E873E0C5
:104BD00027C026013701E89477F82FEF3FEF4FE722
:104BE0005FE7C301B2010E94743581110DC02FEF40
:104BF0003FEF4FE75FE7C301B2010E94653318162C
:104C00001CF46BE873E00CC02FEF3FEF4FE75FE45D
:104C1000C701B6010E94023518169CF46FE873E0D4
:104C2000CE01DF91CF91FF90EF90DF90CF90BF90BA
:104C3000AF909F908F907F906F905F904F900C946B
:104C4000001E2FEF3FEF4FE75FECC701B6010E9458
:104C5000653387FDE3CF20E030E0A901C701B6014D
:104C60000E94653387FF0AC06DE2CE010E94F91DE4
:104C70004C01F7FAF094F7F8F09402C0812C912CD3
:104C8000A12C60E070E080E09FE3AB1440F420E0F2
:104C900030E040E251E40E946A33A394F6CF9B01D6
:104CA000AC01C701B6010E94F9322B013C010E9400
:104CB000E3336B017C010E9412349B01AC01C30100
:104CC000B2010E94F8322B013C012AE0B701A60193
:104CD000CE010E946F257C01E80CF91CBB2031F04D
:104CE0006EE2CE010E94F91DE80EF91EDB2CDD20DC
:104CF00029F120E030E040E251E4C301B2010E941A
:104D000007352B013C010E94E3334B01A12CB12C50
:104D10002AE0B501A401CE010E946F25E80EF91E1C
:104D2000C501B4010E9412349B01AC01C301B20160
:104D30000E94F8322B013C01DA94D9CFC701DF91F0
:104D4000CF91FF90EF90DF90CF90BF90AF909F906A
:104D50008F907F906F905F904F900895CF93DF93E7
:104D6000CDB7DEB72A970FB6F894DEBF0FBECDBF22
:104D7000789484B5826084BD84B5816084BD85B536
:104D8000826085BD85B5816085BD80916E00816042
:104D900080936E00109281008091810082608093E8
:104DA00081008091810081608093810080918000EA
:104DB0008160809380008091910082608093910057
:104DC000809191008160809391008091900081603A
:104DD000809390008091C10084608093C100809195
:104DE000C10082608093C1008091C1008160809386
:104DF000C1008091C30081608093C3008091C00096
:104E000082608093C0008091C20081608093C20064
:104E100080917A00846080937A0080917A00826029
:104E200080937A0080917A00816080937A008091EB
:104E30007A00806880937A001092BB0510929A03E2
:104E4000109299038091D70081608093D70080EA07
:104E50008093D80089B5806189BD89B5826089BD9C
:104E600009B400FEFDCF61E070E080E090E00E94B8
:104E7000EB1E8091D8008F7C80618093D800809158
:104E8000E000807F8093E0008091E1008E7E80933F
:104E9000E1008DE08093E200559A209AEEEFFFE763
:104EA000859194918B3F9C4D19F481E080939803F8
:104EB00061E08DE00E94841E479A8FEF9FEF9093F0
:104EC00035068093340684E190E0A0E0B0E0809362
:104ED000D1069093D206A093D306B093D4068AEF5E
:104EE00090E0A0E0B0E08093D5069093D606A09322
:104EF000D706B093D80680ED97E0A0E0B0E08093AD
:104F0000D9069093DA06A093DB06B093DC062091D5
:104F10007F043091800480917D0490917E04281755
:104F2000390731F480E290E090937E0480937D0411
:104F300080917D0490917E049093800480937F04FF
:104F40008130944014F00C947F3080E094E0909392
:104F50001A018093190184E190E090938506809373
:104F6000840600917F0410918004C80109969093F3
:104F7000800480937F042091190130911A01281731
:104F800039074CF46DE771E088E296E00E94B8259D
:104F900011950195110910939E0300939D031E998D
:104FA00038C00E942213809300018823A9F08091C9
:104FB00029018093860680912A0190912B0190937C
:104FC00024018093230180912C0190912D019093D5
:104FD00022018093210120C08091860680932901BF
:104FE000809123019091240190932B0180932A01B9
:104FF000809121019091220190932D0180932C01A9
:1050000067EA71E085E291E00E9487350E94CF1245
:1050100003C081E08093840488E591E00E94F11848
:1050200081E08093AB060E94A019F3E1FF2E18E700
:1050300042EF51E06AE082E00E94D51941E052E07F
:1050400064E185E00E94D51942E152E06CE382E020
:105050000E94D519F092C2060CE30093C30622E029
:1050600030E041EE5AE764E170E487E896E00E94A0
:10507000CC2580918404882351F01093C2060093BC
:10508000C30667E172E087E896E00E94151E0E9461
:10509000271B8111CDCF64EA76E080E090E00E948A
:1050A000EB1EE0EAF3E086E324E0E032F20711F0E1
:1050B0008193FACF1092BD051092BC05109206069E
:1050C000109227061092040611E010930306109226
:1050D000DE0561E082E00E94541E61E083E00E94F0
:1050E000541E8091B9008E7F8093B9008091B900E1
:1050F0008D7F8093B90088E48093B80085E4809325
:10510000BC008AE090E0A0E0B0E08093C6069093F7
:10511000C706A093C806B093C90682E090E0A0E05D
:10512000B0E08093CA069093CB06A093CC06B093D0
:10513000CD0660E070E185E00E9454186FE17CE3E9
:1051400080E00E94541882E08093B80080917A0039
:10515000887F80937A0080917A00866080937A00BD
:10516000479880E18093810010928000109383041F
:1051700080E49FE190938204809381049093870060
:105180008093860081E18093810088E89EE090937F
:105190009C0380939B0310936F00E6E02E2E312C2E
:1051A00066E3962E70E4872E0E948B1B8FB7F894CF
:1051B0004090B6055090B7056090B8057090B9055D
:1051C0008FBF8091B2059091B305A091B405B091C5
:1051D000B50563015201A81AB90ACA0ADB0AD60149
:1051E000C50185369105A105B10508F4DAC38EE540
:1051F00080937C0062E070E080E090E00E94EB1E13
:1052000080917A00806480937A0080917A0086FD94
:10521000FCCF209178008091790030E0382B032E6C
:10522000000C440B550B64EB7BE281E190E00E94A3
:10523000493269017A0183E10E94C01EDC01A701A5
:1052400096010E947D322AE095958795779567951E
:105250002A95D1F70E9414342FE632E143E85AE34D
:105260000E9407356093790470937A0480937B04DD
:1052700090937C0482E10E94C01EDC01A70196018C
:105280000E947D323AE095958795779567953A9596
:10529000D1F70E9414342FE632E143E85AE30E942A
:1052A0000735609375047093760480937704909328
:1052B000780420916D0430916E0440916F045091F8
:1052C00070046091710470917204809173049091E4
:1052D00074040E944F342EE23CE841E554E50E94FC
:1052E0006A3320E030E04AE754E40E9407356093D7
:1052F000AE057093AF058093B0059093B1052091F2
:10530000650430916604409167045091680460918F
:10531000690470916A0480916B0490916C040E94FE
:105320004F3424EA33E946E55FE40E946A3320E023
:1053300030E04AE754E40E9407356093AA05709371
:10534000AB058093AC059093AD0520915D04309141
:105350005E0440915F04509160046091610470911B
:105360006204809163049091640400910F01109194
:1053700010010E944F346B017C01B80180E090E085
:105380000E9412349B01AC01C701B6010E946A332E
:105390006093A6057093A7058093A8059093A9052F
:1053A000209155043091560440915704509158046F
:1053B0006091590470915A0490915B04A0915C042F
:1053C000E0910F01F09110015F01C12CD12CE12C73
:1053D000F12C8701EB83BC82CD82DE82EF82F886DE
:1053E00009871A87C12CD12CE12CF12C00E010E0A8
:1053F000892F9A2F0E9487320E944F346093A20512
:105400007093A3058093A4059093A5056091530420
:105410007091540480E090E00E9412342FE632E153
:1054200043E85AE30E94073560939E0570939F05F9
:105430008093A0059093A10560915104709152044E
:1054400080E090E00E9412342FE632E143E85AE314
:105450000E94073560934D0470934E0480934F046F
:105460009093500420914B0430914C0440912004BF
:10547000842F90E0FC01EE0FFF1FEE5CFE4F608179
:1054800071816217730780F4542FE52FF0E0EE0F5F
:10549000FF1FEE5CFE4F808191818217930790F58C
:1054A0005F5F563091F72EC04423D9F1880F991FC2
:1054B000FC01E05DFE4F808191812817390720F5BE
:1054C00050910101515050930101809185059091B7
:1054D00086058217930720F430938605209385056F
:1054E00051111FC08091850590918605542FE52F9D
:1054F000F0E0EE0FFF1FE05DFE4F608171818617C7
:10550000970750F05093200480E880930101109297
:1055100086051092850505C0515049F71092200468
:10552000F3CF80912004E82FF0E0481329C0409188
:105530009F03E42EF12C870100561C4F929EC00160
:10554000939E900D1124EE0FFF1FEE5CFE4F6081C5
:1055500071810E94FF31892D861BD8018C93C70170
:10556000880F991F8B579B4FFC01318320834F5F1E
:105570004F7740939F03809186068630F1F526C0D1
:1055800055E8C52E54E0D52E60EAE62E63E0F62EEF
:105590008F01000F111F0E5C1E4FB5E8CB16B5E052
:1055A000DB0629F2D6014D915D916D01949EC001FB
:1055B000959E900D1124D8016D917C910E94FF3130
:1055C000892D861BD7018D937D01E7CF40919D05E5
:1055D000242F30E08091490490914A048217930768
:1055E00020F04F5F40939D0508C080914804809350
:1055F000860610929D05109247040E948B1B0E9404
:10560000A01990E1F92E2CE1C22E17E031E1D32E42
:1056100000E249E2E42E80910E01882309F4B5C12D
:10562000E09186068E2F90E08730910508F065C1E5
:10563000FC01E35AFF4F0C94683241E0C301B20110
:105640000E949813C092C2061093C30669E172E0EB
:1056500087E896E00E94151E87E00E94101B1092BA
:10566000C206D092C3066091AE057091AF058091DD
:10567000B0059091B1050E94D01A66E272E087E809
:1056800096E00E94151E8092C206D092C3066091D9
:10569000AA057091AB058091AC059091AD050E9473
:1056A000D01A6BE272E087E896E00E94151E109215
:1056B000C2060093C3066FE272E087E896E00E949C
:1056C000151E609121047091220480E090E00E94F8
:1056D000123420914D0430914E0440914F0450916A
:1056E00050040E94073520E030E04AE754E40E946D
:1056F0006A33AB01BC0122E030E087E896E00E940B
:10570000CC256BED71E087E896E00E94151E1092A3
:10571000C206E092C30666E372E087E896E00E9464
:10572000151E40914D0450914E0460914F047091AC
:10573000500422E030E087E896E00E94CC2569E33F
:1057400072E087E896E00E94151E40912104509176
:10575000220460E070E02AE087E896E00E946F256E
:1057600063EE71E06FC041E0C301B2010E94981383
:10577000C092C2061093C3066EE372E087E896E01B
:105780000E94151E87E00E94101B1092C206D09244
:10579000C3066DED71E087E896E00E94151E8091CA
:1057A0002504909126040E9415146AE472E087E8AB
:1057B00096E00E94151E40914D0450914E04609158
:1057C0004F047091500422E030E087E896E00E9498
:1057D000CC256FE472E087E896E00E94151E1092D7
:1057E000C2060093C30663E572E087E896E00E9474
:1057F000151E609102017091030180E090E00E940B
:1058000012342FE632E143E85AE30E940735AB0138
:10581000BC0122E030E087E896E00E94CC2568E5F4
:1058200072E087E896E00E94151E40912304509193
:10583000240460E070E02AE087E896E00E946F258B
:105840006CE572E087E896E00E94151E85E30E94F1
:10585000101B57C060914B0470914C0480E090E0A5
:105860000E94123420919E0530919F054091A00521
:105870005091A1050E94073520E030E04AE754E44A
:105880000E946A3322E04BED51E017C060914B0457
:1058900070914C0480E090E00E94123420E043EECE
:1058A00051E00BC060919E0570919F058091A0050D
:1058B0009091A10522E046EE51E00E943E1421C0E5
:1058C00080919D0590E02091490430914A04281769
:1058D0003907B8F01092C206F092C30685EE98E040
:1058E0000E94F11867E274E087E896E00E94151EB6
:1058F00088E591E00E94F11804C0C301B2010E9442
:1059000002171092C2068092C30640919E055091E4
:105910009F056091A0057091A10522E030E087E825
:1059200096E00E94CC2560E672E087E896E00E944F
:10593000151E80914B0490914C040E94151463E64F
:1059400072E087E896E00E94151E60914B0470910A
:105950004C0480E090E00E94123420919E0530912A
:105960009F054091A0055091A1050E94073520E0B8
:1059700030E04AE754E40E946A330E94D01A6BED8B
:1059800071E087E896E00E94151E0E94271B811196
:1059900042CE4092B2055092B3056092B405709227
:1059A000B5050E948B1B8091990590919A05A09155
:1059B0009B05B0919C05B301A201481B590B6A0BD2
:1059C0007B0B80910C0190910D01A0E0B0E0841759
:1059D0009507A607B70708F06FC110910B016AE0A1
:1059E00070E080E090E00E94EB1E112309F414C1E6
:1059F00067E672E088E296E00E94151E4091450439
:105A00005091460460E070E02AE088E296E00E944F
:105A10006F2566E772E088E296E00E94151E4091CD
:105A200043045091440460E070E02AE088E296E08C
:105A30000E946F256FE772E088E296E00E94151ED3
:105A40004091A6055091A7056091A8057091A90500
:105A500022E030E088E296E00E94CC2568E872E01F
:105A600088E296E00E94151E609141047091420404
:105A700080E090E00E9412342FE632E143E85AE3DE
:105A80000E940735AB01BC0122E030E088E296E0DD
:105A90000E94CC2566E772E088E296E00E94151E1F
:105AA00060913F047091400480E090E00E941234C5
:105AB0002FE632E143E85AE30E940735AB01BC010F
:105AC00022E030E088E296E00E94CC256FE772E0A9
:105AD00088E296E00E94151E2FE632E143E85AE381
